:020000040800F2
:100000006806002029020008F1030008AD0300087B
:10001000ED030008E3020008C1050008000000002D
:1000200000000000000000000000000015040008AF
:100030001103000800000000F30300080505000894
:10004000430200084302000843020008430200087C
:10005000430200084302000843020008430200086C
:10006000430200084302000843020008430200085C
:10007000430200084302000843020008430200084C
:10008000430200084302000843020008430200083C
:10009000430200084302000843020008430200082C
:1000A000430200084302000843020008430200081C
:1000B000430200084302000843020008430200080C
:1000C00043020008430200084302000843020008FC
:1000D00043020008430200084302000843020008EC
:1000E00043020008430200084302000843020008DC
:1000F00043020008430200084302000843020008CC
:1001000043020008430200084302000843020008BB
:1001100043020008430200084302000843020008AB
:10012000430200084302000843020008430200089B
:10013000430200084302000843020008430200088B
:10014000430200084302000843020008430200087B
:10015000430200084302000843020008430200086B
:10016000430200084302000843020008430200085B
:10017000430200084302000843020008430200084B
:10018000430200084302000800F002F800F03CF8C7
:100190000AA090E8000C82448344AAF10107DA45E2
:1001A00001D100F031F8AFF2090EBAE80F0013F0F8
:1001B000010F18BFFB1A43F0010318479404000015
:1001C000B4040000103A24BF78C878C1FAD85207A6
:1001D00024BF30C830C144BF04680C6070470000C1
:1001E0000023002400250026103A28BF78C1FBD840
:1001F000520728BF30C148BF0B6070471FB500F0E1
:1002000021FA1FBD10B510BD00F031F81146FFF7FF
:10021000F5FF00F0FFF900F04FF803B4FFF7F2FF2D
:1002200003BC00F057F80000094880470948004720
:10023000FEE7FEE7FEE7FEE7FEE7FEE7FEE7FEE796
:10024000FEE7FEE704480549054A064B70470000F3
:1002500041050008890100086800002068060020A8
:10026000680200206802002070477047704775469A
:1002700000F02CF8AE4605006946534620F0070012
:10028000854618B020B5FFF7DDFFBDE820404FF0F0
:1002900000064FF000074FF000084FF0000B21F070
:1002A0000701AC46ACE8C009ACE8C009ACE8C0093D
:1002B000ACE8C0098D46704710B50446AFF3008026
:1002C0002046BDE81040FFF7A8BF00000048704777
:1002D0000800002001491820ABBEFEE726000200FE
:1002E000704700BFFEE700000146072323EA010232
:1002F0001202054B18684FF6FF031840034B1843D2
:100300001043014B186070470CED00E00000FA0547
:100310007047F0B50A4600210023002400BF3DE0ED
:10032000012505FA01F3156805EA03049C4234D15E
:1003300005684F000326BE40B543056015794E00A1
:10034000B5400668354305601579012D02D0157951
:10035000022D16D185684F000326BE40B543856047
:1003600055794E00B540866835438560456801265D
:100370008E40B5434560456896798E40B6B23543A8
:100380004560C5684F000326BE40B543C560D579BA
:100390004E00B540C6683543C560491C1029BFD31F
:1003A000F0BD0A04826170478161704700BFFEE7BB
:1003B0001CB50121082000F01DF84FF4805000907A
:1003C00001208DF8040000208DF805008DF807004D
:1003D0008DF8060069460348FFF79BFF002002499D
:1003E00008601CBD000C0240B081414200BFFEE726
:1003F0007047704729B1064A12680243044B1A60DD
:1004000004E0034A12688243014B1A6070470000FF
:1004100030380240704700000CB500200190009079
:100420003448006840F480303249086000BF3148E9
:10043000006800F4003000900198401C0190009882
:1004400018B90198B0F5A04FF1D12A48006800F41E
:10045000003010B10120009001E0002000900098D1
:10046000012846D123484030006840F0805021499F
:10047000403108602048006840F440401E49086050
:100480001C48083000681B490831086008460068AD
:1004900040F4004008600846006840F4A05008603E
:1004A0001648091F0860081F006840F08070091F87
:1004B000086000BF0F48006800F000700028F9D005
:1004C00040F205700E4908600A480830006820F0C4
:1004D00003000849083108600846006840F002003F
:1004E000086000BF03480830006800F00C000828CE
:1004F000F8D10CBD0038024000700040195440078C
:10050000003C024010B500F04FF810BD4FF0E02164
:10051000096921F004014FF0E022116106490870D9
:1005200000EB4001C1EBC0114FF6FF7202EAC101BE
:10053000024A1180704700000400002006000020DD
:1005400010B51548006840F470001349086013485E
:10055000006840F001001149086000200F4908318F
:1005600008600E4800680E4908400C4908600D48B4
:10057000091D0860081F006820F48020091F08601A
:10058000002006490C310860FFF746FF4FF000607D
:1005900001498039086010BD88ED00E00038024054
:1005A000FFFFF6FE103000240448006820B1034825
:1005B0000068401E014908607047000000000020EC
:1005C00000BFFEE710B50220FFF78EFEA820FFF760
:1005D0009DFFFFF7EDFE10BD01460D4A12884A430C
:1005E0004FF0E0235A6100229A6101221A6100BF94
:1005F0004FF0E022106900F001021AB100F48032DD
:10060000002AF5D000224FF0E0231A619A6170476A
:1006100006000020FFF7D6FF11E04FF48051084894
:10062000FFF7C2FE4FF4FA70FFF7D6FF4FF4805188
:100630000348FFF7B6FE4FF4FA70FFF7CDFFECE783
:10064000000C02404FF04070E1EE100A70470000CD
:10065000700600080000002008000000C401000827
:10066000780600080800002060060000E00100088D
:08067000000000000000000082
:040000050800018965
:00000001FF
