:020000040800F2
:10000000980600203D020008850700084107000807
:10001000810700084D0500085F120008000000007D
:10002000000000000000000000000000B90A000805
:10003000790500080000000001080008D10B000845
:10004000570200085702000857020008570200082C
:10005000570200085702000857020008570200081C
:10006000570200085702000857020008570200080C
:1000700057020008570200085702000857020008FC
:1000800057020008570200085702000857020008EC
:1000900057020008570200085702000857020008DC
:1000A00057020008570200085702000857020008CC
:1000B000610E0008570200085702000857020008A6
:1000C00057020008570200085702000857020008AC
:1000D0005702000857020008AD1000085702000838
:1000E000570200085702000857020008570200088C
:1000F000570200085702000857020008570200087C
:10010000570200085702000857020008570200086B
:10011000570200085702000857020008570200085B
:10012000570200085702000857020008570200084B
:10013000570200085702000857020008570200083B
:10014000570200085702000857020008570200082B
:10015000570200085702000857020008570200081B
:10016000570200085702000857020008570200080B
:1001700057020008570200085702000857020008FB
:10018000570200085702000800F002F800F047F894
:100190000AA090E8000C82448344AAF10107DA45E2
:1001A00001D100F03CF8AFF2090EBAE80F0013F0ED
:1001B000010F18BFFB1A43F001031847701300002A
:1001C00090130000103A24BF78C878C1FAD85207BB
:1001D00024BF30C830C144BF04680C6070470000C1
:1001E0000023002400250026103A28BF78C1FBD840
:1001F000520728BF30C148BF0B607047642900F028
:100200007F80752900F07C80782900F0B58000207F
:1002100070471FB501F070F91FBD10B510BD00F09B
:1002200063F91146FFF7F5FF01F0A2F800F081F93C
:1002300003B4FFF7F2FF03BC01F013F8094880474D
:1002400009480047FEE7FEE7FEE7FEE7FEE7FEE7B8
:10025000FEE7FEE7FEE7FEE704480549054A064BD0
:1002600070470000510C0008890100089800002028
:100270009806002098020020980200207047000095
:100280000FB4044910B503AA029800F0FFF810BC9F
:100290005DF814FB2C0000202DE9F0410E460446C9
:1002A000002020622046E168884730B3252805D029
:1002B000D4E901219047206A401CF2E7E16820461A
:1002C00000278847050018D0A5F14100192802D859
:1002D00020354FF400673246294620462760FFF755
:1002E0008DFF40B1012804D0F61D26F00706083620
:1002F000D8E7361DD6E72846DAE7206ABDE8F08160
:100300002DE9F0410646002410687529314616A5EE
:1003100010D0AFF30080002802DA404213A507E0B6
:1003200031688A0701D512A502E0490704D511A555
:10033000012401E0AFF3008000210A2206F1240726
:1003400009E0B0FBF2FCB0FBF2F302FB1C00303022
:1003500078541846491C0028F3D123462A463046D3
:10036000BDE8F04100F038B8000000002D000000AA
:100370002B0000002000000070B504460D46214609
:100380001068AFF300802188090502D50F4A7A442E
:1003900002E00E4A7A440E32002104F1240305E003
:1003A00000F00F060009965D5E54491C0028F7D145
:1003B00020780023000704D5702D02D009B1022354
:1003C00011322046BDE8704000F006B87011000000
:1003D00070477047704770472DE9F0470D469946C2
:1003E0009246044600F124080168880604D5E069B5
:1003F00021F01001216000E00120A84201DD471B2F
:1004000000E00027A1697A1902EB0900081AA0612F
:100410002078C00602D42046AFF30080002608E012
:10042000D4E901211AF806009047206A401C761C86
:1004300020624E45F4DB2078C0060AD52046AFF393
:10044000008006E0D4E9012130209047206A401C5A
:100450002062381EA7F10107F4DC07E0D4E901218E
:1004600018F805009047206A401C2062281EA5F15C
:100470000105F3DC2046AFF300802078000602D5AA
:100480000220BDE8F0870120FBE70000074B70B5B4
:100490000D467B4400F011F80446284600F020F891
:1004A00010B14FF0FF3070BD204670BDBF0E000090
:1004B00001694A1C02610878704700B58FB0CDE928
:1004C00001310021059105497944CDE90310114618
:1004D0006846FFF7E1FE0FB000BD0000E5FFFFFF3B
:1004E000007B00F080007047754600F02BF8AE46A8
:1004F00005006946534620F00700854618B020B530
:10050000FFF7AAFEBDE820404FF000064FF00007BD
:100510004FF000084FF0000B21F00701AC46ACE8AB
:10052000C009ACE8C009ACE8C009ACE8C0098D4618
:10053000704710B50446AFF300802046BDE8104078
:10054000FFF776BE004870473800002000BFFEE786
:100550000146072323EA01021202054B18684FF6F1
:10056000FF031840034B18431043014B18607047BA
:100570000CED00E00000FA057047000030B10749BB
:10058000096841F48061054A116005E00349096882
:1005900021F48061014A116070470000003C024074
:1005A00030B10749096841F40071054A116005E05E
:1005B0000349096821F40071014A11607047000085
:1005C000003C024030B10749096841F48071054A96
:1005D000116005E00349096821F48071014A116046
:1005E00070470000003C0240014A10707047000054
:1005F000003C0240F0B50A4600210023002400BF61
:100600003DE0012505FA01F3156805EA03049C4263
:1006100034D105684F000326BE40B5430560157907
:100620004E00B5400668354305601579012D02D0AE
:100630001579022D16D185684F000326BE40B543BB
:10064000856055794E00B5408668354385604568BC
:1006500001268E40B5434560456896798E40B6B216
:1006600035434560C5684F000326BE40B543C560AD
:10067000D5794E00B540C6683543C560491C102980
:10068000BFD3F0BDF0B5002300244D07ED0E02FAF4
:1006900005F3CE1000F1200555F826504E07F70E51
:1006A0000F26BE40B543CF1000F1200646F8275074
:1006B000CE1000F1200555F8265045EA0304CE106F
:1006C00000F1200545F82640F0BD000010B50120DE
:1006D000164908600F2000F01FFE00201449C1F8E1
:1006E00094021448007800F08000E8B111480078C6
:1006F00000F03F00104908600846008800040860C8
:10070000084600680D49098808440B4908600846F6
:100710000068AA2148434FF47A71B0FBF1F0064912
:10072000086000200349088010BD00009402404288
:10073000000040423400002030000020360000203D
:1007400000BFFEE71CB50121082000F05BF84FF464
:100750008050009001208DF8040000208DF80500E5
:100760008DF807008DF8060069460348FFF742FF41
:100770000020024908601CBD000C0240B0824142CA
:1007800000BFFEE77047000070B5002100230F2274
:10079000C4781CB3174C246804F4E064C4F5E06426
:1007A000C4F30721C1F10404E3B20A4144789C4038
:1007B000E1B28478144021430C07210E0E4C0578D9
:1007C0006155047804F01F050124AC4005786D11D3
:1007D000AD0005F1E025C5F8004109E0047804F01A
:1007E0001F050124AC40054D0678761145F82640DA
:1007F00070BD00000CED00E000E400E080E100E0EE
:100800007047000029B1064A12680243044B1A607F
:1008100004E0034A12688243014B1A6070470000EB
:100820003038024029B1064A12680243044B1A606C
:1008300004E0034A12688243014B1A6070470000CB
:10084000403802401448006840F001001249086036
:1008500000201149083108600F4800680F4908401E
:100860000D4908600E48091D08600E480A49843188
:1008700008600B481038091D08600748006820F41C
:10088000802005490860002003490C3108600249B6
:100890008C3108607047000000380240FFFFF6EA24
:1008A0001030002400300020F0B500210022002488
:1008B000022500260223324F3F6807F00C0121B1C8
:1008C000042905D0082937D105E02E4F076036E00E
:1008D0002D4F076033E02A4F3F1F3F68C7F3805614
:1008E000274F3F1F3F6807F03F036EB1264FB7FB0E
:1008F000F3F7DFF88CC0ACF1040CDCF800C0CCF3EB
:10090000881C07FB0CF40CE01E4FB7FBF3F7DFF875
:1009100070C0ACF1040CDCF800C0CCF3881C07FB01
:100920000CF4174F3F1F3F68C7F301477F1C7D0042
:10093000B4FBF5F7076002E0124F076000BF00BF8D
:100940000F4F3F6807F0F0010909104F7A5C076804
:10095000D74047600A4F3F6807F4E051890A0B4FC0
:100960007A5C4768D7408760054F3F6807F460416D
:10097000490B064F7A5C4768D740C760F0BD00005E
:10098000083802400024F40000127A001800002009
:1009900010B501460022002300204A11012A02D18D
:1009A0000A4C236808E0022A03D1084C70342368FB
:1009B00002E0064C7434236801F01F0201249440C5
:1009C0001C400CB1012000E0002010BD00380240A6
:1009D0000248006800F00C00704700000838024030
:1009E00001460020034A106820F0F0000843106020
:1009F00070470000083802400021024A1170114679
:100A0000087070470238024001460020034A10680F
:100A100020F4E0500843106070470000083802409E
:100A200001460020034A106820F4604040EAC100FB
:100A3000106070470838024001490866704700009E
:100A40000000474270B5049C41EA82150126C6EBBE
:100A5000530645EA0645054345EA0465014E3560FF
:100A600070BD00000438024001460020034A1068AF
:100A700020F003000843106070470000083802406F
:100A800038B5002000900024002500BF3120FFF77A
:100A90007FFF05460098401C00900098B0F5A04FDD
:100AA00001D0002DF2D03120FFF772FF08B10124F0
:100AB00000E00024204638BD704700000CB500203F
:100AC000019000903448006840F48030324908605A
:100AD00000BF3148006800F4003000900198401CCD
:100AE0000190009818B90198B0F5A04FF1D12A48AB
:100AF000006800F4003010B10120009001E00020F7
:100B000000900098012846D123484030006840F00A
:100B100080502149403108602048006840F440403E
:100B20001E4908601C48083000681B4908310860ED
:100B30000846006840F4004008600846006840F439
:100B4000A05008601648091F0860081F006840F0A0
:100B50008070091F086000BF0F48006800F0007037
:100B60000028F9D040F205700E4908600A480830A4
:100B7000006820F003000849083108600846006852
:100B800040F00200086000BF03480830006800F031
:100B90000C000828F8D10CBD00380240007000405D
:100BA00019544007003C0240042808D14FF0E021CE
:100BB000096941F004014FF0E022116107E04FF0B4
:100BC000E021096921F004014FF0E0221161704732
:100BD00010B500F05FFA10BD08B5FFF733FE012035
:100BE000FFF70AFFFFF74CFF012830D10520FFF780
:100BF000FBFC0120FFF7E6FC0120FFF7D1FC012000
:100C0000FFF7BCFC0020FFF7EBFE4FF4A050FFF70E
:100C1000FBFE4FF48050FFF703FF072002234FF441
:100C2000A87208210090C804FFF70CFF0120FFF70D
:100C300003FF00BF3920FFF7ABFE0028FAD00220E7
:100C4000FFF712FF00BFFFF7C3FE0828FBD108BD66
:100C500010B51548006840F4700013490860134847
:100C6000006840F001001149086000200F49083178
:100C700008600E4800680E4908400C4908600D489D
:100C8000091D0860081F006820F48020091F086003
:100C9000002006490C310860FFF710FF4FF000609C
:100CA00001498039086010BD88ED00E0003802403D
:100CB000FFFFF6FE10300024F0B50C46154600216B
:100CC0000022068C4FF6FE773E400684018B028C94
:100CD0004FF60C7631407E1C06EA03162E43314354
:100CE0004FF6F576324044F0010632430183028428
:100CF000F0BDF0B50C461546002100220026078CF9
:100D00004FF6EF7C07EA0C070784018B028C4FF645
:100D1000FF7707EA041640F6FF4739404FF6FF77A2
:100D200007EA033739434FF6FF7707EA05273943C8
:100D30004FF65F773A4046F010073A43018302844A
:100D4000F0BDF0B50C461546002100220026078CA8
:100D50004FF6FF6C07EA0C070784818B028C4FF675
:100D6000FF7707EA04264FF60C7739404FF6FF77F6
:100D700007EA03172F4339434FF2FF573A4046F42F
:100D800080773A4381830284F0BDF0B50C46154666
:100D9000002100220026078C4EF6FF7C07EA0C0794
:100DA0000784818B028C4FF6FF7707EA043640F602
:100DB000FF4739404FF6FF7707EA052739434FF6DB
:100DC000FF7707EA0337394345F6FF773A4046F4A1
:100DD00080573A4381830284F0BD30B587B0054621
:100DE0000C4600F061FB01210846FFF71BFD029550
:100DF000ADF804400020ADF80C00ADF8060001A9E4
:100E00004FF0804000F004F90420ADF810000020FD
:100E1000ADF812000120ADF814000020ADF8160066
:100E2000ADF8180004A94FF0804000F085F81C20B0
:100E30008DF8000001208DF801008DF802008DF87A
:100E400003006846FFF7A0FC01220521880700F097
:100E5000AAF80121880700F063F807B030BD000050
:100E60004FF08041088A2C49097801F0800100295F
:100E70004DD100F00101D1B12749097801F04001BD
:100E8000A9B12549097801F03F013F290AD122493A
:100E9000098841F08001204A11804FF6FF711F4AF6
:100EA000118004E01C490988491C1B4A118000F08C
:100EB000040161B31849097801F0400199B116495C
:100EC000098841F08001144A11804FF08041896BFC
:100ED000124A11804FF08041098C21F020014FF01F
:100EE0008042118413E000210B4A11800B4A1180CB
:100EF0000949098841F04001074A118000214FF05B
:100F0000804251621146098C41F020011184002178
:100F10004FF08042118270473400002036000020DC
:100F200021B1028842F00102028004E002884FF6FB
:100F3000FE731A400280704770B505460C46208843
:100F400050B92389A28861882846FFF7B5FEE18859
:100F5000284600F031F825E0208804280AD12389AA
:100F6000A28861882846FFF7C4FEE188284600F081
:100F70002CF817E0208808280AD12389A2886188E4
:100F80002846FFF7DEFEE188284600F02BF809E04E
:100F90002389A28861882846FFF7F7FEE188284662
:100FA00000F029F870BD1AB183890B43838102E0F8
:100FB00083898B4383817047028B4FF6F3731A400A
:100FC0000283028B0A4302837047028B4FF2FF3386
:100FD0001A400283028B4FF6FF7303EA01231A4380
:100FE00002837047828B4FF6F3731A408283828BA1
:100FF0000A4382837047828B4FF2FF331A40828309
:10100000828B4FF6FF7303EA01231A4382837047F2
:1010100000220288184B98420ED0184B98420BD0F1
:10102000B0F1804F08D0164B984205D0154B98422E
:1010300002D0154B984204D14FF68F731A404B885B
:101040001A43124B984207D0114B984204D04FF6E6
:10105000FF431A400B891A4302804B68C3620B8816
:101060000385054B984202D0044B984201D18B7AFC
:101070000386012383827047000001400004014081
:101080000004004000080040000C00400010004038
:10109000001400400448006820B103480068401E66
:1010A00001490860704700000000002010B50024CE
:1010B00040F22551054800F034F830B1034800F003
:1010C000C5F8C4B2204600F003F810BD004400404B
:1010D00010B5044600BF8021044800F015F8002830
:1010E000F9D02146014800F0B6F810BD0044004098
:1010F00021B1828942F40052828104E082894DF656
:10110000FF731A408281704702460020B1F5007FCC
:1011100000D100BF13880B400BB1012000E000207C
:10112000704770B50246002400230025002040F6D9
:101130006A16B14200D100BFC1F3421501F01F038E
:10114000012606FA03F3012D02D19689334006E009
:10115000022D02D1168A334001E0968A33400C12E8
:10116000012606FA04F41688344013B10CB10120AC
:1011700000E0002070BD00002DE9FF4705460E4647
:101180000024A14600BFA046B08900B100BF2C8A50
:1011900024F44054F08804432C82AC8941F20C6062
:1011A0008443B08831890843718908430443AC8182
:1011B000AC8A24F44074B0890443AC826846FFF7DB
:1011C00073FB2048854202D01F48854202D1DDF8DA
:1011D0000C9001E0DDF80890A88900F4004040B1CF
:1011E00009EBC90000EB091031684900B0FBF1F7C9
:1011F00007E009EBC90000EB091031688900B0FB7A
:10120000F1F76420B7FBF0F004012009642101FB31
:101210001078A88900F4004040B1322000EBC800EB
:10122000B0FBF1F000F00700044308E0322000EBCF
:1012300008106421B0FBF1F000F00F0004432C8192
:10124000BDE8FF8700100140001401400146888876
:10125000C0F308007047C1F308028280704700BFE6
:10126000FEE700BF704710B50220FFF771F9FFF7E6
:10127000B3FC00F00DF8FFF765FA4FF4E13000F031
:10128000BDF853214FF6FF70FFF7A7FD10BD00001A
:1012900010B50E4800680E49B0FBF1F0C4B26FF013
:1012A0000400FFF781FCE11704EB5171C910094AF2
:1012B00011701046007800EB4001C1EBC0104FF6F2
:1012C000FF7101EAC0000449088010BD040000203D
:1012D00040420F00280000202A00002001460D4A4D
:1012E00012884A434FF0E0235A6100229A6101229A
:1012F0001A6100BF4FF0E022106900F001021AB13C
:1013000000F48032002AF5D000224FF0E0231A6169
:101310009A6170472A00002001460D4A12784A431C
:101320004FF0E0235A6100229A6101221A6100BF46
:101330004FF0E022106900F001021AB100F480328F
:10134000002AF5D000224FF0E0231A619A6170471D
:101350002800002000BF054A128802F04002002A3F
:10136000F9D0C2B2014B1B1D1A80704700440040E7
:10137000FFF779FF0FA0FEF783FF19E0FFF7A6F94B
:10138000114802881148018811A0FEF779FF16481C
:10139000016816A0FEF774FF1748006808B901201D
:1013A00000E00020144908604FF4FA70FFF796FF40
:1013B000E4E70000556C747261736F6E69632043DB
:1013C0006C617373210D0A00360000203400002088
:1013D0005374617475733A2025582C2056616C75CE
:1013E000653A2025750D0A00300000206469733AC3
:1013F0002564206D6D0D0A00B082414210B588B0A1
:10140000044601214804FFF70DFA01210846FFF7C1
:10141000F9F9072202212248FFF734F907220321B4
:101420001F48FFF72FF902208DF81C0000208DF8CF
:101430001E0001208DF81F0002208DF81D000820DD
:10144000069006A91648FFF7D5F80420069006A9CD
:101450001348FFF7CFF802940020ADF80C00ADF868
:101460000E00ADF81000ADF814000820ADF8120021
:1014700002A90C48FFF780FE01210A48FFF738FE59
:1014800026208DF8040000208DF8050001208DF83D
:1014900006008DF8070001A8FFF776F908B010BD27
:1014A00000000240004400401CB501210846FFF73F
:1014B000A9F9012211460F48FFF7E4F80220009035
:1014C0008DF804008DF807008DF80500694609487D
:1014D000FFF790F82020009001208DF804000020F4
:1014E0008DF8060002208DF8050069460148FFF7D7
:1014F00081F81CBD000002404FF04070E1EE100A80
:10150000704730313233343536373839414243440D
:10151000454640305800303132333435363738396B
:101520006162636465664030780000004C15000815
:101530000000002038000000C401000884150008E5
:101540003800002060060000E001000800000000F4
:10155000007A030A000000000000000001020304FA
:101560000607080900000000010203040102030449
:10157000060708090000000000000000000000004D
:041580000000000067
:040000050800018965
:00000001FF
