:020000040800F2
:10000000A809002031020008731800083F0F0008FB
:100010006F18000841090008EB2E000800000000DE
:10002000000000000000000000000000992200080D
:10003000C10B000800000000951D0008F123000816
:100040004B0200084B0200084B0200084B0200085C
:100050004B0200084B0200084B0200084B0200084C
:100060004B0200084B0200084B0200084B0200083C
:100070004B0200084B0200084B0200084B0200082C
:100080004B0200084B0200084B0200084B0200081C
:100090004B0200084B0200084B0200084B0200080C
:1000A0004B0200084B0200084B0200084B020008FC
:1000B0004B020008FD250008152600084B02000829
:1000C0004B0200084B0200084B0200084B020008DC
:1000D0004B0200084B020008392D00084B020008B3
:1000E0004B0200084B0200084B0200084B020008BC
:1000F0004B0200084B0200084B0200084B020008AC
:100100004B0200084B0200084B0200084B0200089B
:100110004B0200084B0200084B0200082D26000885
:100120004B0200084B0200084B0200084B0200087B
:100130004B0200084B0200084B0200084B0200086B
:100140004B0200084B0200084B0200084B0200085B
:100150004B0200084B0200084B0200084B0200084B
:100160004B0200084B0200084B0200084B0200083B
:100170004B0200084B0200084B0200084B0200082B
:100180004B0200084B02000800F002F800F041F8B2
:100190000AA090E8000C82448344AAF10107DA45E2
:1001A00001D100F036F8AFF2090EBAE80F0013F0F3
:1001B000010F18BFFB1A43F001031847E88600003F
:1001C00008870000103A24BF78C878C1FAD85207CF
:1001D00024BF30C830C144BF04680C6070470000C1
:1001E0000023002400250026103A28BF78C1FBD840
:1001F000520728BF30C148BF0B607047642900F028
:10020000B180002070471FB505F0F0F81FBD10B594
:1002100010BD00F06DFA1146FFF7F5FF04F044F849
:1002200000F08BFA03B4FFF7F2FF03BC02F05FFEAD
:100230000948804709480047FEE7FEE7FEE7FEE77A
:10024000FEE7FEE7FEE7FEE7FEE7FEE704480549B6
:10025000054A064B70470000712400088901000818
:10026000A8030020A8090020A8050020A805002058
:10027000704710B54C1084EA530404D54042C1F1D4
:10028000000138BF491E1B4204D55242C3F100038E
:1002900038BF5B1E00F0DAF814F0804F04D0404203
:1002A000C1F1000138BF491E14F0004F04D0524282
:1002B000C3F1000338BF5B1E10BD00000FB404493A
:1002C00010B503AA029800F0AFF910BC5DF814FB5A
:1002D000600000200FB41CB5074B06AA7B4469469A
:1002E0000090059800F087F90020694600F096F923
:1002F0001CBC5DF814FB00003D0300002DE9F0413B
:100300000E460446002020622046E168884730B34C
:10031000252805D0D4E901219047206A401CF2E746
:10032000E168204600278847050018D0A5F1410064
:10033000192802D820354FF4006732462946204656
:100340002760FFF75BFF40B1012804D0F61D26F0BF
:1003500007060836D8E7361DD6E72846DAE7206ACA
:10036000BDE8F0812DE9F0410646002410687529AA
:10037000314616A510D0AFF30080002802DA4042C3
:1003800013A507E031688A0701D512A502E04907E5
:1003900004D511A5012401E0AFF3008000210A2259
:1003A00006F1240709E0B0FBF2FCB0FBF2F302FB1C
:1003B0001C00303078541846491C0028F3D12346DD
:1003C0002A463046BDE8F04100F0B7B80000000012
:1003D0002D0000002B0000002000000040EA010377
:1003E00010B59B070FD1042A0DD310C808C9121FDE
:1003F0009C42F8D020BA19BA884201D9012010BD18
:100400004FF0FF3010BD1AB1D30703D0521C07E0E4
:10041000002010BD10F8013B11F8014B1B1B07D148
:1004200010F8013B11F8014B1B1B01D1921EF1D1B9
:10043000184610BD02F0FF0343EA032242EA0242DB
:1004400000F006B9704770477047704753EA020CD6
:1004500000F069802DE9F04B4FF00006002B1FBF24
:10046000B3FA83F503FA05F424FA05F65E4012BFE9
:100470001643B2FA82F502FA05F4C5F120051EBF53
:1004800022FA05FC44EA0C04203556EA044C4FEAF3
:10049000144418BF641C4FF000084FF0000990424C
:1004A00071EB030C39D3002919BFB1FA81F701FAB6
:1004B00007F6B0FA80F700FA07F6C7F120071EBF6B
:1004C00020FA07FC46EA0C062037B6FBF4FCA7EB43
:1004D0000507103F07F01F0BCBF120060CFA0BFBB2
:1004E0002CFA06F644BFB3460026202FA4BF5E4672
:1004F0004FF0000B5BEA060C08BF4FF0010B19EB45
:100500000B09ABFB027C48EB0608C01B06FB02CCC8
:100510000BFB03CC71EB0C01C1E70B4602464146D5
:100520004846BDE8F08B13B54FF000004FF00001D6
:10053000AFF30080BDE81C4070472DE9F0470D4641
:1005400099469246044600F124080168880604D5BD
:10055000E06921F01001216000E00120A84201DDE6
:10056000471B00E00027A1697A1902EB0900081A6D
:10057000A0612078C00602D42046AFF30080002698
:1005800008E0D4E901211AF806009047206A401CCF
:10059000761C20624E45F4DB2078C0060AD5204642
:1005A000AFF3008006E0D4E9012130209047206AB3
:1005B000401C2062381EA7F10107F4DC07E0D4E9F3
:1005C000012118F805009047206A401C2062281E6F
:1005D000A5F10105F3DC2046AFF30080207800068A
:1005E00002D50220BDE8F0870120FBE701694A1C23
:1005F00002610878704700B58FB0CDE90131002164
:10060000059105497944CDE9031011466846FFF785
:1006100075FE0FB000BD0000E5FFFFFF0A6802F89D
:10062000010B0A6070470000074B70B50D467B4414
:10063000FFF7E1FF0446284600F02AF810B14FF01A
:10064000FF3070BD204670BDB33400004FF0000293
:100650000429C0F0128010F0030C00F01F80CCF1D0
:10066000040CBCF1020F18BF00F8012BA8BF20F842
:10067000022BA1EB0C0100F011B85FEAC17C24BF92
:1006800000F8012B00F8012B48BF00F8012B704740
:10069000007B00F0800070474FF0000200B5134669
:1006A00094469646203922BFA0E80C50A0E80C5092
:1006B000B1F12001BFF4F7AF090728BFA0E80C5043
:1006C00048BF0CC05DF804EB890028BF40F8042B3C
:1006D00008BF704748BF20F8022B11F0804F18BFA9
:1006E00000F8012B704700000048704748030020C5
:1006F0007546FFF7F9FFAE4605006946534620F000
:100700000700854618B020B5FFF7A0FDBDE82040E2
:100710004FF000064FF000074FF000084FF0000BBD
:1007200021F00701AC46ACE8C009ACE8C009ACE870
:10073000C009ACE8C0098D46704710B50446AFF358
:1007400000802046BDE81040FFF76CBD21B18268F3
:1007500042F00102826003E0826822F001028260BE
:10076000704700000021084A1168084A1140D0E98A
:1007700000231A4383681A43C3681A431143044A87
:10078000C2F804137047000004230140E030FCFF6E
:100790000020014010B50121080201F03DFB0021BD
:1007A0004FF4807001F038FB10BD000030B50246F8
:1007B000002000235068104C20400D790C6844EA5A
:1007C00005242043506090680C4C2040D1E903542C
:1007D0002C438D682C434D7944EA450420439060B6
:1007E000D06A20F470000C7D641EE4B2234340EA1A
:1007F0000350D06230BD0000FFFEFFFCFDF7FFC0DC
:100800001CB50121042001F0C7FA4FF4707000906C
:1008100002208DF8040000208DF8060002208DF8DB
:1008200005006946014800F011FB1CBD00080240AC
:1008300030B589B005460C460121022001F0DCFAF2
:10084000234801F063FF681E0790ADF818400020B0
:10085000ADF81A00ADF8200006A91D4802F014FA00
:100860006020ADF804000020ADF8100003900120D6
:10087000ADF8060001A9164802F08CF801A9144849
:1008800002F0D0F801A9124802F02CF901A9104891
:1008900002F082F901210E4801F028FF08210C48DE
:1008A00002F0B6F808210A4802F00EF908210848BB
:1008B00002F068F90821064802F0AAF9012104486B
:1008C00001F0F6FE0121024801F004FF09B030BD3D
:1008D0000004014000B58DB00121084601F05CFA2A
:1008E0000121080201F088FA10200B9003208DF8F6
:1008F00030000BA9104800F0A9FA002001904FF435
:100900000030029001A8FFF72DFFFFF743FF002002
:100910008DF818008DF819000890099001208DF8C5
:10092000280005A90548FFF741FF01210348FFF70B
:100930000DFF0DB000BD000000000240002001408E
:1009400000BFFEE70146072323EA01021202054B1E
:1009500018684FF6FF031840034B18431043014B30
:10096000186070470CED00E00000FA0538B5002073
:1009700000906B4601227521682003F0EFFB33A045
:10098000FFF79CFC9DF8000068281DD000BF00BF49
:1009900000BF00BF00BFBFF34F8F00BF00BF00BF4D
:1009A0003448006800F4E06033490843001D3149D1
:1009B000086000BF00BF00BFBFF34F8F00BF00BF84
:1009C00000BF00E000BFFDE703F0D4FD00283CD1EC
:1009D000782004F079FB10B928A0FFF76FFC78208D
:1009E00003F0AEFC10B92EA0FFF768FCC82004F09D
:1009F0001DFB10B934A0FFF761FC02F0E5FC10B953
:100A00003BA0FFF75BFC474803F013FC044602F0F1
:100A10004FFE10B944A0FFF751FC40F2731002F0F2
:100A20007BFB10B94AA0FFF749FCC82002F070FD1B
:100A300010B951A0FFF742FC04F0EEFB012004F0D6
:100A4000F1F910B955A0FFF739FC38BD5265616462
:100A5000696E67204D5055363035302057484F5F0E
:100A6000414D5F492072656769737465722E2E2E41
:100A70002E0000000CED00E00000FA056D70755FBF
:100A80007365745F73656E736F7220636F6D706CE6
:100A9000657465202E2E2E2E2E2E0D0A00000000CD
:100AA0006D70755F636F6E6669677572655F6669A5
:100AB000666F20636F6D706C657465202E2E2E2E10
:100AC0002E2E0D0A000000006D70755F7365745F57
:100AD00073616D706C655F7261746520636F6D70BA
:100AE0006C657465202E2E2E2E2E2E0D0A00000011
:100AF000646D705F6C6F61645F6D6F74696F6E5F62
:100B00006472697665725F6669726D77617265207D
:100B1000636F6D706C657465202E2E2E2E2E2E0D3B
:100B20000A00000090000020646D705F7365745FC0
:100B30006F7269656E746174696F6E20636F6D703A
:100B40006C657465202E2E2E2E2E2E0D0A000000B0
:100B5000646D705F656E61626C655F66656174751A
:100B6000726520636F6D706C657465202E2E2E2E5D
:100B70002E2E0D0A00000000646D705F7365745FB7
:100B80006669666F5F7261746520636F6D706C6516
:100B90007465202E2E2E2E2E2E0D0A006D70755F80
:100BA0007365745F646D705F737461746520636FE7
:100BB0006D706C657465202E2E2E2E2E2E0D0A0063
:100BC00070470000002123498279002A3AD00A4662
:100BD000126803689A430B461A600A1D126803687C
:100BE0009A430B1D1A60027911440A6803681A437C
:100BF0000A60184A0832126803689A43154B083392
:100C00001A601A1D126803689A43124B0C331A605B
:100C10004279102A0ED11A1F126803681A430D4B2D
:100C200008331A601A1D126803681A43094B0C3303
:100C30001A600DE00749427911440A6803681A43B3
:100C40000A6005E0027911440A6803689A430A6061
:100C500070470000003C014000B589B0012102202E
:100C600001F0AAF80121084601F096F802220621B7
:100C7000264800F033F902220721244800F02EF91B
:100C8000C020019000208DF80B0002208DF8080094
:100C90008DF8090000208DF80A0001A91B4800F01A
:100CA000D5F806A802F032F80020ADF818004FF68B
:100CB000FF7007900020ADF82000ADF81A0006A9DB
:100CC000134801F0E1FF00231A460321104801F008
:100CD000E5FD03A801F04BFE0A20ADF8140003A9BE
:100CE0000B4801F00DFE0121094801F0EDFC012245
:100CF0001146074801F044FE0021054801F095FF28
:100D00000121034801F0E6FC09B000BD00000240EB
:100D10000004004000B589B00121042001F04CF826
:100D20000121022001F038F802220621274800F0B4
:100D3000D5F802220721254800F0D0F8C020019004
:100D400002208DF8080000208DF80B0002208DF89D
:100D5000090000208DF80A0001A91C4800F076F86F
:100D600006A801F0D3FF0020ADF818004FF6FF7081
:100D700007900020ADF82000ADF81A0006A914482D
:100D800001F082FF00231A460321114801F086FD7D
:100D900003A801F0ECFD0A20ADF8140003A90C48EB
:100DA00001F0AEFD01210A4801F08EFC012211463E
:100DB000074801F0E5FD0021054801F036FF01215B
:100DC000034801F087FC09B000BD000000040240A8
:100DD0000008004030B10749096841F48061054AC4
:100DE000116005E00349096821F48061014A11603E
:100DF00070470000003C024030B10749096841F4E7
:100E00000071054A116005E00349096821F4007189
:100E1000014A116070470000003C024030B10749B0
:100E2000096841F48071054A116005E003490968C9
:100E300021F48071014A116070470000003C0240BB
:100E4000014A107070470000003C0240F0B50A46AD
:100E500000210023002400BF3DE0012505FA01F335
:100E6000156805EA03049C4234D105684F00032647
:100E7000BE40B543056015794E00B5400668354360
:100E800005601579012D02D01579022D16D18568DE
:100E90004F000326BE40B543856055794E00B540EE
:100EA000866835438560456801268E40B5434560B8
:100EB000456896798E40B6B235434560C5684F00A7
:100EC0000326BE40B543C560D5794E00B540C6681F
:100ED0003543C560491C1029BFD3F0BDF0B50023D0
:100EE00000244D07ED0E02FA05F3CE1000F12005A7
:100EF00055F826504E07F70E0F26BE40B543CF10CB
:100F000000F1200646F82750CE1000F1200555F8D4
:100F1000265045EA0304CE1000F1200545F826408E
:100F2000F0BD0246002013690B400BB1012000E028
:100F3000002070470A04826170478161704700BFDA
:100F4000FEE770B502460025002300240026938AA0
:100F500003F0020010B923F0100008B1148B01E077
:100F6000002070BD240443EA040020F07F4505EA18
:100F70000100884201D1012600E000263046F0E75A
:100F800021B1028842F00102028004E002884FF69B
:100F9000FE731A400280704710B50446134884421D
:100FA00009D10121480500F017FF00214FF400107E
:100FB00000F012FF18E00E48844209D10121880593
:100FC00000F00AFF00214FF4800000F005FF0BE065
:100FD0000848844208D10121C80500F0FDFE002127
:100FE0004FF4000000F0F8FE10BD00000054004077
:100FF00000580040005C004021B1028842F4807239
:10100000028004E002884FF6FF631A4002807047B6
:1010100021B1028842F40072028004E002884FF697
:10102000FF531A40028070472DE9FF4704460D46E2
:101030000026B1460427DFF8CC80A6884FF6C070A2
:101040000640684600F02AFFDDF808802E48B8FB0D
:10105000F0F01FFA80F946EA0906A68020884FF6CC
:10106000FE710840208000262849286888420CD854
:1010700028684000B8FBF0F087B2042F00DA04279C
:101080003E4309F10100208427E0E8884BF6FF7118
:10109000884206D1286800EB4000B8FBF0F087B228
:1010A00009E0286800EBC00101EB0010B8FBF0F08C
:1010B00087B247F48047C7F30B0008B947F0010730
:1010C00047F4004006434FF4967009FB00F04FF4DC
:1010D0007A7190FBF1F0401C2084A683208840F0B8
:1010E0000100208026884FF6F5300640A8886989DF
:1010F000084306432680A889298908432081BDE842
:10110000FF87000000127A0040420F00A086010015
:1011100070B505460E46002400F052F9284600F04E
:1011200011F9641C00F0CEF9304600F00BF9641C94
:1011300000F0C8F900F044F9691CC8B200F002F9E7
:10114000641C00F0BFF9002000F0BCF8044600F079
:1011500077F9204670BD12B141F0010101E001F0C4
:10116000FE010182704701827047000070B504469D
:101170000D4601211348FFF73FFF1349114800F0C6
:101180008FF9002278210F48FFF7E5FF0F490D483E
:1011900000F086F921460B48FFF7E5FF0B49891E51
:1011A000084800F07DF929460648FFF7DCFF0749AB
:1011B000891C044800F074F901210248FFF728FF58
:1011C00070BD0000005400400100030082000700D1
:1011D00010B50020144908601448006820F440103D
:1011E000124908600846006840F480100860081D35
:1011F000006820F48060091D08600846006840F41B
:101200008060086000200A49C1F8A802012001F0AE
:1012100047FF01200449086001F042FF0020044913
:10122000C1F8AC0210BD0000AC8240420004024094
:10123000008040421CB50121022000F0ADFD4FF4BA
:101240004060009000208DF8060001208DF8040019
:1012500002208DF8050069460148FFF7F7FD1CBD27
:101260000004024010B500201349086013480068CC
:1012700020F44010114908600846006840F48010CE
:101280000860081D006820F48060091D0860084699
:10129000006840F48060086001200949C1F8A80294
:1012A00001F0FEFE01200449086001F0F9FE002073
:1012B0000349C1F8AC0210BDAC82404200040240B8
:1012C0000080404270B5054600241B48006820F4A9
:1012D00040101949086008460068086016480C303C
:1012E000006820F4401014490C310860084600687A
:1012F0000860002616E0002010490860022001F076
:10130000CFFE01200E49C1F8AC026006040E0B4866
:101310008438006808B1601CC4B2022001F0C0FE2D
:10132000701CC6B2082EE6DB15B1FFF751FF01E0D5
:10133000FFF798FF204670BD00040240AC82404297
:101340000080404270B504461A48006820F44010FE
:10135000184908600846006840F480100860081DBD
:10136000006820F48060091D08600846006840F4A9
:1013700080600860002010490860002516E0E00940
:101380000D49091F08606006040E012001F088FE67
:1013900001200A49C1F8AC0201F082FE0020064992
:1013A0000860012001F07CFE681CC5B2082DE6DB58
:1013B00070BD000000040240AC8240420080404208
:1013C00010B51C48006820F440101A49086008460F
:1013D000006840F480100860081D006820F48060F8
:1013E000091D08600846006840F48060086001201C
:1013F000114908601148D0F8280208B9002010BD32
:1014000001200D49091D086001F04AFE00200B492A
:10141000C1F8A80208488038006808B10020EEE74B
:10142000012001F03DFE00200349091D0860012054
:10143000E5E7000000040240A882404200804042EC
:1014400010B51448006820F440101249086008469E
:10145000006840F480100860081D006820F4806077
:10146000091D08600846006840F48060086000209C
:10147000094908600949C1F8A802012001F010FEDD
:101480000120054908600549C1F8A80201F008FEDD
:1014900010BD000000040240AC8240420080404287
:1014A00070B505460E464FF47A7402E0641E04B926
:1014B00005E031462846FFF744FD0128F6D100BF7C
:1014C00070BD000010B500241A48006820F44010D8
:1014D0001849086008460068086016480C30006823
:1014E00020F4401013490C31086008460068086079
:1014F00001201149086001F0D3FD01200F49C1F816
:10150000AC0201F0CDFD0AE0601CC4B2322C03DD58
:10151000FFF796FF002010BD012001F0C1FD064835
:10152000803800680028EFD10349091D08600120B8
:10153000F1E7000000040240A882404200804042DF
:1015400070B505460E46144631462846FFF7E0FDC5
:101550002070012070BDF8B506460F4614461D46A2
:101560006A4639463046FFF7EBFF2DB10120A04017
:101570009DF80010084305E00120A0409DF80010F0
:1015800021EA0000C0B200909DF8002039463046A4
:1015900000F036F8F8BD2DE9F843074688461446B2
:1015A0001D46089E6A4641463846FFF7C9FF28B3E4
:1015B000601CFF2101FA00F0C4F108012944491E12
:1015C000FF220A41104300F0FF09C5F1080006FAA6
:1015D00000F0C6B2C4F1070006419DF8000000EA21
:1015E000090000909DF80000304300909DF8002015
:1015F0004146384600F004F8BDE8F8830020FBE7D8
:1016000037B504460D4602AB01222946204600F0BC
:1016100001F83EBD2DE9F04180460D4616461F46B5
:101620000024FFF7CDFE4046FFF78CFEFFF74AFF90
:101630002846FFF787FEFFF745FF00BF06E0385D4D
:10164000FFF780FEFFF73EFF601CC4B2B442F6DB3A
:10165000FFF7F6FE0120BDE8F08100001CB5012176
:10166000084600F099FB4FF40050009001208DF8DF
:10167000040000208DF806008DF807008DF80500A5
:1016800069460348FFF7E2FB0020024908601CBDE1
:1016900000000240AC0240421CB50121082000F0CD
:1016A0007BFB4FF48050009001208DF80400002057
:1016B0008DF805008DF807008DF80600694603488F
:1016C000FFF7C4FB0020024908601CBD000C02406B
:1016D000B08241421CB50121084600F05DFB0120AB
:1016E000009000208DF8040001208DF80700694665
:1016F0000148FFF7ABFB1CBD0000024010B50446DB
:1017000000F022F801280BD1601C0D490988B1EBCB
:10171000400F0ADA0A480088401C0949088004E0A2
:1017200000200749088007490880054800880228EA
:1017300003D101200349088010BD0020FCE7000010
:10174000A2000020A000002010B501210348FFF7EF
:10175000E8FB08B9012010BD0020FCE700000240B2
:1017600000B585B00121880300F046FB012102206D
:1017700000F012FB0820039000208DF810000120DB
:101780008DF8130003A91248FFF760FB0321012025
:1017900000F084FD0820019000208DF808000C2046
:1017A0008DF8090001208DF80A0001A8FFF70AFA58
:1017B00009208DF8000002208DF8010001208DF82D
:1017C00002008DF80300684600F054F805B000BD33
:1017D0000004024010B5022000F010F8032000F0D1
:1017E00021F8002000F014F8002000F037F8002065
:1017F00000F02BF8002000F01FF810BD38B50446AB
:10180000032302226B21D0200094FFF7C4FE38BDD1
:1018100038B50446022304221C21D0200094FFF78F
:10182000BAFE38BD38B50446022304221B21D0205D
:101830000094FFF7B0FE38BD10B5044623460122E0
:101840003721D020FFF787FE10BD10B50446234690
:1018500005226A21D020FFF77EFE10BD10B5044698
:10186000234606226B21D020FFF775FE10BD00BF76
:10187000FEE7704770B5002100230F22C4781CB327
:10188000174C246804F4E064C4F5E064C4F3072151
:10189000C1F10404E3B20A4144789C40E1B2847887
:1018A000144021430C07210E0E4C05786155047835
:1018B00004F01F050124AC4005786D11AD0005F161
:1018C000E025C5F8004109E0047804F01F05012473
:1018D000AC40054D0678761145F8264070BD0000F5
:1018E0000CED00E000E400E080E100E010B5002035
:1018F00000F02CFC10BDF8B507460C4615461E46F8
:10190000002C0CDD032C0ADC601E00EB800040067E
:10191000020E2B4600213846009600F001F8F8BD73
:101920002DE9F04107460C4615461E46DDF81880A5
:101930000EB1FFF7DBFF2946204600F017FC01221D
:101940000549384600F06CFCB8F1000F01D000F0FA
:10195000E3F8BDE8F0810000A400002000B587B0E6
:101960000121480500F028FA0121022000F014FAB4
:10197000042208211F48FFF7B1FA042209211D485B
:10198000FFF7ACFA02208DF818004FF44070059074
:1019900002208DF8190001208DF81A0005A91548BC
:1019A000FFF754FA1448FFF7F7FA4FF48060ADF8E8
:1019B0000E000001ADF81000104801904BF6FF70CA
:1019C000ADF80A000020ADF808001020ADF80C00BA
:1019D00001A90948FFF728FB01210748FFF7D0FAC2
:1019E00000F018F801231A46194605A0FFF783FFF7
:1019F00007B000BD0004024000540040801A0600F9
:101A00006F6C656420696E697420737563636573B8
:101A10007321000010B5642001F024FBAE210020EA
:101A2000FFF7A4FBA6210020FFF7A0FBAE210020BA
:101A3000FFF79CFBD5210020FFF798FB80210020B9
:101A4000FFF794FBA8210020FFF790FB1F21002047
:101A5000FFF78CFBD3210020FFF788FB002108460D
:101A6000FFF784FB40210020FFF780FB8D21002041
:101A7000FFF77CFB14210020FFF778FB20210020DA
:101A8000FFF774FB02210020FFF770FBA12100206B
:101A9000FFF76CFBC8210020FFF768FBDA2100206C
:101AA000FFF764FB02210020FFF760FB812100208B
:101AB000FFF75CFBCF210020FFF758FBD921002066
:101AC000FFF754FBF1210020FFF750FBDB21002042
:101AD000FFF74CFB40210020FFF748FB2E210020A0
:101AE000FFF744FBA4210020FFF740FBA6210020C4
:101AF000FFF73CFBAF210020FFF738FB002000F090
:101B000025FB00F0A3FB002002490880488001204B
:101B1000487110BDBC00002010B500F097FB10BD4F
:101B200038B5044601200090002025494870012066
:101B300000903DE0BDF80000204028B14FF4004186
:101B40002048FFF7FAF904E04FF400411D48FFF781
:101B5000F1F9052001F0A4FA4FF400511948FFF7FC
:101B6000ECF9052001F09CFA4FF400511548FFF7FD
:101B7000E1F9052001F094FA4FF400511148FFF704
:101B8000DCF9052001F08CFA4FF480410D48FFF795
:101B9000C8F930B10A484078BDF800100843084938
:101BA0004870BDF800004FF6FF7101EA4000009058
:101BB000BDF80000FF28BDDD192001F071FA38BD25
:101BC0002C0300200004024010B54FF4805115484A
:101BD000FFF7B0F9102001F063FA0120FFF7A0FF32
:101BE0004320FFF79DFF0020FFF79AFF0120FFF73A
:101BF00097FF0020FFF794FF0020FFF791FF0020E0
:101C0000FFF78EFF0020FFF78BFF0020FFF788FF14
:101C10004FF480510348FFF790F9102001F040FA8B
:101C200010BD00000004024010B54FF4805115486B
:101C3000FFF780F9102001F033FA0120FFF770FF61
:101C40004320FFF76DFF0020FFF76AFF0020FFF73A
:101C500067FF5A20FFF764FF5A20FFF761FF5A2001
:101C6000FFF75EFF5A20FFF75BFF5A20FFF758FF90
:101C70004FF480510348FFF760F9102001F010FA8B
:101C800010BD0000000402401CB50121022000F03C
:101C900083F84FF48040009000208DF8040001206C
:101CA0008DF8070069460B48FFF7D0F84FF4304035
:101CB000009001208DF8040002208DF8050000201E
:101CC0008DF806008DF8070069460248FFF7BEF858
:101CD0001CBD00000004024010B500F00BF800F03D
:101CE00009F800F007F8FFF76FFF00F027F8FFF79B
:101CF0009BFF10BD10B54FF480510F48FFF71AF944
:101D0000102001F0CDF90120FFF70AFF4220FFF774
:101D100007FF0020FFF704FF0020FFF701FF00206E
:101D2000FFF7FEFE4FF480510348FFF706F910203D
:101D300001F0B6F910BD00000004024010B54FF4E8
:101D400080511348FFF7F6F80120FFF7E9FE442021
:101D5000FFF7E6FE0020FFF7E3FE0020FFF7E0FEBE
:101D6000EE20FFF7DDFE0020FFF7DAFE0020FFF790
:101D7000D7FE0020FFF7D4FE0020FFF7D1FE4FF47E
:101D800080510348FFF7D9F8102001F089F910BD00
:101D9000000402407047000029B1064A126802435D
:101DA000044B1A6004E0034A12688243014B1A6034
:101DB000704700003038024029B1064A12680243D9
:101DC000044B1A6004E0034A12688243014B1A6014
:101DD000704700004038024029B1064A12680243A9
:101DE000044B1A6004E0034A12688243014B1A60F4
:101DF000704700002038024029B1064A12680243A9
:101E0000044B1A6004E0034A12688243014B1A60D3
:101E1000704700004438024029B1064A1268024364
:101E2000044B1A6004E0034A12688243014B1A60B3
:101E300070470000243802401448006840F0010058
:101E40001249086000201149083108600F480068F5
:101E50000F4908400D4908600E48091D08600E48EA
:101E60000A49843108600B481038091D086007488A
:101E7000006820F4802005490860002003490C31E7
:101E8000086002498C310860704700000038024049
:101E9000FFFFF6EA1030002400300020F0B50021EA
:101EA00000220024022500260223324F3F6807F05B
:101EB0000C0121B1042905D0082937D105E02E4FA6
:101EC000076036E02D4F076033E02A4F3F1F3F6821
:101ED000C7F38056274F3F1F3F6807F03F036EB19F
:101EE000264FB7FBF3F7DFF88CC0ACF1040CDCF83D
:101EF00000C0CCF3881C07FB0CF40CE01E4FB7FBB2
:101F0000F3F7DFF870C0ACF1040CDCF800C0CCF3E0
:101F1000881C07FB0CF4174F3F1F3F68C7F30147AE
:101F20007F1C7D00B4FBF5F7076002E0124F0760ED
:101F300000BF00BF0F4F3F6807F0F0010909104FC5
:101F40007A5C0768D74047600A4F3F6807F4E05162
:101F5000890A0B4F7A5C4768D7408760054F3F6816
:101F600007F46041490B064F7A5C4768D740C76069
:101F7000F0BD0000083802400024F40000127A008E
:101F80004C00002010B501460022002300204A1119
:101F9000012A02D10A4C236808E0022A03D1084C26
:101FA0007034236802E0064C7434236801F01F0289
:101FB000012494401C400CB1012000E0002010BD21
:101FC000003802400248006800F00C007047000032
:101FD0000838024001460020034A106820F0F00053
:101FE0000843106070470000083802400021024A90
:101FF00011701146087070470238024001460020F7
:10200000034A106820F4E050084310607047000055
:102010000838024001460020034A106820F460405E
:1020200040EAC10010607047083802400149086664
:10203000704700000000474270B5049C41EA8215D9
:102040000126C6EB530645EA0645054345EA046505
:10205000014E356070BD000004380240014600208A
:10206000034A106820F00300084310607047000026
:102070000838024038B5002000900024002500BF39
:102080003120FFF77FFF05460098401C0090009824
:10209000B0F5A04F01D0002DF2D03120FFF772FF34
:1020A00008B1012400E00024204638BDF0B5034605
:1020B0001446802B01DA202900DBF0BD214800798D
:1020C00020B10CB9012000E000200446012C1CD1F5
:1020D000CD1701EB5575ED1003EBC5151A4E755D67
:1020E0000A46CE1701EB5676F610A1EBC60701267D
:1020F000BE403543EEB20846CD1701EB5575ED10E5
:1021000003EBC515104F7E551AE0CD1701EB557541
:10211000ED1003EBC5150C4E755D0A46CE1701EBAD
:102120005676F610A1EBC6070126BE40B543084619
:10213000CE1701EB5676F61003EBC616024FBD55CF
:1021400000BFBAE7BC0000202C01002010B50446F7
:102150000CB9002000E0FF2002464FF40071024855
:10216000FEF768F910BD00002C010020014A108024
:1021700051807047BC0000202DE9F04307460C4613
:1021800090462648008821780844802805DA2348AC
:10219000408861780844202802DB0020BDE8F083F5
:1021A000002530E0A7F12000617800FB0150616854
:1021B00031F81090002622E009FA06F000F4004001
:1021C00058B1164A52882A4491B2144A12883244AD
:1021D00090B24246FFF76AFF10E0B8F1000F01D15C
:1021E000012300E000231A460C4B5B882B4499B274
:1021F0000A4B1B88334498B2FFF758FF761C2078AF
:10220000B042D9D86D1C6078A842CBD8034800886A
:1022100021780844014908803846BFE7BC00002007
:1022200070B504460D4616460AE020783246294627
:10223000FFF7A2FF2178884201D0207870BD641C8E
:1022400020780028F1D12078F8E7000070B500244C
:102250001DE004F1B000C1B20020FEF787FF0021AD
:102260000846FEF783FF10210020FEF77FFF0025C0
:1022700009E0802000FB0450064A115C4020FEF774
:1022800075FF681CC5B2802DF3DB601CC4B2082C3E
:10229000DFDB70BD2C0100207047000030B500224C
:1022A0008B071C0F0F2303FA04F20B4B8C1053F80F
:1022B00024309343084C8D1044F8253023468C106D
:1022C00053F824308C07240F00FA04F42343024C03
:1022D0008D1044F8253030BD083801400CB5002081
:1022E000019000903448006840F480303249086022
:1022F00000BF3148006800F4003000900198401C95
:102300000190009818B90198B0F5A04FF1D12A4872
:10231000006800F4003010B10120009001E00020BE
:1023200000900098012846D123484030006840F0D2
:1023300080502149403108602048006840F4404006
:102340001E4908601C48083000681B4908310860B5
:102350000846006840F4004008600846006840F401
:10236000A05008601648091F0860081F006840F068
:102370008070091F086000BF0F48006800F00070FF
:102380000028F9D040F205700E4908600A4808306C
:10239000006820F00300084908310860084600681A
:1023A00040F00200086000BF03480830006800F0F9
:1023B0000C000828F8D10CBD003802400070004025
:1023C00019544007003C0240042808D14FF0E02196
:1023D000096941F004014FF0E022116107E04FF07C
:1023E000E021096921F004014FF0E02211617047FA
:1023F00010B500F095FC10BD08B5FFF71DFD0120DC
:10240000FFF7F4FDFFF736FE012830D10520FEF777
:1024100017FD0120FEF702FD0120FEF7EDFC012073
:10242000FEF7D8FC0020FFF7D5FD4FF4A050FFF7D2
:10243000E5FD4FF48050FFF7EDFD072002234FF438
:10244000A87208210090C804FFF7F6FD0120FFF7ED
:10245000EDFD00BF3920FFF795FD0028FAD00220DE
:10246000FFF7FCFD00BFFFF7ADFD0828FBD108BD5D
:1024700010B51548006840F470001349086013480F
:10248000006840F001001149086000200F49083140
:1024900008600E4800680E4908400C4908600D4865
:1024A000091D0860081F006820F48020091F0860CB
:1024B000002006490C310860FFF710FF4FF0006064
:1024C00001498039086010BD88ED00E00038024005
:1024D000FFFFF6FE10300024F0B50C461546002133
:1024E0000022068C4FF6FE773E400684018B028C5C
:1024F0004FF60C7631407E1C06EA03162E4331431C
:102500004FF6F576324044F00106324301830284EF
:10251000F0BDF0B50C461546002100220026078CC0
:102520004FF6EF7C07EA0C070784018B028C4FF60D
:10253000FF7707EA041640F6FF4739404FF6FF776A
:1025400007EA033739434FF6FF7707EA0527394390
:102550004FF65F773A4046F010073A430183028412
:10256000F0BDF0B50C461546002100220026078C70
:102570004FF6FF6C07EA0C070784818B028C4FF63D
:10258000FF7707EA04264FF60C7739404FF6FF77BE
:1025900007EA03172F4339434FF2FF573A4046F4F7
:1025A00080773A4381830284F0BDF0B50C4615462E
:1025B000002100220026078C4EF6FF7C07EA0C075C
:1025C0000784818B028C4FF6FF7707EA043640F6CA
:1025D000FF4739404FF6FF7707EA052739434FF6A3
:1025E000FF7707EA0337394345F6FF773A4046F469
:1025F00080573A4381830284F0BD0000044800887C
:102600000348008820F0010001490880704700005D
:1026100010040040044800880348008820F00100AE
:1026200001490880704700001008004010B50121E2
:10263000064800F054F940B1054800680A300449E2
:1026400008600121014800F042F810BD001400406C
:10265000CC0000201FB501212020FFF7ADFB42F286
:10266000CF00ADF804006320029001A90F4800F0EC
:102670000BFB01210D4800F027F8012211460B4801
:1026800000F07EF937208DF8000000208DF8010061
:1026900001208DF802008DF803006846FFF7EAF884
:1026A0000121024800F016F81FBD00000014004090
:1026B00021B1028842F08002028004E002884FF6D5
:1026C0007F731A4002807047CA4302827047CA4330
:1026D0000282704721B1028842F00102028004E0C8
:1026E00002884FF6FE731A400280704731B1B0F88D
:1026F000442042F40042A0F8442005E0B0F8442011
:10270000C2F30E02A0F844207047000010B5044642
:102710005548844208D101210846FFF77DFB00217E
:102720000120FFF779FB9DE0B4F1804F08D1012132
:102730000846FFF751FB00210120FFF74DFB91E018
:102740004A48844208D101210220FFF745FB0021BD
:102750000220FFF741FB85E04548844208D1012172
:102760000420FFF739FB00210420FFF735FB79E057
:102770004048844208D101210820FFF72DFB0021A9
:102780000820FFF729FB6DE03B48844208D1012176
:102790001020FFF721FB00211020FFF71DFB61E057
:1027A0003648844208D101212020FFF715FB002183
:1027B0002020FFF711FB55E03148844208D1012168
:1027C0000220FFF729FB00210220FFF725FB49E04B
:1027D0002C48844209D101210804FFF71DFB002188
:1027E0004FF48030FFF718FB3CE02748844209D1C2
:1027F00001214804FFF710FB00214FF40030FFF7E0
:102800000BFB2FE02148844209D101218804FFF706
:1028100003FB00214FF48020FFF7FEFA22E01C4862
:10282000844208D101214020FFF7D6FA0021402040
:10283000FFF7D2FA16E01748844208D10121802020
:10284000FFF7CAFA00218020FFF7C6FA0AE0124813
:10285000844207D101218015FFF7BEFA0021A0159F
:10286000FFF7BAFA10BD000000000140000400406C
:1028700000080040000C0040001000400014004020
:102880000004014000400140004401400048014074
:1028900000180040001C004000200040F0B50C462D
:1028A00015461E460021002200230189028B038C5D
:1028B0004FF6F877394021434FF6FC473A4040F253
:1028C00001173A434FF6DD773B404FF6FF7707EAB3
:1028D00006172F433B43018102830384F0BD30B5CB
:1028E0000246002000230024158A05EA0103958989
:1028F00005EA010413B10CB1012000E0002030BD55
:1029000070B505460C46208850B92389A288618895
:102910002846FFF7E1FDE188284600F088F925E028
:10292000208804280AD12389A28861882846FFF7D5
:10293000F0FDE188284600F083F917E02088082898
:102940000AD12389A28861882846FFF70AFEE18818
:10295000284600F082F909E02389A2886188284688
:10296000FFF723FEE188284600F080F970BD0021C2
:1029700001804180012181800021C1800181704757
:102980001AB183890B43838102E083898B4383815E
:102990007047000070B5002400220023058C4FF61C
:1029A000FE7635400584028C8388048B4FF68F7544
:1029B0002C40B51E2C400D882C43751E2A408D8955
:1029C0002A434D882A43104DA84202D00F4DA842F9
:1029D00013D14FF6F7752A40CD892A434FF6FB7580
:1029E0002A408D882A434FF6FF652B404FF6FF554E
:1029F0002B400D8A2B434D8A2B43838004838D68A3
:102A00004563028470BD00000000014000040140E5
:102A10000A460021018B4FF6F773194011430183D9
:102A20007047000070B5002400220023058C4FF68B
:102A3000EF7635400584028C8388048B48F6FF7559
:102A40002C404FF6FF452C400D884FF6FF7606EAE6
:102A500005252C434FF6DF752A408D8906EA0515BA
:102A60002A434D8806EA05152A43154DA84202D08F
:102A7000144DA8421DD14FF67F752A40CD894FF6DF
:102A8000FF7606EA05152A434FF6BF752A408D8862
:102A900006EA05152A434FF6FF352B404FF2FF7526
:102AA0002B400D8A06EA85052B434D8A06EA8505EB
:102AB0002B43838004838D688563028470BD00008E
:102AC00000000140000401400A460021018B4FF242
:102AD000FF7319404FF6FF7303EA02231943018382
:102AE0007047000070B5002400220023058C4FF6CB
:102AF000FF6635400584028C8388848B4FF68F7582
:102B00002C404FF6FC752C400D882C434FF6FF559A
:102B10002A408D894FF6FF7606EA05252A434D881F
:102B200006EA05252A43154DA84202D0144DA842B5
:102B30001DD14FF2FF752A40CD894FF6FF7606EA88
:102B400005252A434FF6FF352A408D8806EA0525DC
:102B50002A434EF6FF752B404DF6FF752B400D8A2C
:102B600006EA05152B434D8A06EA05152B4383809B
:102B700084838D68C563028470BD0000000001403D
:102B8000000401400A460021818B4FF6F77319407B
:102B9000114381837047000070B500220023002498
:102BA000058C4EF6FF7635400584038C8488828B35
:102BB00048F6FF752A404FF6FF452A400D884FF62C
:102BC000FF7606EA05252A434DF6FF752B408D89D1
:102BD00006EA05352B434D8806EA05352B430A4D99
:102BE000A84202D0094DA84208D14BF6FF752C40EF
:102BF0000D8A4FF6FF7606EA85152C438480828382
:102C00008D680564038470BD00000140000401402C
:102C10000A460021818B4FF2FF7319404FF6FF7374
:102C200003EA022319438183704741627047028B94
:102C30004FF6F3731A400283028B0A4302837047F4
:102C4000028B4FF2FF331A400283028B4FF6FF7361
:102C500003EA01231A4302837047828B4FF6F37312
:102C60001A408283828B0A4382837047828B4FF2A1
:102C7000FF331A408283828B4FF6FF7303EA0123EE
:102C80001A4382837047000000220288184B984242
:102C90000ED0184B98420BD0B0F1804F08D0164B95
:102CA000984205D0154B984202D0154B984204D15A
:102CB0004FF68F731A404B881A43124B984207D035
:102CC000114B984204D04FF6FF431A400B891A4328
:102CD00002804B68C3620B880385054B984202D083
:102CE000044B984201D18B7A03860123838270477B
:102CF00000000140000401400004004000080040C2
:102D0000000C004000100040001400404FF0FF3164
:102D10004160002101800181418081727047000083
:102D20000448006820B103480068401E014908605B
:102D3000704700000000002010B5002440F225512B
:102D4000054800F034F830B1034800F0C5F8C4B2CB
:102D5000204600F003F810BD0044004010B50446C2
:102D600000BF8021044800F015F80028F9D0214662
:102D7000014800F0B6F810BD0044004021B182893E
:102D800042F40052828104E082894DF6FF731A40BA
:102D90008281704702460020B1F5007F00D100BF5C
:102DA00013880B400BB1012000E00020704770B584
:102DB0000246002400230025002040F66A16B14296
:102DC00000D100BFC1F3421501F01F03012606FA2E
:102DD00003F3012D02D19689334006E0022D02D182
:102DE000168A334001E0968A33400C12012606FA17
:102DF00004F41688344013B10CB1012000E0002027
:102E000070BD00002DE9FF4705460E460024A1468F
:102E100000BFA046B08900B100BF2C8A24F4405402
:102E2000F08804432C82AC8941F20C608443B08862
:102E300031890843718908430443AC81AC8A24F486
:102E40004074B0890443AC826846FFF727F82048F5
:102E5000854202D01F48854202D1DDF80C9001E086
:102E6000DDF80890A88900F4004040B109EBC900E2
:102E700000EB091031684900B0FBF1F707E009EBFE
:102E8000C90000EB091031688900B0FBF1F764203C
:102E9000B7FBF0F004012009642101FB1078A88938
:102EA00000F4004040B1322000EBC800B0FBF1F06C
:102EB00000F00700044308E0322000EB0810642112
:102EC000B0FBF1F000F00F0004432C81BDE8FF8758
:102ED000001001400014014001468888C0F308003A
:102EE0007047C1F308028280704700BFFEE700BF51
:102EF00070470000F0B52DED028B83B006460F46FB
:102F00000025684600F0FCFD002447E056F8241038
:102F100057F82420881A002801DB014600E04142CE
:102F200000EE101AB8EEC00ADFED200A80EE208A0B
:102F3000684600EB840090ED000AB5EEC00AF1EEA1
:102F400010FA18D0684600EB8400D0ED000A88EE35
:102F5000200AF7EE000A70EE608AB0EEE80A144824
:102F6000D0ED090AB4EEE00AF1EE10FA15DD012009
:102F7000A040054311E00E4890ED070AB4EEC80AE0
:102F8000F1EE10FA06DC90ED080AB4EEC80AF1EE94
:102F900010FA02D20120A0400543641C032CB5DBCB
:102FA000284603B0BDEC028BF0BD00000000804756
:102FB000347C000810B50220FDF7C4FCFFF71CFAB2
:102FC00000F02AF8FEF768FBFEF748FBFEF782FBED
:102FD000FDF716FC00214FF4D250FDF729FCFDF758
:102FE0003BFEFDF797FE4FF4E13002F0A9F94FF4F4
:102FF000967000F037F8FEF71DF9FEF7EBFBFDF7D2
:10300000B5FCFEF7ABFCFEF73FFEFEF765FEFDF7F5
:1030100061FCFFF71FFB10BD10B50E4800680E499C
:10302000B0FBF1F0C4B26FF00400FFF7CDF9E11787
:1030300004EB5171C910094A11701046007800EB79
:103040004001C1EBC0104FF6FF7101EAC000044916
:10305000088010BD3800002040420F005C000020B6
:103060005E00002001460D4A12884A434FF0E023DB
:103070005A6100229A6101221A6100BF4FF0E022DA
:10308000106900F001021AB100F48032002AF5D074
:1030900000224FF0E0231A619A6170475E00002021
:1030A00001460D4A12784A434FF0E0235A6100224C
:1030B0009A6101221A6100BF4FF0E022106900F00E
:1030C00001021AB100F48032002AF5D000224FF03C
:1030D000E0231A619A6170475C00002038B504460D
:1030E00064B120208DF8000028208DF801003020E8
:1030F0008DF8020038208DF8030004E0A32204219B
:103100006846FDF797F96A46042140F69E2002F0D2
:1031100043F801F033FC38BD3EB5044602208DF87B
:103120000000CA208DF80100E3208DF8020009207C
:103130008DF803006A460421682002F02DF8A320D0
:103140008DF8000004F0400048B1C0208DF8010067
:10315000C8208DF80200C2208DF8030006E0A320ED
:103160008DF801008DF802008DF8030004F4C070A2
:1031700048B1C4208DF80400CC208DF80500C6208D
:103180008DF8060006E0A3208DF804008DF80500F8
:103190008DF80600A3208DF807008DF808008DF843
:1031A00009006A460A2140F6A72001F0F5FF04F065
:1031B000030018B120208DF8000002E0D8208DF81F
:1031C00000006A46012140F6B62001F0E5FF04F058
:1031D000200018B1012000F0ADF802E0002000F05E
:1031E000A9F804F4C07008B304F4807060B1B22090
:1031F0008DF800008B208DF80100B6208DF80200BC
:103200009B208DF803000BE0B0208DF8000080209B
:103210008DF80100B4208DF8020090208DF8030095
:103220006A46042140F6A22001F0B6FF04F0010036
:1032300020B3F8208DF800006A4601214FF40B609E
:1032400001F0AAFFFA21072000F046FB072000F05A
:103250000DFB012000F02DFB642000F01DFC4FF45D
:10326000FA7000F02CFCC821304800F0BDFA28208C
:1032700000F0D6FA0A2000F0E6FA08E0D8208DF82F
:1032800000006A4601214FF40B6001F085FF04F055
:10329000020018B1D9208DF8000002E0D8208DF886
:1032A00000006A46012140F23D7001F075FF04F014
:1032B000040018B1012000F069F802E0002000F0DD
:1032C00065F804F0100018B10120FFF707FF02E0D5
:1032D0000020FFF703FF44F008001549488101F082
:1032E0004DFB00201249887304F0400018B10846D5
:1032F000807B801D887304F4C07020B10C48807BF3
:10330000801D0B49887304F0140020B10848807BAD
:1033100010300749887304F0030020B10448807B13
:10332000001D0349887300203EBD000009E3CA0266
:10333000380300203EB504466CB10EA1D1E900204F
:103340008968CDE9002002916A4609214FF497600F
:1033500001F022FF3EBD0AA2D2E900109268CDE939
:10336000010200916A4609214FF4976001F014FFB1
:10337000F0E70000B8AAB38DB4980D355D000000E9
:10338000B8AAAAAAB088C3C5C700000038B50446C9
:1033900064B1C0208DF80000C2208DF80100C42067
:1033A0008DF80200C6208DF8030004E08B22042172
:1033B0006846FDF73FF86A46042140F6982001F080
:1033C000EBFE01F0DBFA38BD10B5C8234FF4806284
:1033D000024940F6F63001F0C5F910BD5C7C0008EA
:1033E00070B588B0064601A801F008F8BDF80400E1
:1033F0000021C90341EA5045C4034448007A00F063
:10340000030056F8200005904048007A00F00400C0
:1034100010B10598404205903C48007AC0F3C100C5
:1034200056F8200006903948007A00F0200010B1CC
:103430000698404206903548007AC0F3811056F84D
:10344000200007903148008900F4807010B107987F
:10345000404207900598C117A0FB042301FB0431EB
:1034600000FB0510810041EA927005900698C11793
:10347000A0FB042301FB043100FB0510810041EA9D
:10348000927006900798C117A0FB042301FB04313A
:1034900000FB0510810041EA927007900598000E2C
:1034A0008DF808000598000C8DF809000598000AB1
:1034B0008DF80A000598C0B28DF80B000698000E32
:1034C0008DF80C000698000C8DF80D000698000A87
:1034D0008DF80E000698C0B28DF80F000798000E08
:1034E0008DF810000798000C8DF811000798000A5D
:1034F0008DF812000798C0B28DF8130002AA0C21B3
:103500004FF4257001F048FE08B070BD380300206C
:1035100030B585B0044616A207CA02AB07C3C82C53
:1035200003DD4FF0FF3005B030BDC82090FBF4F054
:10353000401E85B2280A8DF80000E8B28DF801001F
:103540006A46022140F2162001F026FE10B14FF02B
:10355000FF30E8E702AA0C2140F6C12001F01CFE72
:1035600010B14FF0FF30DEE7044884810020DAE735
:10357000FEF2ABC4AAF1DFDFBBAFDFDF3803002010
:103580001FB504464848007A00F0030054F82000B4
:1035900001904548007A00F0040010B101984042C3
:1035A00001904148007AC0F3C10054F82000029015
:1035B0003D48007A00F0200010B10298404202908D
:1035C0003948007AC0F3811054F82000039036483F
:1035D000008900F4807010B1039840420390334991
:1035E000019880FB0101800F40EA810001902F4982
:1035F000029880FB0110820042EA917002902B49F0
:10360000039880FB0110820042EA917003900198B8
:10361000000E8DF800000198000C8DF80100019853
:10362000000A8DF802000198C0B28DF803006A46C6
:1036300004214FF4747001F0AFFD18B14FF0FF306A
:1036400004B010BD0298000E8DF800000298000C26
:103650008DF801000298000A8DF802000298C0B2AD
:103660008DF803006A4604214FF4757001F094FD53
:1036700010B14FF0FF30E3E70398000E8DF8000023
:103680000398000C8DF801000398000A8DF80200E1
:103690000398C0B28DF803006A4604214FF4767097
:1036A00001F07AFDCCE700003803002009E3CA02EC
:1036B00010B586B0044647A00068039046A0006895
:1036C000029046A00068019045A00068009004F0B8
:1036D000030003A9085C8DF8140003A8C4F3C1011A
:1036E000405C8DF8150003A8C4F38111405C8DF88F
:1036F000160004F0030002A9085C8DF8100002A86F
:10370000C4F3C101405C8DF8110002A8C4F381111B
:10371000405C8DF8120005AA032140F2264001F01A
:103720003BFD18B14FF0FF3006B010BD04AA0321D5
:1037300040F22A4001F030FD10B14FF0FF30F3E7C6
:10374000019805900098049004F0040058B19DF889
:10375000140040F001008DF814009DF8100040F0B6
:1037600001008DF8100004F0200058B19DF81500FC
:1037700040F001008DF815009DF8110040F00100A7
:103780008DF8110004F4807058B19DF8160040F0D7
:1037900001008DF816009DF8120040F001008DF830
:1037A000120005AA03214FF4886001F0F5FC10B166
:1037B0004FF0FF30B8E704AA032140F2314001F096
:1037C000EBFC10B14FF0FF30AEE70648048100205B
:1037D000AAE700004CCD6C000CC92C0036567600D0
:1037E0002646660038030020F8B505460E464FF41D
:1037F0007A7095FBF0F000FB06F4200E8DF80000C7
:10380000200C8DF80100200A8DF80200E0B28DF83E
:1038100003006A4604214FF4AE7001F0BDFCF8BD10
:1038200038B50446052094FBF0F084B220128DF8E0
:103830000000E0B28DF801006A4602214FF4AD703D
:1038400001F0AAFC38BD38B50446052094FBF0F021
:1038500084B220128DF80000E0B28DF801006A46B3
:1038600002214FF4AC7001F097FC38BD38B5044626
:103870000020009004F0010020B19DF8000040F00D
:103880003000009004F0020020B19DF8000040F0EC
:103890000C00009004F0040020B19DF8000040F0FE
:1038A000030000906A4601214FF4A47001F074FCFB
:1038B00038BD38B50446012C01DA012402E0042C9D
:1038C00000DD0424601EC0B200906A46012140F26F
:1038D0004F1001F061FC38BDF0B52DED028B83B0C7
:1038E00006460F4606F0070010B1B7F5C86F05DDB4
:1038F0004FF0FF3003B0BDEC028BF0BD00EE107A4C
:10390000B8EE400ADFED5B0A80EE208A01A800F0E5
:103910004FFD9DF80400022806D0042817D008287F
:1039200028D010284CD138E09FED530A28EE000A29
:10393000BCEEC00A10EE100A84B29FED500A28EEC9
:10394000000ABCEEC00A10EE100A85B23BE09FED03
:103950004C0A28EE000ABCEEC00A10EE100A84B22F
:103960009FED480A28EE000ABCEEC00A10EE100ACD
:1039700085B228E09FED440A28EE000ABCEEC00A9A
:1039800010EE100A84B29FED410A28EE000ABCEE48
:10399000C00A10EE100A85B215E09FED3D0A28EE30
:1039A000000ABCEEC00A10EE100A84B29FED390A7C
:1039B00028EE000ABCEEC00A10EE100A85B202E042
:1039C0004FF0FF3096E700BF20128DF80800E0B2FC
:1039D0008DF8090028128DF80A00E8B28DF80B0066
:1039E00006F00100A0B102AA02214FF4EA7001F032
:1039F000D3FB10B14FF0FF307CE70DF10A0202213A
:103A00004FF4927001F0C8FB10B14FF0FF3071E736
:103A100006F00200A0B102AA02214FF4EC7001F0FE
:103A2000BBFB10B14FF0FF3064E70DF10A02022139
:103A30004FF4947001F0B0FB10B14FF0FF3059E734
:103A400006F00400A0B102AA02214FF4EE7001F0CA
:103A5000A3FB10B14FF0FF304CE70DF10A02022139
:103A60004FF4967001F098FB10B14FF0FF3041E732
:103A700000203FE700004843000080460000404629
:103A8000000000460000C0450000804500004045A1
:103A9000000000450000C04438B50446052094FBF2
:103AA000F0F085B228128DF80000E8B28DF8010020
:103AB0006A4602214FF4EF7001F06EFB38BD38B555
:103AC0000446052094FBF0F085B228128DF8000022
:103AD000E8B28DF801006A4602214FF4ED7001F062
:103AE0005BFB38BD00BF054A128802F04002002A85
:103AF000F9D0C2B2014B1B1D1A8070470044004030
:103B00007CB505462E494968087801AB04220D2191
:103B100000F024FB08B107207CBD9DF80700C0F32E
:103B200001109DF8041001F0E00140EAE1008DF879
:103B300000009DF80700C0F381009DF8051001F01A
:103B4000E00140EAE1008DF801009DF8070000F077
:103B500003009DF8061001F0E00140EAE1008DF855
:103B60000200002427E01DF8040030B99FED150A7B
:103B700005EB840080ED000A1BE09FED130A05EBC6
:103B8000840080ED000A0BE005EB840090ED000A54
:103B9000DFED0E0A20EE200A05EB840080ED000A1E
:103BA0001DF80400401EC0B20DF804000028EBD13F
:103BB00000BF601CC4B2032CD5DB0020ACE70000C2
:103BC000D0000020000000007B14AE3E1D5A843F50
:103BD0002DE9F04F87B005460C46914601208DF83F
:103BE000100000208DF81100FE4A1268917CFD4AF9
:103BF0005268107804AB022200F0EBFA20B14FF0CB
:103C0000FF3007B0BDE8F08FC820FFF72BFA002087
:103C10008DF81000F34A1268D17BF24A526810788E
:103C200004AB012200F0D5FA10B14FF0FF30E8E705
:103C3000EC4A12685179EB4A5268107804AB0122C1
:103C400000F0C7FA10B14FF0FF30DAE7E54A12682A
:103C5000917CE44A5268107804AB012200F0B9FA72
:103C600010B14FF0FF30CCE7DE4A1268D17DDD4A5B
:103C70005268107804AB012200F0ABFA10B14FF09B
:103C8000FF30BEE7D74A12681179D64A52681078D9
:103C900004AB012200F09DFA10B14FF0FF30B0E705
:103CA0000C208DF81000CF4A12681179CD4A526865
:103CB000107804AB012200F08CFA10B14FF0FF3005
:103CC0009FE70F20FFF7CEF9C648806A407A8DF84B
:103CD0001000C44A12689178C24A5268107804AB46
:103CE000012200F076FA10B14FF0FF3089E7BD48AD
:103CF000806A007A8DF81000BA4A12685178B94A81
:103D00005268107804AB012200F063FA10B14FF052
:103D1000FF3076E7B9F1000F07D0B248806A807AA9
:103D200040F0E0008DF8100004E0AE48806A807A30
:103D30008DF81000AB4A12689179AA4A526810783F
:103D400004AB012200F045FA10B14FF0FF3058E704
:103D5000B9F1000F07D0A348806AC07A40F0E000B4
:103D60008DF8100003E0A048C07A8DF810009D4A3D
:103D70001268D1799B4A5268107804AB012200F096
:103D800028FA10B14FF0FF303BE7B9F1000F02D035
:103D9000C820FFF767F940208DF81000914A12689B
:103DA0001179904A5268107804AB012200F011FAA0
:103DB00010B14FF0FF3024E778208DF81000894AC9
:103DC00012685179874A5268107804AB012200F0DA
:103DD00000FA10B14FF0FF3013E783498889FFF7ED
:103DE00041F900208DF810007E4A126851797D4A11
:103DF0005268107804AB012200F0EBF910B14FF0DB
:103E0000FF30FEE6774A1268917A764A5268107857
:103E100004AB022200F0A2F910B14FF0FF30F0E63F
:103E20009DF811009DF8101040EA012B0C209BFB1F
:103E3000F0F0C6B20020A86068602860A0606060F2
:103E40002060824665E0674A1268D17A654A526806
:103E5000107804AB0C2200F081F910B14FF0FF3064
:103E6000CFE69DF811009DF8101040EA012000B245
:103E7000ADF808009DF813009DF8121040EA0120EB
:103E800000B2ADF80A009DF815009DF8141040EA44
:103E9000012000B2ADF80C00BDF9081020680844FC
:103EA0002060BDF90A10606808446060BDF90C101C
:103EB000A0680844A0609DF817009DF8161040EA1D
:103EC000012000B2ADF800009DF819009DF818100F
:103ED00040EA012000B2ADF802009DF81B009DF8F9
:103EE0001A1040EA012000B2ADF80400BDF900103C
:103EF000286808442860BDF90210686808446860B2
:103F0000BDF90410A8680844A8600AF1010000F097
:103F1000FF0AB24597DB3448D0F800C02868C117C3
:103F2000090441EA10410704624600233846FCF7C1
:103F3000A0F932460023CDE90201FCF79AF9286086
:103F40002948D0F800C06868C117090441EA104147
:103F50000704624600233846FCF78BF932460023FB
:103F6000CDE90201FCF785F968601F48D0F800C070
:103F7000A868C117090441EA1041070462460023FA
:103F80003846FCF776F932460023CDE90201FCF70A
:103F900070F9A8601448D0F804C02168C81700045C
:103FA00040EA11480F046246002338464146FCF7B8
:103FB00060F932460023CDE90201FCF75AF920608E
:103FC0000948D0F804C06068C117090441EA1041EB
:103FD0000704624600233846FCF74BF932460023BB
:103FE00004E00000D0000020347C0008CDE902018C
:103FF000FCF73FF960601148D0F804C0A068C11711
:10400000090441EA10410704624600233846FCF7E0
:1040100030F932460023CDE90201FCF72AF9A0600D
:10402000A068002804DDA068A0F58030A06003E04F
:10403000A06800F58030A0600020E2E5347C000834
:10404000F0B52DED048B81B006460F4600253E49A4
:10405000496808786B4603220D2100F07FF820B1F3
:10406000072001B0BDEC048BF0BD9DF8000000F00E
:104070001F008DF800009DF8010000F01F008DF872
:1040800001009DF8020000F01F008DF802000024DE
:1040900055E056F8241057F82420881A002801DB30
:1040A000014600E0414200EE101AB8EEC00ADFED12
:1040B000270A80EE208A1DF8040068B3244890ED9A
:1040C000000AB8EE400ADFED230A80EE801AF0EE17
:1040D000418A05E09FED200A28EE800AF0EE408A32
:1040E0001DF80400401EC0B20DF804000028F1D1F4
:1040F00088EE280AF7EE000A30EE609AB0EEC90AA0
:104100001348D0ED060AB4EEE00AF1EE10FA15DD20
:104110000120A040054311E00D4890ED040AB4EEE3
:10412000C80AF1EE10FA06DC90ED050AB4EEC80AF2
:10413000F1EE10FA02D20120A0400543641C032CCA
:10414000A7DB28468DE70000D00000200000804754
:10415000347C000800B04C4554E3853F2DE9F04124
:1041600006460F4614461D46FDF72AF910B90120F0
:10417000BDE8F0817106080EFDF7E4F8FDF7A2F93D
:1041800018B9FDF75DF90120F2E73846FDF7DAF8D6
:10419000FDF798F9FDF714F9012101EB4601C8B2CA
:1041A000FDF7D0F8FDF78EF90DE0012C04D10020C9
:1041B000FDF788F8287003E00120FDF783F82870E8
:1041C0006D1C601EC4B2002CEFD1FDF739F9002040
:1041D000CEE72DE9F04105460E4617469846FDF715
:1041E000EFF810B90120BDE8F0816906080EFDF76F
:1041F000A9F8FDF767F918B9FDF722F90120F2E7F0
:104200003046FDF79FF8FDF75DF900240BE018F844
:104210000400FDF797F8FDF755F918B9FDF710F907
:104220000020E0E7641CBC42F1DBFDF709F9002047
:10423000D9E770B50546284600F00FF80446E81C9B
:1042400000F00BF844EAC00084B2A81D00F005F8A5
:1042500044EA801084B2204670BD014691F90020E6
:10426000002A01DD00201EE091F90020002A01DA79
:10427000042018E091F90120002A01DD012012E05C
:1042800091F90120002A01DA05200CE091F90220C1
:10429000002A01DD022006E091F90220002A01DA5D
:1042A000062000E007207047002014490860FEF750
:1042B00081FEFDF755FA01231A46194610A0FDF7B5
:1042C0001AFB00BF0120FDF719FA0028FAD00020E0
:1042D0001049087001231A4619460FA0FDF70BFB81
:1042E0000BE01148027811A11448FBF7F3FF0123FA
:1042F000002203211148FDF7FEFAF2E72800002012
:1043000070757420646F776E206B657920737461AB
:104310007274210034000020737461727420636F22
:104320006E74726F6C21000014010020737065655B
:1043300064203D202564202000000000180100209A
:1043400070B50446002624F00104184890F82400B3
:1043500008B1002070BD1548807A10B94FF0FF30C9
:10436000F8E71248057C807A204010490874084616
:10437000007CA04202D04FF0FF3600E0002614B9C6
:104380000A48007D18B1012000F092FF02E00020F1
:1043900000F08EFF3CB100F0F1FA20B10348057443
:1043A0004FF0FF30D6E73046D4E70000D0000020C1
:1043B00001461148407A30B1012807D0022808D0C0
:1043C00003280CD108E0022008700BE004200870DC
:1043D00008E00820087005E01020087002E04FF0A7
:1043E000FF30704700BF0448C07C18B10878400611
:1043F000000E08700020F4E7D000002001461348AA
:10440000407A30B1012808D002280AD0032810D100
:104410000BE04FF4804008800EE041F69C7008806D
:104420000AE04FF48050088006E04FF400600880F6
:1044300002E04FF0FF30704700BF0448C07C10B16D
:104440000888401008800020F5E70000D000002018
:1044500001460248007C087000207047D000002010
:1044600001460F48007A30B1012807D0022809D050
:1044700003280FD10AE0FA2008800EE04FF4FA700A
:1044800008800AE04FF47A70088006E04FF4FA6082
:10449000088002E00020088000BF00BF00207047B5
:1044A000D000002001461248007A30B1012809D01E
:1044B00002280CD0032814D10EE09FED0E0A81EDE6
:1044C000000A11E09FED0C0A81ED000A0CE09FED5F
:1044D0000B0A81ED000A07E09FED090A81ED000A51
:1044E00002E04FF0FF30704700BF0020FBE7000004
:1044F000D000002000000343000083423333034216
:104500003333834101461248C07A082817D2DFE8C6
:1045100000F01704070A0D101318BC20088013E0E0
:104520006220088010E02A2008800DE01420088016
:104530000AE00A20088007E00520088004E000BFA8
:1045400000BF0020088000BF00BF002070470000AF
:10455000D00000200146064890F8240010B14FF02A
:10456000FF3070470248C08908800020F9E700004A
:10457000D00000201CB580208DF80000654A12682C
:10458000917C644A526810786B460122FFF721FE45
:1045900010B14FF0FF301CBD6420FEF763FD00201A
:1045A0008DF800005B4A1268917C5A4A5268107874
:1045B0006B460122FFF70DFE10B14FF0FF30EAE726
:1045C000544A1268917D534A526810786B4606220D
:1045D000FFF7C4FD10B14FF0FF30DCE79DF8050098
:1045E000C007400F9DF8031001F0010140EA4100AF
:1045F0009DF8011001F0010140EA010494B1012C81
:1046000003D101214348C17431E0022C03D10021C0
:104610004048C1742BE021463FA0FBF74FFE4FF00E
:10462000FF30B8E73B4A1268D1783A4A52681078AE
:104630006B460122FFF792FD10B14FF0FF30AAE761
:104640009DF8000000F00F042CB93D48FBF736FE42
:104650004FF0FF309FE7042C06D13AA0FBF72EFE67
:1046600001212C48C17402E000212A48C174FF21B5
:1046700028488172FF2027490872FF21254841728E
:10468000C1724FF6FF71C181FF2101748174012154
:10469000017380F82210002180F823104175017504
:1046A0001630016041608160163880F8241080F86F
:1046B0002510C1844FF4FA6000F0FCFB10B14FF0FC
:1046C000FF3068E7022000F0C5FA10B14FF0FF306C
:1046D00061E72A2000F068FC10B14FF0FF305AE784
:1046E000322000F0A3FC10B14FF0FF3053E7002060
:1046F000FFF726FE10B14FF0FF304CE7002000F02E
:10470000EBFA10B14FF0FF3045E7002000F0DCFC81
:10471000002040E7D0000020556E737570706F72F6
:1047200074656420736F6674776172652070726F50
:1047300064756374207265762025642E0A0000007B
:104740005488000848616C662073656E73697469EB
:1047500076697479207061727420666F756E642E4C
:104760000D0A00002DE9F04385B005460E4690463F
:104770009946294890F8250020B14FF0FF3005B048
:10478000BDE8F08316B94FF0FF30F8E7002423E0CE
:10479000281B102801DD102000E0281B87B23219E9
:1047A0003946204600F0F8FC10B14FF0FF30E6E744
:1047B00001AA3946204600F0A1F810B14FF0FF30B1
:1047C000DDE730193A4601A9FBF708FE10B16FF09A
:1047D0000100D4E7E01984B2AC42D9DB4FEA2820CB
:1047E0008DF8000008F0FF008DF801000A4A1268F9
:1047F000917E094A526810786B460222FFF7E9FC65
:1048000010B14FF0FF30BAE70121034880F82510BE
:10481000A0F826900020B2E7D000002038B504466A
:10482000282C02DD4FF0FF3038BDDCB9002000F04D
:1048300085FB00208DF8000007208DF801002E4A2E
:104840001268917C2C4A526810786B460222FFF75E
:10485000C0FC10B14FF0FF30E6E70021264801759B
:104860000020E1E7012000F069FB20208DF8000026
:10487000012C06D100208DF80100052000F094FBEA
:1048800017E0052C06DC01208DF80100052000F062
:104890008BFB0EE0142C06DC02208DF801000A20B0
:1048A00000F082FB05E003208DF80100142000F0E9
:1048B0007BFB9DF80100072101EB8010C0B28DF851
:1048C00001000D4A1268917C0B4A526810786B46C1
:1048D0000222FFF77EFC10B14FF0FF30A4E7082161
:1048E0000548817200210173012101750020FFF745
:1048F00027FD002098E70000D0000020F8B504460E
:104900000D46164616B94FF0FF30F8BD1A48807AAA
:1049100010B94FF0FF30F8E720128DF80000E0B238
:104920008DF801009DF80100284413494968498920
:10493000884202DD4FF0FF30E7E70F4A1268117E30
:104940000D4A526810786B460222FFF742FC10B104
:104950004FF0FF30D9E7EAB2074B1B68597D064B91
:104960005B6818783346FFF7F9FB10B14FF0FF3062
:10497000CBE70020C9E70000D000002008B56D4853
:10498000807A10B94FF0FF3008BD00200090694ACE
:104990001268D17B674A526810786B460122FFF794
:1049A00018FC10B14FF0FF30EEE7624A12685179FF
:1049B000604A526810786B460122FFF70AFC10B17A
:1049C0004FF0FF30E0E75B4A12681179594A5268AC
:1049D00010786B460122FFF7FCFB10B14FF0FF305F
:1049E000D2E7544890F82400002850D00C200090C2
:1049F000504A126811794F4A526810786B4601226A
:104A0000FFF7E7FB10B14FF0FF30BDE7C02000908B
:104A10004848807A00F0010020B19DF8000040F085
:104A200020000090434A12681179424A5268107877
:104A30006B460122FFF7CDFB10B14FF0FF30A3E72B
:104A40003C48407C10B10220009001E00020009022
:104A5000384A1268D17B374A526810786B46012277
:104A6000FFF7B7FB10B14FF0FF308DE7002000904B
:104A7000304A126851792F4A526810786B460122E9
:104A8000FFF7A7FB002852D04FF0FF307CE704204F
:104A90000090284A12681179264A526810786B46AD
:104AA0000122FFF796FB10B14FF0FF306CE7214871
:104AB000807C20B91F48807A00F0010010B94020A6
:104AC000009001E0602000901A4A12681179194A9A
:104AD000526810786B460122FFF77BFB10B14FF054
:104AE000FF3051E71348407C10B10120009001E0F5
:104AF000002000900F4A1268D17B0E4A526810784D
:104B00006B460122FFF765FB10B14FF0FF303BE72A
:104B1000084A12685179074A52681078054B1033D9
:104B20000122FFF756FB10B14FF0FF302CE70020B9
:104B30002AE70000D00000202DE9F04F8DB0834619
:104B40000F4602200C90424890F8240020B100202B
:104B500000F068F9012600E0002603A8FFF780FCBA
:104B600005A8FFF725FC01A8FFF7CCFC02A8FFF77A
:104B7000F1FC374890F80AA004A8FFF769FC00246C
:104B800007E0002239465846FFF722F800B902E054
:104B9000641C022CF5DB00BF022C01D1002528E0AB
:104BA000002407E0012206A909A8FFF711F800B9BF
:104BB00002E0641C022CF5DB00BF022C01D10025B1
:104BC00017E006A93846FEF795F900F0FF0809A995
:104BD0005846FFF735FA00F0FF090025B9F1000F3C
:104BE00001D145F00105B8F1000F01D145F00205F2
:104BF00000BFFF2016490872FF2115484172C1729B
:104C00004FF6FF71C181FF2181720174012101738F
:104C1000BDF80C0000F04EF99DF8140000F01AF8F1
:104C2000BDF8040000F0C0F9BDF8080000F0FEF97E
:104C3000504600F049FA9DF81000FFF781FB16B1CD
:104C4000012000F0EFF828460DB0BDE8F08F00001D
:104C5000D000002038B504461E48807A10B94FF0C5
:104C6000FF3038BD022C06D0042C07D0082C08D009
:104C7000102C0CD108E0002000900BE008200090E0
:104C800008E01020009005E01820009002E04FF0AE
:104C9000FF30E6E700BF0F48407A9DF80010B0EB08
:104CA000E10F01D10020DCE70A4A1268D179094AF4
:104CB000526810786B460122FFF78BFA10B14FF063
:104CC000FF30CEE79DF80000C1100248417200207D
:104CD000C7E70000D000002038B504465048807C6B
:104CE000A04201D1002038BD002C46D04C4A1268A9
:104CF00011794B4A526810786B460122FFF72EFA61
:104D000010B14FF0FF30EEE79DF8000020F02000DA
:104D10000090434A12681179414A526810786B46F4
:104D20000122FFF756FA10B14FF0FF30DBE7032006
:104D3000FEF798F902200090394890F8220020B13F
:104D40009DF8000040F080000090354890F8230066
:104D500020B19DF8000040F030000090304A126809
:104D6000117D2F4A526810786B460122FFF731FA05
:104D7000002851D04FF0FF30B5E7294A1268117969
:104D8000274A526810786B460122FFF7E7F910B105
:104D90004FF0FF30A7E72248807A00F0010028B1E9
:104DA0009DF8000040F02000009004E09DF8000015
:104DB00020F0200000901A4A12681179184A5268AF
:104DC00010786B460122FFF704FA10B14FF0FF3064
:104DD00089E70320FEF746F9114890F8220010B148
:104DE0008020009001E0002000900D4890F8230002
:104DF00020B19DF8000040F030000090084A126891
:104E0000117D074A526810786B460122FFF7E1F9DD
:104E100010B14FF0FF3066E701488474002062E76C
:104E2000D000002038B50446214890F82400A04264
:104E300001D1002038BD24B31D4890F8250010B9D9
:104E40004FF0FF30F6E7002000F032FA0020FFF7C5
:104E500043FF1749C88C00F0E9F80020009014497E
:104E6000496808786B4601222321FFF7B2F9012136
:104E70000F4880F82410012000F01AFAFFF77EFD99
:104E800013E0002000F014FA0948007C0090084963
:104E9000496808786B4601222321FFF79AF900211F
:104EA000034880F82410FFF769FD0020C2E70000E6
:104EB000D000002038B504461F48807A10B94FF062
:104EC000FF3038BDFA2C09D0B4F5FA7F09D0B4F51B
:104ED0007A7F09D0B4F5FA6F0CD108E00020009079
:104EE0000BE00820009008E01020009005E018205A
:104EF000009002E04FF0FF30E3E700BF0E48007A79
:104F00009DF80010B0EBE10F01D10020D9E70A4A6B
:104F100012689179084A526810786B460122FFF7AF
:104F200058F910B14FF0FF30CBE79DF80000C010EA
:104F3000014908720020C4E7D000002038B50446BB
:104F4000184890F82300A04201D1002038BD14B1C8
:104F50003020009001E0002000901248807C20B1B9
:104F60009DF8000040F0020000900E4890F82200EA
:104F700020B19DF8000040F080000090094A1268BE
:104F8000117D084A526810786B460122FFF721F91B
:104F900010B14FF0FF30D9E7024880F823400020DD
:104FA000D4E70000D000002038B504461E48807ABF
:104FB00010B94FF0FF3038BDBC2C02DB012000904F
:104FC00015E0622C02DB0220009010E02A2C02DBAC
:104FD000032000900BE0142C02DB0420009006E07C
:104FE0000A2C02DB0520009001E0062000900E480C
:104FF000C07A9DF80010884201D10020DBE70A4A00
:1050000012689178084A526810786B460122FFF7BF
:10501000E0F810B14FF0FF30CDE79DF800100248E6
:10502000C1720020C7E70000D000002038B5044658
:105030002448807A10B94FF0FF3038BD214890F8ED
:10504000240010B14FF0FF30F7E71E48007D50B14B
:1050500034B1282C04DCE0B2FFF7E0FB0020ECE7E1
:105060000020FFF7DBFB042C01DA042404E0B4F594
:105070007A7F01DD4FF47A744FF47A7090FBF4F08C
:10508000401EC0B200900F4A126851780D4A526813
:1050900010786B460122FFF79CF810B14FF0FF30FB
:1050A000CBE79DF80000401C4FF47A7191FBF0F0C3
:1050B00081B20448C1810146C9894810FFF774FFD5
:1050C0000020BAE7D000002038B5044604F0700094
:1050D00010B10120009005E014B10020009001E023
:1050E000402000902B4A1268917C2A4A526810781E
:1050F0006B460122FFF76DF820B10021254881722F
:10510000481E38BD9DF8000020F040012148017381
:105110000020009004F0400020B99DF8000040F00D
:105120000400009004F0200020B99DF8000040F039
:105130000200009004F0100020B99DF8000040F03B
:105140000100009004F0080020B99DF8000040F034
:10515000380000900F4A1268D17C0E4A52681078CD
:105160006B460122FFF735F820B100210948817212
:10517000481EC6E724B1082C02D00020FFF7DEFE4F
:1051800004488472002101753220FDF76BFF002076
:10519000B7E70000D0000020F8B504460D461646DB
:1051A00016B94FF0FF30F8BD1A48807A10B94FF0A9
:1051B000FF30F8E720128DF80000E0B28DF8010012
:1051C0009DF801002844134949684989884202DD55
:1051D0004FF0FF30E7E70F4A1268117E0D4A526820
:1051E00010786B460222FEF7F4FF10B14FF0FF304B
:1051F000D9E7EAB2074B1B68597D064B5B68187804
:105200003346FEF7E6FF10B14FF0FF30CBE700204A
:10521000C9E70000D000002010B588B002A905A899
:10522000FFF78AFC0446072C3FD101A8FFF73AF9A3
:105230009DED050AB8EEC00ADDED010A20EE200A58
:10524000BDEEC00A8DED050A9DED060AB8EEC00A56
:10525000DDED010A20EE200ABDEEC00A8DED060A42
:105260009DED070AB8EEC00ADDED010A20EE200A26
:10527000BDEEC00A8DED070A05A8FEF781F9684664
:10528000FFF7BCF8BDF80010029848430290BDF843
:105290000010039848430390BDF800100498484359
:1052A000049002A8FEF79CF800BF08B010BD0000F3
:1052B00038B50446214890F82400C0B114B102204A
:1052C000009001E0002000901C4A1268D17B1B4A2C
:1052D000526810786B460122FEF77BFF10B14FF049
:1052E000FF3038BD9DF800101448417423E0134886
:1052F000807A10B94FF0FF30F3E724B10F48407CBB
:1053000008B10020EDE714B10120009001E0002079
:1053100000900A4A1268D17B084A526810786B469E
:105320000122FEF756FF10B14FF0FF30D9E79DF88C
:105330000010024841740020D3E70000D000002094
:1053400010B588B0044601214804FCF735FD012161
:105350000846FCF721FD072202212248FBF7BEFD8B
:10536000072203211F48FBF7B9FD02208DF81C001E
:1053700000208DF81E0001208DF81F0002208DF8FE
:105380001D000820069006A91648FBF75FFD0420C3
:10539000069006A91348FBF759FD02940020ADF8CA
:1053A0000C00ADF80E00ADF81000ADF814000820A8
:1053B000ADF8120002A90C48FDF724FD01210A48AE
:1053C000FDF7DCFC26208DF8040000208DF8050098
:1053D00001208DF806008DF8070001A8FCF74AFAB5
:1053E00008B010BD00000240004400404FF0407083
:1053F000E1EE100A7047000000000000000000000D
:10540000000000000000000000000010001000106C
:105410000010001000100000001000000000002824
:10542000002800280000000000000000000000002C
:10543000000000240024007C00240048007C004878
:1054400000480000000000380054005000380014EC
:105450000054005400380010000000200054005890
:105460000030002800540014000800000000001064
:1054700000280028001000340048004800340000D4
:1054800000000010001000100000000000000000EC
:105490000000000000000008001000200020002094
:1054A000002000200020001000080020001000084C
:1054B0000008000800080008000800100020001084
:1054C000003800100028000000000000000000006C
:1054D00000000000000000100010007C0010001010
:1054E00000000000000000000000000000000000BC
:1054F000000000000010001000100000000000007C
:105500000000000000380000000000000000000063
:10551000000000000000000000000000001000007B
:10552000000000080008001000100010001000200B
:1055300000200000000000380044004400540044F3
:10554000004400440038000000000010003000500B
:1055500000100010001000100010000000000038C3
:10556000004400440004000800100020007C0000FB
:105570000000003800440004001800040004004447
:10558000003800000000000800180028002800482B
:10559000007C0008000800000000007C0040004083
:1055A00000780004000400440038000000000038C7
:1055B00000440040007800440044004400380000EB
:1055C0000000007C000400080010001000200020F3
:1055D000002000000000003800440044003800446F
:1055E000004400440038000000000038004400443B
:1055F0000044003C000400440038000000000000AB
:10560000000000100000000000000000001000007A
:10561000000000000000000000100000000000007A
:1056200000100010001000000000000C00300040CE
:105630000030000C0000000000000000000000002E
:10564000007C0000007C0000000000000000000062
:105650000000006000180004001800600000000056
:105660000000003800440004000800100010000092
:1056700000100000000000380044004C0054005CA2
:105680000040004000380000000000100028002802
:1056900000280028007C004400440000000000783E
:1056A00000440044007800440044004400780000B6
:1056B000000000380044004000400040004000442A
:1056C000003800000000007000480044004400441E
:1056D00000440048007000000000007C00400040D2
:1056E000007C004000400040007C00000000007C86
:1056F00000400040007800400040004000400000B2
:1057000000000038004400400040005C00440044B9
:10571000003800000000004400440044007C0044C5
:105720000044004400440000000000380010001055
:1057300000100010001000100038000000000004ED
:1057400000040004000400040004004400380000C9
:10575000000000440048005000600050004800482D
:1057600000440000000000400040004000400040B5
:1057700000400040007C000000000044006C006C11
:105780000054004400440044004400000000004471
:105790000064006400540054004C004C00440000BD
:1057A0000000003800440044004400440044004429
:1057B00000380000000000780044004400440078F5
:1057C0000040004000400000000000380044004459
:1057D00000440044004400540038000400000078F5
:1057E00000440044004400780048004800440000A1
:1057F000000000380044004000300008000400446D
:10580000003800000000007C0010001000100010A4
:10581000001000100010000000000044004400448C
:1058200000440044004400440038000000000044EC
:105830000044004400280028002800100010000048
:10584000000000440044005400540054006C002840
:10585000002800000000004400280028001000106C
:1058600000280028004400000000004400440028F4
:105870000028001000100010001000000000007C44
:10588000000400080010001000200040007C000010
:105890000000001800100010001000100010001090
:1058A0000010001000180020002000100010001050
:1058B0000010000800080000000000300010001078
:1058C0000010001000100010001000100030001038
:1058D0000028002800440000000000000000000034
:1058E00000000000000000000000000000000000B8
:1058F000000000FE0000002000100000000000007A
:10590000000000000000000000000000000000385F
:105910000044003C0044004C003400000000004003
:105920000040005800640044004400640058000037
:105930000000000000000038004400400040004427
:10594000003800000000000400040034004C004453
:105950000044004C0034000000000000000000384B
:105960000044007C00400044003800000000000CAF
:105970000010007C0010001000100010001000004B
:105980000000000000000034004C00440044004CC3
:1059900000340004007800400040005800640044D7
:1059A00000440044004400000000001000000070AB
:1059B0000010001000100010001000000000001087
:1059C0000000007000100010001000100010001007
:1059D00000E00040004000480050006000500048D7
:1059E00000440000000000700010001000100010C3
:1059F00000100010001000000000000000000078FF
:105A000000540054005400540054000000000000F2
:105A100000000058006400440044004400440000BA
:105A2000000000000000003800440044004400442E
:105A3000003800000000000000000058006400442E
:105A400000440064005800400040000000000034A2
:105A5000004C00440044004C0034000400040000EA
:105A6000000000580064004000400040004000007A
:105A7000000000000000003800440030000800442E
:105A800000380000000000200020007800200020E6
:105A9000002000200018000000000000000000446A
:105AA000004400440044004C0034000000000000AA
:105AB00000000044004400280028002800100000D6
:105AC000000000000000005400540054006C002846
:105AD0000028000000000000000000440028001022
