:020000040800F2
:10000000080B0020890200081F3400081126000890
:100010001B340008351A0008D754000800000000FF
:10002000000000000000000000000000ED45000896
:100030003D1D0008000000009D3D0008C14700086C
:10004000A3020008A3020008A3020008A3020008FC
:10005000A3020008A3020008A3020008A3020008EC
:10006000A3020008411D0008A3020008A302000823
:10007000A3020008A3020008A3020008A3020008CC
:10008000A3020008A3020008A3020008A3020008BC
:10009000A3020008A3020008A3020008A3020008AC
:1000A000A3020008A3020008A3020008A30200089C
:1000B000A3020008CD490008E5490008A302000892
:1000C000A3020008A3020008A3020008A30200087C
:1000D000A3020008A302000825530008A302000899
:1000E000A3020008A3020008A3020008A30200085C
:1000F000A3020008A3020008A3020008A30200084C
:10010000A3020008A3020008A3020008A30200083B
:10011000A3020008A3020008A3020008FD4900088A
:10012000A3020008A3020008A3020008A30200081B
:10013000A3020008A3020008A3020008A30200080B
:10014000A3020008A3020008A3020008A3020008FB
:10015000A3020008A3020008A3020008A3020008EB
:10016000A3020008A3020008A3020008A3020008DB
:10017000A3020008A3020008A3020008A3020008CB
:10018000A3020008A302000800F002F800F06CF8D7
:100190000AA090E8000C82448344AAF10107DA45E2
:1001A00001D100F061F8AFF2090EBAE80F0013F0C8
:1001B000010F18BFFB1A43F001031847D8CB00000A
:1001C000F8CB00000A444FF0000C10F8013B13F08C
:1001D000070408BF10F8014B1D1108BF10F8015BA0
:1001E000641E05D010F8016B641E01F8016BF9D193
:1001F00013F0080F1EBF10F8014BAD1C0C1B09D1EA
:100200006D1E58BF01F801CBFAD505E014F8016B5B
:1002100001F8016B6D1EF9D59142D6D370470000ED
:100220000023002400250026103A28BF78C1FBD8FF
:10023000520728BF30C148BF0B607047662909F0DC
:100240003282642900F08680002070471FB509F0D3
:1002500020FA00F0B5FC04000020002108F094FC16
:10026000E0601FBD10B510BD00F0D6FD1146FFF7D0
:10027000EDFF07F0B7FA00F0F4FD03B4FFF7F2FF6B
:1002800003BC05F0E8FE0000094880470948004724
:10029000FEE7FEE7FEE7FEE7FEE7FEE7FEE7FEE736
:1002A000FEE7FEE704480549054A064B7047000093
:1002B000414800088901000808050020080B0020BB
:1002C0000807002008070020704710B54C1084EA8A
:1002D000530404D54042C1F1000138BF491E1B42FE
:1002E00004D55242C3F1000338BF5B1E00F02DF964
:1002F00014F0804F04D04042C1F1000138BF491EC4
:1003000014F0004F04D05242C3F1000338BF5B1E0B
:1003100010BD00000FB4044910B503AA029800F004
:100320001BFC10BC5DF814FB600000200FB41CB572
:10033000074B06AA7B4469460090059800F0F3FB42
:100340000020694600F002FC1CBC5DF814FB0000B4
:10035000150800002DE9F0410646002410687529B3
:10036000314616A510D0AFF30080002802DA4042D3
:1003700013A507E031688A0701D512A502E04907F5
:1003800004D511A5012401E0AFF3008000210A2269
:1003900006F1240709E0B0FBF2FCB0FBF2F302FB2C
:1003A0001C00303078541846491C0028F3D12346ED
:1003B0002A463046BDE8F04100F049B9000000008F
:1003C0002D0000002B000000200000002DE9F04768
:1003D0004FF0000A89460446C0F820A02046E16894
:1003E0008847002876D0252806D0D4E901219047F7
:1003F000206A401C2062F1E7E1682046002588471A
:10040000C4F81CA006460027C4F818A02A2E09D05C
:10041000304605F019FE38B304EB8708303EC8F8C3
:10042000186019E059F8041B204604EB870291611B
:10043000E1688847012F064618D1E069002820DAD4
:1004400025F020051DE0D8F8180000EB800006EB31
:1004500040003038C8F818002046E1688847064652
:1004600005F0F2FD0028EED1012F0AD02E2E08D182
:100470002046E16888477F1C0646022F45F020058C
:10048000C4DBA069002803DA404245F00105A06101
:10049000E80701D025F01005B6B1A6F141001928F2
:1004A00002D8203645F400654A463146204625608C
:1004B0004D46FFF7C3FE58B1012806D0ED1D25F0CB
:1004C000070000F1080989E704E005F1040985E760
:1004D00030468AE7206ABDE8F08740EA010310B59C
:1004E0009B070FD1042A0DD310C808C9121F9C42C4
:1004F000F8D020BA19BA884201D9012010BD4FF0B6
:10050000FF3010BD1AB1D30703D0521C07E0002002
:1005100010BD10F8013B11F8014B1B1B07D110F85F
:10052000013B11F8014B1B1B01D1921EF1D1184662
:1005300010BD02F0FF0343EA032242EA024200F048
:100540001FBB704770477047704753EA020C00F0BA
:1005500069802DE9F04B4FF00006002B1FBFB3FA66
:1005600083F503FA05F424FA05F65E4012BF16433C
:10057000B2FA82F502FA05F4C5F120051EBF22FA8F
:1005800005FC44EA0C04203556EA044C4FEA1444B6
:1005900018BF641C4FF000084FF00009904271EB47
:1005A000030C39D3002919BFB1FA81F701FA07F614
:1005B000B0FA80F700FA07F6C7F120071EBF20FA4D
:1005C00007FC46EA0C062037B6FBF4FCA7EB050750
:1005D000103F07F01F0BCBF120060CFA0BFB2CFA97
:1005E00006F644BFB3460026202FA4BF5E464FF058
:1005F000000B5BEA060C08BF4FF0010B19EB0B096F
:10060000ABFB027C48EB0608C01B06FB02CC0BFBD5
:1006100003CC71EB0C01C1E70B460246414648464C
:10062000BDE8F08B13B54FF000004FF00001AFF3C1
:100630000080BDE81C40704710B500F0C5FA0068A6
:1006400010BD10B5044600F0BFFA046010BD2DE9DE
:10065000F0470D4699469246044600F12408016889
:10066000880604D5E06921F01001216000E0012036
:10067000A84201DD471B00E00027A1697A1902EBBF
:100680000900081AA0612078C00602D42046AFF302
:100690000080002608E0D4E901211AF806009047FE
:1006A000206A401C761C20624E45F4DB2078C00690
:1006B0000AD52046AFF3008006E0D4E901213020BE
:1006C0009047206A401C2062381EA7F10107F4DC25
:1006D00007E0D4E9012118F805009047206A401C82
:1006E0002062281EA5F10105F3DC2046AFF300804F
:1006F0002078000602D50220BDE8F0870120FBE744
:1007000070472DE9FF4F0C461E464FF0FF378BB068
:10071000D2E90001DDF860800A908A46C1F30A55EB
:1007200005B93D46002108464FF00000BAF1000F20
:1007300000F4400005DA00EB80004FF4400101EACC
:1007400050004FEA9059B9F1010F00DDB9460A98FF
:1007500050EA4A000ED044F61050A5F2FF3545434A
:100760002F14B8F1000F1ED07542291E1EDDC9F1ED
:1007700000021CE0B8F1010F4FF0000001D0302161
:1007800003E0F24305E02154401CB042FBDB30465D
:100790000022002121540B99C1F80880C1E90020F2
:1007A0000FB0BDE8F08FBD1B6D1CDEE74A4600DAD6
:1007B000694206A800F092FA06AB93E8070003AB83
:1007C00083E8070050460A9900F094FB8DE8070083
:1007D000A0F500501F3800900398002D09DD42F26B
:1007E0001F014A46084403A90390684600F0F3FD40
:1007F00008E0A0F500504A461F3803A90390684658
:1008000000F0FDFD8DE807000004000C03D04FF060
:10081000FF30410800E01046B8F1000F03D000227D
:10082000009215461EE0751E05D400F0D1F9303255
:1008300062556D1EF9D5B3460122084302D000224D
:100840007F1C04E02078302801D100227F1E002A7E
:10085000099786D01DE0112D07DA00F0B9F9303282
:1008600062556D1C50EA0102F5D1084302D0009890
:10087000C8B10EE00021681E05E0235C625C635491
:100880002254401E491C8142F7DBAB46A81B401E88
:100890000990002004F80B000B98099AC0F8088012
:1008A000C0E9002B7CE711264FF0000859E72DE93D
:1008B000F04F88460446D21D22F0070191B0D1E9DD
:1008C0000001CDE90A0104F0E3FE02460B98C00FD7
:1008D00001D02D2007E02068810701D52B2002E000
:1008E000202101EAC000032A099001D0072A05DB74
:1008F00003464146204600F0B1F90BE1207880061E
:1009000001D5E06900E00620B8F1650F814606D008
:10091000B8F1660F18D0B8F1670F70D131E0002040
:10092000B9F1110F009001DB112301E009F101037E
:100930000AAA01A90CA8FFF7E4FEDDE90C70002665
:1009400009F10105834647E001204B4600904FF036
:1009500000470AAA01A90CA8FFF7D3FEDDE90DB0F4
:100960000C995D46002610B909F101000D18B9EB8C
:10097000050003D4C0F1FF3609F10105A5EB09001C
:100980002BE0B9F1010F01DA4FF001090020B9F1B4
:10099000110F0090484601DD112300E003460AAA2A
:1009A00001A90CA8FFF7ADFEDDE90C704D4600264D
:1009B0008346207800070AD4AB4500DA5D4601A8DB
:1009C000012D04DD411911F8011C302907D04F45D4
:1009D00002DA17F1040F04DA012082460FE06D1EDF
:1009E000EEE7002F02DCED1B3E4403E0781CA8423A
:1009F00000DD7D1CB81B00F1010A4FF00047207894
:100A0000000703D4AA4501DB4FF0FF3A0021B7F1FC
:100A1000004F0DF143088DF8431024D002202B2302
:100A2000002F01DA7F422D230A21021EA0F10100CE
:100A300000DC5FB197FBF1FC97FBF1F201FB1C7C42
:100A400017460CF1300C08F801CDEEE7A8F10100D3
:100A500003702188090501D5452100E06521A0F139
:100A6000010800F8011C09980FA9A1EB0807FF1D58
:100A700000B10120411901EBEA70A1693844081A5C
:100A8000401EA0612078C00602D42046AFF300804B
:100A9000099828B1D4E901219047206A401C2062BE
:100AA0002078C00622D52046AFF300801EE0002E3D
:100AB00004DBB34502DD01A8805D00E03020D4E90D
:100AC00001219047206A401C2062761CAAF1010097
:100AD0005FEA000A0AD100F073F8C0680168405C60
:100AE000D4E901219047206A401C2062281EA5F10C
:100AF0000105DCDC07E0D4E9012118F8010B90477F
:100B0000206A401C2062381EA7F10107F3DC204652
:100B1000AFF30080032011B043E6000001694A1CD6
:100B200002610878704700B58FB0CDE9013100212E
:100B3000059105497944CDE9031011466846FFF750
:100B400045FC0FB000BD0000E5FFFFFF0A6802F89A
:100B5000010B0A6070470000074B70B50D467B44DF
:100B6000FFF7E1FF0446284600F026F910B14FF0E8
:100B7000FF3070BD204670BDBF6400004FF0000222
:100B80000429C0F0128010F0030C00F01B81CCF19E
:100B9000040CBCF1020F18BF00F8012BA8BF20F80D
:100BA000022BA1EB0C0100F00DB95FEAC17C24BF60
:100BB00000F8012B00F8012B48BF00F8012B70470B
:100BC00000487047C804002000487047A80400206F
:100BD00030B5B0F10A024FEA900E71F100034EEA0F
:100BE000817EB0EB0E0061EB91014FEA101E4EEAE0
:100BF000017E10EB0E0041EB11114FEA102E4EEA70
:100C0000016E10EB0E0041EB11214FEA104E4EEA3F
:100C1000014E10EB0E0041EB1141401841F1000173
:100C20004FEAD00040EA41704FEAD10110EB800555
:100C30004FEA810444EA907444EB01046D1944EBDB
:100C40000404521BA3414FF0000348BF0A3200D5F1
:100C500030BD401C41F1000130BD00002DE9F041E4
:100C60001F46044603260168072A01F4006004DBDE
:100C700008B116A505E016A503E008B115A500E02A
:100C800015A521F010002060A069C01EA0610FB161
:100C9000401EA0612046AFF300804FB1D4E901218E
:100CA00038469047206A401C2062C01C206206E043
:100CB000206AFAE7D4E9012115F8010B9047761E66
:100CC000F8D22046AFF30080BDE8F0814E414E00DF
:100CD0006E616E00494E4600696E66002DE9F04770
:100CE000814616468AB0334878440DC88DE80D0019
:100CF00030487844801C03AC0DC884E80D0041F6F0
:100D00009B300844372190FBF1F290FBF1F5A5F1FF
:100D1000800501FB12041B3C02D56442012000E067
:100D20000020DFF890A080460027FA44AAF1BE0A0E
:100D30000DE0E00709D03246684607EB47010AEBB1
:100D4000810100F05CFB8DE8070064107F1C002C23
:100D5000EFD1184F7F44AC3F18E0E80714D007EB01
:100D600004100DF1180A90E80E008AE80E00C06821
:100D7000F04201D198190890324606A903A800F064
:100D80003EFB03AB83E807006D10641C002DE4D12B
:100D900032466946B8F1000F03A802D000F01BFBF1
:100DA00001E000F02CFBC9E90001C9F808200AB0F5
:100DB000BDE8F08740C00000007B00F08000704775
:100DC0004FF0000200B5134694469646203922BFE4
:100DD000A0E80C50A0E80C50B1F12001BFF4F7AF2F
:100DE000090728BFA0E80C5048BF0CC05DF804EB11
:100DF000890028BF40F8042B08BF704748BF20F87F
:100E0000022B11F0804F18BF00F8012B7047000033
:100E100000487047A80400207546FFF7F9FFAE466A
:100E200005006946534620F00700854618B020B5F6
:100E3000FFF738FABDE820404FF000064FF00007FA
:100E40004FF000084FF0000B21F00701AC46ACE872
:100E5000C009ACE8C009ACE8C009ACE8C0098D46DF
:100E6000704710B50446AFF300802046BDE810403F
:100E7000FFF703BA4FF0013C50F8042B51F8043B44
:100E80009A4221D1A2EB0C03934313EACC1317D15E
:100E900050F8042B51F8043B9A4215D1A2EB0C03F5
:100EA000934313EACC130BD150F8042B51F8043BB5
:100EB0009A4209D1A2EB0C03934313EACC13DBD083
:100EC0004FF00000704700BFD01A01BAB1FA81F1AB
:100ED00001F0180122FA01F0CB40C1F12001DBB290
:100EE000C0B2C01A2CFA01F3D11A914311EAC3110E
:100EF000E6D170475FEA400C08BF91F0000F4FEA5F
:100F00008C234FEAC12243EA51514FEA1C5018BFCB
:100F100000F5F0404FEA300018BF41F000415FEAB1
:100F20006C5C00F02980BCF1FF3F08BF40F08040BE
:100F30007047130C06BF12044FF0100C4FF0000C5A
:100F4000130E04BF12020CF1080C130F04BF1201A0
:100F50000CF1040C930F04BF92000CF1020CD30FA0
:100F600004BF52000CF1010C11464FF00002A0F139
:100F70001F00A0EB0C00704711F0004F08BF704736
:100F800031F000413FF4D5AF0B0C06BF09044FF020
:100F9000100C4FF0000C0B0E04BF09020CF1080CF2
:100FA0000B0F04BF09010CF1040C8B0F04BF890067
:100FB0000CF1020CCB0F04BF49000CF1010CCCF179
:100FC0002003A0EB0C0022FA03F302FA0CF241EA30
:100FD000030100F10100704720F07F4C80EA03001C
:100FE00023F07F47ACEB070303F57C5300F0004090
:100FF00003F1FF032DE980494FEA154B09B44FEA8D
:10100000144325EA0B4E24EA03480FF2042606EBAC
:10101000132749083E785FEA320203FB0667C7F5EB
:10102000000707FB06F64FEA54374FEAD64606F1AB
:10103000020607FB066CCCF1005C4FEA1C472CEA69
:10104000074C07FB06F40CFB06F504EB15464FEACC
:10105000961634BF00204FF000404FEAD13706FB10
:1010600007FC4FEA1C4C0CFB0BF7D21B03FB0CF7E5
:1010700061EB07010CFB0EF7B0EB074072EB174278
:101080000CFB08F734BFA2EB0742B2EB074261EB5F
:1010900017414FEA0C444FEA910706FB07FC4FEA61
:1010A0001C4C0CFB0BF7B0EBC74072EB573203FB49
:1010B0000CF734BFA2EBC742B2EBC74261EB57312A
:1010C0000CFB0EF7B0EBC70072EB57720CFB08F786
:1010D00034BFA2EBC702B2EBC70261EB5771039FAB
:1010E0004FEA816141EA921104EBCC044FEAD13717
:1010F0004FEA826206FB07FC42EA90124FEA8060E8
:101100004FEA1C4C0CFB0BF7D21B03FB0CF761EBFB
:1011100007010CFB0EF7B0EB074072EB17420CFB1C
:1011200008F734BFA2EB0742B2EB074261EB17416D
:101130004FEA8C554FEA910704EB9C2406FB07FC11
:101140004FEA1C4C0CFB0BF7B0EBC74072EB57326D
:1011500003FB0CF734BFA2EBC742B2EBC74261EB13
:1011600057310CFB0EF7B0EBC70072EB57720CFB5C
:1011700008F734BFA2EBC702B2EBC70261EB5771AD
:1011800015EB4C254FEA816141EA92114FEA8262E8
:101190004FEAD13742EA901206FB07FC44F1000403
:1011A0004FEA80604FEA1C4C0CFB0BF7D21B03FB91
:1011B0000CF761EB07010CFB0EF7B0EB074072EB8D
:1011C00017420CFB08F734BFA2EB0742B2EB074211
:1011D00061EB174115EB1C154FEA813141EA924151
:1011E0004FEA823242EA90424FEA80304FEA0C7670
:1011F00044F1000448EA03434EEA0B484FF0000E66
:10120000B2EB080C71EB030724BF624639464EEB84
:101210000E0E4FF0000B0018524149414BEB0B0BE7
:10122000B2EB080C71EB03077BF1000B24BF6246A5
:1012300039464EEB0E0E4FF0000B0018524149415B
:101240004BEB0B0BB2EB080C71EB03077BF1000BC4
:1012500024BF624639464EEB0E0E51EA020718BF14
:1012600046F0010616EB0E7655F1000254F100012E
:1012700003D5BDE88901BDE80088BDE88901BDE866
:101280000048B619524141EB0101A3F10103704737
:1012900080807F7E7D7C7B7A7978777676757473B3
:1012A000727171706F6E6E6D6C6C6B6A6A69686872
:1012B000676666656464636362616160605F5F5E08
:1012C0005E5D5D5C5C5B5B5A5A595958585757567E
:1012D00056555555545453535252525151505050E3
:1012E0004F4F4F4E4E4D4D4D4C4C4C4B4B4B4A4A35
:1012F0004A49494948484847474747464646454579
:1013000045444444444343434342424242414141B1
:10131000002B26D4770021D01CB54FEA370703B441
:101320004FF010004FF010014FF000000FBCBDE86F
:1013300010400BF1010BBBF1010F08BF5FEA17076B
:1013400022BF12F1010211F101014FF0004143F1FE
:10135000000300F0004043EA00007047F9D357084B
:10136000DAE746EA064613F1400F4FEA16461FDD5C
:1013700013F1200FDFBF16430A46002120335B42E2
:10138000C8D0C3F1200746EA064602FA07F74FEA3B
:10139000164646EA0706C3F1200722FA03F201FACD
:1013A00007F721FA03F14FF0000342EA0702B1E721
:1013B00046EA020646EA06464FEA164646EA0106AD
:1013C000BCBF46EA0646360C4FF000034FF0000261
:1013D0004FF000019EE72DE9C048934630B491E8F4
:1013E000380007C831EA400C48BF34EA430C03D543
:1013F000FFF7F2FDFFF78CFFF0BCBDE800882DE998
:10140000C048934630B491E8380007C810F0804FC8
:1014100008BF13F0804F03D100F005F8FFF778FF05
:10142000F0BCBDE8008820F07F4780EA030023F08D
:101430007F4C07EB0C03A3F57C5300F00040A3F1B5
:10144000FE0392F0000F00F0B38095F0000F00F063
:1014500077802DE901494FEA11404FEA144621EA0D
:10146000004800FB06FC24EA064708FB06F607FBDB
:1014700008F800FB07F718EB06484CEB164C4FEA50
:10148000124B18EB07484FEA15464CEB174022EA7F
:101490000B4E0BFB06FC25EA06470EFB06F607FB88
:1014A0000EFE0BFB07F71EEB064E4CEB164C4FF0F7
:1014B00000061EEB074E4CEB174B18EB0B0840F1E8
:1014C000000018EB0E0B58EB000840F100008F1ADB
:1014D0004FF000013CBFC943661B14BFB5EB040CC1
:1014E00000213CBFC943F61B4FEA17444EEA8E0E5B
:1014F00027EA04454FEA1C4704FB07622CEA074C25
:1015000005FB07F70CFB05F604FB0CFC16EB074686
:1015100042EB174216EB0C4642EB1C421BEB060655
:1015200058EB0202414146EA9E0601D5BDE8018919
:10153000B619524141EB0101A3F10103BDE8018954
:101540004FEA14454FEA114724EA054621EA074CC1
:1015500005FB07F406FB07F70CFB06F105FB0CFC8B
:1015600011EB074144EB17444FEA124711EB0C41D2
:1015700044EB1C4422EA074C05FB07F206FB07F785
:101580000CFB06F605FB0CFC16EB074642EB17427C
:1015900016EB0C4642EB1C456A1854F1000148BF9B
:1015A0007047B619524141EB0101A3F101037047A5
:1015B00095F0000F37D04FEA11424FEA144721EA65
:1015C000024624EA074C02FB07F106FB07F70CFB77
:1015D00006F402FB0CFC14EB074441EB17414FEA05
:1015E000154714EB0C4441EB1C4125EA074C02FB68
:1015F00007F506FB07F70CFB06F602FB0CFC16EBE7
:10160000074645EB174516EB0C4645EB1C421219F5
:1016100051F1000148BF7047B619524141EB010139
:10162000A3F1010370474FEA14454FEA114724EA3A
:10163000054621EA074C05FB07F106FB07F70CFB03
:1016400006F24FF0000605FB0CFC12EB074241EBE3
:10165000174112EB0C4251EB1C4148BF70479218E6
:1016600041EB0101A3F10103704721B1826842F00F
:101670000102826003E0826822F00102826070470A
:101680000021084A1168084A1140D0E900231A4392
:1016900083681A43C3681A431143044AC2F8041307
:1016A0007047000004230140E030FCFF00200140AF
:1016B00010B50121080202F0B3FB00214FF4807045
:1016C00002F0AEFB10BD0146C86C80B27047024606
:1016D000002013680B400BB1012000E00020704790
:1016E00030B50246002000235068104C20400D7990
:1016F0000C6844EA05242043506090680C4C20405C
:10170000D1E903542C438D682C434D7944EA4504B8
:1017100020439060D06A20F470000C7D641EE4B217
:10172000234340EA0350D06230BD0000FFFEFFFCBF
:10173000FDF7FFC0F0B504460D4600200021092D3D
:1017400011DDE068A5F10A0606EB4607072606FA52
:1017500007F18843A5F10A0606EB460603FA06F1EF
:101760000843E0600CE0206905EB4507072606FA10
:1017700007F1884305EB450603FA06F108432061AB
:10178000072A0FDA606B561E06EB86071F2606FA3D
:1017900007F18843561E06EB860605FA06F1084354
:1017A000606322E00D2A0FDA206BD61F06EB860756
:1017B0001F2606FA07F18843D61F06EB860605FAB0
:1017C00006F10843206310E0E06AA2F10D0606EB83
:1017D00086071F2606FA07F18843A2F10D0606EBDD
:1017E000860605FA06F10843E062F0BD1CB501214A
:1017F000042002F0D5FA03220621114800F0AEFCC5
:10180000032207210E4800F0A9FC032208210C48FE
:1018100000F0A4FC03220921094800F09FFC4FF4CA
:101820007070009002208DF8040000208DF80600F2
:1018300002208DF805006946014800F047FC1CBDF8
:101840000008024030B589B005460C46012102204F
:1018500002F0D6FA234803F08DF9681E0790ADF820
:1018600018400020ADF81A00ADF8200006A91D4868
:1018700003F03EFC6020ADF804000020ADF810003D
:1018800003900120ADF8060001A9164803F0B6FA4E
:1018900001A9144803F0FAFA01A9124803F056FB13
:1018A00001A9104803F0ACFB01210E4803F052F9E6
:1018B00008210C4803F0E0FA08210A4803F038FB3D
:1018C0000821084803F092FB0821064803F0D4FBE6
:1018D0000121044803F020F90121024803F02EF908
:1018E00009B030BD00040140134991ED002AB8EE63
:1018F000C22A32EE402AF0EE421A9FED102A32EE52
:10190000602AB0EE421A0E4991ED002A61EE022AD9
:101910009FED0C3A82EE832A0B49D1ED002AB1EEFD
:10192000623ADFED083AC3EE232A12EEA12ABDEE99
:10193000C22A12EE100A70472800002000000000A2
:101940004C0100200000C8424801002070B5044648
:101950004FF47A750623012221460C48FFF7EAFE70
:101960000A48806840F080400849886000BF022132
:101970000648FFF7ACFE20B9281EA5F101018DB283
:10198000F5D10248FFF79FFE70BD00000020014026
:101990002DE9F04107460C460025002606E03846B2
:1019A000FFF7D4FF284485B2701CC6B2A642F6DB0E
:1019B000042C01D1AD1002E095FBF4F085B228466D
:1019C000BDE8F08100B58DB00121084602F0E8F9CC
:1019D0000121080202F014FA10200B9003208DF868
:1019E00030000BA9114800F071FB002001904FF46A
:1019F0000030029001A8FFF743FEFFF759FE0020D8
:101A00008DF818008DF819000890099001208DF8C4
:101A100028000020059005A90548FFF761FE012177
:101A20000348FFF722FE0DB000BD00000000024099
:101A30000020014000BFFEE7B0EE401A9FED0C0A07
:101A4000F0EE401AB7EE000A30EE612A094890ED38
:101A5000000A0948D0ED002A00EEA20A22EE000A90
:101A600001EE810A034880ED000A90ED000A7047FC
:101A70000AD7A33CC401002084010020B0EE401A24
:101A80009FED0C0AF0EE401AB7EE000A30EE612A24
:101A9000094890ED000A0948D0ED002A00EEA20A9C
:101AA00022EE000A01EE810A034880ED000A90ED63
:101AB000000A70470AD7A33C0402002084010020DA
:101AC0000146072323EA01021202054B18684FF66C
:101AD000FF031840034B18431043014B1860704735
:101AE0000CED00E00000FA0538B5002000906B46D0
:101AF00001227521682005F0CFFD33A0FEF70AFC16
:101B00009DF8000068281DD000BF00BF00BF00BFC7
:101B100000BFBFF34F8F00BF00BF00BF3448006855
:101B200000F4E06033490843001D3149086000BFFC
:101B300000BF00BFBFF34F8F00BF00BF00BF00E07A
:101B400000BFFDE705F0B6FF00283CD1782006F085
:101B5000BBFD10B928A0FEF7DDFB782005F090FE54
:101B600010B92EA0FEF7D6FBC82006F05FFD10B915
:101B700034A0FEF7CFFB04F0D3FD10B93BA0FEF775
:101B8000C9FB474805F0F3FD044605F023F810B9FA
:101B900044A0FEF7BFFB40F2731004F069FC10B9DB
:101BA0004AA0FEF7B7FBC82004F044FF10B951A0CB
:101BB000FEF7B0FB06F0C6FE012006F033FC10B9BC
:101BC00055A0FEF7A7FB38BD52656164696E6720BA
:101BD0004D5055363035302057484F5F414D5F49A5
:101BE0002072656769737465722E2E2E2E000000B8
:101BF0000CED00E00000FA056D70755F7365745FB1
:101C000073656E736F7220636F6D706C65746520A1
:101C10002E2E2E2E2E2E0D0A000000006D70755FE8
:101C2000636F6E6669677572655F6669666F20636C
:101C30006F6D706C657465202E2E2E2E2E2E0D0A63
:101C4000000000006D70755F7365745F73616D7087
:101C50006C655F7261746520636F6D706C6574652F
:101C6000202E2E2E2E2E2E0D0A000000646D705F89
:101C70006C6F61645F6D6F74696F6E5F64726976BB
:101C800065725F6669726D7761726520636F6D70F2
:101C90006C657465202E2E2E2E2E2E0D0A0000004F
:101CA00090000020646D705F7365745F6F7269658A
:101CB0006E746174696F6E20636F6D706C657465AE
:101CC000202E2E2E2E2E2E0D0A000000646D705F29
:101CD000656E61626C655F666561747572652063CF
:101CE0006F6D706C657465202E2E2E2E2E2E0D0AB3
:101CF00000000000646D705F7365745F6669666FF5
:101D00005F7261746520636F6D706C657465202E01
:101D10002E2E2E2E2E0D0A006D70755F7365745F6A
:101D2000646D705F737461746520636F6D706C6552
:101D30007465202E2E2E2E2E2E0D0A0070470000C8
:101D40002DE9F04134480068002862D10820334969
:101D5000086033480078401C314908700846007814
:101D6000142803DD0020087001F0F6FC2D480078EF
:101D700000F026FA002002F0E9FA8046012002F085
:101D8000E5FA47422848D0ED000A284890ED000ABD
:101D9000FFF7AAFD04463946404603F09FFB05467F
:101DA000234890ED000A03F031FA064660193044EA
:101DB000204908606019801B1F4908601D480068A1
:101DC00001F0D6FF1B4908601B48006801F0D0FFF6
:101DD00019490860194A51421648006801F0D5FFB8
:101DE00014490860154A51421348006801F0CDFFBC
:101DF000114908601248D0ED000A0C4890ED000A25
:101E000003F0CEF928B90C4801680A48006802F0CE
:101E100085FCBDE8F08100000C824042143C01408A
:101E200045010020040000200C00002008000020D4
:101E3000100000201400002018000020D8F5FFFF3B
:101E400040010020002123498279002A3AD00A4625
:101E5000126803689A430B461A600A1D12680368E9
:101E60009A430B1D1A60027911440A6803681A43E9
:101E70000A60184A0832126803689A43154B0833FF
:101E80001A601A1D126803689A43124B0C331A60C9
:101E90004279102A0ED11A1F126803681A430D4B9B
:101EA00008331A601A1D126803681A43094B0C3371
:101EB0001A600DE00749427911440A6803681A4321
:101EC0000A6005E0027911440A6803689A430A60CF
:101ED00070470000003C014000B589B0012102209C
:101EE00001F06EFF0121084601F05AFF022206218F
:101EF000264800F033F902220721244800F02EF989
:101F0000C020019000208DF80B0002208DF8080001
:101F10008DF8090000208DF80A0001A91B4800F087
:101F2000D5F806A803F026F90020ADF818004FF602
:101F3000FF7007900020ADF82000ADF81A0006A948
:101F4000134803F0D5F800231A460321104802F085
:101F5000D9FE03A802F03FFF0A20ADF8140003A940
:101F60000B4802F001FF0121094802F0E1FD0122C6
:101F70001146074802F038FF0021054803F089F8B0
:101F80000121034802F0DAFD09B000BD0000024063
:101F90000004004000B589B00121042001F010FFC9
:101FA0000121022001F0FCFE02220621274800F058
:101FB000D5F802220721254800F0D0F8C020019072
:101FC00002208DF8080000208DF80B0002208DF80B
:101FD000090000208DF80A0001A91C4800F076F8DD
:101FE00006A803F0C7F80020ADF818004FF6FF7000
:101FF00007900020ADF82000ADF81A0006A914489B
:1020000003F076F800231A460321114802F07AFE05
:1020100003A802F0E0FE0A20ADF8140003A90C4862
:1020200002F0A2FE01210A4802F082FD01221146BF
:10203000074802F0D9FE0021054803F02AF80121E3
:10204000034802F07BFD09B000BD0000000402401F
:102050000008004030B10749096841F48061054A31
:10206000116005E00349096821F48061014A1160AB
:1020700070470000003C024030B10749096841F454
:102080000071054A116005E00349096821F40071F7
:10209000014A116070470000003C024030B107491E
:1020A000096841F48071054A116005E00349096837
:1020B00021F48071014A116070470000003C024029
:1020C000014A107070470000003C0240F0B50A461B
:1020D00000210023002400BF3DE0012505FA01F3A3
:1020E000156805EA03049C4234D105684F000326B5
:1020F000BE40B543056015794E00B54006683543CE
:1021000005601579012D02D01579022D16D185684B
:102110004F000326BE40B543856055794E00B5405B
:10212000866835438560456801268E40B543456025
:10213000456896798E40B6B235434560C5684F0014
:102140000326BE40B543C560D5794E00B540C6688C
:102150003543C560491C1029BFD3F0BDF0B500233D
:1021600000244D07ED0E02FA05F3CE1000F1200514
:1021700055F826504E07F70E0F26BE40B543CF1038
:1021800000F1200646F82750CE1000F1200555F842
:10219000265045EA0304CE1000F1200545F82640FC
:1021A000F0BD0246002013690B400BB1012000E096
:1021B000002070470A048261704781617047000007
:1021C00030B52DED108B89B0044602F0DBF8D8490C
:1021D0000860012C26D101F06DFFD64890ED000A71
:1021E000D54880ED000AD548B0F9000000EE100A8D
:1021F000B8EEC00AD24880ED000AD048B0F9040019
:1022000000EE100AB8EEC00ACE4880ED000ACE48B3
:10221000B0F9040000EE100AB8EEC00ACB4880ED19
:10222000000A81E14421D02000F02BFA0546432129
:10223000D02000F026FA05EB002000EE100AF8EEA0
:10224000C08A4621D02000F01CFA05464521D02046
:1022500000F017FA05EB002000EE100AB8EEC0AA55
:102260004821D02000F00DFA05464721D02000F08B
:1022700008FA05EB002000EE100AF8EEC0AA3C2197
:10228000D02000F0FEF905463B21D02000F0F9F9FE
:1022900005EB002000EE100AF8EEC09A3E21D02097
:1022A00000F0EFF905463D21D02000F0EAF905EBFA
:1022B000002000EE100AB8EEC09A4021D02000F0B5
:1022C000E0F905463F21D02000F0DBF905EB0020C6
:1022D00000EE100AB8EEC08A9FED9D0AF4EEC08AA7
:1022E000F1EE10FA05DD9FED9B0A38EEC00AF0EE24
:1022F000408A9FED970AB4EEC0AAF1EE10FA05DD10
:102300009FED940A3AEE400AB0EE40AA9FED900A83
:10231000F4EEC0AAF1EE10FA05DD9FED8E0A3AEE5A
:10232000C00AF0EE40AA9FED8A0AF4EEC09AF1EEE0
:1023300010FA05DD9FED870A39EEC00AF0EE409AEB
:102340009FED830AB4EEC09AF1EE10FA05DD9FED21
:10235000810A39EE400AB0EE409A9FED7D0AB4EE54
:10236000C08AF1EE10FA05DD9FED7A0A38EE400AD8
:10237000B0EE408AB1EE680A714880ED000A9FED28
:10238000760A89EE80DA9FED740AC9EE00DA9FEDD5
:10239000720A88EE00EA9FED710A88EE80BA9FED1E
:1023A0006F0ACAEE00BA6E480078022826D1B1EE54
:1023B0004B1AF0EE4E0AB0EE6D0A00F041FC9FEDB4
:1023C000691AC0EE010A9FED680A20EE800A59489A
:1023D00080ED000AB0EE6B1AF0EE4E0AB0EE4D0A38
:1023E00000F0BEFDDFED5F0A80EE201A9FED5E0A71
:1023F00021EE000A5D4880ED000A89E05848007827
:1024000003287DD118EE100A07F0D2F8CDE90201B9
:1024100019EE100A07F0CCF8CDE900019DED021B82
:102420009DED000B03F068FC8DED040B9FED500B50
:1024300053EC102B9DED040B51EC100B06F0F8FD46
:1024400041EC1C0B9FED4C0B53EC102B06F098FC51
:10245000CDE906019DED060B51EC100B06F0B6FB25
:102460000EEE900A18EE100A07F0A2F841EC1C0BD1
:1024700019EE900A07F09CF8B0EE4C1AF0EE6C1AC8
:10248000CDE900019DED000B03F036FC8DED020B54
:102490009FED370B53EC102B9DED020B51EC100B05
:1024A00006F0C6FD9FED340B53EC102BCDE9040173
:1024B0009DED040B51EC100B06F062FCCDE906011A
:1024C0009DED060B51EC100B06F080FB0FEE100A91
:1024D0009FED2B0AC8EE800AB0EE60CAB0EE6E0A1D
:1024E000FFF7AAFAB1EE400A124880ED000A9FED0C
:1024F000240ACAEE000AB0EE60CAB0EE4F0A00E04D
:1025000006E0FFF7BBFAB1EE400A184880ED000A7A
:10251000084890ED000A084880ED000A0948C0ED1F
:1025200000AA0A4880ED008A09B0BDEC108B30BDCE
:102530001C0000207800002008000020640000201B
:102540000C000020100000206A0000202000002065
:102550000000004700008047E1FAD04433F36A44AA
:1025600004000020DB0F49400000344374000020C9
:10257000000000000080664000000060FB21094070
:102580003333834110B52DED028B00F007F8B0EE28
:10259000408AB0EE480ABDEC028B10BD10B52DED9F
:1025A000048B0A210420FFF7F3F9044621460EA00C
:1025B000FDF7B0FE00EE104AB8EE400ADFED0E0A5D
:1025C00020EE200AB0EE408A18EE100A06F0F0FF66
:1025D00041EC190B53EC192B08A0FDF79BFEB0EE54
:1025E000480ABDEC048B10BD414443205261773A48
:1025F0002025640D0A0000006740533A566F6C7442
:102600006167653A20252E346620560D0A000000C9
:1026100000BFFEE770B50246002500230024002617
:10262000938A03F0020010B923F0100008B1148B54
:1026300001E0002070BD240443EA040020F07F453F
:1026400005EA0100884201D1012600E0002630465B
:10265000F0E721B1028842F48072028004E002882F
:102660004FF6FF631A400280704721B1028842F49E
:102670000072028004E002884FF6FF531A40028085
:10268000704770B505460E46002400F051F9284603
:1026900000F010F9641C00F0CDF9304600F00AF9A2
:1026A000641C00F0C7F900F043F9691CC8B200F0DF
:1026B00001F9641C00F0BEF9002000F0BBF80446EC
:1026C00000F076F9204670BD12B141F0010101E041
:1026D00001F0FE01018270470182704770B5044627
:1026E0000D4601211348FFF7B4FF1349114800F0CC
:1026F0008FF9002278210F48FFF7E6FF0F490D48B8
:1027000000F086F921460B48FFF7E6FF0B49891ECA
:10271000084800F07DF929460648FFF7DDFF074924
:10272000891C044800F074F901210248FFF79DFF5D
:1027300070BD00000054004001000300820007004B
:1027400010B50020144908601448006820F44010B7
:10275000124908600846006840F480100860081DAF
:10276000006820F48060091D08600846006840F495
:102770008060086000200A49C1F8A802012003F027
:102780003BFE01200449086003F036FE00200449A6
:10279000C1F8AC0210BD0000AC824042000402400F
:1027A000008040421CB50121022001F0F9FA4FF4EB
:1027B0004060009000208DF8060001208DF8040094
:1027C00002208DF8050069460148FFF77FFC1CBD1B
:1027D0000004024010B50020134908601348006847
:1027E00020F44010114908600846006840F4801049
:1027F0000860081D006820F48060091D0860084614
:10280000006840F48060086001200949C1F8A8020E
:1028100003F0F2FD01200449086003F0EDFD002003
:102820000349C1F8AC0210BDAC8240420004024032
:102830000080404270B5054600241B48006820F423
:1028400040101949086008460068086016480C30B6
:10285000006820F4401014490C31086008460068F4
:102860000860002616E0002010490860022003F0EE
:10287000C3FD01200E49C1F8AC026006040E0B48EE
:102880008438006808B1601CC4B2022003F0B4FDB3
:10289000701CC6B2082EE6DB15B1FFF751FF01E050
:1028A000FFF798FF204670BD00040240AC82404212
:1028B0000080404270B504461A48006820F4401079
:1028C000184908600846006840F480100860081D38
:1028D000006820F48060091D08600846006840F424
:1028E00080600860002010490860002516E0E009BB
:1028F0000D49091F08606006040E012003F07CFDED
:1029000001200A49C1F8AC0203F076FD0020064917
:102910000860012003F070FD681CC5B2082DE6DBDD
:1029200070BD000000040240AC8240420080404282
:1029300010B51C48006820F440101A490860084689
:10294000006840F480100860081D006820F4806072
:10295000091D08600846006840F480600860012096
:10296000114908601148D0F8280208B9002010BDAC
:1029700001200D49091D086003F03EFD00200B49B0
:10298000C1F8A80208488038006808B10020EEE7C6
:10299000012003F031FD00200349091D08600120DA
:1029A000E5E7000000040240A88240420080404267
:1029B00010B51448006820F4401012490860084619
:1029C000006840F480100860081D006820F48060F2
:1029D000091D08600846006840F480600860002017
:1029E000094908600949C1F8A802012003F004FD63
:1029F0000120054908600549C1F8A80203F0FCFC64
:102A000010BD000000040240AC8240420080404201
:102A100070B505460E464FF47A7402E0641E04B9A0
:102A200005E031462846FFF7F5FD0128F6D100BF45
:102A300070BD000010B500241A48006820F4401052
:102A40001849086008460068086016480C3000689D
:102A500020F4401013490C310860084600680860F3
:102A600001201149086003F0C7FC01200F49C1F89B
:102A7000AC0203F0C1FC0AE0601CC4B2322C03DDDE
:102A8000FFF796FF002010BD012003F0B5FC0648BB
:102A9000803800680028EFD10349091D0860012033
:102AA000F1E7000000040240A8824042008040425A
:102AB00070B505460E46144631462846FFF7E1FD3F
:102AC0002070012070BDF8B506460F4614461D461D
:102AD0006A4639463046FFF7EBFF2DB10120A04092
:102AE0009DF80010084305E00120A0409DF800106B
:102AF00021EA0000C0B200909DF80020394630461F
:102B000000F036F8F8BD2DE9F8430746884614462C
:102B10001D46089E6A4641463846FFF7C9FF28B35E
:102B2000601CFF2101FA00F0C4F108012944491E8C
:102B3000FF220A41104300F0FF09C5F1080006FA20
:102B400000F0C6B2C4F1070006419DF8000000EA9B
:102B5000090000909DF80000304300909DF800208F
:102B60004146384600F004F8BDE8F8830020FBE752
:102B700037B504460D4602AB01222946204600F037
:102B800001F83EBD2DE9F04180460D4616461F4630
:102B90000024FFF7CDFE4046FFF78CFEFFF74AFF0B
:102BA0002846FFF787FEFFF745FF00BF06E0385DC8
:102BB000FFF780FEFFF73EFF601CC4B2B442F6DBB5
:102BC000FFF7F6FE0120BDE8F08100001CB50121F1
:102BD000084601F0E5F84FF40050009001208DF810
:102BE000040000208DF806008DF8050069460348B2
:102BF000FFF76CFA0020024908601CBD000002408B
:102C0000B40240421CB50121082001F0C9F84FF47C
:102C10008050009001208DF8040000208DF8050000
:102C20008DF807008DF8060069460348FFF74EFA55
:102C30000020024908601CBD000C0240B0824142E5
:102C400000B52DED0C8BABB0B0EE408AF0EE608A93
:102C5000B0EE419A9FEDBB0AB0EE40DABA4991E876
:102C60000D00C968CDE928232A9127908DED269A79
:102C7000B54B10330FCBCDE92423CDE92201B24966
:102C8000203103C9CDE92001AF49283103C9CDE97D
:102C90001E01AD4B30330FCBCDE91C23CDE91A011A
:102CA000A948403000681990A74B44330FCBCDE9B9
:102CB0001723CDE91501A449543103C9CDE9130106
:102CC0000020119012900F9010900B900C900D908E
:102CD0000E900790089009900A9005900690049035
:102CE00018EE900A06F064FC41EC1B0BB1EE480AAA
:102CF00010EE100A06F05CFC41EC1C0BB0EE4B1A17
:102D0000F0EE6B1AB0EE4C0AF0EE6C0A02F0F4FF33
:102D1000B0EE40AAF0EE60AA51EC1A0B05F056FF97
:102D200009EE900A11A8894922AA0123CDE90021C0
:102D3000029002221146104605F06EFD0FA826A94A
:102D400020AA0123CDE9002102901A46194602204B
:102D500005F062FD9DED110ADDED0F0A30EE200A4F
:102D60007B4880ED000A9DED120ADDED100A30EE81
:102D7000200A80ED010A0BA8764922AA0223CDE998
:102D8000002102901A461946184605F045FD07A88D
:102D900015A90BAA0223CDE9002102901A46194673
:102DA000184605F039FD9DED070ADDED1A0A30EEF3
:102DB000200A694880ED000A9DED080ADDED1B0A36
:102DC00030EE200A80ED010A9DED090ADDED1C0AB6
:102DD00030EE200A80ED020A9DED0A0ADDED1D0AA3
:102DE00030EE200A80ED030A05A85B491EAA0223E3
:102DF000CDE9002102901A461946012005F00CFD8C
:102E000004A813A905AA0123CDE9002102900222FA
:102E10001146184605F000FD9DED040ADDED190A86
:102E200030EE200AF7EE000A80EE801A8DED041ACB
:102E300011A813A9484A0123CDE9002102900222DA
:102E40001146104605F0E8FC444804A911AA0123E4
:102E5000CDE9002102901A461946022005F0DCFC5B
:102E600004A83B491EAA0123CDE9002102900222B9
:102E70001146184605F0D0FC9DED040A39EEC00A53
:102E80008DED040A11A804A9344A0123CDE90021DB
:102E900002901A461946022005F0BEFC2C4890ED1F
:102EA000000ADDED110A30EE200A284880ED000A04
:102EB000274890ED010ADDED120A30EE200A234882
:102EC00080ED010A0BA81EA9244A0223CDE90021A6
:102ED000029001221146184605F09EFC9DED270A3E
:102EE000DDED0B0A30EE600A8DED0B0A9DED280A30
:102EF000DDED0C0A30EE600A8DED0C0A9DED290A1D
:102F0000DDED0D0A30EE600A8DED0D0A9DED2A0A09
:102F1000DDED0E0A30EE600A8DED0E0A0D480E4909
:102F20000BAA0223CDE9002102901A461946184641
:102F300005F072FC054890ED000A2BB0BDEC0C8B3F
:102F400000BD00000AD7A33B08CB00080802002000
:102F5000100200201802002088040020280200200F
:102F600000B52DED0C8BABB0B0EE408AF0EE608A70
:102F7000B0EE419A9FEDBB0AB0EE40DABA4991E853
:102F80000D00C968CDE928232A9127908DED269A56
:102F9000B54B10330FCBCDE92423CDE92201B24943
:102FA000203103C9CDE92001AF49283103C9CDE95A
:102FB0001E01AD4B30330FCBCDE91C23CDE91A01F7
:102FC000A948403000681990A74B44330FCBCDE996
:102FD0001723CDE91501A449543103C9CDE91301E3
:102FE0000020119012900F9010900B900C900D906B
:102FF0000E900790089009900A9005900690049012
:1030000018EE900A06F0D4FA41EC1B0BB1EE480A18
:1030100010EE100A06F0CCFA41EC1C0BB0EE4B1A85
:10302000F0EE6B1AB0EE4C0AF0EE6C0A02F064FEA1
:10303000B0EE40AAF0EE60AA51EC1A0B05F0C6FD06
:1030400009EE900A11A8894922AA0123CDE900219D
:10305000029002221146104605F0DEFB0FA826A9B9
:1030600020AA0123CDE9002102901A461946022028
:1030700005F0D2FB9DED110ADDED0F0A30EE200ABE
:103080007B4880ED000A9DED120ADDED100A30EE5E
:10309000200A80ED010A0BA8764922AA0223CDE975
:1030A000002102901A461946184605F0B5FB07A8FC
:1030B00015A90BAA0223CDE9002102901A46194650
:1030C000184605F0A9FB9DED070ADDED1A0A30EE62
:1030D000200A694880ED000A9DED080ADDED1B0A13
:1030E00030EE200A80ED010A9DED090ADDED1C0A93
:1030F00030EE200A80ED020A9DED0A0ADDED1D0A80
:1031000030EE200A80ED030A05A85B491EAA0223BF
:10311000CDE9002102901A461946012005F07CFBFA
:1031200004A813A905AA0123CDE9002102900222D7
:103130001146184605F070FB9DED040ADDED190AF5
:1031400030EE200AF7EE000A80EE801A8DED041AA8
:1031500011A813A9484A0123CDE9002102900222B7
:103160001146104605F058FB444804A911AA012352
:10317000CDE9002102901A461946022005F04CFBC9
:1031800004A83B491EAA0123CDE900210290022296
:103190001146184605F040FB9DED040A39EEC00AC1
:1031A0008DED040A11A804A9344A0123CDE90021B8
:1031B00002901A461946022005F02EFB2C4890ED8D
:1031C000000ADDED110A30EE200A284880ED000AE1
:1031D000274890ED010ADDED120A30EE200A23485F
:1031E00080ED010A0BA81EA9244A0223CDE9002183
:1031F000029001221146184605F00EFB9DED270AAC
:10320000DDED0B0A30EE600A8DED0B0A9DED280A0C
:10321000DDED0C0A30EE600A8DED0C0A9DED290AF9
:10322000DDED0D0A30EE600A8DED0D0A9DED2A0AE6
:10323000DDED0E0A30EE600A8DED0E0A0D480E49E6
:103240000BAA0223CDE9002102901A46194618461E
:1032500005F0E2FA054890ED000A2BB0BDEC0C8BAE
:1032600000BD00000AD7A33B64CB00083002002059
:103270003802002040020020980400205002002064
:103280001CB50121084600F08BFD012000900020B4
:103290008DF8040001208DF8070069460148FEF70B
:1032A00015FF1CBD0000024010B5044600F022F8D6
:1032B00001280BD1601C0D490988B1EB400F0ADAD7
:1032C0000A480088401C0949088004E0002007499A
:1032D00008800749088005480088022803D101209A
:1032E0000349088010BD0020FCE70000A200002078
:1032F000A000002010B501210348FEF752FF08B9D5
:10330000012010BD0020FCE70000024000B585B0A0
:103310000121880300F074FD0121022000F040FD2E
:103320000820039000208DF8100001208DF8130074
:1033300003A91248FEF7CAFE0321012001F058F943
:103340000820019000208DF808000C208DF809005D
:1033500001208DF80A0001A8FEF774FD09208DF800
:10336000000002208DF8010001208DF802008DF888
:103370000300684600F054F805B000BD00040240A8
:1033800010B5022000F010F8032000F021F8002012
:1033900000F014F8002000F037F8002000F02BF8BF
:1033A000002000F01FF810BD38B5044603230222A8
:1033B0006B21D0200094FFF7A6FB38BD38B504463A
:1033C000022304221C21D0200094FFF79CFB38BD6F
:1033D00038B50446022304221B21D0200094FFF7B5
:1033E00092FB38BD10B50446234601223721D02078
:1033F000FFF769FB10BD10B50446234605226A217C
:10340000D020FFF760FB10BD10B50446234606220E
:103410006B21D020FFF757FB10BD00BFFEE77047C0
:1034200070B5002100230F22C4781CB3174C246808
:1034300004F4E064C4F5E064C4F30721C1F10404BA
:10344000E3B20A4144789C40E1B2847814402143BD
:103450000C07210E0E4C05786155047804F01F0509
:103460000124AC4005786D11AD0005F1E025C5F8EB
:10347000004109E0047804F01F050124AC40054D2B
:103480000678761145F8264070BD00000CED00E08E
:1034900000E400E080E100E010B5002001F000F859
:1034A00010BDF8B507460C4615461E46002C0CDD2F
:1034B000032C0ADC601E00EB80004006020E2B4647
:1034C00000213846009600F001F8F8BD2DE9F041E2
:1034D00007460C4615461E46DDF818800EB1FFF76C
:1034E000DBFF2946204600F0EBFF01220549384664
:1034F00001F040F8B8F1000F01D000F0C3F8BDE8CA
:10350000F0810000A400002010B500F013F800F0D6
:1035100037F801231A46194601A0FFF7C2FF10BD74
:103520006F6C656420696E6974207375636365737D
:10353000732100001048006840F002000E49086046
:103540000E48006820F440300C49086008460068C6
:1035500040F4803008600846006820F4402008608D
:103560000846006840F480200860081D006840F4A8
:103570004070091D08607047303802400004024066
:1035800010B5642002F01AFFAE210020FFF7A6F864
:10359000A6210020FFF7A2F8AE210020FFF79EF839
:1035A000D5210020FFF79AF880210020FFF796F838
:1035B000A8210020FFF792F81F210020FFF78EF8C6
:1035C000D3210020FFF78AF800210846FFF786F88C
:1035D00040210020FFF782F88D210020FFF77EF8C0
:1035E00014210020FFF77AF820210020FFF776F859
:1035F00002210020FFF772F8A1210020FFF76EF8EA
:10360000C8210020FFF76AF8DA210020FFF766F8EA
:1036100002210020FFF762F881210020FFF75EF809
:10362000CF210020FFF75AF8D9210020FFF756F8E4
:10363000F1210020FFF752F8DB210020FFF74EF8C0
:1036400040210020FFF74AF82E210020FFF746F81E
:10365000A4210020FFF742F8A6210020FFF73EF842
:10366000AF210020FFF73AF8002000F019FF00F02A
:1036700097FF00200249088048800120487110BD52
:10368000BC00002010B500F08BFF10BD01460148C2
:10369000405C70476C040020002004E00021034AD5
:1036A0001154411CC8B20928F8DB70476C04002093
:1036B00038B50446012000900020254948700120BB
:1036C00000903DE0BDF80000204028B14FF40041DB
:1036D0002048FEF772FD04E04FF400411D48FEF75C
:1036E00069FD052002F088FE4FF400511948FEF7ED
:1036F00064FD052002F080FE4FF400511548FEF7EE
:1037000059FD052002F078FE4FF400511148FEF7F4
:1037100054FD052002F070FE4FF480410D48FEF785
:1037200040FD30B10A484078BDF800100843084910
:103730004870BDF800004FF6FF7101EA40000090AC
:10374000BDF80000FF28BDDD192002F055FE38BD90
:103750006C0400200004024010B50720FFF796FF1C
:10376000BF4908600820FFF791FFBE4908600520A7
:10377000FFF78CFFBC4908600620FFF787FFBB49B5
:10378000086000F085F9BA490860B5480068FF286C
:1037900013D1B4480068FF280FD1B3480068FF2850
:1037A0000BD1B2480068FF2807D1B2480068012851
:1037B00002D10020AF4908608BE0AE48006810B924
:1037C0000120AC490860A6480068322803DAA54801
:1037D0000068322807DBA4480068322807DAA348CB
:1037E0000068322803DA0720A349087071E09C487A
:1037F0000068962803DD9B480068322807DB9A485A
:103800000068962807DD99480068322803DA082006
:10381000994908705DE092480068322803DA9148BF
:103820000068962807DC90480068322807DA8F483D
:103830000068962803DD09208F49087049E0884810
:103840000068962803DD87480068962807DC8648CC
:103850000068962807DD85480068962803DD0A2061
:103860008549087035E07F4800685A2803DB7F48A7
:1038700000685A2803DA01207F49087010BD794892
:103880000068962803DC79480068962803DD02204A
:1038900079490870F2E7724800685A2803DB7248D9
:1038A00000685A2803DA032073490870E6E76C4879
:1038B0000068962803DC6C480068962803DD042025
:1038C0006D490870DAE76A48006810B900206A4953
:1038D000087067480068401F0C287DD2DFE800F0C0
:1038E0007D82878C074206417E83888D00BF6348B6
:1038F0000078401C6149087008460078052801DD01
:10390000052008705E4890ED000AF2EE040A30EEE1
:10391000200A80ED000A5B4890ED000AF2EE080AEA
:1039200030EE200A80ED000A554890ED000ADFEDE8
:10393000560AB4EEE00AF1EE10FA03DD9FED520AEA
:1039400080ED000A4F4890ED000ADFED500AB4EE1A
:10395000E00AF1EE10FA03DD9FED4C0A80ED000A5B
:103960007BE000BF45480078401E44490870084687
:103970000078012801DA01200870414890ED000A22
:10398000F2EE040A30EE600A80ED000A3D4890ED48
:10399000000AF2EE080A30EE600A80ED000A3848AC
:1039A00090ED000AF2EE040AB4EEE00AF1EE10FA2D
:1039B00003D2B2EE040A80ED000A324890ED000A0C
:1039C000F2EE080AB4EEE00AF1EE10FA03D2B2EE1B
:1039D000080A80ED000A40E013E000BF01202649FC
:1039E00008703AE000BF04202349087035E000BFAA
:1039F00002202149087030E000BF03201E490870F2
:103A00002BE01C480068012823D1164800685A287A
:103A100022DD144800688C281EDA114800685A28F4
:103A20001ADD0F4800688C2816DA104800685A28FA
:103A300012DD0E4800688C280EDA0B4800685A2800
:103A40000ADD094800688C2806DA00200A49087057
:103A500003E000200849087000BF00BF00BF0DE769
:103A600024010020280100202C010020300100202A
:103A70003401002038010020350000203C010020E6
:103A800060010020640100200000484200007042F4
:103A900010B5FFF701FE00F0ADF80F48C0780E49F1
:103AA000097940EA01200D49088000240FE00C4804
:103AB00010F81400401E012101FA00F0074909889E
:103AC000084010B9601CC0B210BD601CC4B2102CFC
:103AD000EDDB0020F8E700006C040020D40000209B
:103AE000D800002010B54FF480511548FEF762FB56
:103AF000102002F081FC0120FFF7DAFD4320FFF7E0
:103B0000D7FD0020FFF7D4FD0120FFF7D1FD0020F5
:103B1000FFF7CEFD0020FFF7CBFD0020FFF7C8FD2B
:103B20000020FFF7C5FD0020FFF7C2FD4FF48051D4
:103B30000348FEF742FB102002F05EFC10BD0000BF
:103B40000004024010B54FF480511548FEF732FBD7
:103B5000102002F051FC0120FFF7AAFD4320FFF7DF
:103B6000A7FD0020FFF7A4FD0020FFF7A1FD5A20CC
:103B7000FFF79EFD5A20FFF79BFD5A20FFF798FDA7
:103B80005A20FFF795FD5A20FFF792FD4FF4805120
:103B90000348FEF712FB102002F02EFC10BD0000BF
:103BA000000402401CB50121022000F0F9F84FF496
:103BB0008040009000208DF8040001208DF807005F
:103BC00069460B48FEF782FA4FF43040009001201E
:103BD0008DF8040002208DF8050000208DF8060005
:103BE0008DF8070069460248FEF770FA1CBD000018
:103BF000000402401CB50020019001200090010348
:103C00002948FEF7D7FA29490878FFF751FD2749D7
:103C10004878FFF74DFD022001903BE00120009025
:103C20002CE04FF400512048FEF7C7FA052002F0BF
:103C3000E3FB4FF400511C48FEF7BCFA052002F0EC
:103C4000DBFB4FF400511848FEF7B7FA4FF4804100
:103C50001548FEF7A6FA50B115489DF80410405CCF
:103C6000BDF80010084312499DF804208854BDF89F
:103C700000004FF6FF7101EA40000090BDF800001F
:103C8000FF28CEDD102002F0B7FB9DF80400401C99
:103C9000C0B201909DF804000928BFDB4FF48051A9
:103CA0000148FEF78AFA1CBD00040240D60000203D
:103CB0006C04002010B500F00BF800F009F800F0DB
:103CC00007F8FFF70FFF00F027F8FFF73BFF10BDE5
:103CD00010B54FF480510F48FEF76CFA102002F037
:103CE0008BFB0120FFF7E4FC4220FFF7E1FC002002
:103CF000FFF7DEFC0020FFF7DBFC0020FFF7D8FC1D
:103D00004FF480510348FEF758FA102002F074FB7C
:103D100010BD00000004024010B54FF4805113485C
:103D2000FEF748FA0120FFF7C3FC4420FFF7C0FC70
:103D30000020FFF7BDFC0020FFF7BAFCEE20FFF7E4
:103D4000B7FC0020FFF7B4FC0020FFF7B1FC002017
:103D5000FFF7AEFC0020FFF7ABFC4FF480510348A7
:103D6000FEF72BFA102002F047FB10BD00040240C2
:103D70000146002902DD01F214507047002902DAE1
:103D8000A1F21450F9E70846F7E7034618468842BF
:103D900000DD0846904200DA104670477047000088
:103DA00029B1064A12680243044B1A6004E0034A30
:103DB00012688243014B1A6070470000303802409D
:103DC00029B1064A12680243044B1A6004E0034A10
:103DD00012688243014B1A6070470000403802406D
:103DE00029B1064A12680243044B1A6004E0034AF0
:103DF00012688243014B1A6070470000203802406D
:103E000029B1064A12680243044B1A6004E0034ACF
:103E100012688243014B1A60704700004438024028
:103E200029B1064A12680243044B1A6004E0034AAF
:103E300012688243014B1A60704700002438024028
:103E40001448006840F00100124908600020114940
:103E5000083108600F4800680F4908400D490860A4
:103E60000E48091D08600E480A49843108600B4855
:103E70001038091D08600748006820F480200549B3
:103E80000860002003490C31086002498C31086049
:103E90007047000000380240FFFFF6EA10300024AF
:103EA00000300020F0B50021002200240225002669
:103EB0000223324F3F6807F00C0121B1042905D0DD
:103EC000082937D105E02E4F076036E02D4F0760F7
:103ED00033E02A4F3F1F3F68C7F38056274F3F1FED
:103EE0003F6807F03F036EB1264FB7FBF3F7DFF8EB
:103EF0008CC0ACF1040CDCF800C0CCF3881C07FBD0
:103F00000CF40CE01E4FB7FBF3F7DFF870C0ACF118
:103F1000040CDCF800C0CCF3881C07FB0CF4174F32
:103F20003F1F3F68C7F301477F1C7D00B4FBF5F7D7
:103F3000076002E0124F076000BF00BF0F4F3F68ED
:103F400007F0F0010909104F7A5C0768D740476015
:103F50000A4F3F6807F4E051890A0B4F7A5C4768C3
:103F6000D7408760054F3F6807F46041490B064F13
:103F70007A5C4768D740C760F0BD0000083802404F
:103F80000024F40000127A004C00002010B5014615
:103F90000022002300204A11012A02D10A4C236882
:103FA00008E0022A03D1084C7034236802E0064C72
:103FB0007434236801F01F02012494401C400CB1AA
:103FC000012000E0002010BD0038024002480068D7
:103FD00000F00C0070470000083802400146002045
:103FE000034A106820F0F00008431060704700009A
:103FF000083802400021024A1170114608707047CB
:104000000238024001460020034A106820F4E050C4
:104010000843106070470000083802400146002045
:10402000034A106820F4604040EAC1001060704705
:104030000838024001490866704700000000474206
:1040400070B5049C41EA82150126C6EB530645EA89
:104050000645054345EA0465014E356070BD000024
:104060000438024001460020034A106820F0030093
:1040700008431060704700000838024038B500203F
:1040800000900024002500BF3120FFF77FFF054688
:104090000098401C00900098B0F5A04F01D0002D72
:1040A000F2D03120FFF772FF08B1012400E00024B4
:1040B000204638BD00B52DED088B89B007A896497C
:1040C00008AB03AACDE900109449954802F034FBEF
:1040D0009148008800F4807000287DD09DED030A8F
:1040E000B8EEC00ADFED8F0A80EE201A8E4880ED10
:1040F000001A9DED040AB8EEC00ADFED8A0A80EED0
:10410000201A8A4880ED001A9DED050AB8EEC00A13
:10411000DFED840A80EE201A854880ED001A9DEDBF
:10412000060AB8EEC00ADFED7F0A80EE201A814849
:1041300080ED001A7D4890ED000AF8EE000A20EEAE
:10414000200A7C48D0ED000A20EE200A7648D0ED07
:10415000000AB0EE001A60EE810A754890ED001A70
:1041600000EE810A10EE101A084605F021FA41EC23
:104170001A0BB0EE4A0AF0EE6A0A01F0A1FAB0EEAC
:10418000409AF0EE609A9FED6C0B53EC102B51ECC3
:10419000190B04F04DFF41EC180B04F017FD6849B2
:1041A0000860624890ED000AF8EE000A20EE200A4E
:1041B000D0ED000A20EE200A5D48D0ED000AB0EEF6
:1041C000001A60EE810A90ED001A00EEC10AF7EEC7
:1041D000000A30EE200A00E099E010EE101A0846BE
:1041E00005F0E6F941EC1A0B514890ED000AF0EEAB
:1041F000000A20EE200A4F48D0ED000A20EE200AE7
:104200004948D0ED000AB0EE001A60EE810A474836
:1042100090ED001A00EE810A10EE101A084605F023
:10422000C7F941EC1B0BB0EE4A1AF0EE6A1AB0EE79
:104230004B0AF0EE6B0A01F05FFDB0EE409AF0EE33
:10424000609A9FED3D0B53EC102B51EC190B04F0D1
:10425000EFFE41EC180B04F0B9FC3A490860324813
:1042600090ED000A20EE000A3048D0ED000A90EDF3
:10427000001A00EE810A2E48D0ED000A90ED001AD7
:1042800000EEC10A2B48D0ED000A90ED001A00EEB6
:10429000C10A10EE101A084605F08AF941EC1A0B13
:1042A000224890ED000A2248D0ED000A20EE200AB4
:1042B0001D48D0ED000A1F4890ED001A00EE810A5B
:1042C000F0EE000A20EE200A10EE101A084605F063
:1042D0006FF941EC1B0BB0EE4A1AF0EE6A1AB0EE21
:1042E0004B0AF0EE6B0A01F007FDB0EE409AF0EEDB
:1042F000609A9FED110B53EC102B51EC190B04F04D
:1043000097FE41EC180B04F061FC0F49086009B0FE
:10431000BDEC088B00BD0000700000206A0000208A
:10432000640000200000804E8000002084000020F7
:10433000880000208C0000206666666666A64C40F9
:1043400074000020780000207C000020014611B19C
:1043500001290ED106E0094A126810B20022074B6B
:104360001A6008E0064A126810B20022044B1A6074
:1043700001E0002000BF00BF70470000240400409F
:104380002408004010B52DED028B4221D020FEF70D
:1043900078F904464121D020FEF773F904EB0020A0
:1043A00000EE100AB8EEC00AB0EE408A9FED100A87
:1043B000B4EEC08AF1EE10FA05DD9FED0E0A38EE7C
:1043C000400AB0EE408ADFED0C0A88EE200ADFEDED
:1043D0000B0A30EE200AF2EE040A20EE200AB0EEBC
:1043E000408ABDEEC80A10EE100ABDEC028B10BD6B
:1043F00000000047000080470000AA43B81E124298
:10440000F0B503461446802B01DA202900DBF0BD0D
:104410002148007920B10CB9012000E000200446B9
:10442000012C1CD1CD1701EB5575ED1003EBC51513
:104430001A4E755D0A46CE1701EB5676F610A1EBC3
:10444000C6070126BE403543EEB20846CD1701EB44
:104450005575ED1003EBC515104F7E551AE0CD17BD
:1044600001EB5575ED1003EBC5150C4E755D0A4655
:10447000CE1701EB5676F610A1EBC6070126BE401B
:10448000B5430846CE1701EB5676F61003EBC61679
:10449000024FBD5500BFBAE7BC0000206C020020EF
:1044A00010B504460CB9002000E0FF2002464FF48E
:1044B00000710248FCF73DF810BD00006C020020BE
:1044C000014A108051807047BC0000202DE9F04364
:1044D00007460C46904626480088217808448028E4
:1044E00005DA2348408861780844202802DB002050
:1044F000BDE8F083002530E0A7F12000617800FBE3
:104500000150616831F81090002622E009FA06F0A7
:1045100000F4004058B1164A52882A4491B2144A15
:104520001288324490B24246FFF76AFF10E0B8F1B9
:10453000000F01D1012300E000231A460C4B5B88D9
:104540002B4499B20A4B1B88334498B2FFF758FFAB
:10455000761C2078B042D9D86D1C6078A842CBD8A0
:104560000348008821780844014908803846BFE79D
:10457000BC00002070B504460D4616460AE02078BF
:1045800032462946FFF7A2FF2178884201D02078E1
:1045900070BD641C20780028F1D12078F8E7000075
:1045A00070B500241DE004F1B000C1B20020FEF798
:1045B00095F800210846FEF791F810210020FEF73B
:1045C0008DF8002509E0802000FB0450064A115CAC
:1045D0004020FEF783F8681CC5B2802DF3DB601C19
:1045E000C4B2082CDFDB70BD6C02002070470000F5
:1045F00030B500228B071C0F0F2303FA04F20B4B7C
:104600008C1053F824309343084C8D1044F8253017
:1046100023468C1053F824308C07240F00FA04F43E
:104620002343024C8D1044F8253030BD083801403A
:104630000CB50020019000903448006840F48030B0
:104640003249086000BF3148006800F40030009033
:104650000198401C0190009818B90198B0F5A04F3E
:10466000F1D12A48006800F4003010B10120009018
:1046700001E0002000900098012846D123484030F6
:10468000006840F0805021494031086020480068AF
:1046900040F440401E4908601C48083000681B492F
:1046A000083108600846006840F400400860084689
:1046B000006840F4A05008601648091F0860081FF1
:1046C000006840F08070091F086000BF0F48006854
:1046D00000F000700028F9D040F205700E49086023
:1046E0000A480830006820F00300084908310860D3
:1046F0000846006840F00200086000BF0348083028
:10470000006800F00C000828F8D10CBD0038024009
:104710000070004019544007003C024070B5054647
:104720000C4625B900201B490860091D08602CB9FA
:104730000020184908310860091D0860002D09DDB6
:10474000284604F0CFF81349091D08600020091F0E
:10475000086008E000200F49091D0860284604F0A1
:10476000C1F80C490860002C09DD204604F0BAF8B5
:104770000849083108600020091D086009E0002090
:10478000044908310860204604F0ACF801490C31B6
:10479000086070BD34040140042808D14FF0E021C6
:1047A000096941F004014FF0E022116107E04FF088
:1047B000E021096921F004014FF0E0221161704706
:1047C00010B500F0E1FC10BD08B5FFF739FB012082
:1047D000FFF710FCFFF752FC012830D10520FDF750
:1047E0006FFC0120FDF75AFC0120FDF745FC01207C
:1047F000FDF730FC0020FFF7F1FB4FF4A050FFF76E
:1048000001FC4FF48050FFF709FC072002234FF40E
:10481000A87208210090C804FFF712FC0120FFF7DE
:1048200009FC00BF3920FFF7B1FB0028FAD00220B5
:10483000FFF718FC00BFFFF7C9FB0828FBD108BD34
:1048400010B51548006840F470001349086013481B
:10485000006840F001001149086000200F4908314C
:1048600008600E4800680E4908400C4908600D4871
:10487000091D0860081F006820F48020091F0860D7
:10488000002006490C310860FFF7D2FE4FF00060AF
:1048900001498039086010BD88ED00E00038024011
:1048A000FFFFF6FE10300024F0B50C46154600213F
:1048B0000022068C4FF6FE773E400684018B028C68
:1048C0004FF60C7631407E1C06EA03162E43314328
:1048D0004FF6F576324044F00106324301830284FC
:1048E000F0BDF0B50C461546002100220026078CCD
:1048F0004FF6EF7C07EA0C070784018B028C4FF61A
:10490000FF7707EA041640F6FF4739404FF6FF7776
:1049100007EA033739434FF6FF7707EA052739439C
:104920004FF65F773A4046F010073A43018302841E
:10493000F0BDF0B50C461546002100220026078C7C
:104940004FF6FF6C07EA0C070784818B028C4FF649
:10495000FF7707EA04264FF60C7739404FF6FF77CA
:1049600007EA03172F4339434FF2FF573A4046F403
:1049700080773A4381830284F0BDF0B50C4615463A
:10498000002100220026078C4EF6FF7C07EA0C0768
:104990000784818B028C4FF6FF7707EA043640F6D6
:1049A000FF4739404FF6FF7707EA052739434FF6AF
:1049B000FF7707EA0337394345F6FF773A4046F475
:1049C00080573A4381830284F0BD00000448008888
:1049D0000348008820F0010001490880704700006A
:1049E00010040040044800880348008820F00100BB
:1049F00001490880704700001008004010B50121EF
:104A0000254800F0A0F9002844D00121224800F0F8
:104A100092F822480088401C2049088020480078ED
:104A2000401C1F4908701F480088002804DD1D48ED
:104A30000088401E1B49088019480078022827DD9D
:104A4000002017490870FDF79DFD1748D0ED000ABA
:104A500030EE200A80ED000A14480078401C13490B
:104A6000087008460078322812D10F4890ED000AED
:104A7000DFED0F0A80EE201A0E4880ED001A9FED40
:104A80000E0A094880ED000A0020087003F032FF8A
:104A900001F0E6FB10BD000000100040D000002037
:104AA000C9000020CA000020C4000020C800002067
:104AB0000000484240010020000000001FB5012115
:104AC0002020FFF77DF942F2CF00ADF8040063200B
:104AD000029001A90F4800F00BFB01210D4800F0E6
:104AE00027F8012211460B4800F07EF937208DF897
:104AF000000000208DF8010001208DF802008DF8E3
:104B000003006846FEF78CFC0121024800F016F80D
:104B10001FBD00000014004021B1028842F0800255
:104B2000028004E002884FF67F731A4002807047CB
:104B3000CA4302827047CA430282704721B1028889
:104B400042F00102028004E002884FF6FE731A4030
:104B50000280704731B1B0F8442042F40042A0F81E
:104B6000442005E0B0F84420C2F30E02A0F844202F
:104B70007047000010B504465548844208D1012111
:104B80000846FFF74DF900210120FFF749F99DE0A4
:104B9000B4F1804F08D101210846FFF721F9002127
:104BA0000120FFF71DF991E04A48844208D1012114
:104BB0000220FFF715F900210220FFF711F985E027
:104BC0004548844208D101210420FFF709F900215A
:104BD0000420FFF705F979E04048844208D101211B
:104BE0000820FFF7FDF800210820FFF7F9F86DE035
:104BF0003B48844208D101211020FFF7F1F8002141
:104C00001020FFF7EDF861E03648844208D1012119
:104C10002020FFF7E5F800212020FFF7E1F855E01C
:104C20003148844208D101210220FFF7F9F8002120
:104C30000220FFF7F5F849E02C48844209D1012110
:104C40000804FFF7EDF800214FF48030FFF7E8F893
:104C50003CE02748844209D101214804FFF7E0F8ED
:104C600000214FF40030FFF7DBF82FE021488442A9
:104C700009D101218804FFF7D3F800214FF48020E7
:104C8000FFF7CEF822E01C48844208D101214020E1
:104C9000FFF7A6F800214020FFF7A2F816E017481A
:104CA000844208D101218020FFF79AF8002180205A
:104CB000FFF796F80AE01248844207D101218015D7
:104CC000FFF78EF80021A015FFF78AF810BD00004D
:104CD000000001400004004000080040000C0040BB
:104CE000001000400014004000040140004001405A
:104CF000004401400048014000180040001C0040F2
:104D000000200040F0B50C4615461E46002100224A
:104D100000230189028B038C4FF6F8773940214339
:104D20004FF6FC473A4040F201173A434FF6DD7721
:104D30003B404FF6FF7707EA06172F433B430181BD
:104D400002830384F0BD30B5024600200023002416
:104D5000158A05EA0103958905EA010413B10CB12E
:104D6000012000E0002030BD70B505460C462088CB
:104D700050B92389A28861882846FFF795FDE1880C
:104D8000284600F088F925E0208804280AD12389E4
:104D9000A28861882846FFF7A4FDE188284600F034
:104DA00083F917E0208808280AD12389A28861881E
:104DB0002846FFF7BEFDE188284600F082F909E0A9
:104DC0002389A28861882846FFF7D7FDE188284615
:104DD00000F080F970BD00210180418001218180B7
:104DE0000021C180018170471AB183890B438381FF
:104DF00002E083898B4383817047000070B50024F3
:104E000000220023058C4FF6FE7635400584028C87
:104E10008388048B4FF68F752C40B51E2C400D886F
:104E20002C43751E2A408D892A434D882A43104DF4
:104E3000A84202D00F4DA84213D14FF6F7752A4071
:104E4000CD892A434FF6FB752A408D882A434FF6B9
:104E5000FF652B404FF6FF552B400D8A2B434D8AA3
:104E60002B43838004838D684563028470BD0000FA
:104E700000000140000401400A460021018B4FF66A
:104E8000F7731940114301837047000070B5002487
:104E900000220023058C4FF6EF7635400584028C06
:104EA0008388048B48F6FF752C404FF6FF452C4055
:104EB0000D884FF6FF7606EA05252C434FF6DF7581
:104EC0002A408D8906EA05152A434D8806EA05150C
:104ED0002A43154DA84202D0144DA8421DD14FF6C9
:104EE0007F752A40CD894FF6FF7606EA05152A43DD
:104EF0004FF6BF752A408D8806EA05152A434FF6FE
:104F0000FF352B404FF2FF752B400D8A06EA8505D1
:104F10002B434D8A06EA85052B43838004838D68E5
:104F20008563028470BD0000000001400004014060
:104F30000A460021018B4FF2FF7319404FF6FF73B1
:104F400003EA0223194301837047000070B500246F
:104F500000220023058C4FF6FF6635400584028C45
:104F60008388848B4FF68F752C404FF6FC752C4050
:104F70000D882C434FF6FF552A408D894FF6FF765A
:104F800006EA05252A434D8806EA05252A43154DDC
:104F9000A84202D0144DA8421DD14FF2FF752A40FD
:104FA000CD894FF6FF7606EA05252A434FF6FF35F1
:104FB0002A408D8806EA05252A434EF6FF752B40C8
:104FC0004DF6FF752B400D8A06EA05152B434D8AD9
:104FD00006EA05152B43838084838D68C5630284AC
:104FE00070BD000000000140000401400A4600219D
:104FF000818B4FF6F773194011438183704700008E
:1050000070B5002200230024058C4EF6FF76354053
:105010000584038C8488828B48F6FF752A404FF6FE
:10502000FF452A400D884FF6FF7606EA05252A43FC
:105030004DF6FF752B408D8906EA05352B434D88CB
:1050400006EA05352B430A4DA84202D0094DA84275
:1050500008D14BF6FF752C400D8A4FF6FF7606EA15
:1050600085152C43848082838D680564038470BD1C
:1050700000000140000401400A460021818B4FF2EC
:10508000FF7319404FF6FF7303EA0223194381832C
:10509000704741627047028B4FF6F3731A400283E8
:1050A000028B0A4302837047028B4FF2FF331A4090
:1050B0000283028B4FF6FF7303EA01231A43028334
:1050C0007047828B4FF6F3731A408283828B0A43B8
:1050D00082837047828B4FF2FF331A408283828B28
:1050E0004FF6FF7303EA01231A43828370470000DF
:1050F00000220288184B98420ED0184B98420BD0D1
:10510000B0F1804F08D0164B984205D0154B98420D
:1051100002D0154B984204D14FF68F731A404B883A
:105120001A43124B984207D0114B984204D04FF6C5
:10513000FF431A400B891A4302804B68C3620B88F5
:105140000385054B984202D0044B984201D18B7ADB
:105150000386012383827047000001400004014060
:105160000004004000080040000C00400010004017
:10517000001400404FF0FF314160002101800181A7
:1051800041808172704700000448006820B10348E4
:105190000068401E014908607047000000000020C0
:1051A0009FED141AB4EEC10AF1EE10FA14D39FED7C
:1051B000121AB4EEC10AF1EE10FA0DDC0F4991EDAE
:1051C000001ADFED0F1AB4EEE11AF1EE10FA03D374
:1051D0000C49097801290AD1012000210A4A1160ED
:1051E000121D1160121D1160121D116000E00020DF
:1051F00070470000000020C2000020424001002053
:105200009A9919413400002034040140F0EE400A1C
:105210003948D0ED001AB0EE611A384800780328FA
:1052200007D036480078072803D03448007809288A
:1052300008D13348D0ED001AF1EE611A3148C0EDC3
:10524000001A2BE02D480078042807D02B4800785E
:10525000082803D0294800780A2806D12848D0ED2C
:10526000001A2848C0ED001A18E0244800780528E4
:1052700005D1DFED251A2348C0ED001A0EE01F48C6
:105280000078062805D1DFED211A1E48C0ED001A6E
:1052900004E0DFED1F1A1B48C0ED001A1748007824
:1052A000012803D015480078022803D1194890ED51
:1052B000000A01E09FED160A1248D0ED001A21EE17
:1052C000812ADFED152AC2EE221A20EE802ADFEDB8
:1052D000122A82EE223A71EE831A104890ED002ACB
:1052E00071EE821A0E48C0ED001AD0ED001AFDEEE4
:1052F000E11A11EE900A7047580100203500002095
:10530000640100207C010020000048C200004842E7
:10531000000000005C0100200000C84230000020B6
:105320008001002010B5002440F22551054800F00E
:1053300034F830B1034800F0C5F8C4B2204600F09C
:1053400003F810BD0044004010B5044600BF8021A2
:10535000044800F015F80028F9D02146014800F073
:10536000B6F810BD0044004021B1828942F40052D9
:10537000828104E082894DF6FF731A408281704772
:1053800002460020B1F5007F00D100BF13880B401A
:105390000BB1012000E00020704770B502460024E8
:1053A00000230025002040F66A16B14200D100BF5C
:1053B000C1F3421501F01F03012606FA03F3012D84
:1053C00002D19689334006E0022D02D1168A33407D
:1053D00001E0968A33400C12012606FA04F416887E
:1053E000344013B10CB1012000E0002070BD00007A
:1053F0002DE9FF4705460E460024A14600BFA04602
:10540000B08900B100BF2C8A24F44054F0880443D2
:105410002C82AC8941F20C608443B0883189084306
:10542000718908430443AC81AC8A24F44074B08988
:105430000443AC826846FEF735FD2048854202D021
:105440001F48854202D1DDF80C9001E0DDF808909C
:10545000A88900F4004040B109EBC90000EB091035
:1054600031684900B0FBF1F707E009EBC90000EB38
:10547000091031688900B0FBF1F76420B7FBF0F048
:1054800004012009642101FB1078A88900F4004080
:1054900040B1322000EBC800B0FBF1F000F0070093
:1054A000044308E0322000EB08106421B0FBF1F067
:1054B00000F00F0004432C81BDE8FF87001001407D
:1054C0000014014001468888C0F308007047C1F30A
:1054D00008028280704700BFFEE7000070B50446F6
:1054E0000D4659480078012807D05748007807280A
:1054F00003D055480078082806D1544890ED000A9A
:10550000534880ED000A1AE04F480078022807D07F
:105510004D480078092803D04B4800780A2808D164
:105520004A4890ED000AB1EE400A494880ED000A71
:1055300005E0484890ED000A454880ED000A6019F2
:10554000404200EE100AB8EEC00A434880ED000A5F
:10555000424890ED000ADFED420A20EE200A80ED7D
:10556000000A90ED000A3C48D0ED000A9FED3D1A7C
:1055700000EE810A394880ED000A3B4890ED000AB0
:105580003648D0ED000A30EE200A374880ED000A98
:1055900090ED000A2E48D0ED000A30EE200A324885
:1055A00080ED000A90ED000ADFED300AB4EEE00A6B
:1055B000F1EE10FA03DD9FED2D0A80ED000A2A4876
:1055C00090ED000ADFED2A0AB4EEE00AF1EE10FADF
:1055D00003D29FED270A80ED000A204890ED000AD3
:1055E000B1EE400A2348D0ED000A60EE200A9FED9C
:1055F000221A80EE810A1C48D0ED000A1F4890ED67
:10560000001A60EE810A9FED1C1AC0EE811A30EE7E
:10561000610A1B4880ED000A1A48D0ED000A1A48BA
:1056200090ED000AFFF7BCFD012804D19FED170A99
:105630000D4880ED000A124890ED000ABDEEC00A48
:1056400010EE100A70BD000035000020600100203F
:10565000740100202C0000206C010020700100204B
:105660003D0A573F0AD7233E780100200000FA4543
:105670000000FAC5500100200000C842540100207B
:105680006801002040010020080000200000000008
:1056900003B401984100009850EAC12018BF0420CB
:1056A0004A0D18BF40F0010040F2FF72B2EB515FAB
:1056B00008BF40F00200012808BF052002B0704773
:1056C00070B5C1482DED020B2DED0E8B82B0119DF2
:1056D00025F000449FEDBEDB9FEDBFEB84423EDB37
:1056E000A4F140511098A1F17F6108430FD0BC484C
:1056F000844202DC28D1109830B39DED100B02B02B
:10570000BDEC0E8B02B0BDE8704000F069BC9DEDB1
:10571000100B53EC1D2B51EC100B03F089FC9DED8D
:10572000100B41EC180B53EC1E2B51EC100B03F03B
:105730007FFC53EC182B03F07BFA41EC100B02B00A
:10574000BDEC0E8B02B070BD0120FAF77AFF02B0FB
:10575000BDEC0E8B02B0BDE8704000F055BCA14816
:105760009FEDA18B844256DA9DED100BB4F1795F69
:105770000ADA51EC100BFFF78BFF042808BF00F08A
:1057800053FC9DED100BDAE753EC102B51EC100B92
:1057900003F04EFC41EC190B95480621B0EE490A86
:1057A000F0EE690A784400F09FFB53EC192B51ECA2
:1057B000100B03F03DFC41EC1A0B8E48B0EE490A89
:1057C000F0EE690A0421784400F08EFB53EC192BAB
:1057D00051EC100B03F02CFC53EC182B03F028FABF
:1057E00041EC100B51EC1A0B53EC102B03F0C8FAE0
:1057F000CDE900019DED000B53EC102B9DED100B3E
:1058000051EC100B03F014FC9DED101B53EC112B0D
:1058100003F00EFAD2E09DED100B51EC100B01F0ED
:10582000F3FB53EC182B03F001FD9FED730BCDE957
:10583000000153EC102B9DED000B51EC100B03F00D
:10584000F7FB41EC190B6E480621B0EE490AF0EE69
:10585000690A784400F048FB53EC192B51EC100B0B
:1058600003F0E6FB41EC1B0B6648B0EE490AF0EE94
:10587000690A0421784400F037FB53EC192B51ECF2
:10588000100B03F0D5FB53EC182B03F0D1F941ECCE
:105890001C0B51EC190B03F0E9F841EC180B5A48BA
:1058A0009FED5BABA04222DC53EC1C2B51EC1B0B9D
:1058B00003F066FACDE900019DED000B51EC180BE9
:1058C00053EC102B03F0B4FB53EC182B03F0B0F99E
:1058D00053EC1A2B03F0ACFB53EC1D2B03F07EFDB5
:1058E00053EC1E2B03F0A2FC41EC100B5FE08DED9E
:1058F000008B002000909DED000B51EC180B53EC39
:10590000102B03F095F99DED000B41EC1E0B53ECB1
:10591000102B51EC100B03F08BFB53EC192B03F005
:1059200085FC53EC1E2B03F02BFA41EC190B53ECC6
:105930001C2B51EC1B0B03F023FA41EC1B0B53EC1B
:105940001A2B51EC190B03F073FB53EC1D2B03F0D6
:105950006DFC41EC190B53EC1A2B51EC180B03F0B6
:1059600067FB53EC1B2B03F063FB53EC192B03F089
:1059700035FD9DED000B41EC180B53EC1A2B51EC4F
:10598000100B03F055FB9FED249B53EC192B03F0F8
:105990004DFC41EC100B51EC180B53EC102B03F0A9
:1059A0001DFD53EC192B03F041FC41EC100B002DB5
:1059B0003FF7C5AE51EC100B03F0FCF841EC100BB7
:1059C000BDE60000000000000000F03F0000000005
:1059D000075C143326A6913C182D4454FB21F93F53
:1059E0000000F07F0000E03F000000000000F03FFA
:1059F0001874000026740000000000000000E03F62
:105A00006A730000787300003333EF3F000000003A
:105A10000000000000000040182D4454FB21E93F25
:105A200070B59B482DED020B2DED068B079D25F0E3
:105A30000044A04218DC9748844202DC0AD1069850
:105A400040B19DED060BBDEC068B02B0BDE8704089
:105A500000F0C6BA002DCCBF9FED8F0B9FED900BD1
:105A6000BDEC068B02B070BD8F48A04215DD8F489B
:105A7000A042D8BF4FF0FF3458DD9DED060B51EC2E
:105A8000100BFFF705FE042808BF00F0CDFA9DEDCE
:105A9000060BBDEC068B02B070BD9DED060B51EC04
:105AA000100B01F0B1FACDE9060181489FED828B20
:105AB000A0423CDD8248A0421FDD00249FED82AB66
:105AC0009DED060B53EC1A2B51EC100B03F0B0F8C4
:105AD0009DED060B41EC190B53EC1A2B51EC100BFE
