:020000040800F2
:1000000088060020290200084905000805050008A7
:1000100045050008010400088F0A000800000000E0
:10002000000000000000000000000000950600082D
:100030002D040008000000004B050008850700089B
:10004000430200084302000843020008430200087C
:10005000430200084302000843020008430200086C
:10006000430200084302000843020008430200085C
:10007000430200084302000843020008430200084C
:10008000430200084302000843020008430200083C
:10009000430200084302000843020008430200082C
:1000A000430200084302000843020008430200081C
:1000B000430200084302000843020008430200080C
:1000C00043020008430200084302000843020008FC
:1000D0004302000895080008430200084302000894
:1000E00043020008430200084302000843020008DC
:1000F00043020008430200084302000843020008CC
:1001000043020008430200084302000843020008BB
:1001100043020008430200084302000843020008AB
:10012000430200084302000843020008430200089B
:10013000430200084302000843020008430200088B
:10014000430200084302000843020008430200087B
:10015000430200084302000843020008430200086B
:10016000430200084302000843020008430200085B
:10017000430200084302000843020008430200084B
:10018000430200084302000800F002F800F03CF8C7
:100190000AA090E8000C82448344AAF10107DA45E2
:1001A00001D100F031F8AFF2090EBAE80F0013F0F8
:1001B000010F18BFFB1A43F001031847580A00004B
:1001C000780A0000103A24BF78C878C1FAD85207DC
:1001D00024BF30C830C144BF04680C6070470000C1
:1001E0000023002400250026103A28BF78C1FBD840
:1001F000520728BF30C148BF0B6070471FB500F0E1
:1002000003FD1FBD10B510BD00F031F81146FFF71A
:10021000F5FF00F08BFC00F04FF803B4FFF7F2FF9E
:1002200003BC00F057F80000094880470948004720
:10023000FEE7FEE7FEE7FEE7FEE7FEE7FEE7FEE796
:10024000FEE7FEE704480549054A064B70470000F3
:10025000C1070008890100088800002088060020E6
:10026000880200208802002070477047704775465A
:1002700000F02CF8AE4605006946534620F0070012
:10028000854618B020B5FFF7DDFFBDE820404FF0F0
:1002900000064FF000074FF000084FF0000B21F070
:1002A0000701AC46ACE8C009ACE8C009ACE8C0093D
:1002B000ACE8C0098D46704710B50446AFF3008026
:1002C0002046BDE81040FFF7A8BF00000048704777
:1002D0002400002001491820ABBEFEE726000200E2
:1002E000704721B1826842F00102826003E08268B7
:1002F00022F00102826070470021084A1168084A12
:100300001140D0E900231A4383681A43C3681A4393
:100310001143044AC2F8041370470000042301404B
:10032000E030FCFF0020014010B50121080200F080
:100330002DF900214FF4807000F028F910BD000065
:1003400030B50246002000235068104C20400D7943
:100350000C6844EA05242043506090680C4C20400F
:10036000D1E903542C438D682C434D7944EA45046C
:1003700020439060D06A20F470000C7D641EE4B2CB
:10038000234340EA0350D06230BD0000FFFEFFFC73
:10039000FDF7FFC000B58DB00121084600F0D6F88A
:1003A0000121080200F0E2F820200B9003208DF8D4
:1003B00030000BA9104800F03AF8002001904FF4EB
:1003C0000030029001A8FFF797FFFFF7ADFF002074
:1003D0008DF818008DF819000890099001208DF80B
:1003E000280005A90548FFF7ABFF01210348FFF7E7
:1003F00078FF0DB000BD0000000002400020014069
:1004000000BFFEE70146072323EA01021202054B63
:1004100018684FF6FF031840034B18431043014B75
:10042000186070470CED00E00000FA057047F0B569
:100430000A4600210023002400BF3DE0012505FA03
:1004400001F3156805EA03049C4234D105684F00A6
:100450000326BE40B543056015794E00B5400668D9
:10046000354305601579012D02D01579022D16D17D
:1004700085684F000326BE40B543856055794E0020
:10048000B540866835438560456801268E40B54392
:100490004560456896798E40B6B235434560C5687B
:1004A0004F000326BE40B543C560D5794E00B54028
:1004B000C6683543C560491C1029BFD3F0BDF0B5EF
:1004C000002300244D07ED0E02FA05F3CE1000F1D3
:1004D000200555F826504E07F70E0F26BE40B543AF
:1004E000CF1000F1200646F82750CE1000F120056D
:1004F00055F8265045EA0304CE1000F1200545F8D2
:100500002640F0BD00BFFEE71CB50121082000F029
:100510001DF84FF48050009001208DF80400002059
:100520008DF805008DF807008DF806006946034830
:10053000FFF77DFF0020024908601CBD000C02404F
:10054000B082414200BFFEE77047704729B1064ABA
:1005500012680243044B1A6004E0034A12688243A3
:10056000014B1A60704700003038024029B1064A3A
:1005700012680243044B1A6004E0034A1268824383
:10058000014B1A60704700004438024029B1064A06
:1005900012680243044B1A6004E0034A1268824363
:1005A000014B1A607047000024380240F0B500216A
:1005B00000220024022500260223324F3F6807F064
:1005C0000C0121B1042905D0082937D105E02E4FAF
:1005D000076036E02D4F076033E02A4F3F1F3F682A
:1005E000C7F38056274F3F1F3F6807F03F036EB1A8
:1005F000264FB7FBF3F7DFF88CC0ACF1040CDCF846
:1006000000C0CCF3881C07FB0CF40CE01E4FB7FBBA
:10061000F3F7DFF870C0ACF1040CDCF800C0CCF3E9
:10062000881C07FB0CF4174F3F1F3F68C7F30147B7
:100630007F1C7D00B4FBF5F7076002E0124F0760F6
:1006400000BF00BF0F4F3F6807F0F0010909104FCE
:100650007A5C0768D74047600A4F3F6807F4E0516B
:10066000890A0B4F7A5C4768D7408760054F3F681F
:1006700007F46041490B064F7A5C4768D740C76072
:10068000F0BD0000083802400024F40040787D01ED
:100690000F000020704700000CB500200190009072
:1006A0003448006840F480303249086000BF314867
:1006B000006800F4003000900198401C0190009800
:1006C00018B90198B0F5A04FF1D12A48006800F49C
:1006D000003010B10120009001E00020009000984F
:1006E000012846D123484030006840F0805021491D
:1006F000403108602048006840F440401E490860CE
:100700001C48083000681B4908310860084600682A
:1007100040F4004008600846006840F4A0500860BB
:100720001648091F0860081F006840F08070091F04
:10073000086000BF0F48006800F000700028F9D082
:1007400040F205700E4908600A480830006820F041
:1007500003000849083108600846006840F00200BC
:10076000086000BF03480830006800F00C0008284B
:10077000F8D10CBD00380240007000401954400709
:10078000003C024010B500F04FF810BD4FF0E021E2
:10079000096921F004014FF0E02211610649087057
:1007A00000EB4001C1EBC0114FF6FF7202EAC1013C
:1007B000024A118070470000200000202200002023
:1007C00010B51548006840F47000134908601348DC
:1007D000006840F001001149086000200F4908310D
:1007E00008600E4800680E4908400C4908600D4832
:1007F000091D0860081F006820F48020091F086098
:10080000002006490C310860FFF746FF4FF00060FA
:1008100001498039086010BD88ED00E000380240D1
:10082000FFFFF6FE103000240448006820B10348A2
:100830000068401E01490860704700000000002069
:1008400070B504460D460020A0802946204600F0E1
:100850001AF900BF8021204600F04AF80028F9D09C
:1008600070BD70B505460C4604E021782846FFF7B8
:10087000E7FF641C20780028F7D100BF80212846BC
:1008800000F036F80028F9D04FF47A7000F030F913
:1008900070BD000010B5002440F22551054800F05D
:1008A00034F830B1034800F0E9F8C4B2204600F053
:1008B00003F810BD0010014010B5044600BF8021B0
:1008C000044800F015F80028F9D02146014800F04E
:1008D000DAF810BD0010014021B1828942F40052C3
:1008E000828104E082894DF6FF731A40828170474D
:1008F00002460020B1F5007F00D100BF13880B40F5
:100900000BB1012000E00020704770B502460024C2
:1009100000230025002040F66A16B14200D100BF36
:10092000C1F3421501F01F03012606FA03F3012D5E
:1009300002D19689334006E0022D02D1168A334057
:1009400001E0968A33400C12012606FA04F4168858
:10095000344013B10CB1012000E0002070BDF0B5AF
:100960000346002400260025002040F66A17B942FD
:1009700000D100BF1846C1F3421401F01F06012741
:1009800007FA06F5012C01D10C3004E0022C01D14C
:10099000103000E014301AB107682F43076002E0FE
:1009A0000768AF430760F0BD2DE9FF4705460E46D7
:1009B0000024A14600BFA046B08900B100BF2C8A28
:1009C00024F44054F08804432C82AC8941F20C603A
:1009D0008443B08831890843718908430443AC815A
:1009E000AC8A24F44074B0890443AC826846FFF7B3
:1009F000DDFD2048854202D01F48854202D1DDF846
:100A00000C9001E0DDF80890A88900F4004040B1A6
:100A100009EBC90000EB091031684900B0FBF1F7A0
:100A200007E009EBC90000EB091031688900B0FB51
:100A3000F1F76420B7FBF0F004012009642101FB09
:100A40001078A88900F4004040B1322000EBC800C3
:100A5000B0FBF1F000F00700044308E0322000EBA7
:100A600008106421B0FBF1F000F00F0004432C816A
:100A7000BDE8FF870010014000140140014688884E
:100A8000C0F308007047C1F308028280704700BFBE
:100A9000FEE710B50220FFF7B5FCA820FFF776FEB1
:100AA000FFF732FD4FF4E13000F05AF8FFF772FC27
:100AB00010BD000001460D4A12884A434FF0E02362
:100AC0005A6100229A6101221A6100BF4FF0E022B0
:100AD000106900F001021AB100F48032002AF5D04A
:100AE00000224FF0E0231A619A6170472200002033
:100AF00001460D4A12784A434FF0E0235A61002222
:100B00009A6101221A6100BF4FF0E022106900F0E3
:100B100001021AB100F48032002AF5D000224FF011
:100B2000E0231A619A61704720000020FFF7B1FFAF
:100B30000FE00848006808B9012000E000200549DE
:100B4000086005490548FFF78CFE4FF4FA70FFF77F
:100B5000B1FFEEE7B08241420400002000100140E6
:100B600010B586B0044601211020FFF7FFFC0121DB
:100B70000846FFF7EBFC4FF40070049002208DF85C
:100B800015008DF8140000208DF816008DF8170060
:100B900004A91B48FFF74BFC4FF48060049002202F
:100BA0008DF8140001208DF8170004A91448FFF7F0
:100BB0003EFC072209211248FFF781FC07220A2187
:100BC0000F48FFF77CFC00940020ADF80400ADF85E
:100BD0000600ADF80800ADF80C000C20ADF80A00D6
:100BE00069460848FFF7E0FE012240F2255105481A
:100BF000FFF7B5FE01210348FFF76EFE06B010BDFA
:100C000000000240001001404FF04070E1EE100A79
:100C100070470000340C0008000000202400000091
:100C2000C4010008580C00082400002064060000DD
:100C3000E00100080000000048656C6C6F204D4327
:100C40005520000000000001020304010203040615
:080C5000070809000000000084
:040000050800018965
:00000001FF
