:020000040800F2
:100000000807002049020008FB220008AF1A000878
:10001000F7220008F7150008672D0008000000000F
:100020000000000000000000000000005D29000842
:10003000A51800080000000075230008B52A000874
:1000400063020008630200086302000863020008FC
:1000500063020008630200086302000863020008EC
:1000600063020008A9180008630200086302000880
:1000700063020008630200086302000863020008CC
:1000800063020008630200086302000863020008BC
:1000900063020008630200086302000863020008AC
:1000A000630200086302000863020008630200089C
:1000B000630200086302000863020008630200088C
:1000C000630200086302000863020008630200087C
:1000D0006302000863020008B52B000863020008F1
:1000E000630200086302000863020008630200085C
:1000F000630200086302000863020008630200084C
:10010000630200086302000863020008630200083B
:10011000630200086302000863020008630200082B
:10012000630200086302000863020008630200081B
:10013000630200086302000863020008630200080B
:1001400063020008630200086302000863020008FB
:1001500063020008630200086302000863020008EB
:1001600063020008630200086302000863020008DB
:1001700063020008630200086302000863020008CB
:10018000630200086302000800F002F800F04CF877
:100190000AA090E8000C82448344AAF10107DA45E2
:1001A00001D100F041F8AFF2090EBAE80F0013F0E8
:1001B000010F18BFFB1A43F00103184788760000AF
:1001C000A8760000103A24BF78C878C1FAD8520740
:1001D00024BF30C830C144BF04680C6070470000C1
:1001E0000023002400250026103A28BF78C1FBD840
:1001F000520728BF30C148BF0B607047662906F020
:100200000E84642900F07280002070471FB506F04C
:10021000FCFB00F083FC04000020002105F070FED0
:10022000E0601FBD10B510BD00F0BCFD1146FFF72A
:10023000EDFF04F071FD00F0DAFD03B4FFF7F2FF0B
:1002400003BC03F078FA00000948804709480047DA
:10025000FEE7FEE7FEE7FEE7FEE7FEE7FEE7FEE776
:10026000FEE7FEE704480549054A064B70470000D3
:10027000352B00088901000808010020080700202C
:100280000803002008030020704710B54C1084EAD2
:10029000530404D54042C1F1000138BF491E1B423E
:1002A00004D55242C3F1000338BF5B1E00F019F9B8
:1002B00014F0804F04D04042C1F1000138BF491E04
:1002C00014F0004F04D05242C3F1000338BF5B1E4C
:1002D00010BD00000FB4044910B503AA029800F045
:1002E000E9FB10BC5DF814FB2C0000202DE9F04167
:1002F0000646002410687529314616A510D0AFF3C4
:100300000080002802DA404213A507E031688A071E
:1003100001D512A502E0490704D511A5012401E089
:10032000AFF3008000210A2206F1240709E0B0FBA8
:10033000F2FCB0FBF2F302FB1C003030785418469C
:10034000491C0028F3D123462A463046BDE8F04137
:1003500000F049B9000000002D0000002B00000053
:10036000200000002DE9F0474FF0000A89460446BE
:10037000C0F820A02046E1688847002876D02528CC
:1003800006D0D4E901219047206A401C2062F1E7A1
:10039000E168204600258847C4F81CA006460027CF
:1003A000C4F818A02A2E09D0304603F0BDF938B39E
:1003B00004EB8708303EC8F8186019E059F8041BB0
:1003C000204604EB87029161E1688847012F0646C9
:1003D00018D1E069002820DA25F020051DE0D8F8C2
:1003E000180000EB800006EB40003038C8F8180019
:1003F0002046E1688847064603F096F90028EED1CA
:10040000012F0AD02E2E08D12046E16888477F1C94
:100410000646022F45F02005C4DBA069002803DA58
:10042000404245F00105A061E80701D025F0100524
:10043000B6B1A6F14100192802D8203645F400656E
:100440004A463146204625604D46FFF7D7FE58B153
:10045000012806D0ED1D25F0070000F1080989E705
:1004600004E005F1040985E730468AE7206ABDE823
:10047000F08740EA010310B59B070FD1042A0DD382
:1004800010C808C9121F9C42F8D020BA19BA884275
:1004900001D9012010BD4FF0FF3010BD1AB1D307B4
:1004A00003D0521C07E0002010BD10F8013B11F8EA
:1004B000014B1B1B07D110F8013B11F8014B1B1B13
:1004C00001D1921EF1D1184610BD02F0FF0343EA9C
:1004D000032242EA024200F001BB704770477047B6
:1004E000704753EA020C00F069802DE9F04B4FF0A1
:1004F0000006002B1FBFB3FA83F503FA05F424FAB4
:1005000005F65E4012BF1643B2FA82F502FA05F410
:10051000C5F120051EBF22FA05FC44EA0C04203573
:1005200056EA044C4FEA144418BF641C4FF000080C
:100530004FF00009904271EB030C39D3002919BF29
:10054000B1FA81F701FA07F6B0FA80F700FA07F678
:10055000C7F120071EBF20FA07FC46EA0C06203729
:10056000B6FBF4FCA7EB0507103F07F01F0BCBF120
:1005700020060CFA0BFB2CFA06F644BFB346002605
:10058000202FA4BF5E464FF0000B5BEA060C08BFAD
:100590004FF0010B19EB0B09ABFB027C48EB060893
:1005A000C01B06FB02CC0BFB03CC71EB0C01C1E7BB
:1005B0000B46024641464846BDE8F08B13B54FF066
:1005C00000004FF00001AFF30080BDE81C40704711
:1005D00010B500F0A7FA006810BD10B5044600F091
:1005E000A1FA046010BD2DE9F0470D4699469246E8
:1005F000044600F124080168880604D5E06921F06A
:100600001001216000E00120A84201DD471B00E04D
:100610000027A1697A1902EB0900081AA061207865
:10062000C00602D42046AFF30080002608E0D4E9DB
:1006300001211AF806009047206A401C761C2062AF
:100640004E45F4DB2078C0060AD52046AFF3008083
:1006500006E0D4E9012130209047206A401C206246
:10066000381EA7F10107F4DC07E0D4E9012118F8EE
:1006700005009047206A401C2062281EA5F1010554
:10068000F3DC2046AFF300802078000602D502207C
:10069000BDE8F0870120FBE770472DE9FF4F0C46CE
:1006A0001E464FF0FF378BB0D2E90001DDF86080C5
:1006B0000A908A46C1F30A5505B93D46002108460D
:1006C0004FF00000BAF1000F00F4400005DA00EB33
:1006D00080004FF4400101EA50004FEA9059B9F10F
:1006E000010F00DDB9460A9850EA4A000ED044F6E0
:1006F0001050A5F2FF3545432F14B8F1000F1ED05E
:100700007542291E1EDDC9F100021CE0B8F1010F7F
:100710004FF0000001D0302103E0F24305E0215406
:10072000401CB042FBDB30460022002121540B99D3
:10073000C1F80880C1E900200FB0BDE8F08FBD1BF3
:100740006D1CDEE74A4600DA694206A800F08CFA22
:1007500006AB93E8070003AB83E8070050460A990D
:1007600000F08EFB8DE80700A0F500501F380090C8
:100770000398002D09DD42F21F014A46084403A9EF
:100780000390684600F0EDFD08E0A0F500504A46F1
:100790001F3803A90390684600F0F7FD8DE80700B5
:1007A0000004000C03D04FF0FF30410800E0104679
:1007B000B8F1000F03D00022009215461EE0751E0E
:1007C00005D400F0B3F9303262556D1EF9D5B34649
:1007D0000122084302D000227F1C04E02078302848
:1007E00001D100227F1E002A099786D01DE0112D1D
:1007F00007DA00F09BF9303262556D1C50EA0102B5
:10080000F5D1084302D00098C8B10EE00021681E5F
:1008100005E0235C625C63542254401E491C814203
:10082000F7DBAB46A81B401E0990002004F80B0024
:100830000B98099AC0F80880C0E9002B7CE71126C4
:100840004FF0000859E72DE9F04F88460446D21DC5
:1008500022F0070191B0D1E90001CDE90A0102F0CF
:1008600084FA02460B98C00F01D02D2007E02068C3
:10087000810701D52B2002E0202101EAC000032AD4
:10088000099001D0072A05DB03464146204600F0C7
:10089000ABF90BE12078800601D5E06900E0062085
:1008A000B8F1650F814606D0B8F1660F18D0B8F1DF
:1008B000670F70D131E00020B9F1110F009001DB1A
:1008C000112301E009F101030AAA01A90CA8FFF70D
:1008D000E4FEDDE90C70002609F10105834647E0DE
:1008E00001204B4600904FF000470AAA01A90CA82E
:1008F000FFF7D3FEDDE90DB00C995D46002610B977
:1009000009F101000D18B9EB050003D4C0F1FF3661
:1009100009F10105A5EB09002BE0B9F1010F01DA9E
:100920004FF001090020B9F1110F0090484601DD98
:10093000112300E003460AAA01A90CA8FFF7ADFEA7
:10094000DDE90C704D4600268346207800070AD466
:10095000AB4500DA5D4601A8012D04DD411911F80F
:10096000011C302907D04F4502DA17F1040F04DAD1
:10097000012082460FE06D1EEEE7002F02DCED1B2A
:100980003E4403E0781CA84200DD7D1CB81B00F14A
:10099000010A4FF000472078000703D4AA4501DB85
:1009A0004FF0FF3A0021B7F1004F0DF143088DF8E9
:1009B000431024D002202B23002F01DA7F422D2365
:1009C0000A21021EA0F1010000DC5FB197FBF1FCDF
:1009D00097FBF1F201FB1C7C17460CF1300C08F878
:1009E00001CDEEE7A8F1010003702188090501D5CA
:1009F000452100E06521A0F1010800F8011C0998DB
:100A00000FA9A1EB0807FF1D00B10120411901EB5F
:100A1000EA70A1693844081A401EA0612078C00617
:100A200002D42046AFF30080099828B1D4E901210F
:100A30009047206A401C20622078C00622D52046BC
:100A4000AFF300801EE0002E04DBB34502DD01A8F9
:100A5000805D00E03020D4E901219047206A401CED
:100A60002062761CAAF101005FEA000A0AD100F0B8
:100A700055F8C0680168405CD4E901219047206ABC
:100A8000401C2062281EA5F10105DCDC07E0D4E94A
:100A9000012118F8010B9047206A401C2062381E83
:100AA000A7F10107F3DC2046AFF30080032011B06B
:100AB00043E60000074B70B50D467B4400F081F81B
:100AC0000446284600F03EF910B14FF0FF3070BDEB
:100AD000204670BD973A00004FF000020429C0F094
:100AE000128010F0030C00F03381CCF1040CBCF147
:100AF000020F18BF00F8012BA8BF20F8022BA1EBB2
:100B00000C0100F025B95FEAC17C24BF00F8012B7D
:100B100000F8012B48BF00F8012B704700487047D0
:100B2000C800002000487047A800002030B5B0F190
:100B30000A024FEA900E71F100034EEA817EB0EB9B
:100B40000E0061EB91014FEA101E4EEA017E10EBA0
:100B50000E0041EB11114FEA102E4EEA016E10EB20
:100B60000E0041EB11214FEA104E4EEA014E10EB00
:100B70000E0041EB1141401841F100014FEAD00055
:100B800040EA41704FEAD10110EB80054FEA810441
:100B900044EA907444EB01046D1944EB0404521BC5
:100BA000A3414FF0000348BF0A3200D530BD401CBE
:100BB00041F1000130BD000001694A1C0261087862
:100BC000704700B58FB0CDE901310021059105498D
:100BD0007944CDE9031011466846FFF7C3FB0FB017
:100BE00000BD0000E5FFFFFF2DE9F0411F46044670
:100BF00003260168072A01F4006004DB08B116A58A
:100C000005E016A503E008B115A500E015A521F043
:100C100010002060A069C01EA0610FB1401EA0613D
:100C20002046AFF300804FB1D4E901213846904708
:100C3000206A401C2062C01C206206E0206AFAE79D
:100C4000D4E9012115F8010B9047761EF8D2204611
:100C5000AFF30080BDE8F0814E414E006E616E0042
:100C6000494E4600696E66002DE9F04781461646FA
:100C70008AB0334878440DC88DE80D003048784478
:100C8000801C03AC0DC884E80D0041F69B3008447D
:100C9000372190FBF1F290FBF1F5A5F1800501FB06
:100CA00012041B3C02D56442012000E00020DFF862
:100CB00090A080460027FA44AAF1BE0A0DE0E007A2
:100CC00009D03246684607EB47010AEB810100F084
:100CD0005CFB8DE8070064107F1C002CEFD1184FDF
:100CE0007F44AC3F18E0E80714D007EB04100DF187
:100CF000180A90E80E008AE80E00C068F04201D1A0
:100D000098190890324606A903A800F03EFB03ABF1
:100D100083E807006D10641C002DE4D1324669465B
:100D2000B8F1000F03A802D000F01BFB01E000F0B7
:100D30002CFBC9E90001C9F808200AB0BDE8F0871A
:100D4000646B0000007B00F0800070474FF00002F1
:100D500000B5134694469646203922BFA0E80C50B1
:100D6000A0E80C50B1F12001BFF4F7AF090728BF8C
:100D7000A0E80C5048BF0CC05DF804EB890028BF08
:100D800040F8042B08BF704748BF20F8022B11F031
:100D9000804F18BF00F8012B7047000000487047D3
:100DA000A80000207546FFF7F9FFAE46050069462A
:100DB000534620F00700854618B020B5FFF752FAD9
:100DC000BDE820404FF000064FF000074FF000084C
:100DD0004FF0000B21F00701AC46ACE8C009ACE8CD
:100DE000C009ACE8C009ACE8C0098D46704710B531
:100DF0000446AFF300802046BDE81040FFF71DBA5F
:100E00004FF0013C50F8042B51F8043B9A4221D199
:100E1000A2EB0C03934313EACC1317D150F8042B25
:100E200051F8043B9A4215D1A2EB0C03934313EA09
:100E3000CC130BD150F8042B51F8043B9A4209D142
:100E4000A2EB0C03934313EACC13DBD04FF000006A
:100E5000704700BFD01A01BAB1FA81F101F0180150
:100E600022FA01F0CB40C1F12001DBB2C0B2C01ABE
:100E70002CFA01F3D11A914311EAC311E6D170475C
:100E80005FEA400C08BF91F0000F4FEA8C234FEA55
:100E9000C12243EA51514FEA1C5018BF00F5F040FF
:100EA0004FEA300018BF41F000415FEA6C5C00F08F
:100EB0002980BCF1FF3F08BF40F080407047130C11
:100EC00006BF12044FF0100C4FF0000C130E04BFBD
:100ED00012020CF1080C130F04BF12010CF1040CE8
:100EE000930F04BF92000CF1020CD30F04BF520009
:100EF0000CF1010C11464FF00002A0F11F00A0EB15
:100F00000C00704711F0004F08BF704731F00041EE
:100F10003FF4D5AF0B0C06BF09044FF0100C4FF097
:100F2000000C0B0E04BF09020CF1080C0B0F04BFE0
:100F300009010CF1040C8B0F04BF89000CF1020CA9
:100F4000CB0F04BF49000CF1010CCCF12003A0EB46
:100F50000C0022FA03F302FA0CF241EA030100F159
:100F60000100704720F07F4C80EA030023F07F47A8
:100F7000ACEB070303F57C5300F0004003F1FF03E3
:100F80002DE980494FEA154B09B44FEA144325EA8D
:100F90000B4E24EA03480FF2042606EB13274908F8
:100FA0003E785FEA320203FB0667C7F5000707FBDE
:100FB00006F64FEA54374FEAD64606F1020607FB1B
:100FC000066CCCF1005C4FEA1C472CEA074C07FB8F
:100FD00006F40CFB06F504EB15464FEA961634BFF3
:100FE00000204FF000404FEAD13706FB07FC4FEAE4
:100FF0001C4C0CFB0BF7D21B03FB0CF761EB07013E
:101000000CFB0EF7B0EB074072EB17420CFB08F736
:1010100034BFA2EB0742B2EB074261EB17414FEA44
:101020000C444FEA910706FB07FC4FEA1C4C0CFBF3
:101030000BF7B0EBC74072EB573203FB0CF734BF32
:10104000A2EBC742B2EBC74261EB57310CFB0EF784
:10105000B0EBC70072EB57720CFB08F734BFA2EB82
:10106000C702B2EBC70261EB5771039F4FEA816180
:1010700041EA921104EBCC044FEAD1374FEA826285
:1010800006FB07FC42EA90124FEA80604FEA1C4CD4
:101090000CFB0BF7D21B03FB0CF761EB07010CFBFE
:1010A0000EF7B0EB074072EB17420CFB08F734BFAA
:1010B000A2EB0742B2EB074261EB17414FEA8C55B6
:1010C0004FEA910704EB9C2406FB07FC4FEA1C4CFB
:1010D0000CFB0BF7B0EBC74072EB573203FB0CF77E
:1010E00034BFA2EBC742B2EBC74261EB57310CFBF6
:1010F0000EF7B0EBC70072EB57720CFB08F734BF6A
:10110000A2EBC702B2EBC70261EB577115EB4C259E
:101110004FEA816141EA92114FEA82624FEAD13788
:1011200042EA901206FB07FC44F100044FEA80609B
:101130004FEA1C4C0CFB0BF7D21B03FB0CF761EBCB
:1011400007010CFB0EF7B0EB074072EB17420CFBEC
:1011500008F734BFA2EB0742B2EB074261EB17413D
:1011600015EB1C154FEA813141EA92414FEA823278
:1011700042EA90424FEA80304FEA0C7644F1000494
:1011800048EA03434EEA0B484FF0000EB2EB080C5E
:1011900071EB030724BF624639464EEB0E0E4FF04B
:1011A000000B0018524149414BEB0B0BB2EB080C02
:1011B00071EB03077BF1000B24BF624639464EEB0F
:1011C0000E0E4FF0000B0018524149414BEB0B0B38
:1011D000B2EB080C71EB03077BF1000B24BF6246F6
:1011E00039464EEB0E0E51EA020718BF46F00106D3
:1011F00016EB0E7655F1000254F1000103D5BDE85F
:101200008901BDE80088BDE88901BDE80048B6193C
:10121000524141EB0101A3F10103704780807F7EC1
:101220007D7C7B7A7978777676757473727171705C
:101230006F6E6E6D6C6C6B6A6A696868676666650E
:101240006464636362616160605F5F5E5E5D5D5C9C
:101250005C5B5B5A5A59595858575756565555550D
:101260005454535352525251515050504F4F4F4E6D
:101270004E4D4D4D4C4C4C4B4B4B4A4A4A494949BB
:1012800048484847474747464646454545444444FD
:10129000444343434342424242414141002B26D40E
:1012A000770021D01CB54FEA370703B44FF0100088
:1012B0004FF010014FF000000FBCBDE810400BF1E3
:1012C000010BBBF1010F08BF5FEA170722BF12F144
:1012D000010211F101014FF0004143F1000300F060
:1012E000004043EA00007047F9D35708DAE746EABE
:1012F000064613F1400F4FEA16461FDD13F1200F8B
:10130000DFBF16430A46002120335B42C8D0C3F139
:10131000200746EA064602FA07F74FEA164646EA6B
:101320000706C3F1200722FA03F201FA07F721FAB0
:1013300003F14FF0000342EA0702B1E746EA020672
:1013400046EA06464FEA164646EA0106BCBF46EAAA
:101350000646360C4FF000034FF000024FF000013C
:101360009EE72DE9C048934630B491E8380007C89D
:1013700031EA400C48BF34EA430C03D5FFF7F2FDD5
:10138000FFF78CFFF0BCBDE800882DE9C04893460C
:1013900030B491E8380007C810F0804F08BF13F050
:1013A000804F03D100F005F8FFF778FFF0BCBDE8EF
:1013B000008820F07F4780EA030023F07F4C07EB92
:1013C0000C03A3F57C5300F00040A3F1FE0392F060
:1013D000000F00F0B38095F0000F00F077802DE94A
:1013E00001494FEA11404FEA144621EA004800FB48
:1013F00006FC24EA064708FB06F607FB08F800FB94
:1014000007F718EB06484CEB164C4FEA124B18EB5B
:1014100007484FEA15464CEB174022EA0B4E0BFBF0
:1014200006FC25EA06470EFB06F607FB0EFE0BFB45
:1014300007F71EEB064E4CEB164C4FF000061EEB6A
:10144000074E4CEB174B18EB0B0840F1000018EB64
:101450000E0B58EB000840F100008F1A4FF000010E
:101460003CBFC943661B14BFB5EB040C00213CBF55
:10147000C943F61B4FEA17444EEA8E0E27EA04458D
:101480004FEA1C4704FB07622CEA074C05FB07F7F1
:101490000CFB05F604FB0CFC16EB074642EB17426F
:1014A00016EB0C4642EB1C421BEB060658EB020205
:1014B000414146EA9E0601D5BDE80189B61952416F
:1014C00041EB0101A3F10103BDE801894FEA144595
:1014D0004FEA114724EA054621EA074C05FB07F4C9
:1014E00006FB07F70CFB06F105FB0CFC11EB0741B3
:1014F00044EB17444FEA124711EB0C4144EB1C44F8
:1015000022EA074C05FB07F206FB07F70CFB06F681
:1015100005FB0CFC16EB074642EB174216EB0C469C
:1015200042EB1C456A1854F1000148BF7047B619D8
:10153000524141EB0101A3F10103704795F0000F07
:1015400037D04FEA11424FEA144721EA024624EA13
:10155000074C02FB07F106FB07F70CFB06F402FB46
:101560000CFC14EB074441EB17414FEA154714EB11
:101570000C4441EB1C4125EA074C02FB07F506FB36
:1015800007F70CFB06F602FB0CFC16EB074645EBD7
:10159000174516EB0C4645EB1C42121951F10001A0
:1015A00048BF7047B619524141EB0101A3F1010355
:1015B00070474FEA14454FEA114724EA054621EAED
:1015C000074C05FB07F106FB07F70CFB06F24FF093
:1015D000000605FB0CFC12EB074241EB174112EB36
:1015E0000C4251EB1C4148BF7047921841EB01017E
:1015F000A3F10103704700BFFEE700000146072387
:1016000023EA01021202054B18684FF6FF03184047
:10161000034B18431043014B186070470CED00E07A
:101620000000FA0538B5002000906B4601227521B4
:10163000682003F0CBFA35A0FEF74CFE3DA0FEF784
:1016400049FE9DF8000068281DD000BF00BF00BF04
:1016500000BF00BFBFF34F8F00BF00BF00BF3E48B9
:10166000006800F4E0603D490843001D3A49086005
:1016700000BF00BF00BFBFF34F8F00BF00BF00BF60
:1016800000E000BFFDE703F067FC00283CD17820B4
:1016900004F06CFA10B932A0FEF71CFE782003F0BB
:1016A00041FB10B937A0FEF715FEC82004F010FA70
:1016B00010B93EA0FEF70EFE02F0CCFA10B945A01C
:1016C000FEF708FE504803F0ECFA044602F01CFD59
:1016D00010B94EA0FEF7FEFD40F2731002F062F961
:1016E00010B954A0FEF7F6FDC82002F03DFC10B979
:1016F0005AA0FEF7EFFD04F0E2FA012004F0E4F84E
:1017000010B95FA0FEF7E6FD38BD000052656164C8
:10171000696E67204D5055363035302057484F5F41
:10172000414D5F492072656769737465722E2E2E74
:101730002E0000006D70755F7365745F73656E7366
:101740006F7220636F6D706C65746531202E2E2E64
:101750002E2E2E0D0A0000000CED00E00000FA0510
:101760006D70755F7365745F73656E736F72206300
:101770006F6D706C657465202E2E2E2E2E2E0D0A28
:10178000000000006D70755F636F6E66696775724B
:10179000655F6669666F20636F6D706C6574652048
:1017A0002E2E2E2E2E2E0D0A000000006D70755F5D
:1017B0007365745F73616D706C655F7261746520D1
:1017C000636F6D706C657465202E2E2E2E2E2E0D7F
:1017D0000A000000646D705F6C6F61645F6D6F7410
:1017E000696F6E5F6472697665725F6669726D7744
:1017F00061726520636F6D706C657465202E2E2E8E
:101800002E2E2E0D0A0000005C000020646D705F1B
:101810007365745F6F7269656E746174696F6E2051
:10182000636F6D706C657465202E2E2E2E2E2E0D1E
:101830000A000000646D705F656E61626C655F66D2
:1018400065617475726520636F6D706C6574652079
:101850002E2E2E2E2E2E0D0A00000000646D705FBD
:101860007365745F6669666F5F7261746520636F2C
:101870006D706C657465202E2E2E2E2E2E0D0A0096
:101880006D70755F7365745F646D705F73746174A0
:101890006520636F6D706C657465202E2E2E2E2E64
:1018A0002E0D0A007047000010B50448006820B9EA
:1018B000082000F005F800F0D9FE10BD0C8240426F
:1018C0000149086070470000143C01400021234991
:1018D0008279002A3AD00A46126803689A430B4676
:1018E0001A600A1D126803689A430B1D1A60027978
:1018F00011440A6803681A430A60184A08321268D9
:1019000003689A43154B08331A601A1D126803685E
:101910009A43124B0C331A604279102A0ED11A1FC7
:10192000126803681A430D4B08331A601A1D1268B7
:1019300003681A43094B0C331A600DE007494279DA
:1019400011440A6803681A430A6005E002791144E9
:101950000A6803689A430A6070470000003C01402F
:1019600030B10749096841F48061054A116005E01A
:101970000349096821F48061014A11607047000041
:10198000003C024030B10749096841F40071054A42
:10199000116005E00349096821F40071014A1160F2
:1019A00070470000003C024030B10749096841F42B
:1019B0008071054A116005E00349096821F48071CE
:1019C000014A116070470000003C0240014A10705B
:1019D00070470000003C0240F0B50A460021002399
:1019E000002400BF3DE0012505FA01F3156805EA72
:1019F00003049C4234D105684F000326BE40B54322
:101A0000056015794E00B5400668354305601579C7
:101A1000012D02D01579022D16D185684F000326BD
:101A2000BE40B543856055794E00B5408668354364
:101A30008560456801268E40B543456045689679C6
:101A40008E40B6B235434560C5684F000326BE40A0
:101A5000B543C560D5794E00B540C6683543C5600D
:101A6000491C1029BFD3F0BDF0B5002300244D0759
:101A7000ED0E02FA05F3CE1000F1200555F82650C0
:101A80004E07F70E0F26BE40B543CF1000F12006DB
:101A900046F82750CE1000F1200555F8265045EAAB
:101AA0000304CE1000F1200545F82640F0BD00BF2C
:101AB000FEE721B1028842F00102028004E00288C0
:101AC0004FF6FE731A4002807047000010B50446BE
:101AD0001348844209D10121480500F06DFC002122
:101AE0004FF4001000F068FC18E00E48844209D161
:101AF0000121880500F060FC00214FF4800000F017
:101B00005BFC0BE00848844208D10121C80500F0C5
:101B100053FC00214FF4000000F04EFC10BD00000B
:101B20000054004000580040005C00402DE9FF4791
:101B300004460D460026B1460427DFF8CC80A6886F
:101B40004FF6C0700640684600F088FCDDF808805B
:101B50002E48B8FBF0F01FFA80F946EA0906A68085
:101B600020884FF6FE71084020800026284928680A
:101B700088420CD828684000B8FBF0F087B2042FE8
:101B800000DA04273E4309F10100208427E0E888B9
:101B90004BF6FF71884206D1286800EB4000B8FB85
:101BA000F0F087B209E0286800EBC00101EB0010FB
:101BB000B8FBF0F087B247F48047C7F30B0008B9D1
:101BC00047F0010747F4004006434FF4967009FBC5
:101BD00000F04FF47A7190FBF1F0401C2084A68352
:101BE000208840F00100208026884FF6F53006401E
:101BF000A8886989084306432680A889298908435B
:101C00002081BDE8FF87000000127A0040420F00EB
:101C1000A086010070B505460E46002400F050F97C
:101C2000284600F00FF9641C00F0BAF9304600F0C5
:101C300009F9641C00F0B4F900F042F9691CC8B25B
:101C400000F000F9641C00F0ABF9002000F0B2F8DD
:101C5000044600F075F9204670BD000010B5002064
:101C6000144908601448006820F4403012490860A4
:101C700008460068086010480C30006820F44030C6
:101C80000D490C3108600846006840F48030086057
:101C900000200A49C1F8A802012001F047FE0120F6
:101CA0000449086001F042FE00200449C1F8AC027A
:101CB00010BD0000AC82404200040240008040425F
:101CC00000B587B00121022000F056FB01218805F4
:101CD00000F062FB04220A211B48FFF7C5FE042224
:101CE0000B211948FFF7C0FE4FF440600590022019
:101CF0008DF8180001208DF81A0002208DF81900C7
:101D000005A91148FFF768FE1048FFF7DFFE4FF402
:101D10008060ADF80E000001ADF810000C48019095
:101D20004BF6FF70ADF80A000020ADF80800102057
:101D3000ADF80C0001A90548FFF7F8FE01210348A2
:101D4000FFF7B7FE07B000BD000402400058004096
:101D5000801A060010B50020134908601348006877
:101D600020F44030114908600846006808600F48B8
:101D70000C30006820F440300C490C3108600846F3
:101D8000006840F48030086001200949C1F8A802C9
:101D900001F0CCFD01200449086001F0C7FD0020DE
:101DA0000349C1F8AC0210BDAC82404200040240BD
:101DB0000080404270B5054600241F48006820F4AA
:101DC00040301D4908600846006840F480300860D3
:101DD000081D006820F48070091D0860081D006857
:101DE00020F44030091D08600846006840F4403087
:101DF0000860002616E0002010490860022001F06B
:101E000095FD01200E49C1F8AC026006040E0B4896
:101E10008438006808B1601CC4B2022001F086FD5D
:101E2000701CC6B2082EE6DB15B1FFF717FF01E004
:101E3000FFF790FF204670BD00040240AC82404294
:101E40000080404270B504461A48006820F44030D3
:101E50001849086008460068086016480C30006899
:101E600020F4403013490C3108600846006840F403
:101E700080300860002010490860002516E0E00965
:101E80000D49091F08606006040E012001F04EFD97
:101E900001200A49C1F8AC0201F048FD00200649C2
:101EA0000860012001F042FD681CC5B2082DE6DB88
:101EB00070BD000000040240AC82404200804042FD
:101EC00010B51C48006820F440301A4908600846E4
:101ED0000068086017480C30006820F4403015494D
:101EE0000C3108600846006840F48030086001202A
:101EF000114908601148D0F8280208B9002010BD27
:101F000001200D49091D086001F010FD00200B495A
:101F1000C1F8A80208488038006808B10020EEE740
:101F2000012001F003FD00200349091D0860012084
:101F3000E5E7000000040240A882404200804042E1
:101F400010B51448006820F4403012490860084673
:101F5000006808600F480C30006820F440300D49DC
:101F60000C3108600846006840F4803008600020AA
:101F7000094908600949C1F8A802012001F0D6FC0E
:101F80000120054908600549C1F8A80201F0CEFC0E
:101F900010BD000000040240AC824042008040427C
:101FA00010B500241E48006820F440301C49086029
:101FB0000846006840F480300860081D006820F47E
:101FC0008070091D0860081D006820F44030091D5C
:101FD00008600846006840F440300860012011495C
:101FE000086001F0A3FC01200F49C1F8AC0201F028
:101FF0009DFC0AE0601CC4B2322C03DDFFF7A0FF99
:10200000002010BD012001F091FC064880380068D6
:102010000028EFD10349091D08600120F1E7000005
:1020200000040240A88240420080404270B505464C
:102030000E46144631462846FFF7ECFD207001207D
:1020400070BDF8B506460F4614461D466A46394629
:102050003046FFF7EBFF2DB10120A0409DF80010A6
:10206000084305E00120A0409DF8001021EA00008F
:10207000C0B200909DF800203946304600F036F896
:10208000F8BD2DE9F8430746884614461D46089ECC
:102090006A4641463846FFF7C9FF28B3601CFF2156
:1020A00001FA00F0C4F108012944491EFF220A4147
:1020B000104300F0FF09C5F1080006FA00F0C6B2AF
:1020C000C4F1070006419DF8000000EA09000090F5
:1020D0009DF80000304300909DF8002041463846AE
:1020E00000F004F8BDE8F8830020FBE737B50446AC
:1020F0000D4602AB01222946204600F001F83EBD04
:102100002DE9F04180460D4616461F460024FFF794
:10211000D7FE4046FFF796FEFFF742FF2846FFF73F
:1021200091FEFFF73DFF00BF06E0385DFFF78AFE36
:10213000FFF736FF601CC4B2B442F6DBFFF700FFC6
:102140000120BDE8F08100001CB50121082000F04D
:1021500013F94FF48050009001208DF80400002006
:102160008DF805008DF807008DF8060069460348D4
:10217000FFF732FC0020024908601CBD000C024041
:10218000B082414200B585B00121880300F024F9F6
:102190000121022000F0F0F80820039000208DF8C3
:1021A000100001208DF8130003A91248FFF714FC5A
:1021B0000321012000F0D4FB0820019000208DF8BD
:1021C00008000C208DF8090001208DF80A0001A8F4
:1021D000FFF77CFB09208DF8000002208DF801003C
:1021E00001208DF802008DF80300684600F086F8A3
:1021F00005B000BD0004024010B514A0FEF76AF857
:10220000022000F03FF813A0FEF764F8032000F06E
:102210004DF812A0FEF75EF8002000F03DF811A086
:10222000FEF758F8002000F05DF810A0FEF752F815
:10223000002000F04EF80FA0FEF74CF8002000F050
:102240003FF80EA0FEF746F810BD0000302E310A10
:1022500000000000302E320A00000000302E330A49
:1022600000000000302E340A00000000302E350A35
:1022700000000000302E360A00000000302E370A21
:102280000000000038B50446032302226B21D02051
:102290000094FFF7F6FE38BD38B504460223042249
:1022A0001C21D0200094FFF7ECFE38BD38B5044661
:1022B000022304221B21D0200094FFF7E2FE38BD48
:1022C00010B50446234601223721D020FFF7B9FE7E
:1022D00010BD10B50446234605226A21D020FFF721
:1022E000B0FE10BD10B50446234606226B21D02057
:1022F000FFF7A7FE10BD00BFFEE7704770B50021D5
:1023000000230F22C4781CB3174C246804F4E06443
:10231000C4F5E064C4F30721C1F10404E3B20A4147
:1023200044789C40E1B28478144021430C07210E8C
:102330000E4C05786155047804F01F050124AC406B
:1023400005786D11AD0005F1E025C5F8004109E003
:10235000047804F01F050124AC40054D0678761181
:1023600045F8264070BD00000CED00E000E400E000
:1023700080E100E07047000029B1064A126802437C
:10238000044B1A6004E0034A12688243014B1A604E
:10239000704700003038024029B1064A12680243F3
:1023A000044B1A6004E0034A12688243014B1A602E
:1023B000704700004038024029B1064A12680243C3
:1023C000044B1A6004E0034A12688243014B1A600E
:1023D000704700002038024029B1064A12680243C3
:1023E000044B1A6004E0034A12688243014B1A60EE
:1023F00070470000443802401448006840F0010073
:102400001249086000201149083108600F4800682F
:102410000F4908400D4908600E48091D08600E4824
:102420000A49843108600B481038091D08600748C4
:10243000006820F4802005490860002003490C3121
:10244000086002498C310860704700000038024083
:10245000FFFFF6EA1030002400300020F0B5002124
:1024600000220024022500260223324F3F6807F095
:102470000C0121B1042905D0082937D105E02E4FE0
:10248000076036E02D4F076033E02A4F3F1F3F685B
:10249000C7F38056274F3F1F3F6807F03F036EB1D9
:1024A000264FB7FBF3F7DFF88CC0ACF1040CDCF877
:1024B00000C0CCF3881C07FB0CF40CE01E4FB7FBEC
:1024C000F3F7DFF870C0ACF1040CDCF800C0CCF31B
:1024D000881C07FB0CF4174F3F1F3F68C7F30147E9
:1024E0007F1C7D00B4FBF5F7076002E0124F076028
:1024F00000BF00BF0F4F3F6807F0F0010909104F00
:102500007A5C0768D74047600A4F3F6807F4E0519C
:10251000890A0B4F7A5C4768D7408760054F3F6850
:1025200007F46041490B064F7A5C4768D740C760A3
:10253000F0BD0000083802400024F40000127A00C8
:102540001800002010B501460022002300204A1187
:10255000012A02D10A4C236808E0022A03D1084C60
:102560007034236802E0064C7434236801F01F02C3
:10257000012494401C400CB1012000E0002010BD5B
:10258000003802400248006800F00C00704700006C
:102590000838024001460020034A106820F0F0008D
:1025A0000843106070470000083802400021024ACA
:1025B0001170114608707047023802400146002031
:1025C000034A106820F4E050084310607047000090
:1025D0000838024001460020034A106820F4604099
:1025E00040EAC1001060704708380240014908669F
:1025F000704700000000474270B5049C41EA821514
:102600000126C6EB530645EA0645054345EA04653F
:10261000014E356070BD00000438024001460020C4
:10262000034A106820F00300084310607047000060
:102630000838024038B5002000900024002500BF73
:102640003120FFF77FFF05460098401C009000985E
:10265000B0F5A04F01D0002DF2D03120FFF772FF6E
:1026600008B1012400E00024204638BD00B52DED5E
:10267000088B8BB009A8A3490AAB05AACDE90010C5
:10268000A149A24801F0F2FA9E48008800F4807047
:1026900000287DD09DED050AB8EEC00ADFED9C0A4A
:1026A00080EE201A9B4880ED001A9DED060AB8EED8
:1026B000C00ADFED970A80EE201A974880ED001AD5
:1026C0009DED070AB8EEC00ADFED910A80EE201AF0
:1026D000924880ED001A9DED080AB8EEC00ADFEDC1
:1026E0008C0A80EE201A8E4880ED001A8A4890ED00
:1026F000000AF8EE000A20EE200A8948D0ED000A10
:1027000020EE200A8348D0ED000AB0EE001A60EEF9
:10271000810A824890ED001A00EE810A10EE101A2C
:10272000084604F001F941EC1A0BB0EE4A0AF0EE4B
:102730006A0A00F035FBB0EE409AF0EE609A9FED29
:10274000790B53EC102B51EC190B03F02DFE41ECDF
:10275000180B03F0F7FB754908606F4890ED000A0D
:10276000F8EE000A20EE200AD0ED000A20EE200A42
:102770006A48D0ED000AB0EE001A60EE810A90EDD2
:10278000001A00EEC10AF7EE000A30EE200A00E05F
:10279000B4E010EE101A084604F0C6F841EC1A0B2B
:1027A0005E4890ED000AF0EE000A20EE200A5C4838
:1027B000D0ED000A20EE200A5648D0ED000AB0EE17
:1027C000001A60EE810A544890ED001A00EE810A6A
:1027D00010EE101A084604F0A7F841EC1B0BB0EEFF
:1027E0004A1AF0EE6A1AB0EE4B0AF0EE6B0A00F0ED
:1027F000F3FDB0EE409AF0EE609A9FED4A0B53EC79
:10280000102B51EC190B03F0CFFD41EC180B03F02A
:1028100099FB474908603F4890ED000A20EE000A06
:102820003D48D0ED000A90ED001A00EE810A3B48C9
:10283000D0ED000A90ED001A00EEC10A3848D0ED44
:10284000000A90ED001A00EEC10A10EE101A0846B8
:1028500004F06AF841EC1A0B2F4890ED000A2F485B
:10286000D0ED000A20EE200A2A48D0ED000A2C48BC
:1028700090ED001A00EE810AF0EE000A20EE200A28
:1028800010EE101A084604F04FF841EC1B0BB0EEA6
:102890004A1AF0EE6A1AB0EE4B0AF0EE6B0A00F03C
:1028A0009BFDB0EE409AF0EE609A9FED1E0B53EC4C
:1028B000102B51EC190B03F077FD41EC180B03F0D2
:1028C00041FB1C4908600846006804F02DF841EC03
:1028D000180B1748006804F027F841EC190B13484F
:1028E000006804F021F841EC1A0B8DED028B8DEDA0
:1028F000009B53EC1A2B10A0FDF7ECFC0BB0BDECC9
:10290000088B00BD3C000020360000203000002075
:102910000000804E4C000020500000205400002099
:10292000580000206666666666A64C40400000209F
:102930004400002048000020526F6C6C3A252E3273
:1029400066092050697463683A252E326609205959
:1029500061773A252E32660D0A00000070470000AC
:1029600030B500228B071C0F0F2303FA04F20B4B28
:102970008C1053F824309343084C8D1044F82530C4
:1029800023468C1053F824308C07240F00FA04F4EB
:102990002343024C8D1044F8253030BD08380140E7
:1029A0000CB50020019000903448006840F480305D
:1029B0003249086000BF3148006800F400300090E0
:1029C0000198401C0190009818B90198B0F5A04FEB
:1029D000F1D12A48006800F4003010B101200090C5
:1029E00001E0002000900098012846D123484030A3
:1029F000006840F08050214940310860204800685C
:102A000040F440401E4908601C48083000681B49DB
:102A1000083108600846006840F400400860084635
:102A2000006840F4A05008601648091F0860081F9D
:102A3000006840F08070091F086000BF0F48006800
:102A400000F000700028F9D040F205700E490860CF
:102A50000A480830006820F003000849083108607F
:102A60000846006840F00200086000BF03480830D4
:102A7000006800F00C000828F8D10CBD00380240B6
:102A80000070004019544007003C0240042808D15F
:102A90004FF0E021096941F004014FF0E02211619B
:102AA00007E04FF0E021096921F004014FF0E02236
:102AB0001161704710B500F071F810BD08B5FFF74F
:102AC0009BFC0120FFF772FDFFF7B4FD012830D118
:102AD0000520FEF77BFF0120FEF766FF0120FEF7D1
:102AE00051FF0120FEF73CFF0020FFF753FD4FF49C
:102AF000A050FFF763FD4FF48050FFF76BFD0720F8
:102B000002234FF4A87208210090C804FFF774FD57
:102B10000120FFF76BFD00BF3920FFF713FD0028F0
:102B2000FAD00220FFF77AFD00BFFFF72BFD08283F
:102B3000FBD108BD10B51548006840F4700013497A
:102B400008601348006840F0010011490860002047
:102B50000F49083108600E4800680E4908400C49CA
:102B600008600D48091D0860081F006820F48020D7
:102B7000091F0860002006490C310860FFF710FFAC
:102B80004FF0006001498039086010BD88ED00E019
:102B900000380240FFFFF6FE1030002404480068B1
:102BA00020B103480068401E0149086070470000DA
:102BB0000000002010B5002440F22551054800F027
:102BC00034F830B1034800F0C5F8C4B2204600F034
:102BD00003F810BD0044004010B5044600BF80213A
:102BE000044800F015F80028F9D02146014800F00B
:102BF000B6F810BD0044004021B1828942F4005271
:102C0000828104E082894DF6FF731A408281704709
:102C100002460020B1F5007F00D100BF13880B40B1
:102C20000BB1012000E00020704770B5024600247F
:102C300000230025002040F66A16B14200D100BFF3
:102C4000C1F3421501F01F03012606FA03F3012D1B
:102C500002D19689334006E0022D02D1168A334014
:102C600001E0968A33400C12012606FA04F4168815
:102C7000344013B10CB1012000E0002070BD000011
:102C80002DE9FF4705460E460024A14600BFA04699
:102C9000B08900B100BF2C8A24F44054F08804436A
:102CA0002C82AC8941F20C608443B088318908439E
:102CB000718908430443AC81AC8A24F44074B08920
:102CC0000443AC826846FFF7C9FB2048854202D026
:102CD0001F48854202D1DDF80C9001E0DDF8089034
:102CE000A88900F4004040B109EBC90000EB0910CD
:102CF00031684900B0FBF1F707E009EBC90000EBD0
:102D0000091031688900B0FBF1F76420B7FBF0F0DF
:102D100004012009642101FB1078A88900F4004017
:102D200040B1322000EBC800B0FBF1F000F007002A
:102D3000044308E0322000EB08106421B0FBF1F0FE
:102D400000F00F0004432C81BDE8FF870010014014
:102D50000014014001468888C0F308007047C1F3A1
:102D600008028280704700BFFEE703B4019841006B
:102D7000009850EAC12018BF04204A0D18BF40F047
:102D8000010040F2FF72B2EB515F08BF40F0020059
:102D9000012808BF052002B07047000000000000B5
:102DA00070B5C1482DED020B2DED0E8B82B0119D3B
:102DB00025F000449FEDBEDB9FEDBFEB84423EDB80
:102DC000A4F140511098A1F17F6108430FD0BC4895
:102DD000844202DC28D1109830B39DED100B02B074
:102DE000BDEC0E8B02B0BDE8704000F069BC9DEDFB
:102DF000100B53EC1D2B51EC100B03F0D5FA9DED8D
:102E0000100B41EC180B53EC1E2B51EC100B03F084
:102E1000CBFA53EC182B03F0C7F841EC100B02B0BF
:102E2000BDEC0E8B02B070BD0120FDF7D6FB02B0E9
:102E3000BDEC0E8B02B0BDE8704000F055BCA1485F
:102E40009FEDA18B844256DA9DED100BB4F1795FB2
:102E50000ADA51EC100BFFF788FF042808BF00F0D6
:102E600053FC9DED100BDAE753EC102B51EC100BDB
:102E700003F09AFA41EC190B95480621B0EE490A85
:102E8000F0EE690A784400F09FFB53EC192B51ECEB
:102E9000100B03F089FA41EC1A0B8E48B0EE490A88
:102EA000F0EE690A0421784400F08EFB53EC192BF4
:102EB00051EC100B03F078FA53EC182B03F074F874
:102EC00041EC100B51EC1A0B53EC102B03F014F9DE
:102ED000CDE900019DED000B53EC102B9DED100B87
:102EE00051EC100B03F060FA9DED101B53EC112B0D
:102EF00003F05AF8D2E09DED100B51EC100B01F0ED
:102F00001DFB53EC182B03F04DFB9FED730BCDE92C
:102F1000000153EC102B9DED000B51EC100B03F056
:102F200043FA41EC190B6E480621B0EE490AF0EE67
:102F3000690A784400F048FB53EC192B51EC100B54
:102F400003F032FA41EC1B0B6648B0EE490AF0EE92
:102F5000690A0421784400F037FB53EC192B51EC3B
:102F6000100B03F021FA53EC182B03F01DF841EC81
:102F70001C0B51EC190B02F035FF41EC180B5A48B1
:102F80009FED5BABA04222DC53EC1C2B51EC1B0BE6
:102F900003F0B2F8CDE900019DED000B51EC180BE8
:102FA00053EC102B03F000FA53EC182B02F0FCFF4B
:102FB00053EC1A2B03F0F8F953EC1D2B03F0CAFB6A
:102FC00053EC1E2B03F0EEFA41EC100B5FE08DED9D
:102FD000008B002000909DED000B51EC180B53EC82
:102FE000102B02F0E1FF9DED000B41EC1E0B53ECAA
:102FF000102B51EC100B03F0D7F953EC192B03F005
:10300000D1FA53EC1E2B03F077F841EC190B53EC7B
:103010001C2B51EC1B0B03F06FF841EC1B0B53EC1A
:103020001A2B51EC190B03F0BFF953EC1D2B03F0D5
:10303000B9FA41EC190B53EC1A2B51EC180B03F0B5
:10304000B3F953EC1B2B03F0AFF953EC192B03F03E
:1030500081FB9DED000B41EC180B53EC1A2B51EC4E
:10306000100B03F0A1F99FED249B53EC192B03F0F7
:1030700099FA41EC100B51EC180B53EC102B03F0A8
:1030800069FB53EC192B03F08DFA41EC100B002D6A
:103090003FF7C5AE51EC100B02F048FF41EC100BAE
:1030A000BDE60000000000000000F03F000000004E
:1030B000075C143326A6913C182D4454FB21F93F9C
:1030C0000000F07F0000E03F000000000000F03F43
:1030D000E8470000F6470000000000000000E03F65
:1030E0003A470000484700003333EF3F000000003C
:1030F0000000000000000040182D4454FB21E93F6F
:1031000070B59B482DED020B2DED068B079D25F02C
:103110000044A04218DC9748844202DC0AD1069899
:1031200040B19DED060BBDEC068B02B0BDE87040D2
:1031300000F0C6BA002DCCBF9FED8F0B9FED900B1A
:10314000BDEC068B02B070BD8F48A04215DD8F48E4
:10315000A042D8BF4FF0FF3458DD9DED060B51EC77
:10316000100BFFF702FE042808BF00F0CDFA9DED1A
:10317000060BBDEC068B02B070BD9DED060B51EC4D
:10318000100B01F0DBF9CDE9060181489FED828B40
:10319000A0423CDD8248A0421FDD00249FED82ABAF
:1031A0009DED060B53EC1A2B51EC100B02F0FCFEBC
:1031B0009DED060B41EC190B53EC1A2B51EC100B47
:1031C00003F0F2F853EC182B03F0C4FA53EC192B6C
:1031D00002F092FFCDE9060149E09DED060B0124C6
:1031E00053EC182B51EC100B02F0DEFE9DED060B9C
:1031F00041EC190B53EC182B51EC100B03F0AAFA0D
:1032000053EC192B02F078FFCDE906012FE0684856
:10321000A0421FDD02249FED689B9DED060B53EC41
:10322000192B51EC100B03F0BFF853EC182B02F0E4
:10323000BBFE9DED060B41EC180B53EC192B51EC2A
:10324000100B03F087FA53EC182B02F055FFCDE971
:1032500006010CE09DED060B032453EC102B9FEDB3
:10326000580B51EC100B02F047FFCDE906019DED24
:10327000060B53EC102B51EC100B03F095F841ECBE
:10328000180B53EC182B03F08FF841EC190B4E4838
:103290000621B0EE490AF0EE690A784400F094F98C
:1032A00053EC182B51EC100B03F07EF841EC180B8B
:1032B0004648B0EE490AF0EE690A0521784400F06C
:1032C00083F953EC192B51EC100B03F06DF841EC22
:1032D000100B51EC180B53EC102B002C0EDA02F0F3
:1032E00063FE9DED061B53EC112B03F05DF89DED85
:1032F000061B53EC112B03F055F935E002F054FE98
:103300009DED061B53EC112B03F04EF841EC100B16
:103310002F48784400EBC40090ED001B51EC100BDB
:1033200053EC112B03F016FA9DED061B53EC112BF9
:1033300003F010FA41EC100B2648784400EBC4006F
:1033400090ED001B51EC100B53EC112B03F02AF9FC
:1033500041EC100B002DA2BFBDEC068B02B070BD7E
:1033600051EC100B02F0E2FD41EC100B01E7000004
:10337000000010440000F07F182D4454FB21F93F59
:10338000182D4454FB21F9BF0000DC3F0000203E13
:103390000000F33F00000000000000000000F03FCC
:1033A0000000E63F000000000000000000000040B8
:1033B0000080034000000000000000000000F83F13
:1033C000000000000000F0BF8A44000040440000FC
:1033D000CA4300008243000070B56B4E2DED040B14
:1033E0002DED028B82B0DDF81CC0DDE905235C42C7
:1033F0002CF000411C4341EAD474049D22F00040AB
:10340000B44205D86C422C4340EAD474B4420BD980
:103410009DED061B9DED040B02B0BDEC028B04B0CC
:10342000BDE8704000F056B9ACF14054A4F17F649F
:103430001C430BD0022404EAAC7444EAD274054362
:103440009FED538B9FED542B07D015E09DED040BA2
:1034500051EC100B00F0D2F942E0002C11BF012C0E
:103460009DED040B02B0BDEC028B04BF04B070BD37
:10347000022C38D0032C3BD00B439FED491B9FED12
:103480004A0B0AD0B14218D1B04209D121F0804193
:1034900020F08040079105900FE0002A15DA10E037
:1034A000434B7B44002C08BF93ED000B0DD0012C47
:1034B00010D0022C17D0032C1AD0B0421DD1002AF4
:1034C00003DAB0EE410AF0EE610A02B0BDEC028B05
:1034D00004B070BD93ED000B51EC100B02F026FD13
:1034E00041EC100BF1E7B0EE480AF0EE680AECE7A9
:1034F000B0EE420AF0EE620AE7E7401A00153C28F7
:10350000C8BF8DED000B19DCBCF1000FBEBF10F180
:103510003C0F9FED290B8DED000B0FDB9DED060B96
:1035200053EC102B9DED040B51EC100B02F0E4FD5D
:1035300001F004F800F062F9CDE90001002C08BFA9
:103540009DED000BC1D0012C10D0022C9FED1C0B67
:1035500053EC102B9DED000B51EC100B0DD003F034
:10356000F9F853EC182B03F0F5F8B9E7019880F05F
:10357000004001909DED000BA7E703F0EBF853EC42
:10358000182B03F00FF8ABE70000F07F00000000FD
:10359000182D4454FB210940182D4454FB2109C027
:1035A000182D4454FB21F9BF182D4454FB21F93F39
:1035B000B242000000000000000000000000000017
:1035C000075C143326A6A13C70B504462DED028B92
:1035D0004D1E00EBC500B0EE408AF0EE608A90ED23
:1035E000000B35F0060017D053EC182B51EC100BE4
:1035F00002F0DAFE41EC100B6D1E04EBC50090EDFD
:10360000001B51EC100B53EC112B02F0CDFC41ECE4
:10361000100B35F00600E7D1022D36D0042D1CD05A
:10362000062D1CBFBDEC028B70BD53EC182B51EC6A
:10363000100B02F0B9FE94ED0A1B53EC112B02F0B3
:10364000B3FC53EC182B02F0AFFE94ED081B53ECC7
:10365000112B02F0A9FC41EC100B53EC182B51EC90
:10366000100B02F0A1FE94ED061B53EC112B02F09F
:103670009BFC53EC182B02F097FE94ED040B53ECDB
:10368000102B02F091FC41EC100B53EC182B51EC79
:10369000100B02F089FE94ED021B53EC112B02F08B
:1036A00083FC53EC182B02F07FFE94ED001B53ECCF
:1036B000112B02F079FCBDEC028B41EC100B70BDBC
:1036C00010B553EC102B51EC100B02F06DFC41ECDB
:1036D000100B10BD10B553EC112B51EC100B02F078
:1036E00063FC41EC100B10BD9FED050B10B553ECC6
:1036F000102B51EC100B02F0FFFC41EC100B10BD35
:1037000000000000000000009FED050B10B553EC19
:10371000102B51EC100B02F047FE41EC100B10BDCA
:10372000000000000000001030380A2801D20120FB
:1037300070470020704700BF70470000F0B52DEDC6
:10374000028B83B006460F460025684600F010FF46
:10375000002447E056F8241057F82420881A00283F
:1037600001DB014600E0414200EE101AB8EEC00A4B
:10377000DFED200A80EE208A684600EB840090EDA1
:10378000000AB5EEC00AF1EE10FA18D0684600EB58
:103790008400D0ED000A88EE200AF7EE000A70EEF1
:1037A000608AB0EEE80A1448D0ED090AB4EEE00AE7
:1037B000F1EE10FA15DD0120A040054311E00E489E
:1037C00090ED070AB4EEC80AF1EE10FA06DC90EDAF
:1037D000080AB4EEC80AF1EE10FA02D20120A040A5
:1037E0000543641C032CB5DB284603B0BDEC028BFB
:1037F000F0BD0000000080474C6A000810B541ECA5
:10380000100BFFF77DFC51EC100B10BD10B5022022
:10381000FDF7F4FEFFF752F900F044F8FEF794FCD0
:103820004FF4E13002F016FB4FF4967000F060F8B0
:10383000FEF746FAFEF7E0FCFDF7F4FE10BD0000CF
:103840002DE9F0410446E07800F0C006E07800F091
:103850003F05607800F0010098B1EF102846E917A5
:1038600005EB5171C910A5EBC101491C01F0FF081E
:103870000B48006820B10A48414602683846904724
:1038800000BF607800F0080030B10548406818B10A
:10389000B011034A516888470020BDE8F08100005C
:1038A0009800002010B50E4800680E49B0FBF1F0FA
:1038B000C4B26FF00400FFF7E9F8E11704EB5171AF
:1038C000C910094A11701046007800EB4001C1EBA5
:1038D000C0104FF6FF7101EAC0000449088010BD16
:1038E0000400002040420F00280000202A00002091
:1038F00001460D4A12884A434FF0E0235A610022E4
:103900009A6101221A6100BF4FF0E022106900F0B5
:1039100001021AB100F48032002AF5D000224FF0E3
:10392000E0231A619A6170472A00002001460D4A7F
:1039300012784A434FF0E0235A6100229A61012233
:103940001A6100BF4FF0E022106900F001021AB1C5
:1039500000F48032002AF5D000224FF0E0231A61F3
:103960009A6170472800002038B5044664B12020D1
:103970008DF8000028208DF8010030208DF802001D
:1039800038208DF8030004E0A32204216846FCF7E8
:103990009CFD6A46042140F69E2002F04FF901F09A
:1039A0003FFD38BD3EB5044602208DF80000CA2018
:1039B0008DF80100E3208DF8020009208DF8030046
:1039C0006A460421682002F039F9A3208DF800002E
:1039D00004F0400048B1C0208DF80100C8208DF8E7
:1039E0000200C2208DF8030006E0A3208DF801003C
:1039F0008DF802008DF8030004F4C07048B1C420B3
:103A00008DF80400CC208DF80500C6208DF8060046
:103A100006E0A3208DF804008DF805008DF806005F
:103A2000A3208DF807008DF808008DF809006A467C
:103A30000A2140F6A72002F001F904F0030018B1B2
:103A400020208DF8000002E0D8208DF800006A46A2
:103A5000012140F6B62002F0F1F804F0200018B180
:103A6000012000F0ADF802E0002000F0A9F804F415
:103A7000C07008B304F4807060B1B2208DF800000B
:103A80008B208DF80100B6208DF802009B208DF868
:103A900003000BE0B0208DF8000080208DF80100BD
:103AA000B4208DF8020090208DF803006A460421AE
:103AB00040F6A22002F0C2F804F0010020B3F82082
:103AC0008DF800006A4601214FF40B6002F0B6F851
:103AD000FA21072000F02CFC072000F0F3FB012066
:103AE00000F013FC642000F003FD4FF4FA7000F0C6
:103AF00012FDC821304800F0A3FB282000F0BCFBD9
:103B00000A2000F0CCFB08E0D8208DF800006A46BF
:103B100001214FF40B6002F091F804F0020018B19B
:103B2000D9208DF8000002E0D8208DF800006A4608
:103B3000012140F23D7002F081F804F0040018B158
:103B4000012000F069F802E0002000F065F804F0C0
:103B5000100018B10120FFF707FF02E00020FFF777
:103B600003FF44F008001549488101F059FC00208A
:103B70001249887304F0400018B10846807B801D0C
:103B8000887304F4C07020B10C48807B801D0B4901
:103B9000887304F0140020B10848807B1030074976
:103BA000887304F0030020B10448807B001D0349A2
:103BB000887300203EBD000009E3CA02980000207F
:103BC0003EB504466CB10EA1D1E900208968CDE96B
:103BD000002002916A4609214FF4976002F02EF806
:103BE0003EBD0AA2D2E900109268CDE9010200911F
:103BF0006A4609214FF4976002F020F8F0E70000D0
:103C0000B8AAB38DB4980D355D000000B8AAAAAA71
:103C1000B088C3C5C700000038B5044664B1C020F1
:103C20008DF80000C2208DF80100C4208DF802003C
:103C3000C6208DF8030004E08B2204216846FCF7BF
:103C400044FC6A46042140F6982001F0F7FF01F099
:103C5000E7FB38BD10B5C8234FF48062024940F637
:103C6000F63001F071FA10BD746A00082DE9F04FCA
:103C70008DB00746884615469946DDE9166B002447
:103C8000002030806B49887B5A4605A901F028FB4B
:103C900018B1601E0DB0BDE8F08F6648807A00F064
:103CA0001400002867D09DF8140000069DF8151038
:103CB00040EA01409DF8161040EA01209DF81710D7
:103CC000084328609DF8180000069DF8191040EA86
:103CD00001409DF81A1040EA01209DF81B1008438E
:103CE00068609DF81C0000069DF81D1040EA014028
:103CF0009DF81E1040EA01209DF81F100843A8609F
:103D00009DF8200000069DF8211040EA01409DF832
:103D1000221040EA01209DF823100843E86004F1D6
:103D20001000C4B228680014019068680014029062
:103D3000A86800140390E8680014049001984043B8
:103D4000029901FB0100039901FB0100049901FBA9
:103D5000010ABAF1706F02DBBAF1885F05DD01F08C
:103D60005FFB00203080401E94E7B6F9000040F46D
:103D70008070308000BF2F48807A00F0400020B370
:103D800005A9601C085C095D40EA012000B2A8F8A2
:103D9000000005A9E01C095C05AAA01C105C41EA12
:103DA000002000B2A8F8020005A9601D095C201DD2
:103DB000105C41EA002000B2A8F80400A01DC4B2C3
:103DC000B6F9000040F0080030801A48408900F43D
:103DD000C07008B305A9601C085C095D40EA0120B9
:103DE00000B2388005A9E01C095C05AAA01C105C83
:103DF00041EA002000B2788005A9601D095C201D01
:103E0000105C41EA002000B2B880A01DC4B2B6F92F
:103E1000000040F0700030800648807A00F0030017
:103E200018B105A90819FFF70BFD484601F046FF38
:103E300000202FE79800002070B588B0064601A842
:103E400000F0CEFFBDF804000021C90341EA50454F
:103E5000C4034448007A00F0030056F8200005909F
:103E60004048007A00F0040010B1059840420590E7
:103E70003C48007AC0F3C10056F82000069039484B
:103E8000007A00F0200010B10698404206903548B4
:103E9000007AC0F3811056F820000790314800895D
:103EA00000F4807010B10798404207900598C11740
:103EB000A0FB042301FB043100FB0510810041EA53
:103EC000927005900698C117A0FB042301FB0431F2
:103ED00000FB0510810041EA927006900798C11717
:103EE000A0FB042301FB043100FB0510810041EA23
:103EF000927007900598000E8DF808000598000C48
:103F00008DF809000598000A8DF80A000598C0B2DE
:103F10008DF80B000698000E8DF80C000698000C2A
:103F20008DF80D000698000A8DF80E000698C0B2B4
:103F30008DF80F000798000E8DF810000798000C00
:103F40008DF811000798000A8DF812000798C0B28A
:103F50008DF8130002AA0C214FF4257001F06EFEBB
:103F600008B070BD9800002030B585B0044616A298
:103F700007CA02AB07C3C82C03DD4FF0FF3005B002
:103F800030BDC82090FBF4F0401E85B2280A8DF8A1
:103F90000000E8B28DF801006A46022140F21620C6
:103FA00001F04CFE10B14FF0FF30E8E702AA0C21FF
:103FB00040F6C12001F042FE10B14FF0FF30DEE7C5
:103FC000044884810020DAE7FEF2ABC4AAF1DFDF07
:103FD000BBAFDFDF980000201FB504464848007AD9
:103FE00000F0030054F8200001904548007A00F0EA
:103FF000040010B10198404201904148007AC0F39A
:10400000C10054F8200002903D48007A00F02000E2
:1040100010B10298404202903948007AC0F38110F2
:1040200054F8200003903648008900F4807010B1E5
:104030000398404203903349019880FB0101800FAF
:1040400040EA810001902F49029880FB0110820014
:1040500042EA917002902B49039880FB0110820084
:1040600042EA917003900198000E8DF800000198CB
:10407000000C8DF801000198000A8DF802000198EB
:10408000C0B28DF803006A4604214FF4747001F049
:10409000D5FD18B14FF0FF3004B010BD0298000EEE
:1040A0008DF800000298000C8DF801000298000ABB
:1040B0008DF802000298C0B28DF803006A46042110
:1040C0004FF4757001F0BAFD10B14FF0FF30E3E727
:1040D0000398000E8DF800000398000C8DF8010085
:1040E0000398000A8DF802000398C0B28DF803000F
:1040F0006A4604214FF4767001F0A0FDCCE7000081
:104100009800002009E3CA0210B586B0044647A013
:104110000068039046A00068029046A000680190E5
:1041200045A00068009004F0030003A9085C8DF826
:10413000140003A8C4F3C101405C8DF8150003A866
:10414000C4F38111405C8DF8160004F0030002A94D
:10415000085C8DF8100002A8C4F3C101405C8DF822
:10416000110002A8C4F38111405C8DF8120005AA69
:10417000032140F2264001F061FD18B14FF0FF30FD
:1041800006B010BD04AA032140F22A4001F056FDFA
:1041900010B14FF0FF30F3E70198059000980490BC
:1041A00004F0040058B19DF8140040F001008DF8AF
:1041B00014009DF8100040F001008DF8100004F08C
:1041C000200058B19DF8150040F001008DF8150051
:1041D0009DF8110040F001008DF8110004F480708A
:1041E00058B19DF8160040F001008DF816009DF8BA
:1041F000120040F001008DF8120005AA03214FF4CF
:10420000886001F01BFD10B14FF0FF30B8E704AA41
:10421000032140F2314001F011FD10B14FF0FF30A9
:10422000AEE7064804810020AAE700004CCD6C00F0
:104230000CC92C00365676002646660098000020F1
:10424000F8B505460E464FF47A7095FBF0F000FB8A
:1042500006F4200E8DF80000200C8DF80100200AD5
:104260008DF80200E0B28DF803006A4604214FF495
:10427000AE7001F0E3FCF8BD38B50446052094FBB0
:10428000F0F084B220128DF80000E0B28DF8010049
:104290006A4602214FF4AD7001F0D0FC38BD38B54C
:1042A0000446052094FBF0F084B220128DF8000043
:1042B000E0B28DF801006A4602214FF4AC7001F0C3
:1042C000BDFC38BD38B504460020009004F0010064
:1042D00020B19DF8000040F03000009004F0020092
:1042E00020B19DF8000040F00C00009004F00400A4
:1042F00020B19DF8000040F0030000906A460121C3
:104300004FF4A47001F09AFC38BD38B50446012C76
:1043100001DA012402E0042C00DD0424601EC0B296
:1043200000906A46012140F24F1001F087FC38BD31
:10433000F0B52DED028B83B006460F4606F0070060
:1043400010B1B7F5C86F05DD4FF0FF3003B0BDEC1D
:10435000028BF0BD00EE107AB8EE400ADFED5B0A8A
:1043600080EE208A01A800F015FD9DF804000228C7
:1043700006D0042817D0082828D010284CD138E0BF
:104380009FED530A28EE000ABCEEC00A10EE100A98
:1043900084B29FED500A28EE000ABCEEC00A10EE6F
:1043A000100A85B23BE09FED4C0A28EE000ABCEEF5
:1043B000C00A10EE100A84B29FED480A28EE000AE7
:1043C000BCEEC00A10EE100A85B228E09FED440A48
:1043D00028EE000ABCEEC00A10EE100A84B29FED6F
:1043E000410A28EE000ABCEEC00A10EE100A85B29F
:1043F00015E09FED3D0A28EE000ABCEEC00A10EE63
:10440000100A84B29FED390A28EE000ABCEEC00AF9
:1044100010EE100A85B202E04FF0FF3096E700BFC1
:1044200020128DF80800E0B28DF8090028128DF8EE
:104430000A00E8B28DF80B0006F00100A0B102AA54
:1044400002214FF4EA7001F0F9FB10B14FF0FF3098
:104450007CE70DF10A0202214FF4927001F0EEFBAD
:1044600010B14FF0FF3071E706F00200A0B102AAD0
:1044700002214FF4EC7001F0E1FB10B14FF0FF307E
:1044800064E70DF10A0202214FF4947001F0D6FBAB
:1044900010B14FF0FF3059E706F00400A0B102AAB6
:1044A00002214FF4EE7001F0C9FB10B14FF0FF3064
:1044B0004CE70DF10A0202214FF4967001F0BEFBA9
:1044C00010B14FF0FF3041E700203FE700004843C4
:1044D0000000804600004046000000460000C04545
:1044E0000000804500004045000000450000C04439
:1044F00038B50446052094FBF0F085B228128DF8FB
:104500000000E8B28DF801006A4602214FF4EF7016
:1045100001F094FB38BD38B50446052094FBF0F05B
:1045200085B228128DF80000E8B28DF801006A46C5
:1045300002214FF4ED7001F081FB38BD82B0CDE96E
:10454000000121F0004001909DED000B02B051EC04
:10455000100B704700BF054A128802F04002002A83
:10456000F9D0C2B2014B1B1D1A80704700440040B5
:104570007CB505462E494968087801AB04220D2117
:1045800000F024FB08B107207CBD9DF80700C0F3B4
:1045900001109DF8041001F0E00140EAE1008DF8FF
:1045A00000009DF80700C0F381009DF8051001F0A0
:1045B000E00140EAE1008DF801009DF8070000F0FD
:1045C00003009DF8061001F0E00140EAE1008DF8DB
:1045D0000200002427E01DF8040030B99FED150A01
:1045E00005EB840080ED000A1BE09FED130A05EB4C
:1045F000840080ED000A0BE005EB840090ED000ADA
:10460000DFED0E0A20EE200A05EB840080ED000AA3
:104610001DF80400401EC0B20DF804000028EBD1C4
:1046200000BF601CC4B2032CD5DB0020ACE7000047
:104630006C000020000000007B14AE3E1D5A843F39
:104640002DE9F04F87B005460C46914601208DF8C4
:10465000100000208DF81100FE4A1268917CFD4A7E
:104660005268107804AB022200F0EBFA20B14FF050
:10467000FF3007B0BDE8F08FC820FFF739F9002000
:104680008DF81000F34A1268D17BF24A5268107814
:1046900004AB012200F0D5FA10B14FF0FF30E8E78B
:1046A000EC4A12685179EB4A5268107804AB012247
:1046B00000F0C7FA10B14FF0FF30DAE7E54A1268B0
:1046C000917CE44A5268107804AB012200F0B9FAF8
:1046D00010B14FF0FF30CCE7DE4A1268D17DDD4AE1
:1046E0005268107804AB012200F0ABFA10B14FF021
:1046F000FF30BEE7D74A12681179D64A526810785F
:1047000004AB012200F09DFA10B14FF0FF30B0E78A
:104710000C208DF81000CF4A12681179CD4A5268EA
:10472000107804AB012200F08CFA10B14FF0FF308A
:104730009FE70F20FFF7DCF8C648806A407A8DF8C3
:104740001000C44A12689178C24A5268107804ABCB
:10475000012200F076FA10B14FF0FF3089E7BD4832
:10476000806A007A8DF81000BA4A12685178B94A06
:104770005268107804AB012200F063FA10B14FF0D8
:10478000FF3076E7B9F1000F07D0B248806A807A2F
:1047900040F0E0008DF8100004E0AE48806A807AB6
:1047A0008DF81000AB4A12689179AA4A52681078C5
:1047B00004AB012200F045FA10B14FF0FF3058E78A
:1047C000B9F1000F07D0A348806AC07A40F0E0003A
:1047D0008DF8100003E0A048C07A8DF810009D4AC3
:1047E0001268D1799B4A5268107804AB012200F01C
:1047F00028FA10B14FF0FF303BE7B9F1000F02D0BB
:10480000C820FFF775F840208DF81000914A126813
:104810001179904A5268107804AB012200F011FA25
:1048200010B14FF0FF3024E778208DF81000894A4E
:1048300012685179874A5268107804AB012200F05F
:1048400000FA10B14FF0FF3013E783498889FFF772
:104850004FF800208DF810007E4A126851797D4A89
:104860005268107804AB012200F0EBF910B14FF060
:10487000FF30FEE6774A1268917A764A52681078DD
:1048800004AB022200F0A2F910B14FF0FF30F0E6C5
:104890009DF811009DF8101040EA012B0C209BFBA5
:1048A000F0F0C6B20020A86068602860A060606078
:1048B0002060824665E0674A1268D17A654A52688C
:1048C000107804AB0C2200F081F910B14FF0FF30EA
:1048D000CFE69DF811009DF8101040EA012000B2CB
:1048E000ADF808009DF813009DF8121040EA012071
:1048F00000B2ADF80A009DF815009DF8141040EACA
:10490000012000B2ADF80C00BDF908102068084481
:104910002060BDF90A10606808446060BDF90C10A1
:10492000A0680844A0609DF817009DF8161040EAA2
:10493000012000B2ADF800009DF819009DF8181094
:1049400040EA012000B2ADF802009DF81B009DF87E
:104950001A1040EA012000B2ADF80400BDF90010C1
:10496000286808442860BDF9021068680844686037
:10497000BDF90410A8680844A8600AF1010000F01D
:10498000FF0AB24597DB3448D0F800C02868C11749
:10499000090441EA10410704624600233846FBF748
:1049A00074FC32460023CDE90201FBF76EFC28605F
:1049B0002948D0F800C06868C117090441EA1041CD
:1049C0000704624600233846FBF75FFC32460023AB
:1049D000CDE90201FBF759FC68601F48D0F800C020
:1049E000A868C117090441EA104107046246002380
:1049F0003846FBF74AFC32460023CDE90201FBF7BB
:104A000044FCA8601448D0F804C02168C81700040A
:104A100040EA11480F046246002338464146FBF73E
:104A200034FC32460023CDE90201FBF72EFC206066
:104A30000948D0F804C06068C117090441EA104170
:104A40000704624600233846FBF71FFC324600236A
:104A500004E000006C0000204C6A0008CDE902016F
:104A6000FBF713FC60601148D0F804C0A068C117C0
:104A7000090441EA10410704624600233846FBF767
:104A800004FC32460023CDE90201FBF7FEFBA060E7
:104A9000A068002804DDA068A0F58030A06003E0D5
:104AA000A06800F58030A0600020E2E54C6A0008B4
:104AB000F0B52DED048B81B006460F4600253E492A
:104AC000496808786B4603220D2100F07FF820B179
:104AD000072001B0BDEC048BF0BD9DF8000000F094
:104AE0001F008DF800009DF8010000F01F008DF8F8
:104AF00001009DF8020000F01F008DF80200002464
:104B000055E056F8241057F82420881A002801DBB5
:104B1000014600E0414200EE101AB8EEC00ADFED97
:104B2000270A80EE208A1DF8040068B3244890ED1F
:104B3000000AB8EE400ADFED230A80EE801AF0EE9C
:104B4000418A05E09FED200A28EE800AF0EE408AB7
:104B50001DF80400401EC0B20DF804000028F1D179
:104B600088EE280AF7EE000A30EE609AB0EEC90A25
:104B70001348D0ED060AB4EEE00AF1EE10FA15DDA6
:104B80000120A040054311E00D4890ED040AB4EE69
:104B9000C80AF1EE10FA06DC90ED050AB4EEC80A78
:104BA000F1EE10FA02D20120A0400543641C032C50
:104BB000A7DB28468DE700006C000020000080473E
:104BC0004C6A000800B04C4554E3853F2DE9F041A4
:104BD00006460F4614461D46FDF772F910B901202E
:104BE000BDE8F0817106080EFDF72CF9FDF7D8F944
:104BF00018B9FDF7A5F90120F2E73846FDF722F9CB
:104C0000FDF7CEF9FDF75CF9012101EB4601C8B2D1
:104C1000FDF718F9FDF7C4F90DE0012C04D10020CF
:104C2000FDF7C8F8287003E00120FDF7C3F82870ED
:104C30006D1C601EC4B2002CEFD1FDF781F900207D
:104C4000CEE72DE9F04105460E4617469846FDF79A
:104C500037F910B90120BDE8F0816906080EFDF7AB
:104C6000F1F8FDF79DF918B9FDF76AF90120F2E7AF
:104C70003046FDF7E7F8FDF793F900240BE018F84C
:104C80000400FDF7DFF8FDF78BF918B9FDF758F9C7
:104C90000020E0E7641CBC42F1DBFDF751F9002085
:104CA000D9E770B50546284600F00FF80446E81C21
:104CB00000F00BF844EAC00084B2A81D00F005F82B
:104CC00044EA801084B2204670BD014691F900206C
:104CD000002A01DD00201EE091F90020002A01DAFF
:104CE000042018E091F90120002A01DD012012E0E2
:104CF00091F90120002A01DA05200CE091F9022047
:104D0000002A01DD022006E091F90220002A01DAE2
:104D1000062000E007207047FEF778FDFDF732FA25
:104D200000BFFEE770B50446002624F001041848D1
:104D300090F8240008B1002070BD1548807A10B9A1
:104D40004FF0FF30F8E71248057C807A2040104988
:104D500008740846007CA04202D04FF0FF3600E005
:104D6000002614B90A48007D18B1012000F0F2FFB6
:104D700002E0002000F0EEFF3CB100F051FB20B15A
:104D8000034805744FF0FF30D6E73046D4E7000003
:104D90006C00002001461148407A30B1012807D04C
:104DA000022808D003280CD108E0022008700BE08C
:104DB0000420087008E00820087005E01020087042
:104DC00002E04FF0FF30704700BF0448C07C18B1CC
:104DD00008784006000E08700020F4E76C00002000
:104DE00001461348407A30B1012808D002280AD081
:104DF000032810D10BE04FF4804008800EE041F60C
:104E00009C7008800AE04FF48050088006E04FF460
:104E10000060088002E04FF0FF30704700BF044898
:104E2000C07C10B10888401008800020F5E7000021
:104E30006C00002001460248007C0870002070478A
:104E40006C00002001460F48007A30B1012807D0DD
:104E5000022809D003280FD10AE0FA2008800EE0CA
:104E60004FF4FA7008800AE04FF47A70088006E088
:104E70004FF4FA60088002E00020088000BF00BF05
:104E8000002070476C00002001461248007A30B1C3
:104E9000012809D002280CD0032814D10EE09FED80
:104EA0000E0A81ED000A11E09FED0C0A81ED000A67
:104EB0000CE09FED0B0A81ED000A07E09FED090A67
:104EC00081ED000A02E04FF0FF30704700BF002084
:104ED000FBE700006C000020000003430000834259
:104EE000333303423333834101461248C07A0828E2
:104EF00017D2DFE800F01704070A0D101318BC20C2
:104F0000088013E06220088010E02A2008800DE06D
:104F1000142008800AE00A20088007E005200880A5
:104F200004E000BF00BF0020088000BF00BF0020D9
:104F3000704700006C0000200146064890F82400ED
:104F400010B14FF0FF3070470248C0890880002040
:104F5000F9E700006C0000201CB580208DF80000EF
:104F6000654A1268917C644A526810786B46012247
:104F7000FFF767FE10B14FF0FF301CBD6420FEF755
:104F8000B7FC00208DF800005B4A1268917C5A4AF9
:104F9000526810786B460122FFF753FE10B14FF0B4
:104FA000FF30EAE7544A1268917D534A52681078FC
:104FB0006B460622FFF70AFE10B14FF0FF30DCE728
:104FC0009DF80500C007400F9DF8031001F0010196
:104FD00040EA41009DF8011001F0010140EA01049E
:104FE00094B1012C03D101214348C17431E0022C5A
:104FF00003D100214048C1742BE021463FA0FBF7BC
:1050000069F94FF0FF30B8E73B4A1268D1783A4A65
:10501000526810786B460122FFF7D8FD10B14FF0AF
:10502000FF30AAE79DF8000000F00F042CB93D48BE
:10503000FBF750F94FF0FF309FE7042C06D13AA060
:10504000FBF748F901212C48C17402E000212A48ED
:10505000C174FF2128488172FF2027490872FF216F
:1050600025484172C1724FF6FF71C181FF21017461
:1050700081740121017380F82210002180F823102F
:10508000417501751630016041608160163880F805
:10509000241080F82510C1844FF4FA6000F05CFC05
:1050A00010B14FF0FF3068E7022000F025FB10B18F
:1050B0004FF0FF3061E72A2000F0C8FC10B14FF03C
:1050C000FF305AE7322000F003FD10B14FF0FF30FF
:1050D00053E70020FFF726FE10B14FF0FF304CE7FA
:1050E000002000F04BFB10B14FF0FF3045E70020EF
:1050F00000F03CFD002040E76C000020556E737509
:1051000070706F7274656420736F66747761726516
:105110002070726F64756374207265762025642E2A
:105120000A000000F477000848616C662073656E21
:105130007369746976697479207061727420666F1E
:10514000756E642E0D0A00002DE9F04385B005460A
:105150000E4690469946294890F8250020B14FF018
:10516000FF3005B0BDE8F08316B94FF0FF30F8E727
:10517000002423E0281B102801DD102000E0281B5C
:1051800087B232193946204600F058FD10B14FF071
:10519000FF30E6E701AA3946204600F001F910B1D8
:1051A0004FF0FF30DDE730193A4601A9FBF761F90E
:1051B00010B16FF00100D4E7E01984B2AC42D9DB42
:1051C0004FEA28208DF8000008F0FF008DF801005C
:1051D0000A4A1268917E094A526810786B46022288
:1051E000FFF72FFD10B14FF0FF30BAE70121034860
:1051F00080F82510A0F826900020B2E76C0000206F
:1052000038B50446282C02DD4FF0FF3038BDDCB93C
:10521000002000F0E5FB00208DF8000007208DF84D
:1052200001002E4A1268917C2C4A526810786B4615
:105230000222FFF706FD10B14FF0FF30E6E7002134
:10524000264801750020E1E7012000F0C9FB20207D
:105250008DF80000012C06D100208DF801000520FA
:1052600000F0F4FB17E0052C06DC01208DF80100AE
:10527000052000F0EBFB0EE0142C06DC02208DF87C
:1052800001000A2000F0E2FB05E003208DF8010098
:10529000142000F0DBFB9DF80100072101EB8010DA
:1052A000C0B28DF801000D4A1268917C0B4A526819
:1052B00010786B460222FFF7C4FC10B14FF0FF30AC
:1052C000A4E70821054881720021017301210175BD
:1052D0000020FFF727FD002098E700006C00002069
:1052E000F8B504460F4616462C4890F8240010B92D
:1052F0004FF0FF30F8BD2948807A10B94FF0FF30E9
:10530000F8E7264A1268917A244A526810786B4668
:105310000222FFF75BFC10B14FF0FF30EAE79DF887
:1053200001009DF8001040EA0125A54203DA0020A3
:105330003070401EDEE7194840684088B5EB600FCA
:1053400017DD164A1268517C144A526810786B4671
:105350000122FFF73BFC10B14FF0FF30CAE79DF888
:10536000000000F0100020B100F05AF86FF00100CA
:10537000C0E7E2B2094B1B68D97A084B5B68187822
:105380003B46FFF723FC10B14FF0FF30B2E795FB2F
:10539000F4F0401E30700020ACE700006C000020EC
:1053A000F8B504460D46164616B94FF0FF30F8BD65
:1053B0001A48807A10B94FF0FF30F8E720128DF8C4
:1053C0000000E0B28DF801009DF801002844134967
:1053D00049684989884202DD4FF0FF30E7E70F4A0C
:1053E0001268117E0D4A526810786B460222FFF750
:1053F00028FC10B14FF0FF30D9E7EAB2074B1B6829
:10540000597D064B5B6818783346FFF7DFFB10B118
:105410004FF0FF30CBE70020C9E700006C00002010
:1054200008B56D48807A10B94FF0FF3008BD0020F4
:105430000090694A1268D17B674A526810786B46BF
:105440000122FFF7FEFB10B14FF0FF30EEE7624A9A
:1054500012685179604A526810786B460122FFF752
:10546000F0FB10B14FF0FF30E0E75B4A12681179B2
:10547000594A526810786B460122FFF7E2FB10B1DF
:105480004FF0FF30D2E7544890F82400002850D065
:105490000C200090504A126811794F4A52681078D7
:1054A0006B460122FFF7CDFB10B14FF0FF30BDE797
:1054B000C02000904848807A00F0010020B19DF89B
:1054C000000040F020000090434A12681179424ADF
:1054D000526810786B460122FFF7B3FB10B14FF012
:1054E000FF30A3E73C48407C10B10220009001E06F
:1054F00000200090384A1268D17B374A52681078F1
:105500006B460122FFF79DFB10B14FF0FF308DE796
:1055100000200090304A126851792F4A5268107862
:105520006B460122FFF78DFB002852D04FF0FF3071
:105530007CE704200090284A12681179264A5268B4
:1055400010786B460122FFF77CFB10B14FF0FF3063
:105550006CE72148807C20B91F48807A00F0010068
:1055600010B94020009001E0602000901A4A1268B3
:105570001179194A526810786B460122FFF761FBD6
:1055800010B14FF0FF3051E71348407C10B10120BB
:10559000009001E0002000900F4A1268D17B0E4A73
:1055A000526810786B460122FFF74BFB10B14FF0A9
:1055B000FF303BE7084A12685179074A5268107871
:1055C000054B10330122FFF73CFB10B14FF0FF30C9
:1055D0002CE700202AE700006C0000202DE9F04FA6
:1055E0008DB083460F4602200C90424890F824006C
:1055F00020B1002000F068F9012600E0002603A891
:10560000FFF720FC05A8FFF7C5FB01A8FFF76CFC1E
:1056100002A8FFF791FC374890F80AA004A8FFF70A
:1056200009FC002407E0002239465846FFF708F835
:1056300000B902E0641C022CF5DB00BF022C01D192
:10564000002528E0002407E0012206A909A8FEF7AA
:10565000F7FF00B902E0641C022CF5DB00BF022C4E
:1056600001D1002517E006A93846FEF767F800F0DB
:10567000FF0809A95846FFF71BFA00F0FF090025AB
:10568000B9F1000F01D145F00105B8F1000F01D1CA
:1056900045F0020500BFFF2016490872FF2115489A
:1056A0004172C1724FF6FF71C181FF218172017495
:1056B00001210173BDF80C0000F04EF99DF81400B3
:1056C00000F01AF8BDF8040000F0C0F9BDF80800B9
:1056D00000F0FEF9504600F049FA9DF81000FFF77F
:1056E00021FB16B1012000F0EFF828460DB0BDE80F
:1056F000F08F00006C00002038B504461E48807A08
:1057000010B94FF0FF3038BD022C06D0042C07D062
:10571000082C08D0102C0CD108E0002000900BE0E1
:105720000820009008E01020009005E0182000906C
:1057300002E04FF0FF30E6E700BF0F48407A9DF8E7
:105740000010B0EBE10F01D10020DCE70A4A12683B
:10575000D179094A526810786B460122FFF771FA35
:1057600010B14FF0FF30CEE79DF80000C1100248A5
:1057700041720020C7E700006C00002038B50446E5
:105780005048807CA04201D1002038BD002C46D07A
:105790004C4A126811794B4A526810786B460122C4
:1057A000FFF714FA10B14FF0FF30EEE79DF800005C
:1057B00020F020000090434A12681179414A526853
:1057C00010786B460122FFF73CFA10B14FF0FF3022
:1057D000DBE70320FEF78CF802200090394890F8B0
:1057E000220020B19DF8000040F080000090354874
:1057F00090F8230020B19DF8000040F030000090A8
:10580000304A1268117D2F4A526810786B46012287
:10581000FFF717FA002851D04FF0FF30B5E7294ABB
:1058200012681179274A526810786B460122FFF7F7
:10583000CDF910B14FF0FF30A7E72248807A00F091
:10584000010028B19DF8000040F02000009004E025
:105850009DF8000020F0200000901A4A126811798B
:10586000184A526810786B460122FFF7EAF910B126
:105870004FF0FF3089E70320FEF73AF8114890F81F
:10588000220010B18020009001E0002000900D481F
:1058900090F8230020B19DF8000040F03000009007
:1058A000084A1268117D074A526810786B46012237
:1058B000FFF7C7F910B14FF0FF3066E70148847475
:1058C000002062E76C00002038B50446214890F8BB
:1058D0002400A04201D1002038BD24B31D4890F817
:1058E000250010B94FF0FF30F6E7002000F032FA43
:1058F0000020FFF743FF1749C88C00F0E9F80020AB
:1059000000901449496808786B4601222321FFF76B
:1059100098F901210F4880F82410012000F01AFAAC
:10592000FFF77EFD13E0002000F014FA0948007C28
:1059300000900849496808786B4601222321FFF747
:1059400080F90021034880F82410FFF769FD00204A
:10595000C2E700006C00002038B504461F48807A7A
:1059600010B94FF0FF3038BDFA2C09D0B4F5FA7FEA
:1059700009D0B4F57A7F09D0B4F5FA6F0CD108E0FC
:10598000002000900BE00820009008E0102000901C
:1059900005E01820009002E04FF0FF30E3E700BF81
:1059A0000E48007A9DF80010B0EBE10F01D1002005
:1059B000D9E70A4A12689179084A526810786B460A
:1059C0000122FFF73EF910B14FF0FF30CBE79DF811
:1059D0000000C010014908720020C4E76C000020DC
:1059E00038B50446184890F82300A04201D10020A1
:1059F00038BD14B13020009001E000200090124822
:105A0000807C20B19DF8000040F0020000900E481C
:105A100090F8220020B19DF8000040F08000009036
:105A2000094A1268117D084A526810786B460122B3
:105A3000FFF707F910B14FF0FF30D9E7024880F8BF
:105A400023400020D4E700006C00002038B5044655
:105A50001E48807A10B94FF0FF3038BDBC2C02DBF5
:105A60000120009015E0622C02DB0220009010E083
:105A70002A2C02DB032000900BE0142C02DB042014
:105A8000009006E00A2C02DB0520009001E00620D1
:105A900000900E48C07A9DF80010884201D1002085
:105AA000DBE70A4A12689178084A526810786B4618
:105AB0000122FFF7C6F810B14FF0FF30CDE79DF897
:105AC00000100248C1720020C7E700006C000020EF
:105AD00038B504462448807A10B94FF0FF3038BDFD
