:020000040800F2
:100000006806002029020008B3030008AB030008BB
:10001000AF030008E30200086105000800000000CB
:10002000000000000000000000000000B70300080E
:100030001103000800000000B5030008A504000833
:10004000430200084302000843020008430200087C
:10005000430200084302000843020008430200086C
:10006000430200084302000843020008430200085C
:10007000430200084302000843020008430200084C
:10008000430200084302000843020008430200083C
:10009000430200084302000843020008430200082C
:1000A000430200084302000843020008430200081C
:1000B000430200084302000843020008430200080C
:1000C00043020008430200084302000843020008FC
:1000D00043020008430200084302000843020008EC
:1000E00043020008430200084302000843020008DC
:1000F00043020008430200084302000843020008CC
:1001000043020008430200084302000843020008BB
:1001100043020008430200084302000843020008AB
:10012000430200084302000843020008430200089B
:10013000430200084302000843020008430200088B
:10014000430200084302000843020008430200087B
:10015000430200084302000843020008430200086B
:10016000430200084302000843020008430200085B
:10017000430200084302000843020008430200084B
:10018000430200084302000800F002F800F03CF8C7
:100190000AA090E8000C82448344AAF10107DA45E2
:1001A00001D100F031F8AFF2090EBAE80F0013F0F8
:1001B000010F18BFFB1A43F0010318473804000071
:1001C00058040000103A24BF78C878C1FAD8520702
:1001D00024BF30C830C144BF04680C6070470000C1
:1001E0000023002400250026103A28BF78C1FBD840
:1001F000520728BF30C148BF0B6070471FB500F0E1
:10020000F3F91FBD10B510BD00F031F81146FFF72E
:10021000F5FF00F0D1F900F04FF803B4FFF7F2FF5B
:1002200003BC00F057F80000094880470948004720
:10023000FEE7FEE7FEE7FEE7FEE7FEE7FEE7FEE796
:10024000FEE7FEE704480549054A064B70470000F3
:10025000E104000889010008680000206806002009
:10026000680200206802002070477047704775469A
:1002700000F02CF8AE4605006946534620F0070012
:10028000854618B020B5FFF7DDFFBDE820404FF0F0
:1002900000064FF000074FF000084FF0000B21F070
:1002A0000701AC46ACE8C009ACE8C009ACE8C0093D
:1002B000ACE8C0098D46704710B50446AFF3008026
:1002C0002046BDE81040FFF7A8BF00000048704777
:1002D0000800002001491820ABBEFEE726000200FE
:1002E000704700BFFEE700000146072323EA010232
:1002F0001202054B18684FF6FF031840034B1843D2
:100300001043014B186070470CED00E00000FA0547
:10031000704700001F49096841F001011D4A116042
:100320001C491431096841F480411A4A14321160A1
:10033000012826D11849096821F07051164A116028
:100340001146096841F0205111601146896841F059
:10035000705191601146C96821F07051D160114609
:10036000C96841F0A051D1601146496A21F07F620D
:1003700009494A620949096841F00101074A1160C7
:1003800007E0022805D10449096821F07051024AAA
:1003900011607047303802400000024020380140B0
:1003A0000A04826170478161704700BFFEE700BFA9
:1003B000FEE77047704770470CB500200190009031
:1003C0003448006840F480303249086000BF31484A
:1003D000006800F4003000900198401C01900098E3
:1003E00018B90198B0F5A04FF1D12A48006800F47F
:1003F000003010B10120009001E000200090009832
:10040000012846D123484030006840F080502149FF
:10041000403108602048006840F440401E490860B0
:100420001C48083000681B4908310860084600680D
:1004300040F4004008600846006840F4A05008609E
:100440001648091F0860081F006840F08070091FE7
:10045000086000BF0F48006800F000700028F9D065
:1004600040F205700E4908600A480830006820F024
:1004700003000849083108600846006840F002009F
:10048000086000BF03480830006800F00C0008282E
:10049000F8D10CBD003802400070004019544007EC
:1004A000003C024010B500F04FF810BD4FF0E021C5
:1004B000096921F004014FF0E0221161064908703A
:1004C00000EB4001C1EBC0114FF6FF7202EAC1011F
:1004D000024A11807047000004000020060000203E
:1004E00010B51548006840F47000134908601348BF
:1004F000006840F001001149086000200F490831F0
:1005000008600E4800680E4908400C4908600D4814
:10051000091D0860081F006820F48020091F08607A
:10052000002006490C310860FFF746FF4FF00060DD
:1005300001498039086010BD88ED00E000380240B4
:10054000FFFFF6FE103000240448006820B1034885
:100550000068401E0149086070470000000000204C
:1005600000BFFEE710B50220FFF7BEFEA820FFF790
:100570009DFF0120FFF7CEFE10BD000001460D4A91
:1005800012884A434FF0E0235A6100229A61012207
:100590001A6100BF4FF0E022106900F001021AB1A9
:1005A00000F48032002AF5D000224FF0E0231A61D7
:1005B0009A61704706000020FFF7D4FF11E04FF466
:1005C00000610848FFF7EFFE4FF4FA70FFF7D6FF1F
:1005D0004FF400610348FFF7E3FE4FF4FA70FFF7B2
:1005E000CDFFECE7000002404FF04070E1EE100A52
:1005F00070470000140600080000002008000000FA
:10060000C40100081C060008080000206006000065
:0C061000E00100080000000000000000F5
:040000050800018965
:00000001FF
