:020000040800F2
:10000000800600204902000859170008131700084D
:100010005517000817140008B72200080000000058
:10002000000000000000000000000000C51A0008E9
:100030004514000800000000D5170008B51B000893
:1000400063020008630200086302000863020008FC
:1000500063020008630200086302000863020008EC
:1000600063020008630200086302000863020008DC
:1000700063020008630200086302000863020008CC
:1000800063020008630200086302000863020008BC
:1000900063020008630200086302000863020008AC
:1000A000630200086302000863020008630200089C
:1000B00063020008C11D0008D91D00086302000882
:1000C000630200086302000863020008630200087C
:1000D0006302000863020008A12000086302000810
:1000E000630200086302000863020008630200085C
:1000F000630200086302000863020008630200084C
:10010000630200086302000863020008630200083B
:10011000630200086302000863020008F11D000882
:10012000630200086302000863020008630200081B
:10013000630200086302000863020008630200080B
:1001400063020008630200086302000863020008FB
:1001500063020008630200086302000863020008EB
:1001600063020008630200086302000863020008DB
:1001700063020008630200086302000863020008CB
:10018000630200086302000800F002F800F04CF877
:100190000AA090E8000C82448344AAF10107DA45E2
:1001A00001D100F041F8AFF2090EBAE80F0013F0E8
:1001B000010F18BFFB1A43F001031847A4240000E5
:1001C000C4240000103A24BF78C878C1FAD8520776
:1001D00024BF30C830C144BF04680C6070470000C1
:1001E0000023002400250026103A28BF78C1FBD840
:1001F000520728BF30C148BF0B607047662902F024
:10020000E381642900F06280002070471FB502F08E
:10021000D6F900F0D7FB04000020002102F042F9DB
:10022000E0601FBD10B510BD00F0CCFC1146FFF71B
:10023000EDFF02F0BDF800F0EAFC03B4FFF7F2FFB7
:1002400003BC02F059F800000948804709480047FC
:10025000FEE7FEE7FEE7FEE7FEE7FEE7FEE7FEE776
:10026000FEE7FEE704480549054A064B70470000D3
:10027000351C00088901000880000020800600204D
:100280008002002080020020704700000FB4044963
:1002900010B503AA029800F083FB10BC5DF814FBB4
:1002A0001C0000200FB41CB5074B06AA7B4469460E
:1002B0000090059800F05BFB0020694600F06AFBA7
:1002C0001CBC5DF814FB0000E50600002DE9F041C0
:1002D0000646002410687529314616A510D0AFF3E4
:1002E0000080002802DA404213A507E031688A073F
:1002F00001D512A502E0490704D511A5012401E0AA
:10030000AFF3008000210A2206F1240709E0B0FBC8
:10031000F2FCB0FBF2F302FB1C00303078541846BC
:10032000491C0028F3D123462A463046BDE8F04157
:1003300000F0B2B8000000002D0000002B0000000B
:10034000200000002DE9F0474FF0000A89460446DE
:10035000C0F820A02046E1688847002876D02528EC
:1003600006D0D4E901219047206A401C2062F1E7C1
:10037000E168204600258847C4F81CA006460027EF
:10038000C4F818A02A2E09D0304601F0AEFF38B3C9
:1003900004EB8708303EC8F8186019E059F8041BD0
:1003A000204604EB87029161E1688847012F0646E9
:1003B00018D1E069002820DA25F020051DE0D8F8E2
:1003C000180000EB800006EB40003038C8F8180039
:1003D0002046E1688847064601F087FF0028EED1F5
:1003E000012F0AD02E2E08D12046E16888477F1CB5
:1003F0000646022F45F02005C4DBA069002803DA79
:10040000404245F00105A061E80701D025F0100544
:10041000B6B1A6F14100192802D8203645F400658E
:100420004A463146204625604D46FFF7E7FE58B163
:10043000012806D0ED1D25F0070000F1080989E725
:1004400004E005F1040985E730468AE7206ABDE843
:10045000F08710B5431C02E010F8011B71B1810751
:10046000FAD14FF0013202C88C1A8C4314EAC2113F
:10047000F9D0C01A0A0603D0C01E10BDC01A10BDA4
:100480000A0401D0801E10BD0902FCD0401E10BD20
:1004900070477047704770472DE9F0470D46994601
:1004A0009246044600F124080168880604D5E069F4
:1004B00021F01001216000E00120A84201DD471B6E
:1004C00000E00027A1697A1902EB0900081AA0616F
:1004D0002078C00602D42046AFF30080002608E052
:1004E000D4E901211AF806009047206A401C761CC6
:1004F00020624E45F4DB2078C0060AD52046AFF3D3
:10050000008006E0D4E9012130209047206A401C99
:100510002062381EA7F10107F4DC07E0D4E90121CD
:1005200018F805009047206A401C2062281EA5F19B
:100530000105F3DC2046AFF300802078000602D5E9
:100540000220BDE8F0870120FBE770472DE9FF4F4F
:100550000C461E464FF0FF378BB0D2E90001DDF8A4
:1005600060800A908A46C1F30A5505B93D460021CC
:1005700008464FF00000BAF1000F00F4400005DA21
:1005800000EB80004FF4400101EA50004FEA90591F
:10059000B9F1010F00DDB9460A9850EA4A000ED0C1
:1005A00044F61050A5F2FF3545432F14B8F1000F63
:1005B0001ED07542291E1EDDC9F100021CE0B8F1F3
:1005C000010F4FF0000001D0302103E0F24305E0BD
:1005D0002154401CB042FBDB304600220021215454
:1005E0000B99C1F80880C1E900200FB0BDE8F08F79
:1005F000BD1B6D1CDEE74A4600DA694206A800F022
:100600006BFA06AB93E8070003AB83E8070050469C
:100610000A9900F045FB8DE80700A0F500501F384F
:1006200000900398002D09DD42F21F014A4608445C
:1006300003A90390684600F0A4FD08E0A0F500506F
:100640004A461F3803A90390684600F0AEFD8DE8C6
:1006500007000004000C03D04FF0FF30410800E019
:100660001046B8F1000F03D00022009215461EE09C
:10067000751E05D400F0AAF9303262556D1EF9D509
:10068000B3460122084302D000227F1C04E02078F8
:10069000302801D100227F1E002A099786D01DE054
:1006A000112D07DA00F092F9303262556D1C50EAD4
:1006B0000102F5D1084302D00098C8B10EE0002134
:1006C000681E05E0235C625C63542254401E491C92
:1006D0008142F7DBAB46A81B401E0990002004F8BE
:1006E0000B000B98099AC0F80880C0E9002B7CE742
:1006F00011264FF0000859E72DE9F04F88460446CF
:10070000D21D22F0070191B0D1E90001CDE90A0123
:1007100001F0D3FD02460B98C00F01D02D2007E059
:100720002068810701D52B2002E0202101EAC000CA
:10073000032A099001D0072A05DB034641462046DB
:1007400000F08AF90BE12078800601D5E06900E02D
:100750000620B8F1650F814606D0B8F1660F18D0B3
:10076000B8F1670F70D131E00020B9F1110F00909E
:1007700001DB112301E009F101030AAA01A90CA878
:10078000FFF7E4FEDDE90C70002609F10105834660
:1007900047E001204B4600904FF000470AAA01A90C
:1007A0000CA8FFF7D3FEDDE90DB00C995D460026DD
:1007B00010B909F101000D18B9EB050003D4C0F11F
:1007C000FF3609F10105A5EB09002BE0B9F1010F96
:1007D00001DA4FF001090020B9F1110F00904846ED
:1007E00001DD112300E003460AAA01A90CA8FFF7C6
:1007F000ADFEDDE90C704D460026834620780007EB
:100800000AD4AB4500DA5D4601A8012D04DD41198B
:1008100011F8011C302907D04F4502DA17F1040FF7
:1008200004DA012082460FE06D1EEEE7002F02DCA5
:10083000ED1B3E4403E0781CA84200DD7D1CB81B84
:1008400000F1010A4FF000472078000703D4AA45C1
:1008500001DB4FF0FF3A0021B7F1004F0DF14308E3
:100860008DF8431024D002202B23002F01DA7F4281
:100870002D230A21021EA0F1010000DC5FB197FBCD
:10088000F1FC97FBF1F201FB1C7C17460CF1300CDC
:1008900008F801CDEEE7A8F10100037021880905F1
:1008A00001D5452100E06521A0F1010800F8011CF7
:1008B00009980FA9A1EB0807FF1D00B101204119FC
:1008C00001EBEA70A1693844081A401EA061207843
:1008D000C00602D42046AFF30080099828B1D4E9BD
:1008E00001219047206A401C20622078C00622D552
:1008F0002046AFF300801EE0002E04DBB34502DD8E
:1009000001A8805D00E03020D4E901219047206AF1
:10091000401C2062761CAAF101005FEA000A0AD19D
:1009200000F050F8C0680168405CD4E901219047AC
:10093000206A401C2062281EA5F10105DCDC07E0CE
:10094000D4E9012118F8010B9047206A401C20626D
:10095000381EA7F10107F3DC2046AFF30080032027
:1009600011B043E601694A1C02610878704700B57E
:100970008FB0CDE901310021059105497944CDE9D8
:10098000031011466846FFF7DDFC0FB000BD000004
:10099000E5FFFFFF0A6802F8010B0A6070470000DC
:1009A000074B70B50D467B44FFF7E1FF0446284630
:1009B00000F000F910B14FF0FF3070BD204670BD5F
:1009C000EB190000004870474000002030B5B0F13E
:1009D0000A024FEA900E71F100034EEA817EB0EBFD
:1009E0000E0061EB91014FEA101E4EEA017E10EB02
:1009F0000E0041EB11114FEA102E4EEA016E10EB82
:100A00000E0041EB11214FEA104E4EEA014E10EB61
:100A10000E0041EB1141401841F100014FEAD000B6
:100A200040EA41704FEAD10110EB80054FEA8104A2
:100A300044EA907444EB01046D1944EB0404521B26
:100A4000A3414FF0000348BF0A3200D530BD401C1F
:100A500041F1000130BD00002DE9F0411F46044680
:100A600003260168072A01F4006004DB08B116A51B
:100A700005E016A503E008B115A500E015A521F0D5
:100A800010002060A069C01EA0610FB1401EA061CF
:100A90002046AFF300804FB1D4E90121384690479A
:100AA000206A401C2062C01C206206E0206AFAE72F
:100AB000D4E9012115F8010B9047761EF8D22046A3
:100AC000AFF30080BDE8F0814E414E006E616E00D4
:100AD000494E4600696E66002DE9F047814616468C
:100AE0008AB0334878440DC88DE80D00304878440A
:100AF000801C03AC0DC884E80D0041F69B3008440F
:100B0000372190FBF1F290FBF1F5A5F1800501FB97
:100B100012041B3C02D56442012000E00020DFF8F3
:100B200090A080460027FA44AAF1BE0A0DE0E00733
:100B300009D03246684607EB47010AEB810100F015
:100B400034FB8DE8070064107F1C002CEFD1184F98
:100B50007F44AC3F18E0E80714D007EB04100DF118
:100B6000180A90E80E008AE80E00C068F04201D131
:100B700098190890324606A903A800F016FB03ABAB
:100B800083E807006D10641C002DE4D132466946ED
:100B9000B8F1000F03A802D000F0F3FA01E000F072
:100BA00004FBC9E90001C9F808200AB0BDE8F087D4
:100BB000601B0000007B00F0800070470048704719
:100BC000200000207546FFF7F9FFAE460500694694
:100BD000534620F00700854618B020B5FFF742FBCA
:100BE000BDE820404FF000064FF000074FF000082E
:100BF0004FF0000B21F00701AC46ACE8C009ACE8AF
:100C0000C009ACE8C009ACE8C0098D46704710B512
:100C10000446AFF300802046BDE81040FFF70DBB4F
:100C20004FF0013C50F8042B51F8043B9A4221D17B
:100C3000A2EB0C03934313EACC1317D150F8042B07
:100C400051F8043B9A4215D1A2EB0C03934313EAEB
:100C5000CC130BD150F8042B51F8043B9A4209D124
:100C6000A2EB0C03934313EACC13DBD04FF000004C
:100C7000704700BFD01A01BAB1FA81F101F0180132
:100C800022FA01F0CB40C1F12001DBB2C0B2C01AA0
:100C90002CFA01F3D11A914311EAC311E6D170473E
:100CA0005FEA400C08BF91F0000F4FEA8C234FEA37
:100CB000C12243EA51514FEA1C5018BF00F5F040E1
:100CC0004FEA300018BF41F000415FEA6C5C00F071
:100CD0002980BCF1FF3F08BF40F080407047130CF3
:100CE00006BF12044FF0100C4FF0000C130E04BF9F
:100CF00012020CF1080C130F04BF12010CF1040CCA
:100D0000930F04BF92000CF1020CD30F04BF5200EA
:100D10000CF1010C11464FF00002A0F11F00A0EBF6
:100D20000C00704711F0004F08BF704731F00041D0
:100D30003FF4D5AF0B0C06BF09044FF0100C4FF079
:100D4000000C0B0E04BF09020CF1080C0B0F04BFC2
:100D500009010CF1040C8B0F04BF89000CF1020C8B
:100D6000CB0F04BF49000CF1010CCCF12003A0EB28
:100D70000C0022FA03F302FA0CF241EA030100F13B
:100D80000100704720F07F4C80EA030023F07F478A
:100D9000ACEB070303F57C5300F0004003F1FF03C5
:100DA0002DE980494FEA154B09B44FEA144325EA6F
:100DB0000B4E24EA03480FF2042606EB13274908DA
:100DC0003E785FEA320203FB0667C7F5000707FBC0
:100DD00006F64FEA54374FEAD64606F1020607FBFD
:100DE000066CCCF1005C4FEA1C472CEA074C07FB71
:100DF00006F40CFB06F504EB15464FEA961634BFD5
:100E000000204FF000404FEAD13706FB07FC4FEAC5
:100E10001C4C0CFB0BF7D21B03FB0CF761EB07011F
:100E20000CFB0EF7B0EB074072EB17420CFB08F718
:100E300034BFA2EB0742B2EB074261EB17414FEA26
:100E40000C444FEA910706FB07FC4FEA1C4C0CFBD5
:100E50000BF7B0EBC74072EB573203FB0CF734BF14
:100E6000A2EBC742B2EBC74261EB57310CFB0EF766
:100E7000B0EBC70072EB57720CFB08F734BFA2EB64
:100E8000C702B2EBC70261EB5771039F4FEA816162
:100E900041EA921104EBCC044FEAD1374FEA826267
:100EA00006FB07FC42EA90124FEA80604FEA1C4CB6
:100EB0000CFB0BF7D21B03FB0CF761EB07010CFBE0
:100EC0000EF7B0EB074072EB17420CFB08F734BF8C
:100ED000A2EB0742B2EB074261EB17414FEA8C5598
:100EE0004FEA910704EB9C2406FB07FC4FEA1C4CDD
:100EF0000CFB0BF7B0EBC74072EB573203FB0CF760
:100F000034BFA2EBC742B2EBC74261EB57310CFBD7
:100F10000EF7B0EBC70072EB57720CFB08F734BF4B
:100F2000A2EBC702B2EBC70261EB577115EB4C2580
:100F30004FEA816141EA92114FEA82624FEAD1376A
:100F400042EA901206FB07FC44F100044FEA80607D
:100F50004FEA1C4C0CFB0BF7D21B03FB0CF761EBAD
:100F600007010CFB0EF7B0EB074072EB17420CFBCE
:100F700008F734BFA2EB0742B2EB074261EB17411F
:100F800015EB1C154FEA813141EA92414FEA82325A
:100F900042EA90424FEA80304FEA0C7644F1000476
:100FA00048EA03434EEA0B484FF0000EB2EB080C40
:100FB00071EB030724BF624639464EEB0E0E4FF02D
:100FC000000B0018524149414BEB0B0BB2EB080CE4
:100FD00071EB03077BF1000B24BF624639464EEBF1
:100FE0000E0E4FF0000B0018524149414BEB0B0B1A
:100FF000B2EB080C71EB03077BF1000B24BF6246D8
:1010000039464EEB0E0E51EA020718BF46F00106B4
:1010100016EB0E7655F1000254F1000103D5BDE840
:101020008901BDE80088BDE88901BDE80048B6191E
:10103000524141EB0101A3F10103704780807F7EA3
:101040007D7C7B7A7978777676757473727171703E
:101050006F6E6E6D6C6C6B6A6A69686867666665F0
:101060006464636362616160605F5F5E5E5D5D5C7E
:101070005C5B5B5A5A5959585857575656555555EF
:101080005454535352525251515050504F4F4F4E4F
:101090004E4D4D4D4C4C4C4B4B4B4A4A4A4949499D
:1010A00048484847474747464646454545444444DF
:1010B000444343434342424242414141002B26D4F0
:1010C000770021D01CB54FEA370703B44FF010006A
:1010D0004FF010014FF000000FBCBDE810400BF1C5
:1010E000010BBBF1010F08BF5FEA170722BF12F126
:1010F000010211F101014FF0004143F1000300F042
:10110000004043EA00007047F9D35708DAE746EA9F
:10111000064613F1400F4FEA16461FDD13F1200F6C
:10112000DFBF16430A46002120335B42C8D0C3F11B
:10113000200746EA064602FA07F74FEA164646EA4D
:101140000706C3F1200722FA03F201FA07F721FA92
:1011500003F14FF0000342EA0702B1E746EA020654
:1011600046EA06464FEA164646EA0106BCBF46EA8C
:101170000646360C4FF000034FF000024FF000011E
:101180009EE72DE9C048934630B491E8380007C87F
:1011900031EA400C48BF34EA430C03D5FFF7F2FDB7
:1011A000FFF78CFFF0BCBDE800882DE9C0489346EE
:1011B00030B491E8380007C810F0804F08BF13F032
:1011C000804F03D100F005F8FFF778FFF0BCBDE8D1
:1011D000008820F07F4780EA030023F07F4C07EB74
:1011E0000C03A3F57C5300F00040A3F1FE0392F042
:1011F000000F00F0B38095F0000F00F077802DE92C
:1012000001494FEA11404FEA144621EA004800FB29
:1012100006FC24EA064708FB06F607FB08F800FB75
:1012200007F718EB06484CEB164C4FEA124B18EB3D
:1012300007484FEA15464CEB174022EA0B4E0BFBD2
:1012400006FC25EA06470EFB06F607FB0EFE0BFB27
:1012500007F71EEB064E4CEB164C4FF000061EEB4C
:10126000074E4CEB174B18EB0B0840F1000018EB46
:101270000E0B58EB000840F100008F1A4FF00001F0
:101280003CBFC943661B14BFB5EB040C00213CBF37
:10129000C943F61B4FEA17444EEA8E0E27EA04456F
:1012A0004FEA1C4704FB07622CEA074C05FB07F7D3
:1012B0000CFB05F604FB0CFC16EB074642EB174251
:1012C00016EB0C4642EB1C421BEB060658EB0202E7
:1012D000414146EA9E0601D5BDE80189B619524151
:1012E00041EB0101A3F10103BDE801894FEA144577
:1012F0004FEA114724EA054621EA074C05FB07F4AB
:1013000006FB07F70CFB06F105FB0CFC11EB074194
:1013100044EB17444FEA124711EB0C4144EB1C44D9
:1013200022EA074C05FB07F206FB07F70CFB06F663
:1013300005FB0CFC16EB074642EB174216EB0C467E
:1013400042EB1C456A1854F1000148BF7047B619BA
:10135000524141EB0101A3F10103704795F0000FE9
:1013600037D04FEA11424FEA144721EA024624EAF5
:10137000074C02FB07F106FB07F70CFB06F402FB28
:101380000CFC14EB074441EB17414FEA154714EBF3
:101390000C4441EB1C4125EA074C02FB07F506FB18
:1013A00007F70CFB06F602FB0CFC16EB074645EBB9
:1013B000174516EB0C4645EB1C42121951F1000182
:1013C00048BF7047B619524141EB0101A3F1010337
:1013D00070474FEA14454FEA114724EA054621EACF
:1013E000074C05FB07F106FB07F70CFB06F24FF075
:1013F000000605FB0CFC12EB074241EB174112EB18
:101400000C4251EB1C4148BF7047921841EB01015F
:10141000A3F10103704700BFFEE700000146072368
:1014200023EA01021202054B18684FF6FF03184029
:10143000034B18431043014B186070470CED00E05C
:101440000000FA057047000000B589B001210220B4
:1014500000F0D2F90121084600F0BEF9022206216F
:10146000264800F033F902220721244800F02EF923
:10147000C020019000208DF80B0002208DF808009C
:101480008DF8090000208DF80A0001A91B4800F022
:10149000D5F806A800F0EEFD0020ADF818004FF6D4
:1014A000FF7007900020ADF82000ADF81A0006A9E3
:1014B000134800F09DFD00231A460321104800F058
:1014C000EDFC03A800F053FD0A20ADF8140003A9B9
:1014D0000B4800F015FD0121094800F0CDFC012268
:1014E0001146074800F04CFD0021054800F051FD71
:1014F0000121034800F0C6FC09B000BD0000024015
:101500000004004000B589B00121042000F074F906
:101510000121022000F060F902220621274800F094
:10152000D5F802220721254800F0D0F8C02001900C
:1015300002208DF8080000208DF80B0002208DF8A5
:10154000090000208DF80A0001A91C4800F076F877
:1015500006A800F08FFD0020ADF818004FF6FF70D0
:1015600007900020ADF82000ADF81A0006A9144835
:1015700000F03EFD00231A460321114800F08EFCC6
:1015800003A800F0F4FC0A20ADF8140003A90C48ED
:1015900000F0B6FC01210A4800F06EFC0122114661
:1015A000074800F0EDFC0021054800F0F2FC0121A5
:1015B000034800F067FC09B000BD000000040240D1
:1015C0000008004030B10749096841F48061054ACC
:1015D000116005E00349096821F48061014A116046
:1015E00070470000003C024030B10749096841F4EF
:1015F0000071054A116005E00349096821F4007192
:10160000014A116070470000003C024030B10749B8
:10161000096841F48071054A116005E003490968D1
:1016200021F48071014A116070470000003C0240C3
:10163000014A107070470000003C0240F0B50A46B5
:1016400000210023002400BF3DE0012505FA01F33D
:10165000156805EA03049C4234D105684F0003264F
:10166000BE40B543056015794E00B5400668354368
:1016700005601579012D02D01579022D16D18568E6
:101680004F000326BE40B543856055794E00B540F6
:10169000866835438560456801268E40B5434560C0
:1016A000456896798E40B6B235434560C5684F00AF
:1016B0000326BE40B543C560D5794E00B540C66827
:1016C0003543C560491C1029BFD3F0BDF0B50023D8
:1016D00000244D07ED0E02FA05F3CE1000F12005AF
:1016E00055F826504E07F70E0F26BE40B543CF10D3
:1016F00000F1200646F82750CE1000F1200555F8DD
:10170000265045EA0304CE1000F1200545F8264096
:10171000F0BD00BFFEE700001CB50121082000F06D
:101720005BF84FF48050009001208DF804000020F9
:101730008DF805008DF807008DF80600694603480E
:10174000FFF77CFF0020024908601CBD000C02402E
:10175000B082414200BFFEE77047000070B5002133
:1017600000230F22C4781CB3174C246804F4E064EF
:10177000C4F5E064C4F30721C1F10404E3B20A41F3
:1017800044789C40E1B28478144021430C07210E38
:101790000E4C05786155047804F01F050124AC4017
:1017A00005786D11AD0005F1E025C5F8004109E0AF
:1017B000047804F01F050124AC40054D067876112D
:1017C00045F8264070BD00000CED00E000E400E0AC
:1017D00080E100E07047000029B1064A1268024328
:1017E000044B1A6004E0034A12688243014B1A60FA
:1017F000704700003038024029B1064A126802439F
:10180000044B1A6004E0034A12688243014B1A60D9
:1018100070470000403802401448006840F0010062
:101820001249086000201149083108600F4800681B
:101830000F4908400D4908600E48091D08600E4810
:101840000A49843108600B481038091D08600748B0
:10185000006820F4802005490860002003490C310D
:10186000086002498C31086070470000003802406F
:10187000FFFFF6EA1030002400300020F0B5002110
:1018800000220024022500260223324F3F6807F081
:101890000C0121B1042905D0082937D105E02E4FCC
:1018A000076036E02D4F076033E02A4F3F1F3F6847
:1018B000C7F38056274F3F1F3F6807F03F036EB1C5
:1018C000264FB7FBF3F7DFF88CC0ACF1040CDCF863
:1018D00000C0CCF3881C07FB0CF40CE01E4FB7FBD8
:1018E000F3F7DFF870C0ACF1040CDCF800C0CCF307
:1018F000881C07FB0CF4174F3F1F3F68C7F30147D5
:101900007F1C7D00B4FBF5F7076002E0124F076013
:1019100000BF00BF0F4F3F6807F0F0010909104FEB
:101920007A5C0768D74047600A4F3F6807F4E05188
:10193000890A0B4F7A5C4768D7408760054F3F683C
:1019400007F46041490B064F7A5C4768D740C7608F
:10195000F0BD0000083802400024F40000127A00B4
:101960000400002010B501460022002300204A1187
:10197000012A02D10A4C236808E0022A03D1084C4C
:101980007034236802E0064C7434236801F01F02AF
:10199000012494401C400CB1012000E0002010BD47
:1019A000003802400248006800F00C007047000058
:1019B0000838024001460020034A106820F0F00079
:1019C0000843106070470000083802400021024AB6
:1019D000117011460870704702380240014600201D
:1019E000034A106820F4E05008431060704700007C
:1019F0000838024001460020034A106820F4604085
:101A000040EAC1001060704708380240014908668A
:101A1000704700000000474270B5049C41EA8215FF
:101A20000126C6EB530645EA0645054345EA04652B
:101A3000014E356070BD00000438024001460020B0
:101A4000034A106820F0030008431060704700004C
:101A50000838024038B5002000900024002500BF5F
:101A60003120FFF77FFF05460098401C009000984A
:101A7000B0F5A04F01D0002DF2D03120FFF772FF5A
:101A800008B1012400E00024204638BD014611B110
:101A900001290ED106E0094A126810B20022074B54
:101AA0001A6008E0064A126810B20022044B1A605D
:101AB00001E0002000BF00BF704700002404004088
:101AC00024080040704700000CB5002001900090F1
:101AD0003448006840F480303249086000BF314823
:101AE000006800F4003000900198401C01900098BC
:101AF00018B90198B0F5A04FF1D12A48006800F458
:101B0000003010B10120009001E00020009000980A
:101B1000012846D123484030006840F080502149D8
:101B2000403108602048006840F440401E49086089
:101B30001C48083000681B490831086008460068E6
:101B400040F4004008600846006840F4A050086077
:101B50001648091F0860081F006840F08070091FC0
:101B6000086000BF0F48006800F000700028F9D03E
:101B700040F205700E4908600A480830006820F0FD
:101B800003000849083108600846006840F0020078
:101B9000086000BF03480830006800F00C00082807
:101BA000F8D10CBD003802400070004019544007C5
:101BB000003C024010B500F067FA10BD08B5FFF711
:101BC0002BFE0120FFF702FFFFF744FF012830D171
:101BD0000520FFF72DFD0120FFF718FD0120FFF77D
:101BE00003FD0120FFF7EEFC0020FFF7E3FE4FF4BA
:101BF000A050FFF7F3FE4FF48050FFF7FBFE0720E5
:101C000002234FF4A87208210090C804FFF704FFD4
:101C10000120FFF7FBFE00BF3920FFF7A3FE0028DD
:101C2000FAD00220FFF70AFF00BFFFF7BBFE08282B
:101C3000FBD108BD10B51548006840F47000134989
:101C400008601348006840F0010011490860002056
:101C50000F49083108600E4800680E4908400C49D9
:101C600008600D48091D0860081F006820F48020E6
:101C7000091F0860002006490C310860FFF724FFA7
:101C80004FF0006001498039086010BD88ED00E028
:101C900000380240FFFFF6FE10300024F0B50C467D
:101CA000154600210022068C4FF6FE773E40068442
:101CB000018B028C4FF60C7631407E1C06EA03162F
:101CC0002E4331434FF6F576324044F0010632435D
:101CD00001830284F0BDF0B50C46154600210022B8
:101CE0000026078C4FF6EF7C07EA0C070784018B70
:101CF000028C4FF6FF7707EA041640F6FF4739409B
:101D00004FF6FF7707EA033739434FF6FF7707EAC5
:101D1000052739434FF65F773A4046F010073A43BC
:101D200001830284F0BDF0B50C4615460021002267
:101D30000026078C4FF6FF6C07EA0C070784818B9F
:101D4000028C4FF6FF7707EA04264FF60C773940EE
:101D50004FF6FF7707EA03172F4339434FF2FF5738
:101D60003A4046F480773A4381830284F0BDF0B56F
:101D70000C461546002100220026078C4EF6FF7CFB
:101D800007EA0C070784818B028C4FF6FF7707EA7E
:101D9000043640F6FF4739404FF6FF7707EA05273C
:101DA00039434FF6FF7707EA0337394345F6FF77A4
:101DB0003A4046F480573A4381830284F0BD0000E4
:101DC000044800880348008820F001000149088089
:101DD0007047000010040040044800880348008851
:101DE00020F0010001490880704700001008004001
:101DF00010B50121074800F072F850B101210548E3
:101E000000F03DF804480088401C0349088000F0B9
:101E100089FA10BD00140040180000201FB50121F0
:101E20002020FFF7E9FC42F2CF00ADF80400632068
:101E3000029001A90F4800F0DBF801210D4800F0E5
:101E40001BF8012211460B4800F09AF837208DF854
:101E5000000004208DF8010002208DF8020001200E
:101E60008DF803006846FFF779FC0121014800F076
:101E700009F81FBD00140040CA4302827047CA43DC
:101E80000282704721B1028842F00102028004E020
:101E900002884FF6FE731A4002807047F0B50C4678
:101EA00015461E460021002200230189028B038C67
:101EB0004FF6F877394021434FF6FC473A4040F25D
:101EC00001173A434FF6DD773B404FF6FF7707EABD
:101ED00006172F433B43018102830384F0BD30B5D5
:101EE0000246002000230024158A05EA0103958993
:101EF00005EA010413B10CB1012000E0002030BD5F
:101F000070B505460C46208850B92389A28861889F
:101F10002846FFF7C3FEE188284600F03CF825E09C
:101F2000208804280AD12389A28861882846FFF7DF
:101F3000D2FEE188284600F037F817E0208808280C
:101F40000AD12389A28861882846FFF7ECFEE18840
:101F5000284600F036F809E02389A28861882846DF
:101F6000FFF705FFE188284600F034F870BD002136
:101F700001804180012181800021C1800181704761
:101F80001AB183890B43838102E083898B43838168
:101F9000704741627047028B4FF6F3731A40028319
:101FA000028B0A4302837047028B4FF2FF331A40C1
:101FB0000283028B4FF6FF7303EA01231A43028365
:101FC0007047828B4FF6F3731A408283828B0A43E9
:101FD00082837047828B4FF2FF331A408283828B59
:101FE0004FF6FF7303EA01231A4382837047000010
:101FF00000220288184B98420ED0184B98420BD002
:10200000B0F1804F08D0164B984205D0154B98423E
:1020100002D0154B984204D14FF68F731A404B886B
:102020001A43124B984207D0114B984204D04FF6F6
:10203000FF431A400B891A4302804B68C3620B8826
:102040000385054B984202D0044B984201D18B7A0C
:102050000386012383827047000001400004014091
:102060000004004000080040000C00400010004048
:10207000001400404FF0FF314160002101800181D8
:1020800041808172704700000448006820B1034815
:102090000068401E014908607047000000000020F1
:1020A00010B5002440F22551054800F066F830B123
:1020B000034800F0F7F8C4B2204600F035F810BD30
:1020C0000044004070B504460D4603E0207800F05F
:1020D0002BF8641C281EA5F101018DB2F6D170BD4C
:1020E00030B52DED048B87B0B0EE408A044618EE73
:1020F000100A00F0F3F941EC190B8DED009B22461C
:1021000007A102A8FEF7CEF802A8FEF7A2F985B251
:10211000294602A8FFF7D6FF07B0BDEC048B30BDFF
:10212000252E2A660000000010B5044600BF80215D
:10213000044800F015F80028F9D02146014800F0C5
:10214000B6F810BD0044004021B1828942F400522B
:10215000828104E082894DF6FF731A4082817047C4
:1021600002460020B1F5007F00D100BF13880B406C
:102170000BB1012000E00020704770B5024600243A
:1021800000230025002040F66A16B14200D100BFAE
:10219000C1F3421501F01F03012606FA03F3012DD6
:1021A00002D19689334006E0022D02D1168A3340CF
:1021B00001E0968A33400C12012606FA04F41688D0
:1021C000344013B10CB1012000E0002070BD0000CC
:1021D0002DE9FF4705460E460024A14600BFA04654
:1021E000B08900B100BF2C8A24F44054F088044325
:1021F0002C82AC8941F20C608443B0883189084359
:10220000718908430443AC81AC8A24F44074B089DA
:102210000443AC826846FFF731FB2048854202D078
:102220001F48854202D1DDF80C9001E0DDF80890EE
:10223000A88900F4004040B109EBC90000EB091087
:1022400031684900B0FBF1F707E009EBC90000EB8A
:10225000091031688900B0FBF1F76420B7FBF0F09A
:1022600004012009642101FB1078A88900F40040D2
:1022700040B1322000EBC800B0FBF1F000F00700E5
:10228000044308E0322000EB08106421B0FBF1F0B9
:1022900000F00F0004432C81BDE8FF8700100140CF
:1022A0000014014001468888C0F308007047C1F35C
:1022B00008028280704700BFFEE703B40198410026
:1022C000009850EAC12018BF04204A0D18BF40F002
:1022D000010040F2FF72B2EB515F08BF40F0020014
:1022E000012808BF052002B0704730380A2801D203
:1022F000012070470020704700BF704710B50220D2
:10230000FFF78CF8FFF75AFCFFF706FAFFF786FD98
:102310004FF4165000F070F8FFF796F8FFF7F2F858
:1023200010BD00001748008858B917480088B0F55C
:10233000967F25DD0020144908800120114908807E
:102340001EE01148008814281ADD00200E4908807C
:102350000E48006808B9012000E000200B49086021
:102360000B480088401C0A49088008460088062857
:1023700006D1002005490860054908800149088008
:10238000704700001400002018000020B082414275
:102390001600002000BF054A128802F04002002A01
:1023A000F9D0C2B2014B1B1D1A8070470044004097
:1023B00000240025FFF7A2FF14E00020FFF766FBD2
:1023C00004440120FFF762FB404205442A462146AF
:1023D00005A0FDF75BFF022000EE104AB8EEC00A30
:1023E000FFF77EFEE9E700004C3A25640920523AE7
:1023F00025640D0A0000000010B588B004460121D4
:102400004804FFF7F9F901210846FFF7E5F907222B
:1024100002212248FFF75AF9072203211F48FFF73C
:1024200055F902208DF81C0000208DF81E000120B7
:102430008DF81F0002208DF81D000820069006A9C7
:102440001648FFF7FBF80420069006A91348FFF78B
:10245000F5F802940020ADF80C00ADF80E00ADF8D0
:102460001000ADF814000820ADF8120002A90C48C5
:10247000FFF7AEFE01210A48FFF766FE26208DF821
:10248000040000208DF8050001208DF806008DF86D
:10249000070001A8FFF762F908B010BD0000024074
:1024A0000044004010B500290AD00878002807D061
:1024B00005487844FEF7B4FB002801D0002010BD89
:1024C0000248784410BD0000CE010000C6010000A3
:1024D0000808A0F500114FEA3101704743004FEAA8
:1024E000D30C4FEA3C0C43401FBF40070CF1605136
:1024F00013F0FE4F70471CF0006F03D100200CF06A
:10250000004170470CF0004343EA507010B540EAB8
:10251000CC0000F00EF800BF000000924FEA00016E
:10252000FFF7D6BF4FF000414FF00000A1F50021AA
:1025300070470EF1020E2EF0030E5EF8044B24429B
:1025400004D44FEA4102B2F17F4F11D84FEA400361
:10255000B3F17F4F0CD80ED14FEAD07CB2F17F4F50
:102560000CEB4C0C0CF1020C08BF4CEBD17C04E0E2
:102570004FF0080C01E04FEAD17C0CEB4C0324FA3D
:1025800003F404F00704B4F1040C06D20EEB840C3F
:10259000BDE810404CF0010C6047DFE80CF0070884
:1025A00002024FF00040A0F5800010BD0846420036
:1025B00018BFD2F1807288BF00F0004010BD4FF00C
:1025C0004070E1EE100A7047FEF796B80240000036
:1025D000000000A00000000005400000000000C84E
:1025E000000000000C4000000000409C00000000C3
:1025F000194000000020BCBE000000003440000074
:10260000BFC91B8E00000004B5400000504BCFD066
:102610006607E2CF010000006C4100003E8251AA33
:10262000DFEEA73401000000D9420000DCB5A0E2D3
:102630003A301F97FFFFFFFFB4450000FD25A0C8FB
:10264000E9A3C14FFFFFFFFFFF3F00000000008034
:1026500000000000FF3F00000000008000000000BC
:102660009C2600080000002020000000C401000893
:10267000BC2600082000002060060000E0010008E1
:102680001C00000043000000F8FFFFFF0C000000EA
:102690000E0000000F0000002E00000000000000EF
:1026A00000000000010203040102030406070809F8
:0C26B0000000000000000000000000001E
:040000050800018965
:00000001FF
