:020000040800F2
:1000000088060020290200084505000801050008AF
:1000100041050008B5030008DB0A000800000000E5
:10002000000000000000000000000000ED060008D5
:10003000E103000800000000C1050008DD0700081A
:10004000430200084302000843020008430200087C
:10005000430200084302000843020008430200086C
:10006000430200084302000843020008430200085C
:10007000430200084302000843020008430200084C
:10008000430200084302000843020008430200083C
:10009000430200084302000843020008430200082C
:1000A000430200084302000843020008430200081C
:1000B000430200084302000843020008430200080C
:1000C00043020008430200084302000843020008FC
:1000D0004302000899080008430200084302000890
:1000E00043020008430200084302000843020008DC
:1000F00043020008430200084302000843020008CC
:1001000043020008430200084302000843020008BB
:1001100043020008430200084302000843020008AB
:10012000430200084302000843020008430200089B
:10013000430200084302000843020008430200088B
:10014000430200084302000843020008430200087B
:10015000430200084302000843020008430200086B
:10016000430200084302000843020008430200085B
:10017000430200084302000843020008430200084B
:10018000430200084302000800F002F800F03CF8C7
:100190000AA090E8000C82448344AAF10107DA45E2
:1001A00001D100F031F8AFF2090EBAE80F0013F0F8
:1001B000010F18BFFB1A43F001031847B40A0000EF
:1001C000D40A0000103A24BF78C878C1FAD8520780
:1001D00024BF30C830C144BF04680C6070470000C1
:1001E0000023002400250026103A28BF78C1FBD840
:1001F000520728BF30C148BF0B6070471FB500F0E1
:1002000031FD1FBD10B510BD00F08EF81146FFF78F
:10021000F5FF00F0A3FC00F0C0F803B4FFF7F2FF15
:1002200003BC00F05CFC0000094880470948004717
:10023000FEE7FEE7FEE7FEE7FEE7FEE7FEE7FEE796
:10024000FEE7FEE704480549054A064B70470000F3
:10025000190800088901000888000020880600208D
:100260008802002088020020704700000FB4044973
:1002700010B503AA029800F029F810BC5DF814FB31
:100280002000002010B5431C02E010F8011B71B1E2
:100290008107FAD14FF0013202C88C1A8C4314EA5C
:1002A000C211F9D0C01A0A0603D0C01E10BDC01A70
:1002B00010BD0A0401D0801E10BD0902FCD0401EF2
:1002C00010BD70477047704770470000074B70B50E
:1002D0000D467B4400F011F80446284600F020F853
:1002E00010B14FF0FF3070BD204670BD6B080000AC
:1002F00001694A1C02610878704700B58FB0CDE9EA
:1003000001310021059105497944CDE903101146D9
:10031000684600F02EF80FB000BD0000E5FFFFFFBB
:10032000007B00F080007047754600F03FF8AE4655
:1003300005006946534620F00700854618B020B5F1
:10034000FFF780FFBDE820404FF000064FF00007A8
:100350004FF000084FF0000B21F00701AC46ACE86D
:10036000C009ACE8C009ACE8C009ACE8C0098D46DA
:1003700070472DE9F04106460024D6E90170F56882
:100380008046304603E04146B847641C3046A847E3
:100390000028F8D12046BDE8F08110B50446AFF33F
:1003A00000802046BDE81040FFF737BF0048704787
:1003B0002400002000BFFEE70146072323EA0102D4
:1003C0001202054B18684FF6FF031840034B184301
:1003D0001043014B186070470CED00E00000FA0577
:1003E000704700001F49096841F001011D4A116072
:1003F0001C491431096841F480411A4A14321160D1
:10040000012826D11849096821F07051164A116057
:100410001146096841F0205111601146896841F088
:10042000705191601146C96821F07051D160114638
:10043000C96841F0A051D1601146496A21F07F623C
:1004400009494A620949096841F00101074A1160F6
:1004500007E0022805D10449096821F07051024AD9
:1004600011607047303802400000024020380140DF
:10047000F0B50A4600210023002400BF3DE001251D
:1004800005FA01F3156805EA03049C4234D10568B6
:100490004F000326BE40B543056015794E00B540B8
:1004A0000668354305601579012D02D01579022DB6
:1004B00016D185684F000326BE40B5438560557947
:1004C0004E00B540866835438560456801268E40FC
:1004D000B5434560456896798E40B6B23543456070
:1004E000C5684F000326BE40B543C560D5794E00B0
:1004F000B540C6683543C560491C1029BFD3F0BD5F
:1005000000BFFEE71CB50121082000F05BF84FF4A6
:100510008050009001208DF8040000208DF8050027
:100520008DF807008DF8060069460348FFF7A0FF25
:100530000020024908601CBD000C0240B08241420C
:1005400000BFFEE77047000070B5002100230F22B6
:10055000C4781CB3174C246804F4E064C4F5E06468
:10056000C4F30721C1F10404E3B20A4144789C407A
:10057000E1B28478144021430C07210E0E4C05781B
:100580006155047804F01F050124AC4005786D1115
:10059000AD0005F1E025C5F8004109E0047804F05C
:1005A0001F050124AC40054D0678761145F826401C
:1005B00070BD00000CED00E000E400E080E100E030
:1005C0007047000029B1064A12680243044B1A60C2
:1005D00004E0034A12688243014B1A60704700002E
:1005E0003038024029B1064A12680243044B1A60AF
:1005F00004E0034A12688243014B1A60704700000E
:1006000044380240F0B500210022002402250026D3
:100610000223324F3F6807F00C0121B1042905D0B5
:10062000082937D105E02E4F076036E02D4F0760CF
:1006300033E02A4F3F1F3F68C7F38056274F3F1FC5
:100640003F6807F03F036EB1264FB7FBF3F7DFF8C3
:100650008CC0ACF1040CDCF800C0CCF3881C07FBA8
:100660000CF40CE01E4FB7FBF3F7DFF870C0ACF1F1
:10067000040CDCF800C0CCF3881C07FB0CF4174F0B
:100680003F1F3F68C7F301477F1C7D00B4FBF5F7B0
:10069000076002E0124F076000BF00BF0F4F3F68C6
:1006A00007F0F0010909104F7A5C0768D7404760EE
:1006B0000A4F3F6807F4E051890A0B4F7A5C47689C
:1006C000D7408760054F3F6807F46041490B064FEC
:1006D0007A5C4768D740C760F0BD00000838024028
:1006E0000024F40040787D010B00002070470000DA
:1006F0000CB50020019000903448006840F4803030
:100700003249086000BF3148006800F400300090B2
:100710000198401C0190009818B90198B0F5A04FBD
:10072000F1D12A48006800F4003010B10120009097
:1007300001E0002000900098012846D12348403075
:10074000006840F08050214940310860204800682E
:1007500040F440401E4908601C48083000681B49AE
:10076000083108600846006840F400400860084608
:10077000006840F4A05008601648091F0860081F70
:10078000006840F08070091F086000BF0F480068D3
:1007900000F000700028F9D040F205700E490860A2
:1007A0000A480830006820F0030008490831086052
:1007B0000846006840F00200086000BF03480830A7
:1007C000006800F00C000828F8D10CBD0038024089
:1007D0000070004019544007003C024010B500F082
:1007E0004FF810BD4FF0E021096921F004014FF0EE
:1007F000E02211610649087000EB4001C1EBC01115
:100800004FF6FF7202EAC101024A118070470000F0
:100810001C0000201E00002010B51548006840F4A0
:100820007000134908601348006840F00100114946
:10083000086000200F49083108600E4800680E4922
:1008400008400C4908600D48091D0860081F006831
:1008500020F48020091F0860002006490C31086040
:10086000FFF746FF4FF0006001498039086010BD76
:1008700088ED00E000380240FFFFF6FE1030002453
:100880000448006820B103480068401E0149086020
:10089000704700000000002010B5002440F22551F0
:1008A000054800F058F830B1034800F00DF9C4B223
:1008B000204600F011F810BD0010014070B504464C
:1008C0000D4603E0207800F007F8641C281EA5F10F
:1008D00001018DB2F6D170BD10B5044600BF802174
:1008E000044800F02BF80028F9D02146014800F018
:1008F000F0F810BD0010014010B504460BE014F8EC
:10090000011B074800F0E5F800BF4021044800F053
:1009100015F80028F9D020780028F0D110BD00008B
:100920000010014021B1828942F40052828104E02A
:1009300082894DF6FF731A4082817047024600207B
:10094000B1F5007F00D100BF13880B400BB101202F
:1009500000E00020704770B5024600240023002507
:10096000002040F66A16B14200D100BFC1F3421523
:1009700001F01F03012606FA03F3012D02D1968927
:10098000334006E0022D02D1168A334001E0968AF8
:1009900033400C12012606FA04F41688344013B1D1
:1009A0000CB1012000E0002070BDF0B5034600242A
:1009B00000260025002040F66A17B94200D100BF8A
:1009C0001846C1F3421401F01F06012707FA06F585
:1009D000012C01D10C3004E0022C01D1103000E0D8
:1009E00014301AB107682F43076002E00768AF436D
:1009F0000760F0BD2DE9FF4705460E460024A146DD
:100A000000BFA046B08900B100BF2C8A24F4405436
:100A1000F08804432C82AC8941F20C608443B08896
:100A200031890843718908430443AC81AC8A24F4BA
:100A30004074B0890443AC826846FFF7E3FD204868
:100A4000854202D01F48854202D1DDF80C9001E0BA
:100A5000DDF80890A88900F4004040B109EBC90016
:100A600000EB091031684900B0FBF1F707E009EB32
:100A7000C90000EB091031688900B0FBF1F7642070
:100A8000B7FBF0F004012009642101FB1078A8896C
:100A900000F4004040B1322000EBC800B0FBF1F0A0
:100AA00000F00700044308E0322000EB0810642146
:100AB000B0FBF1F000F00F0004432C81BDE8FF878C
:100AC000001001400014014001468888C0F308006E
:100AD0007047C1F308028280704700BFFEE700BF85
:100AE000704710B50220FFF767FCA820FFF77AFED9
:100AF0000120FFF777FCFFF705FD4FF4E13000F030
:100B00005FF810BD01460D4A12884A434FF0E023BA
:100B10005A6100229A6101221A6100BF4FF0E0225F
:100B2000106900F001021AB100F48032002AF5D0F9
:100B300000224FF0E0231A619A6170471E000020E6
:100B400000BF054A128802F04002002AF9D0C2B262
:100B5000014B9A807047000000100140FFF7C1FF71
:100B60001148FFF7C9FE11A0FFF780FB0E48FFF701
:100B700089FB84B221460C48FFF7A0FE0A49087899
:100B8000FFF7AAFE0EE00848FFF7B6FE0B48006824
:100B900008B9012000E00020084908604FF4FA700D
:100BA000FFF7B0FFEFE7000004000020557361720B
:100BB000743120436C617373210D0A00B08241428D
:100BC00010B588B0044601211120FFF70BFD4FF44A
:100BD0000070069002208DF81D008DF81C0000208A
:100BE0008DF81E0006A91D48FFF742FC4FF48060F7
:100BF000069000208DF81C008DF81F0006A91748EC
:100C0000FFF736FC02940020ADF80C00ADF80E00A2
:100C1000ADF81000ADF814000C20ADF8120002A9D8
:100C20000F48FFF7E7FE012240F225510C48FFF77D
:100C3000BCFE01210A48FFF775FE25208DF804004F
:100C400000208DF8050001208DF806008DF80700C2
:100C500001A8FFF779FC08B010BD000000000240B9
:100C6000001001404FF04070E1EE100A70470000A4
:100C7000900C00080000002024000000C4010008BF
:100C8000B40C00082400002064060000E001000805
:100C900000000000617364646173000000000001E3
:100CA0000203040102030406070809000000000013
:040CB0000000000040
:040000050800018965
:00000001FF
