:020000040800F2
:100000008806002029020008ED040008A704000863
:10001000E9040008150300080F0A000800000000AA
:10002000000000000000000000000000950600082D
:10003000410300080000000069050008850700086A
:10004000430200084302000843020008430200087C
:10005000430200084302000843020008430200086C
:10006000430200084302000843020008430200085C
:10007000430200084302000843020008430200084C
:10008000430200084302000843020008430200083C
:10009000430200084302000843020008430200082C
:1000A000430200084302000843020008430200081C
:1000B000430200084302000843020008430200080C
:1000C00043020008430200084302000843020008FC
:1000D00043020008410800084302000843020008E8
:1000E00043020008430200084302000843020008DC
:1000F00043020008430200084302000843020008CC
:1001000043020008430200084302000843020008BB
:1001100043020008430200084302000843020008AB
:10012000430200084302000843020008430200089B
:10013000430200084302000843020008430200088B
:10014000430200084302000843020008430200087B
:10015000430200084302000843020008430200086B
:10016000430200084302000843020008430200085B
:10017000430200084302000843020008430200084B
:10018000430200084302000800F002F800F03CF8C7
:100190000AA090E8000C82448344AAF10107DA45E2
:1001A00001D100F031F8AFF2090EBAE80F0013F0F8
:1001B000010F18BFFB1A43F001031847A8090000FC
:1001C000C8090000103A24BF78C878C1FAD852078D
:1001D00024BF30C830C144BF04680C6070470000C1
:1001E0000023002400250026103A28BF78C1FBD840
:1001F000520728BF30C148BF0B6070471FB500F0E1
:10020000ABFC1FBD10B510BD00F052F81146FFF752
:10021000F5FF00F02FFC00F070F803B4FFF7F2FFD9
:1002200003BC00F0F6FB000009488047094800477E
:10023000FEE7FEE7FEE7FEE7FEE7FEE7FEE7FEE796
:10024000FEE7FEE704480549054A064B70470000F3
:10025000C1070008890100088800002088060020E6
:100260008802002088020020704710B5431C02E07D
:1002700010F8011B71B18107FAD14FF0013202C8A9
:100280008C1A8C4314EAC211F9D0C01A0A0603D0A2
:10029000C01E10BDC01A10BD0A0401D0801E10BDC2
:1002A0000902FCD0401E10BD704770477047704770
:1002B000754600F02BF8AE4605006946534620F01F
:1002C0000700854618B020B5FFF7BCFFBDE8204009
:1002D0004FF000064FF000074FF000084FF0000B02
:1002E00021F00701AC46ACE8C009ACE8C009ACE8B5
:1002F000C009ACE8C0098D46704710B50446AFF39D
:1003000000802046BDE81040FFF787BF00487047D7
:100310002800002000BFFEE70146072323EA010270
:100320001202054B18684FF6FF031840034B1843A1
:100330001043014B186070470CED00E00000FA0517
:10034000704700001F49096841F001011D4A116012
:100350001C491431096841F480411A4A1432116071
:10036000012826D11849096821F07051164A1160F8
:100370001146096841F0205111601146896841F029
:10038000705191601146C96821F07051D1601146D9
:10039000C96841F0A051D1601146496A21F07F62DD
:1003A00009494A620949096841F00101074A116097
:1003B00007E0022805D10449096821F07051024A7A
:1003C0001160704730380240000002402038014080
:1003D000F0B50A4600210023002400BF3DE00125BE
:1003E00005FA01F3156805EA03049C4234D1056857
:1003F0004F000326BE40B543056015794E00B54059
:100400000668354305601579012D02D01579022D56
:1004100016D185684F000326BE40B54385605579E7
:100420004E00B540866835438560456801268E409C
:10043000B5434560456896798E40B6B23543456010
:10044000C5684F000326BE40B543C560D5794E0050
:10045000B540C6683543C560491C1029BFD3F0BDFF
:10046000F0B5002300244D07ED0E02FA05F3CE107F
:1004700000F1200555F826504E07F70E0F26BE4016
:10048000B543CF1000F1200646F82750CE1000F1FA
:10049000200555F8265045EA0304CE1000F120054A
:1004A00045F82640F0BD00BFFEE700001CB5012165
:1004B000082000F05BF84FF48050009001208DF888
:1004C000040000208DF805008DF807008DF8060067
:1004D00069460348FFF77CFF0020024908601CBD05
:1004E000000C0240B082414200BFFEE770470000AE
:1004F00070B5002100230F22C4781CB3174C246868
:1005000004F4E064C4F5E064C4F30721C1F1040419
:10051000E3B20A4144789C40E1B28478144021431C
:100520000C07210E0E4C05786155047804F01F0568
:100530000124AC4005786D11AD0005F1E025C5F84A
:10054000004109E0047804F01F050124AC40054D8A
:100550000678761145F8264070BD00000CED00E0ED
:1005600000E400E080E100E07047000029B1064AA5
:1005700012680243044B1A6004E0034A1268824383
:10058000014B1A60704700003038024029B1064A1A
:1005900012680243044B1A6004E0034A1268824363
:1005A000014B1A607047000040380240F0B500214E
:1005B00000220024022500260223324F3F6807F064
:1005C0000C0121B1042905D0082937D105E02E4FAF
:1005D000076036E02D4F076033E02A4F3F1F3F682A
:1005E000C7F38056274F3F1F3F6807F03F036EB1A8
:1005F000264FB7FBF3F7DFF88CC0ACF1040CDCF846
:1006000000C0CCF3881C07FB0CF40CE01E4FB7FBBA
:10061000F3F7DFF870C0ACF1040CDCF800C0CCF3E9
:10062000881C07FB0CF4174F3F1F3F68C7F30147B7
:100630007F1C7D00B4FBF5F7076002E0124F0760F6
:1006400000BF00BF0F4F3F6807F0F0010909104FCE
:100650007A5C0768D74047600A4F3F6807F4E0516B
:10066000890A0B4F7A5C4768D7408760054F3F681F
:1006700007F46041490B064F7A5C4768D740C76072
:10068000F0BD0000083802400024F40000127A0097
:1006900013000020704700000CB50020019000906E
:1006A0003448006840F480303249086000BF314867
:1006B000006800F4003000900198401C0190009800
:1006C00018B90198B0F5A04FF1D12A48006800F49C
:1006D000003010B10120009001E00020009000984F
:1006E000012846D123484030006840F0805021491D
:1006F000403108602048006840F440401E490860CE
:100700001C48083000681B4908310860084600682A
:1007100040F4004008600846006840F4A0500860BB
:100720001648091F0860081F006840F08070091F04
:10073000086000BF0F48006800F000700028F9D082
:1007400040F205700E4908600A480830006820F041
:1007500003000849083108600846006840F00200BC
:10076000086000BF03480830006800F00C0008284B
:10077000F8D10CBD00380240007000401954400709
:10078000003C024010B500F04FF810BD4FF0E021E2
:10079000096921F004014FF0E02211610649087057
:1007A00000EB4001C1EBC0114FF6FF7202EAC1013C
:1007B000024A11807047000024000020260000201B
:1007C00010B51548006840F47000134908601348DC
:1007D000006840F001001149086000200F4908310D
:1007E00008600E4800680E4908400C4908600D4832
:1007F000091D0860081F006820F48020091F086098
:10080000002006490C310860FFF746FF4FF00060FA
:1008100001498039086010BD88ED00E000380240D1
:10082000FFFFF6FE103000240448006820B10348A2
:100830000068401E01490860704700000000002069
:1008400010B5002440F22551054800F042F830B1BF
:10085000034800F0D3F8C4B2204600F011F810BDF0
:100860000044004070B504460D4603E0207800F0D7
:1008700007F8641C281EA5F101018DB2F6D170BDE8
:1008800010B5044600BF8021044800F015F8002888
:10089000F9D02146014800F0B6F810BD00440040F0
:1008A00021B1828942F40052828104E082894DF6AE
:1008B000FF731A408281704702460020B1F5007F25
:1008C00000D100BF13880B400BB1012000E00020D5
:1008D000704770B50246002400230025002040F632
:1008E0006A16B14200D100BFC1F3421501F01F03E7
:1008F000012606FA03F3012D02D19689334006E062
:10090000022D02D1168A334001E0968A33400C1240
:10091000012606FA04F41688344013B10CB1012004
:1009200000E0002070BD00002DE9FF4705460E469F
:100930000024A14600BFA046B08900B100BF2C8AA8
:1009400024F44054F08804432C82AC8941F20C60BA
:100950008443B08831890843718908430443AC81DA
:10096000AC8A24F44074B0890443AC826846FFF733
:100970001DFE2048854202D01F48854202D1DDF885
:100980000C9001E0DDF80890A88900F4004040B127
:1009900009EBC90000EB091031684900B0FBF1F721
:1009A00007E009EBC90000EB091031688900B0FBD2
:1009B000F1F76420B7FBF0F004012009642101FB8A
:1009C0001078A88900F4004040B1322000EBC80044
:1009D000B0FBF1F000F00700044308E0322000EB28
:1009E00008106421B0FBF1F000F00F0004432C81EB
:1009F000BDE8FF87001001400014014001468888CF
:100A0000C0F308007047C1F308028280704700BF3E
:100A1000FEE700BF704710B50220FFF77DFC2A20DB
:100A2000FFF7B4FE0120FFF78DFCFFF73FFD4FF409
:100A3000165000F03BF810BD01460D4A12884A439B
:100A40004FF0E0235A6100229A6101221A6100BF2F
:100A50004FF0E022106900F001021AB100F4803278
:100A6000002AF5D000224FF0E0231A619A61704706
:100A700026000020FFF7CFFF13E00A48FFF7F5FB41
:100A800084B221460748FFF7EDFE0748006808B921
:100A9000012000E00020044908604FF4FA70FFF7DD
:100AA000CBFFEAE704000020B082414210B588B0D5
:100AB000044601214804FFF769FD01210846FFF7BC
:100AC00055FD072202212248FFF7CAFC0722032115
:100AD0001F48FFF7C5FC02208DF81C0000208DF890
:100AE0001E0001208DF81F0002208DF81D00082037
:100AF000069006A91648FFF76BFC0420069006A98D
:100B00001348FFF765FC02940020ADF80C00ADF827
:100B10000E00ADF81000ADF814000820ADF812007A
:100B200002A90C48FFF700FF01210A48FFF7B8FEB1
:100B300026208DF8040000208DF8050001208DF896
:100B400006008DF8070001A8FFF7D2FC08B010BD21
:100B500000000240004400404FF04070E1EE100AF7
:100B600070470000840B00080000002028000000EF
:100B7000C4010008AC0B000828000020600600003B
:100B8000E00100080000000048454C4C4F2043495C
:100B900052434C450D0A000000000001020304010D
:0C0BA00002030406070809000000000022
:040000050800018965
:00000001FF
