:020000040800F2
:100000008006002029020008BD04000877040008CB
:10001000B9040008E3020008B50800080000000069
:10002000000000000000000000000000E9050008DA
:100030001103000800000000BF040008D9060008F2
:10004000430200084302000843020008430200087C
:10005000430200084302000843020008430200086C
:10006000430200084302000843020008430200085C
:10007000430200084302000843020008430200084C
:10008000430200084302000843020008430200083C
:10009000430200084302000843020008430200082C
:1000A000430200084302000843020008430200081C
:1000B000430200084302000843020008430200080C
:1000C00043020008430200084302000843020008FC
:1000D00043020008430200084302000843020008EC
:1000E00043020008430200084302000843020008DC
:1000F00043020008430200084302000843020008CC
:1001000043020008430200084302000843020008BB
:1001100043020008430200084302000843020008AB
:10012000430200084302000843020008430200089B
:10013000430200084302000843020008430200088B
:10014000430200084302000843020008430200087B
:10015000430200084302000843020008430200086B
:10016000430200084302000843020008430200085B
:10017000430200084302000843020008430200084B
:10018000430200084302000800F002F800F03CF8C7
:100190000AA090E8000C82448344AAF10107DA45E2
:1001A00001D100F031F8AFF2090EBAE80F0013F0F8
:1001B000010F18BFFB1A43F001031847280800007D
:1001C00048080000103A24BF78C878C1FAD852070E
:1001D00024BF30C830C144BF04680C6070470000C1
:1001E0000023002400250026103A28BF78C1FBD840
:1001F000520728BF30C148BF0B6070471FB500F0E1
:10020000EBFB1FBD10B510BD00F031F81146FFF734
:10021000F5FF00F081FB00F04FF803B4FFF7F2FFA9
:1002200003BC00F057F80000094880470948004720
:10023000FEE7FEE7FEE7FEE7FEE7FEE7FEE7FEE796
:10024000FEE7FEE704480549054A064B70470000F3
:1002500015070008890100088000002080060020A2
:10026000800200208002002070477047704775466A
:1002700000F02CF8AE4605006946534620F0070012
:10028000854618B020B5FFF7DDFFBDE820404FF0F0
:1002900000064FF000074FF000084FF0000B21F070
:1002A0000701AC46ACE8C009ACE8C009ACE8C0093D
:1002B000ACE8C0098D46704710B50446AFF3008026
:1002C0002046BDE81040FFF7A8BF00000048704777
:1002D0002000002001491820ABBEFEE726000200E6
:1002E000704700BFFEE700000146072323EA010232
:1002F0001202054B18684FF6FF031840034B1843D2
:100300001043014B186070470CED00E00000FA0547
:10031000704700001F49096841F001011D4A116042
:100320001C491431096841F480411A4A14321160A1
:10033000012826D11849096821F07051164A116028
:100340001146096841F0205111601146896841F059
:10035000705191601146C96821F07051D160114609
:10036000C96841F0A051D1601146496A21F07F620D
:1003700009494A620949096841F00101074A1160C7
:1003800007E0022805D10449096821F07051024AAA
:1003900011607047303802400000024020380140B0
:1003A000F0B50A4600210023002400BF3DE00125EE
:1003B00005FA01F3156805EA03049C4234D1056887
:1003C0004F000326BE40B543056015794E00B54089
:1003D0000668354305601579012D02D01579022D87
:1003E00016D185684F000326BE40B5438560557918
:1003F0004E00B540866835438560456801268E40CD
:10040000B5434560456896798E40B6B23543456040
:10041000C5684F000326BE40B543C560D5794E0080
:10042000B540C6683543C560491C1029BFD3F0BD2F
:10043000F0B5002300244D07ED0E02FA05F3CE10AF
:1004400000F1200555F826504E07F70E0F26BE4046
:10045000B543CF1000F1200646F82750CE1000F12A
:10046000200555F8265045EA0304CE1000F120057A
:1004700045F82640F0BD00BFFEE700001CB5012195
:10048000082000F01DF84FF48050009001208DF8F6
:10049000040000208DF805008DF807008DF8060097
:1004A00069460348FFF77CFF0020024908601CBD35
:1004B000000C0240B082414200BFFEE77047704727
:1004C00029B1064A12680243044B1A6004E0034A49
:1004D00012688243014B1A607047000030380240B6
:1004E00029B1064A12680243044B1A6004E0034A29
:1004F00012688243014B1A60704700004038024086
:10050000F0B5002100220024022500260223324FEC
:100510003F6807F00C0121B1042905D0082937D123
:1005200005E02E4F076036E02D4F076033E02A4F7D
:100530003F1F3F68C7F38056274F3F1F3F6807F0B4
:100540003F036EB1264FB7FBF3F7DFF88CC0ACF179
:10055000040CDCF800C0CCF3881C07FB0CF40CE0A6
:100560001E4FB7FBF3F7DFF870C0ACF1040CDCF8FA
:1005700000C0CCF3881C07FB0CF4174F3F1F3F68EB
:10058000C7F301477F1C7D00B4FBF5F7076002E06D
:10059000124F076000BF00BF0F4F3F6807F0F00128
:1005A0000909104F7A5C0768D74047600A4F3F68D7
:1005B00007F4E051890A0B4F7A5C4768D74087609F
:1005C000054F3F6807F46041490B064F7A5C476866
:1005D000D740C760F0BD0000083802400024F40096
:1005E00040787D010B000020704700000CB5002012
:1005F000019000903448006840F48030324908602F
:1006000000BF3148006800F4003000900198401CA1
:100610000190009818B90198B0F5A04FF1D12A487F
:10062000006800F4003010B10120009001E00020CB
:1006300000900098012846D123484030006840F0DF
:1006400080502149403108602048006840F4404013
:100650001E4908601C48083000681B4908310860C2
:100660000846006840F4004008600846006840F40E
:10067000A05008601648091F0860081F006840F075
:100680008070091F086000BF0F48006800F000700C
:100690000028F9D040F205700E4908600A48083079
:1006A000006820F003000849083108600846006827
:1006B00040F00200086000BF03480830006800F006
:1006C0000C000828F8D10CBD003802400070004032
:1006D00019544007003C024010B500F04FF810BD1F
:1006E0004FF0E021096921F004014FF0E02211618F
:1006F0000649087000EB4001C1EBC0114FF6FF72D4
:1007000002EAC101024A1180704700001C0000206B
:100710001E00002010B51548006840F47000134911
:1007200008601348006840F001001149086000208B
:100730000F49083108600E4800680E4908400C490E
:1007400008600D48091D0860081F006820F480201B
:10075000091F0860002006490C310860FFF746FFBA
:100760004FF0006001498039086010BD88ED00E05D
:1007700000380240FFFFF6FE1030002404480068F5
:1007800020B103480068401E01490860704700001E
:100790000000002021B1828942F40052828104E0ED
:1007A00082894DF6FF731A40828170472DE9FF4719
:1007B00005460E460024A14600BFA046B08900B100
:1007C00000BF2C8A24F44054F08804432C82AC8966
:1007D00041F20C608443B088318908437189084331
:1007E0000443AC81AC8A24F44074B0890443AC82E5
:1007F0006846FFF785FE2048854202D01F488542A3
:1008000002D1DDF80C9001E0DDF80890A88900F431
:10081000004040B109EBC90000EB09103168490004
:10082000B0FBF1F707E009EBC90000EB09103168F4
:100830008900B0FBF1F76420B7FBF0F00401200958
:10084000642101FB1078A88900F4004040B13220F7
:1008500000EBC800B0FBF1F000F00700044308E033
:10086000322000EB08106421B0FBF1F000F00F0023
:1008700004432C81BDE8FF870010014000140140B3
:10088000C1F308028280704710B504460BE000BF38
:100890000748008800F080000028F9D014F8011BF8
:1008A0000348FFF7EDFF20780028F0D110BD0000CD
:1008B0000044004000BFFEE710B50220FFF714FD22
:1008C0002A20FFF70DFF0120FFF724FDFFF7D6FDDB
:1008D0004FF4165000F038F810BD000001460D4AE4
:1008E00012884A434FF0E0235A6100229A610122A4
:1008F0001A6100BF4FF0E022106900F001021AB146
:1009000000F48032002AF5D000224FF0E0231A6173
:100910009A6170471E000020FFF7CEFF0EE00848E6
:10092000FFF7B2FF0748006808B9012000E0002087
:10093000044908604FF4FA70FFF7D0FFEFE70000BA
:1009400004000020B082414210B586B00446012167
:100950004804FFF7C5FD01210846FFF7B1FD02205D
:100960008DF8140000208DF8160001208DF8170076
:1009700002208DF815000820049004A91448FFF700
:100980000FFD0420049004A91148FFF709FD072278
:1009900002210F48FFF74CFD072203210C48FFF707
:1009A00047FD00940020ADF80400ADF80600ADF856
:1009B0000800ADF80C000820ADF80A0069460548AB
:1009C000FFF7F4FE01210348FFF7E4FE06B010BD77
:1009D00000000240004400404FF04070E1EE100A79
:1009E00070470000040A00080000002020000000FA
:1009F000C4010008240A000820000020600600004E
:100A0000E00100080000000061736464617300008D
:100A100000000001020304010203040607080900A4
:040A200000000000D2
:040000050800018965
:00000001FF
