:020000040800F2
:10000000980600202902000841060008050500089E
:100010003D060008750300083F0D000800000000C1
:10002000000000000000000000000000750900084A
:10003000A103000800000000BD0600088D0A0008AA
:10004000430200084302000843020008430200087C
:10005000430200084302000843020008430200086C
:10006000430200084302000843020008430200085C
:10007000430200084302000843020008430200084C
:10008000430200084302000843020008430200083C
:10009000430200084302000843020008430200082C
:1000A000430200084302000843020008430200081C
:1000B000430200084302000843020008430200080C
:1000C00043020008430200084302000843020008FC
:1000D000430200088D0B0008430200084302000899
:1000E00043020008430200084302000843020008DC
:1000F00043020008430200084302000843020008CC
:1001000043020008430200084302000843020008BB
:1001100043020008430200084302000843020008AB
:10012000430200084302000843020008430200089B
:10013000430200084302000843020008430200088B
:10014000430200084302000843020008430200087B
:10015000430200084302000843020008430200086B
:10016000430200084302000843020008430200085B
:10017000430200084302000843020008430200084B
:10018000430200084302000800F002F800F03CF8C7
:100190000AA090E8000C82448344AAF10107DA45E2
:1001A00001D100F031F8AFF2090EBAE80F0013F0F8
:1001B000010F18BFFB1A43F001031847000D0000A0
:1001C000200D0000103A24BF78C878C1FAD8520731
:1001D00024BF30C830C144BF04680C6070470000C1
:1001E0000023002400250026103A28BF78C1FBD840
:1001F000520728BF30C148BF0B6070471FB500F0E1
:1002000057FE1FBD10B510BD00F06EF81146FFF788
:10021000F5FF00F0DDFD00F0A0F803B4FFF7F2FFFA
:1002200003BC00F08EFD00000948804709480047E4
:10023000FEE7FEE7FEE7FEE7FEE7FEE7FEE7FEE796
:10024000FEE7FEE704480549054A064B70470000F3
:100250000D0B000889010008980000209806002076
:100260009802002098020020704700000FB4044953
:1002700010B503AA029800F009F810BC5DF814FB51
:10028000300000207047704770477047074B70B5CB
:100290000D467B4400F011F80446284600F020F893
:1002A00010B14FF0FF3070BD204670BD1F0B000035
:1002B00001694A1C02610878704700B58FB0CDE92A
:1002C00001310021059105497944CDE9031011461A
:1002D000684600F02EF80FB000BD0000E5FFFFFFFC
:1002E000007B00F080007047754600F03FF8AE4696
:1002F00005006946534620F00700854618B020B532
:10030000FFF7A0FFBDE820404FF000064FF00007C8
:100310004FF000084FF0000B21F00701AC46ACE8AD
:10032000C009ACE8C009ACE8C009ACE8C0098D461A
:1003300070472DE9F04106460024D6E90170F568C2
:100340008046304603E04146B847641C3046A84723
:100350000028F8D12046BDE8F08110B50446AFF37F
:1003600000802046BDE81040FFF757BF00487047A7
:100370003400002000BFFEE70146072323EA010204
:100380001202054B18684FF6FF031840034B184341
:100390001043014B186070470CED00E00000FA05B7
:1003A0007047000030B10749096841F48061054A8F
:1003B000116005E00349096821F48061014A116078
:1003C00070470000003C024030B10749096841F421
:1003D0000071054A116005E00349096821F40071C4
:1003E000014A116070470000003C024030B10749EB
:1003F000096841F48071054A116005E00349096804
:1004000021F48071014A116070470000003C0240F5
:10041000014A107070470000003C0240F0B50A46E7
:1004200000210023002400BF3DE0012505FA01F36F
:10043000156805EA03049C4234D105684F00032681
:10044000BE40B543056015794E00B540066835439A
:1004500005601579012D02D01579022D16D1856818
:100460004F000326BE40B543856055794E00B54028
:10047000866835438560456801268E40B5434560F2
:10048000456896798E40B6B235434560C5684F00E1
:100490000326BE40B543C560D5794E00B540C66859
:1004A0003543C560491C1029BFD3F0BDF0B500230A
:1004B00000244D07ED0E02FA05F3CE1000F12005E1
:1004C00055F826504E07F70E0F26BE40B543CF1005
:1004D00000F1200646F82750CE1000F1200555F80F
:1004E000265045EA0304CE1000F1200545F82640C9
:1004F000F0BD0246002013690B400BB1012000E063
:100500000020704700BFFEE74CF6CC400149086070
:1005100070470000003000404AF6AA2001490860F8
:1005200070470000003000400149486070470000FB
:1005300000300040014988607047000000300040F2
:1005400010B545F2555000F00BF80620FFF7ECFF10
:100550009B20FFF7EFFFFFF7D7FFFFF7DDFF10BD91
:100560000149086070470000003000401CB50121BF
:10057000082000F0A5F84FF48050009001208DF87D
:10058000040000208DF805008DF807008DF80600A6
:1005900069460348FFF742FF0020024908601CBD7E
:1005A000000C0240B082414210B500F001F810BDCD
:1005B0001CB50121084600F083F8012000900020BE
:1005C0008DF8040001208DF8070069460148FFF707
:1005D00025FF1CBD0000024010B5044600F022F8C3
:1005E00001280BD1601C0D490988B1EB400F0ADAD4
:1005F0000A480088401C0949088004E00020074997
:1006000008800749088005480088022803D1012096
:100610000349088010BD0020FCE700002E000020E8
:100620002C00002010B501210348FFF762FF08B934
:10063000012010BD0020FCE70000024000BFFEE7E3
:100640007047000070B5002100230F22C4781CB34E
:10065000174C246804F4E064C4F5E064C4F3072193
:10066000C1F10404E3B20A4144789C40E1B28478C9
:10067000144021430C07210E0E4C05786155047877
:1006800004F01F050124AC4005786D11AD0005F1A3
:10069000E025C5F8004109E0047804F01F050124B5
:1006A000AC40054D0678761145F8264070BD000037
:1006B0000CED00E000E400E080E100E070470000A5
:1006C00029B1064A12680243044B1A6004E0034A47
:1006D00012688243014B1A607047000030380240B4
:1006E00029B1064A12680243044B1A6004E0034A27
:1006F00012688243014B1A60704700004038024084
:100700001448006840F001001249086000201149B7
:10071000083108600F4800680F4908400D4908601B
:100720000E48091D08600E480A49843108600B48CC
:100730001038091D08600748006820F4802005492A
:100740000860002003490C31086002498C310860C0
:100750007047000000380240FFFFF6EA1030002426
:1007600000300020F0B500210022002402250026E0
:100770000223324F3F6807F00C0121B1042905D054
:10078000082937D105E02E4F076036E02D4F07606E
:1007900033E02A4F3F1F3F68C7F38056274F3F1F64
:1007A0003F6807F03F036EB1264FB7FBF3F7DFF862
:1007B0008CC0ACF1040CDCF800C0CCF3881C07FB47
:1007C0000CF40CE01E4FB7FBF3F7DFF870C0ACF190
:1007D000040CDCF800C0CCF3881C07FB0CF4174FAA
:1007E0003F1F3F68C7F301477F1C7D00B4FBF5F74F
:1007F000076002E0124F076000BF00BF0F4F3F6865
:1008000007F0F0010909104F7A5C0768D74047608C
:100810000A4F3F6807F4E051890A0B4F7A5C47683A
:10082000D7408760054F3F6807F46041490B064F8A
:100830007A5C4768D740C760F0BD000008380240C6
:100840000024F40000127A001800002010B50146C0
:100850000022002300204A11012A02D10A4C2368F9
:1008600008E0022A03D1084C7034236802E0064CE9
:100870007434236801F01F02012494401C400CB121
:10088000012000E0002010BD00380240024800684E
:1008900000F00C00704700000838024001460020BC
:1008A000034A106820F0F000084310607047000011
:1008B000083802400021024A117011460870704742
:1008C0000238024001460020034A106820F4E0503C
:1008D00008431060704700000838024001460020BD
:1008E000034A106820F4604040EAC100106070477D
:1008F000083802400149086670470000000047427E
:1009000070B5049C41EA82150126C6EB530645EA00
:100910000645054345EA0465014E356070BD00009B
:100920000438024001460020034A106820F003000A
:1009300008431060704700000838024038B50020B6
:1009400000900024002500BF3120FFF77FFF0546FF
:100950000098401C00900098B0F5A04F01D0002DE9
:10096000F2D03120FFF772FF08B1012400E000242B
:10097000204638BD704700000CB500200190009063
:100980003448006840F480303249086000BF314884
:10099000006800F4003000900198401C019000981D
:1009A00018B90198B0F5A04FF1D12A48006800F4B9
:1009B000003010B10120009001E00020009000986C
:1009C000012846D123484030006840F0805021493A
:1009D000403108602048006840F440401E490860EB
:1009E0001C48083000681B49083108600846006848
:1009F00040F4004008600846006840F4A0500860D9
:100A00001648091F0860081F006840F08070091F21
:100A1000086000BF0F48006800F000700028F9D09F
:100A200040F205700E4908600A480830006820F05E
:100A300003000849083108600846006840F00200D9
:100A4000086000BF03480830006800F00C00082868
:100A5000F8D10CBD00380240007000401954400726
:100A6000003C0240042808D14FF0E021096941F020
:100A700004014FF0E022116107E04FF0E021096925
:100A800021F004014FF0E0221161704710B500F031
:100A900071F810BD08B5FFF733FE0120FFF70AFF1C
:100AA000FFF74CFF012830D10520FFF7B1FC0120F2
:100AB000FFF79CFC0120FFF787FC0120FFF772FC89
:100AC0000020FFF7EBFE4FF4A050FFF7FBFE4FF4C2
:100AD0008050FFF703FF072002234FF4A87208217C
:100AE0000090C804FFF70CFF0120FFF703FF00BFD1
:100AF0003920FFF7ABFE0028FAD00220FFF712FFE3
:100B000000BFFFF7C3FE0828FBD108BD10B515488C
:100B1000006840F47000134908601348006840F012
:100B200001001149086000200F49083108600E4893
:100B300000680E4908400C4908600D48091D08600E
:100B4000081F006820F48020091F08600020064963
:100B50000C310860FFF710FF4FF000600149803949
:100B6000086010BD88ED00E000380240FFFFF6FE8F
:100B7000103000240448006820B103480068401E7B
:100B800001490860704700000000002010B50024F3
:100B900040F22551054800F034F830B1034800F028
:100BA000C5F8C4B2204600F003F810BD0044004070
:100BB00010B5044600BF8021044800F015F8002855
:100BC000F9D02146014800F0B6F810BD00440040BD
:100BD00021B1828942F40052828104E082894DF67B
:100BE000FF731A408281704702460020B1F5007FF2
:100BF00000D100BF13880B400BB1012000E00020A2
:100C0000704770B50246002400230025002040F6FE
:100C10006A16B14200D100BFC1F3421501F01F03B3
:100C2000012606FA03F3012D02D19689334006E02E
:100C3000022D02D1168A334001E0968A33400C120D
:100C4000012606FA04F41688344013B10CB10120D1
:100C500000E0002070BD00002DE9FF4705460E466C
:100C60000024A14600BFA046B08900B100BF2C8A75
:100C700024F44054F08804432C82AC8941F20C6087
:100C80008443B08831890843718908430443AC81A7
:100C9000AC8A24F44074B0890443AC826846FFF700
:100CA00061FD2048854202D01F48854202D1DDF80F
:100CB0000C9001E0DDF80890A88900F4004040B1F4
:100CC00009EBC90000EB091031684900B0FBF1F7EE
:100CD00007E009EBC90000EB091031688900B0FB9F
:100CE000F1F76420B7FBF0F004012009642101FB57
:100CF0001078A88900F4004040B1322000EBC80011
:100D0000B0FBF1F000F00700044308E0322000EBF4
:100D100008106421B0FBF1F000F00F0004432C81B7
:100D2000BDE8FF870010014000140140014688889B
:100D3000C0F308007047C1F308028280704700BF0B
:100D4000FEE700BF704710B50220FFF715FBFFF765
:100D5000A1FE00F009F8FFF709FCFFF725FC4FF4AE
:100D6000E13000F04FF810BD10B50E4800680E4994
:100D7000B0FBF1F0C4B26FF00400FFF773FEE117AF
:100D800004EB5171C910094A11701046007800EB4C
:100D90004001C1EBC0104FF6FF7101EAC0000449E9
:100DA000088010BD0400002040420F0028000020F1
:100DB0002A00002000BF054A128802F04002002AE3
:100DC000F9D0C2B2014B9A80704700000010014078
:100DD000FFF7B9FF07A0FFF749FAFFF7B1FB08E0FB
:100DE0000020FFF7F9FB20B1FFF796FB0120044933
:100DF0000860F5E7737461727421200D0A00000029
:100E0000B082414210B588B0044601214804FFF782
:100E100067FC01210846FFF753FC07220221224804
:100E2000FFF744FB072203211F48FFF73FFB022087
:100E30008DF81C0000208DF81E0001208DF81F0089
:100E400002208DF81D000820069006A91648FFF71D
:100E5000E5FA0420069006A91348FFF7DFFA02948A
:100E60000020ADF80C00ADF80E00ADF81000ADF8A4
:100E700014000820ADF8120002A90C48FFF7ECFEA0
:100E800001210A48FFF7A4FE26208DF80400002067
:100E90008DF8050001208DF806008DF8070001A8E7
:100EA000FFF7D0FB08B010BD000002400044004036
:100EB0004FF04070E1EE100A70470000DC0E0008B1
:100EC0000000002034000000C4010008100F0008DA
:100ED0003400002064060000E0010008000000006B
:100EE000007A030A00000000000000000102030471
:100EF00006070809000000000102030401020304C0
:100F000006070809000000000000000000000000C3
:040000050800018965
:00000001FF
