:020000040800F2
:10000000780600202902000841040008FB030008CC
:100010003D040008E30200089D08000800000000FD
:1000200000000000000000000000000011060008B1
:10003000E702000800000000430400080107000870
:10004000430200084302000843020008430200087C
:10005000430200084302000843020008430200086C
:10006000430200084302000843020008430200085C
:10007000430200084302000843020008430200084C
:10008000430200084302000843020008430200083C
:10009000430200084302000843020008430200082C
:1000A000430200084302000843020008430200081C
:1000B000430200084302000843020008430200080C
:1000C00043020008430200084302000843020008FC
:1000D00043020008430200084302000843020008EC
:1000E00043020008430200084302000843020008DC
:1000F00043020008430200084302000843020008CC
:1001000043020008430200084302000843020008BB
:1001100043020008430200084302000843020008AB
:10012000430200084302000843020008430200089B
:10013000430200084302000843020008430200088B
:10014000430200084302000843020008430200087B
:10015000430200084302000843020008430200086B
:10016000430200084302000843020008430200085B
:10017000430200084302000843020008430200084B
:10018000430200084302000800F002F800F03CF8C7
:100190000AA090E8000C82448344AAF10107DA45E2
:1001A00001D100F031F8AFF2090EBAE80F0013F0F8
:1001B000010F18BFFB1A43F001031847980700000E
:1001C000B8070000103A24BF78C878C1FAD852079F
:1001D00024BF30C830C144BF04680C6070470000C1
:1001E0000023002400250026103A28BF78C1FBD840
:1001F000520728BF30C148BF0B6070471FB500F0E1
:10020000A3FB1FBD10B510BD00F031F81146FFF77C
:10021000F5FF00F063FB00F04FF803B4FFF7F2FFC7
:1002200003BC00F057F80000094880470948004720
:10023000FEE7FEE7FEE7FEE7FEE7FEE7FEE7FEE796
:10024000FEE7FEE704480549054A064B70470000F3
:100250008107000889010008780000207806002046
:10026000780200207802002070477047704775467A
:1002700000F02CF8AE4605006946534620F0070012
:10028000854618B020B5FFF7DDFFBDE820404FF0F0
:1002900000064FF000074FF000084FF0000B21F070
:1002A0000701AC46ACE8C009ACE8C009ACE8C0093D
:1002B000ACE8C0098D46704710B50446AFF3008026
:1002C0002046BDE81040FFF7A8BF00000048704777
:1002D0001400002001491820ABBEFEE726000200F2
:1002E000704700BFFEE7704730B10749096841F425
:1002F0008061054A116005E00349096821F48061C5
:10030000014A116070470000003C024030B10749CB
:10031000096841F40071054A116005E00349096864
:1003200021F40071014A116070470000003C024056
:1003300030B10749096841F48071054A116005E050
:100340000349096821F48071014A11607047000077
:10035000003C0240014A107070470000003C02401F
:10036000F0B50A4600210023002400BF3DE001252E
:1003700005FA01F3156805EA03049C4234D10568C7
:100380004F000326BE40B543056015794E00B540C9
:100390000668354305601579012D02D01579022DC7
:1003A00016D185684F000326BE40B5438560557958
:1003B0004E00B540866835438560456801268E400D
:1003C000B5434560456896798E40B6B23543456081
:1003D000C5684F000326BE40B543C560D5794E00C1
:1003E000B540C6683543C560491C1029BFD3F0BD70
:1003F0000A04826170478161704700BFFEE7000018
:100400001CB50121082000F01DF84FF48050009029
:1004100001208DF8040000208DF805008DF80700FC
:100420008DF8060069460348FFF79AFF002002494D
:1004300008601CBD000C0240B082414200BFFEE7D4
:100440007047704729B1064A12680243044B1A608C
:1004500004E0034A12688243014B1A6070470000AF
:100460003038024029B1064A12680243044B1A6030
:1004700004E0034A12688243014B1A60704700008F
:10048000403802401448006840F0010012490860FA
:1004900000201149083108600F4800680F490840E2
:1004A0000D4908600E48091D08600E480A4984314C
:1004B00008600B481038091D08600748006820F4E0
:1004C000802005490860002003490C31086002497A
:1004D0008C3108607047000000380240FFFFF6EAE8
:1004E000103000240030002010B501460022002307
:1004F00000204A11012A02D10A4C236808E0022A8E
:1005000003D1084C7034236802E0064C743423682D
:1005100001F01F02012494401C400CB1012000E0B6
:10052000002010BD003802400248006800F00C00B6
:10053000704700000838024001460020034A106856
:1005400020F0F000084310607047000008380240B7
:100550000021024A117011460870704702380240AB
:1005600001460020034A106820F4E0500843106060
:10057000704700000838024001460020034A106816
:1005800020F4604040EAC100106070470838024023
:1005900001490866704700000000474270B5049C9E
:1005A00041EA82150126C6EB530645EA0645054396
:1005B00045EA0465014E356070BD00000438024014
:1005C00001460020034A106820F003000843106031
:1005D000704700000838024038B500200090002421
:1005E000002500BF3120FFF77FFF05460098401C23
:1005F00000900098B0F5A04F01D0002DF2D031202E
:10060000FFF772FF08B1012400E00024204638BD46
:10061000704700000CB5002001900090344800683D
:1006200040F480303249086000BF3148006800F46F
:10063000003000900198401C0190009818B9019872
:10064000B0F5A04FF1D12A48006800F4003010B195
:100650000120009001E0002000900098012846D180
:1006600023484030006840F0805021494031086004
:100670002048006840F440401E4908601C4808308B
:1006800000681B49083108600846006840F40040D3
:1006900008600846006840F4A05008601648091F2A
:1006A0000860081F006840F08070091F086000BFE4
:1006B0000F48006800F000700028F9D040F2057083
:1006C0000E4908600A480830006820F00300084915
:1006D000083108600846006840F00200086000BF6A
:1006E00003480830006800F00C000828F8D10CBD61
:1006F000003802400070004019544007003C02409E
:1007000010B500F0BFF810BD08B5FFF7BBFE012023
:10071000FFF71EFFFFF760FF012830D10520FFF72C
:1007200019FE0120FFF704FE0120FFF7EFFD012075
:10073000FFF7DAFD0020FFF7FFFE4FF4A050FFF7B0
:100740000FFF4FF48050FFF717FF072002234FF4ED
:10075000A87208210090C804FFF720FF0120FFF7CE
:1007600017FF00BF3920FFF7BFFE0028FAD0022094
:10077000FFF726FF00BFFFF7D7FE0828FBD108BD13
:1007800010B51548006840F470001349086013481C
:10079000006840F001001149086000200F4908314D
:1007A00008600E4800680E4908400C4908600D4872
:1007B000091D0860081F006820F48020091F0860D8
:1007C000002006490C310860FFF724FF4FF000605D
:1007D00001498039086010BD88ED00E00038024012
:1007E000FFFFF6FE1030002421B1028842F0010222
:1007F000028004E002884FF6FE731A4002807047C0
:1008000000220288184B98420ED0184B98420BD009
:10081000B0F1804F08D0164B984205D0154B984246
:1008200002D0154B984204D14FF68F731A404B8873
:100830001A43124B984207D0114B984204D04FF6FE
:10084000FF431A400B891A4302804B68C3620B882E
:100850000385054B984202D0044B984201D18B7A14
:100860000386012383827047000001400004014099
:100870000004004000080040000C00400010004050
:10088000001400400448006820B103480068401E7E
:1008900001490860704700000000002000BFFEE72B
:1008A00001460D4A12884A434FF0E0235A61002264
:1008B0009A6101221A6100BF4FF0E022106900F036
:1008C00001021AB100F48032002AF5D000224FF064
:1008D000E0231A619A61704706000020FFF714FFB9
:1008E00001212020FFF7BEFD0120FFF731FE00BFF0
:1008F000FFF772FE0028FBD05320104908806320C8
:1009000048600F48FFF77CFF01210D48FFF76CFF9F
:10091000FFF776FD11E04FF480510A48FFF76BFDB9
:100920004FF41670FFF7BCFF4FF480510548FFF7F6
:100930005FFD4FF41670FFF7B3FFECE708000020EF
:1009400000140040000C02404FF04070E1EE100A2D
:100950007047000074090008000000200800000033
:10096000C40100087C09000808000020700600008F
:0C097000E0010008000000000000000092
:040000050800018965
:00000001FF
