:020000040800F2
:100000008806002029020008E9030008A30300086D
:10001000E5030008E3020008AD0700080000000047
:10002000000000000000000000000000A90400081B
:10003000110300080000000065040008C105000865
:10004000430200084302000843020008430200087C
:10005000430200084302000843020008430200086C
:10006000430200084302000843020008430200085C
:10007000430200084302000843020008430200084C
:10008000430200084302000843020008430200083C
:10009000430200084302000843020008430200082C
:1000A000430200084302000843020008430200081C
:1000B000430200084302000843020008430200080C
:1000C00043020008430200084302000843020008FC
:1000D00043020008430200084302000843020008EC
:1000E00043020008430200084302000843020008DC
:1000F00043020008430200084302000843020008CC
:1001000043020008430200084302000843020008BB
:1001100043020008430200084302000831060008B9
:10012000430200084302000843020008430200089B
:10013000430200084302000843020008430200088B
:10014000430200084302000843020008430200087B
:10015000430200084302000843020008430200086B
:10016000430200084302000843020008430200085B
:10017000430200084302000843020008430200084B
:10018000430200084302000800F002F800F03CF8C7
:100190000AA090E8000C82448344AAF10107DA45E2
:1001A00001D100F031F8AFF2090EBAE80F0013F0F8
:1001B000010F18BFFB1A43F001031847DC060000CB
:1001C000FC060000103A24BF78C878C1FAD852075C
:1001D00024BF30C830C144BF04680C6070470000C1
:1001E0000023002400250026103A28BF78C1FBD840
:1001F000520728BF30C148BF0B6070471FB500F0E1
:1002000045FB1FBD10B510BD00F031F81146FFF7DA
:10021000F5FF00F037FB00F04FF803B4FFF7F2FFF3
:1002200003BC00F057F80000094880470948004720
:10023000FEE7FEE7FEE7FEE7FEE7FEE7FEE7FEE796
:10024000FEE7FEE704480549054A064B70470000F3
:10025000C9050008890100088800002088060020E0
:10026000880200208802002070477047704775465A
:1002700000F02CF8AE4605006946534620F0070012
:10028000854618B020B5FFF7DDFFBDE820404FF0F0
:1002900000064FF000074FF000084FF0000B21F070
:1002A0000701AC46ACE8C009ACE8C009ACE8C0093D
:1002B000ACE8C0098D46704710B50446AFF3008026
:1002C0002046BDE81040FFF7A8BF00000048704777
:1002D0002400002001491820ABBEFEE726000200E2
:1002E000704700BFFEE700000146072323EA010232
:1002F0001202054B18684FF6FF031840034B1843D2
:100300001043014B186070470CED00E00000FA0547
:100310007047F0B50A4600210023002400BF3DE0ED
:10032000012505FA01F3156805EA03049C4234D15E
:1003300005684F000326BE40B543056015794E00A1
:10034000B5400668354305601579012D02D0157951
:10035000022D16D185684F000326BE40B543856047
:1003600055794E00B540866835438560456801265D
:100370008E40B5434560456896798E40B6B23543A8
:100380004560C5684F000326BE40B543C560D579BA
:100390004E00B540C6683543C560491C1029BFD31F
:1003A000F0BD00BFFEE700001CB50121082000F0F1
:1003B0005BF84FF48050009001208DF8040000207D
:1003C0008DF805008DF807008DF806006946034892
:1003D000FFF79FFF0020024908601CBD000C02408F
:1003E000B082414200BFFEE77047000070B50021B7
:1003F00000230F22C4781CB3174C246804F4E06473
:10040000C4F5E064C4F30721C1F10404E3B20A4176
:1004100044789C40E1B28478144021430C07210EBB
:100420000E4C05786155047804F01F050124AC409A
:1004300005786D11AD0005F1E025C5F8004109E032
:10044000047804F01F050124AC40054D06787611B0
:1004500045F8264070BD00000CED00E000E400E02F
:1004600080E100E07047000029B1064A12680243AB
:10047000044B1A6004E0034A12688243014B1A607D
:10048000704700003038024029B1064A1268024322
:10049000044B1A6004E0034A12688243014B1A605D
:1004A0007047000040380240704700000CB5002043
:1004B000019000903448006840F480303249086070
:1004C00000BF3148006800F4003000900198401CE3
:1004D0000190009818B90198B0F5A04FF1D12A48C1
:1004E000006800F4003010B10120009001E000200D
:1004F00000900098012846D123484030006840F021
:1005000080502149403108602048006840F4404054
:100510001E4908601C48083000681B490831086003
:100520000846006840F4004008600846006840F44F
:10053000A05008601648091F0860081F006840F0B6
:100540008070091F086000BF0F48006800F000704D
:100550000028F9D040F205700E4908600A480830BA
:10056000006820F003000849083108600846006868
:1005700040F00200086000BF03480830006800F047
:100580000C000828F8D10CBD003802400070004073
:1005900019544007003C0240042808D14FF0E021E4
:1005A000096941F004014FF0E022116107E04FF0CA
:1005B000E021096921F004014FF0E0221161704748
:1005C00010B500F0E7F810BD10B51548006840F40C
:1005D0007000134908601348006840F00100114999
:1005E000086000200F49083108600E4800680E4975
:1005F00008400C4908600D48091D0860081F006884
:1006000020F48020091F0860002006490C31086092
:10061000FFF74CFF4FF0006001498039086010BDC2
:1006200088ED00E000380240FFFFF6FE10300024A5
:1006300010B50121074800F051F850B101210548DB
:1006400000F03DF804480088401C0349088000F091
:10065000BBF810BD00140040200000201FB5012190
:100660002020FFF711FF2920ADF8040044F61F6099
:10067000029001A90F4800F04BF801210D4800F04D
:100680001BF8012211460B4800F039F837208DF88D
:10069000000004208DF8010002208DF802000120E6
:1006A0008DF803006846FFF7A1FE0121014800F024
:1006B00009F81FBD00140040CA4302827047CA43B4
:1006C0000282704721B1028842F00102028004E0F8
:1006D00002884FF6FE731A400280704730B502461A
:1006E000002000230024158A05EA0103958905EA04
:1006F000010413B10CB1012000E0002030BD1AB19B
:1007000083890B43838102E083898B438381704714
:1007100000220288184B98420ED0184B98420BD0FA
:10072000B0F1804F08D0164B984205D0154B984237
:1007300002D0154B984204D14FF68F731A404B8864
:100740001A43124B984207D0114B984204D04FF6EF
:10075000FF431A400B891A4302804B68C3620B881F
:100760000385054B984202D0044B984201D18B7A05
:10077000038601238382704700000140000401408A
:100780000004004000080040000C00400010004041
:10079000001400400448006820B103480068401E6F
:1007A00001490860704700000000002000BFFEE71C
:1007B00010B50220FFF798FD00F03EF8FFF7F4FDBA
:1007C000FFF74CFF10BD00001748008858B91748C4
:1007D0000088B0F5967F25DD0020144908800120AF
:1007E000114908801EE01148008814281ADD0020F5
:1007F0000E4908800E48006808B9012000E000207A
:100800000B4908600B480088401C0A4908800846CC
:100810000088062806D1002005490860054908809F
:1008200001490880704700001C00002020000020C3
:10083000B08241421E00002010B50E4800680E49EB
:10084000B0FBF1F0C4B26FF00400FFF7A5FEE117B2
:1008500004EB5171C910094A11701046007800EB81
:100860004001C1EBC0104FF6FF7101EAC00004491E
:10087000088010BD0400002040420F001800002036
:100880001A000020FFF794FF00BFFEE74FF0407012
:10089000E1EE100A70470000B808000800000020D0
:1008A00024000000C4010008DC0800082400002027
:1008B00064060000E001000800000000007A030A5E
:1008C0000000000000000000010203040607080900
:0C08D0000000000000000000000000001C
:040000050800018965
:00000001FF
