:020000040800F2
:10000000A8080020410200083D1700088F140008CE
:100010003917000811130008F9210008000000003A
:10002000000000000000000000000000AD1E0008FD
:100030003D13000800000000E91900089D1F00089A
:100040005B0200085B0200085B0200085B0200081C
:100050005B0200085B0200085B0200085B0200080C
:100060005B0200085B0200085B0200085B020008FC
:100070005B0200085B0200085B0200085B020008EC
:100080005B0200085B0200085B0200085B020008DC
:100090005B0200085B0200085B0200085B020008CC
:1000A0005B0200085B0200085B0200085B020008BC
:1000B0005B0200085B0200085B0200085B020008AC
:1000C0005B0200085B0200085B0200085B0200089C
:1000D0005B0200085B0200085B0200085B0200088C
:1000E0005B0200085B0200085B0200085B0200087C
:1000F0005B0200085B0200085B0200085B0200086C
:100100005B0200085B0200085B0200085B0200085B
:100110005B0200085B0200085B0200088520000803
:100120005B0200085B0200085B0200085B0200083B
:100130005B0200085B0200085B0200085B0200082B
:100140005B0200085B0200085B0200085B0200081B
:100150005B0200085B0200085B0200085B0200080B
:100160005B0200085B0200085B0200085B020008FB
:100170005B0200085B0200085B0200085B020008EB
:100180005B0200085B02000800F002F800F049F88A
:100190000AA090E8000C82448344AAF10107DA45E2
:1001A00001D100F03EF8AFF2090EBAE80F0013F0EB
:1001B000010F18BFFB1A43F0010318471C4B000046
:1001C0003C4B0000103A24BF78C878C1FAD85207D7
:1001D00024BF30C830C144BF04680C6070470000C1
:1001E0000023002400250026103A28BF78C1FBD840
:1001F000520728BF30C148BF0B607047662902F024
:100200001581002070471FB502F00BF900F02CFBA0
:1002100004000020002102F077F8E0601FBD10B557
:1002200010BD00F045FC1146FFF7EDFF02F012F89B
:1002300000F063FC03B4FFF7F2FF03BC00F0A6FC80
:100240000948804709480047FEE7FEE7FEE7FEE76A
:10025000FEE7FEE7FEE7FEE7FEE7FEE704480549A6
:10026000054A064B704700001D2000088901000860
:10027000A8020020A8080020A8040020A80400204C
:100280000FB41CB5074B06AA7B446946009005983D
:1002900000F0AFFA0020694600F0BEFA1CBC5DF821
:1002A00014FB00008D0500002DE9F0474FF0000A17
:1002B00089460446C0F820A02046E1688847002807
:1002C00076D0252806D0D4E901219047206A401C29
:1002D0002062F1E7E168204600258847C4F81CA0A9
:1002E00006460027C4F818A02A2E09D0304601F08F
:1002F0009DFF38B304EB8708303EC8F8186019E05A
:1003000059F8041B204604EB87029161E168884795
:10031000012F064618D1E069002820DA25F02005D3
:100320001DE0D8F8180000EB800006EB40003038E4
:10033000C8F818002046E1688847064601F076FFB5
:100340000028EED1012F0AD02E2E08D12046E168D8
:1003500088477F1C0646022F45F02005C4DBA069B4
:10036000002803DA404245F00105A061E80701D00A
:1003700025F01005B6B1A6F14100192802D82036A3
:1003800045F400654A463146204625604D46FFF754
:1003900035FF58B1012806D0ED1D25F0070000F10A
:1003A000080989E704E005F1040985E730468AE792
:1003B000206ABDE8F08702F0FF0343EA032242EA25
:1003C000024200F030BA70477047704770472DE91D
:1003D000FF4F0C461E464FF0FF378BB0D2E90001AD
:1003E000DDF860800A908A46C1F30A5505B93D469A
:1003F000002108464FF00000BAF1000F00F4400061
:1004000005DA00EB80004FF4400101EA50004FEAAA
:100410009059B9F1010F00DDB9460A9850EA4A0037
:100420000ED044F61050A5F2FF3545432F14B8F115
:10043000000F1ED07542291E1EDDC9F100021CE00E
:10044000B8F1010F4FF0000001D0302103E0F2437A
:1004500005E02154401CB042FBDB30460022002165
:1004600021540B99C1F80880C1E900200FB0BDE804
:10047000F08FBD1B6D1CDEE74A4600DA694206A814
:1004800000F07CFA06AB93E8070003AB83E80700B3
:1004900050460A9900F081FB8DE80700A0F5005056
:1004A0001F3800900398002D09DD42F21F014A46D3
:1004B000084403A90390684600F0E0FD08E0A0F5B9
:1004C00000504A461F3803A90390684600F0EAFD31
:1004D0008DE807000004000C03D04FF0FF30410806
:1004E00000E01046B8F1000F03D00022009215463C
:1004F0001EE0751E05D400F0BBF9303262556D1E4A
:10050000F9D5B3460122084302D000227F1C04E043
:100510002078302801D100227F1E002A099786D03A
:100520001DE0112D07DA00F0A3F9303262556D1C81
:1005300050EA0102F5D1084302D00098C8B10EE09C
:100540000021681E05E0235C625C63542254401E57
:10055000491C8142F7DBAB46A81B401E09900020D6
:1005600004F80B000B98099AC0F80880C0E9002B2A
:100570007CE711264FF0000859E72DE9F04F884637
:100580000446D21D22F0070191B0D1E90001CDE966
:100590000A0101F033FE02460B98C00F01D02D2056
:1005A00007E02068810701D52B2002E0202101EA25
:1005B000C000032A099001D0072A05DB0346414603
:1005C000204600F09BF90BE12078800601D5E06918
:1005D00000E00620B8F1650F814606D0B8F1660F3D
:1005E00018D0B8F1670F70D131E00020B9F1110FC8
:1005F000009001DB112301E009F101030AAA01A91E
:100600000CA8FFF7E4FEDDE90C70002609F10105F6
:10061000834647E001204B4600904FF000470AAA6E
:1006200001A90CA8FFF7D3FEDDE90DB00C995D46DA
:10063000002610B909F101000D18B9EB050003D42B
:10064000C0F1FF3609F10105A5EB09002BE0B9F176
:10065000010F01DA4FF001090020B9F1110F0090EC
:10066000484601DD112300E003460AAA01A90CA8AF
:10067000FFF7ADFEDDE90C704D460026834620787D
:1006800000070AD4AB4500DA5D4601A8012D04DD60
:10069000411911F8011C302907D04F4502DA17F132
:1006A000040F04DA012082460FE06D1EEEE7002FF2
:1006B00002DCED1B3E4403E0781CA84200DD7D1CFB
:1006C000B81B00F1010A4FF000472078000703D45F
:1006D000AA4501DB4FF0FF3A0021B7F1004F0DF1C1
:1006E00043088DF8431024D002202B23002F01DA79
:1006F0007F422D230A21021EA0F1010000DC5FB120
:1007000097FBF1FC97FBF1F201FB1C7C17460CF107
:10071000300C08F801CDEEE7A8F101000370218844
:10072000090501D5452100E06521A0F1010800F887
:10073000011C09980FA9A1EB0807FF1D00B10120BA
:10074000411901EBEA70A1693844081A401EA06102
:100750002078C00602D42046AFF30080099828B163
:10076000D4E901219047206A401C20622078C0060D
:1007700022D52046AFF300801EE0002E04DBB345F7
:1007800002DD01A8805D00E03020D4E9012190471E
:10079000206A401C2062761CAAF101005FEA000A70
:1007A0000AD100F061F8C0680168405CD4E9012119
:1007B0009047206A401C2062281EA5F10105DCDC60
:1007C00007E0D4E9012118F8010B9047206A401C8A
:1007D0002062381EA7F10107F3DC2046AFF300804A
:1007E000032011B043E6000001694A1C0261087849
:1007F000704700B58FB0CDE9013100210591054961
:100800007944CDE9031011466846FFF74DFD0FB05E
:1008100000BD0000E5FFFFFF0A6802F8010B0A6057
:1008200070474FF000020429C0F0128010F0030C52
:1008300000F01481CCF1040CBCF1020F18BF00F8D9
:10084000012BA8BF20F8022BA1EB0C0100F006B988
:100850005FEAC17C24BF00F8012B00F8012B48BFE0
:1008600000F8012B70470000004870476402002028
:1008700030B5B0F10A024FEA900E71F100034EEA72
:10088000817EB0EB0E0061EB91014FEA101E4EEA43
:10089000017E10EB0E0041EB11114FEA102E4EEAD3
:1008A000016E10EB0E0041EB11214FEA104E4EEAA3
:1008B000014E10EB0E0041EB1141401841F10001D7
:1008C0004FEAD00040EA41704FEAD10110EB8005B9
:1008D0004FEA810444EA907444EB01046D1944EB3F
:1008E0000404521BA3414FF0000348BF0A3200D555
:1008F00030BD401C41F1000130BD00002DE9F04148
:100900001F46044603260168072A01F4006004DB41
:1009100008B116A505E016A503E008B115A500E08D
:1009200015A521F010002060A069C01EA0610FB1C4
:10093000401EA0612046AFF300804FB1D4E90121F1
:1009400038469047206A401C2062C01C206206E0A6
:10095000206AFAE7D4E9012115F8010B9047761EC9
:10096000F8D22046AFF30080BDE8F0814E414E0042
:100970006E616E00494E4600696E66002DE9F047D3
:10098000814616468AB0334878440DC88DE80D007C
:1009900030487844801C03AC0DC884E80D0041F653
:1009A0009B300844372190FBF1F290FBF1F5A5F163
:1009B000800501FB12041B3C02D56442012000E0CB
:1009C0000020DFF890A080460027FA44AAF1BE0A72
:1009D0000DE0E00709D03246684607EB47010AEB15
:1009E000810100F05FFB8DE8070064107F1C002C84
:1009F000EFD1184F7F44AC3F18E0E80714D007EB65
:100A000004100DF1180A90E80E008AE80E00C06884
:100A1000F04201D198190890324606A903A800F0C7
:100A200041FB03AB83E807006D10641C002DE4D18B
:100A300032466946B8F1000F03A802D000F01EFB51
:100A400001E000F02FFBC9E90001C9F808200AB055
:100A5000BDE8F087344300004FF0000200B51346B4
:100A600094469646203922BFA0E80C50A0E80C50CE
:100A7000B1F12001BFF4F7AF090728BFA0E80C507F
:100A800048BF0CC05DF804EB890028BF40F8042B78
:100A900008BF704748BF20F8022B11F0804F18BFE5
:100AA00000F8012B70470000004870474402002006
:100AB0007546FFF7F9FFAE4605006946534620F03C
:100AC0000700854618B020B5FFF7C8FBBDE82040F9
:100AD0004FF000064FF000074FF000084FF0000BFA
:100AE00021F00701AC46ACE8C009ACE8C009ACE8AD
:100AF000C009ACE8C0098D46704710B50446AFF395
:100B000000802046BDE81040FFF794BB4FF0013C49
:100B100050F8042B51F8043B9A4221D1A2EB0C036C
:100B2000934313EACC1317D150F8042B51F8043B2C
:100B30009A4215D1A2EB0C03934313EACC130BD1C9
:100B400050F8042B51F8043B9A4209D1A2EB0C0354
:100B5000934313EACC13DBD04FF00000704700BF83
:100B6000D01A01BAB1FA81F101F0180122FA01F0AC
:100B7000CB40C1F12001DBB2C0B2C01A2CFA01F3A4
:100B8000D11A914311EAC311E6D1704701491820E7
:100B9000ABBEFEE72600020070475FEA400C08BFCC
:100BA00091F0000F4FEA8C234FEAC12243EA5151E2
:100BB0004FEA1C5018BF00F5F0404FEA300018BF54
:100BC00041F000415FEA6C5C00F02980BCF1FF3F1E
:100BD00008BF40F080407047130C06BF12044FF06E
:100BE000100C4FF0000C130E04BF12020CF1080C95
:100BF000130F04BF12010CF1040C930F04BF9200F9
:100C00000CF1020CD30F04BF52000CF1010C114681
:100C10004FF00002A0F11F00A0EB0C00704711F094
:100C2000004F08BF704731F000413FF4D5AF0B0CC7
:100C300006BF09044FF0100C4FF0000C0B0E04BF60
:100C400009020CF1080C0B0F04BF09010CF1040C94
:100C50008B0F04BF89000CF1020CCB0F04BF4900BD
:100C60000CF1010CCCF12003A0EB0C0022FA03F3F1
:100C700002FA0CF241EA030100F10100704720F092
:100C80007F4C80EA030023F07F47ACEB070303F5BA
:100C90007C5300F0004003F1FF032DE980494FEA47
:100CA000154B09B44FEA144325EA0B4E24EA0348D6
:100CB0000FF2042606EB132749083E785FEA32025A
:100CC00003FB0667C7F5000707FB06F64FEA543734
:100CD0004FEAD64606F1020607FB066CCCF1005C33
:100CE0004FEA1C472CEA074C07FB06F40CFB06F501
:100CF00004EB15464FEA961634BF00204FF0004033
:100D00004FEAD13706FB07FC4FEA1C4C0CFB0BF7F4
:100D1000D21B03FB0CF761EB07010CFB0EF7B0EBEA
:100D2000074072EB17420CFB08F734BFA2EB0742F7
:100D3000B2EB074261EB17414FEA0C444FEA9107CF
:100D400006FB07FC4FEA1C4C0CFB0BF7B0EBC74053
:100D500072EB573203FB0CF734BFA2EBC742B2EB86
:100D6000C74261EB57310CFB0EF7B0EBC70072EBDB
:100D700057720CFB08F734BFA2EBC702B2EBC702F5
:100D800061EB5771039F4FEA816141EA921104EBD5
:100D9000CC044FEAD1374FEA826206FB07FC42EAF5
:100DA00090124FEA80604FEA1C4C0CFB0BF7D21BF1
:100DB00003FB0CF761EB07010CFB0EF7B0EB0740F0
:100DC00072EB17420CFB08F734BFA2EB0742B2EB01
:100DD000074261EB17414FEA8C554FEA910704EB4C
:100DE0009C2406FB07FC4FEA1C4C0CFB0BF7B0EBFA
:100DF000C74072EB573203FB0CF734BFA2EBC7427C
:100E0000B2EBC74261EB57310CFB0EF7B0EBC700FA
:100E100072EB57720CFB08F734BFA2EBC702B2EBC0
:100E2000C70261EB577115EB4C254FEA816141EA2E
:100E300092114FEA82624FEAD13742EA901206FBE2
:100E400007FC44F100044FEA80604FEA1C4C0CFBA5
:100E50000BF7D21B03FB0CF761EB07010CFB0EF742
:100E6000B0EB074072EB17420CFB08F734BFA2EB64
:100E70000742B2EB074261EB174115EB1C154FEA35
:100E8000813141EA92414FEA823242EA90424FEA8E
:100E900080304FEA0C7644F1000448EA03434EEAFE
:100EA0000B484FF0000EB2EB080C71EB030724BFA8
:100EB000624639464EEB0E0E4FF0000B00185241C1
:100EC00049414BEB0B0BB2EB080C71EB03077BF1C9
:100ED000000B24BF624639464EEB0E0E4FF0000B5E
:100EE0000018524149414BEB0B0BB2EB080C71EB74
:100EF00003077BF1000B24BF624639464EEB0E0E12
:100F000051EA020718BF46F0010616EB0E7655F1BE
:100F1000000254F1000103D5BDE88901BDE8008855
:100F2000BDE88901BDE80048B619524141EB010115
:100F3000A3F10103704780807F7E7D7C7B7A797886
:100F4000777676757473727171706F6E6E6D6C6C8E
:100F50006B6A6A6968686766666564646363626130
:100F60006160605F5F5E5E5D5D5C5C5B5B5A5A59B1
:100F7000595858575756565555555454535352521D
:100F80005251515050504F4F4F4E4E4D4D4D4C4C75
:100F90004C4B4B4B4A4A4A494949484848474747BE
:100FA00047464646454545444444444343434342FB
:100FB000424242414141002B26D4770021D01CB54A
:100FC0004FEA370703B44FF010004FF010014FF015
:100FD00000000FBCBDE810400BF1010BBBF1010F8D
:100FE00008BF5FEA170722BF12F1010211F10101E8
:100FF0004FF0004143F1000300F0004043EA0000DD
:101000007047F9D35708DAE746EA064613F1400F6E
:101010004FEA16461FDD13F1200FDFBF16430A46C5
:10102000002120335B42C8D0C3F1200746EA0646C0
:1010300002FA07F74FEA164646EA0706C3F1200709
:1010400022FA03F201FA07F721FA03F14FF0000345
:1010500042EA0702B1E746EA020646EA06464FEAD6
:10106000164646EA0106BCBF46EA0646360C4FF075
:1010700000034FF000024FF000019EE72DE9C04849
:10108000934630B491E8380007C831EA400C48BFB5
:1010900034EA430C03D5FFF7F2FDFFF78CFFF0BCF9
:1010A000BDE800882DE9C048934630B491E8380087
:1010B00007C810F0804F08BF13F0804F03D100F035
:1010C00005F8FFF778FFF0BCBDE8008820F07F4707
:1010D00080EA030023F07F4C07EB0C03A3F57C535D
:1010E00000F00040A3F1FE0392F0000F00F0B38087
:1010F00095F0000F00F077802DE901494FEA11408B
:101100004FEA144621EA004800FB06FC24EA0647A1
:1011100008FB06F607FB08F800FB07F718EB064884
:101120004CEB164C4FEA124B18EB07484FEA1546AA
:101130004CEB174022EA0B4E0BFB06FC25EA064758
:101140000EFB06F607FB0EFE0BFB07F71EEB064E2B
:101150004CEB164C4FF000061EEB074E4CEB174BBA
:1011600018EB0B0840F1000018EB0E0B58EB0008D1
:1011700040F100008F1A4FF000013CBFC943661BCD
:1011800014BFB5EB040C00213CBFC943F61B4FEA6A
:1011900017444EEA8E0E27EA04454FEA1C4704FB2B
:1011A00007622CEA074C05FB07F70CFB05F604FB6E
:1011B0000CFC16EB074642EB174216EB0C4642EBD3
:1011C0001C421BEB060658EB0202414146EA9E0612
:1011D00001D5BDE80189B619524141EB0101A3F1E6
:1011E0000103BDE801894FEA14454FEA114724EA9B
:1011F000054621EA074C05FB07F406FB07F70CFB45
:1012000006F105FB0CFC11EB074144EB17444FEAD8
:10121000124711EB0C4144EB1C4422EA074C05FB3E
:1012200007F206FB07F70CFB06F605FB0CFC16EBBA
:10123000074642EB174216EB0C4642EB1C456A1878
:1012400054F1000148BF7047B619524141EB01010A
:10125000A3F10103704795F0000F37D04FEA114218
:101260004FEA144721EA024624EA074C02FB07F141
:1012700006FB07F70CFB06F402FB0CFC14EB07441F
:1012800041EB17414FEA154714EB0C4441EB1C416D
:1012900025EA074C02FB07F506FB07F70CFB06F6F1
:1012A00002FB0CFC16EB074645EB174516EB0C460C
:1012B00045EB1C42121951F1000148BF7047B619A5
:1012C000524141EB0101A3F1010370474FEA14457C
:1012D0004FEA114724EA054621EA074C05FB07F1CE
:1012E00006FB07F70CFB06F24FF0000605FB0CFCB3
:1012F00012EB074241EB174112EB0C4251EB1C4140
:1013000048BF7047921841EB0101A3F101037047F8
:1013100000BFFEE70146072323EA01021202054B44
:1013200018684FF6FF031840034B18431043014B56
:10133000186070470CED00E00000FA0570470000EF
:1013400030B10749096841F48061054A116005E040
:101350000349096821F48061014A11607047000067
:10136000003C024030B10749096841F40071054A68
:10137000116005E00349096821F40071014A116018
:1013800070470000003C024030B10749096841F451
:101390008071054A116005E00349096821F48071F4
:1013A000014A116070470000003C0240014A107081
:1013B00070470000003C0240F0B50A4600210023BF
:1013C000002400BF3DE0012505FA01F3156805EA98
:1013D00003049C4234D105684F000326BE40B54348
:1013E000056015794E00B5400668354305601579EE
:1013F000012D02D01579022D16D185684F000326E4
:10140000BE40B543856055794E00B540866835438A
:101410008560456801268E40B543456045689679EC
:101420008E40B6B235434560C5684F000326BE40C6
:10143000B543C560D5794E00B540C6683543C56033
:10144000491C1029BFD3F0BDF0B5002300244D077F
:10145000ED0E02FA05F3CE1000F1200555F82650E6
:101460004E07F70E0F26BE40B543CF1000F1200601
:1014700046F82750CE1000F1200555F8265045EAD1
:101480000304CE1000F1200545F82640F0BD00BF52
:10149000FEE770B502460025002300240026938A4B
:1014A00003F0020010B923F0100008B1148B01E022
:1014B000002070BD240443EA040020F07F4505EAC3
:1014C0000100884201D1012600E000263046F0E705
:1014D00021B1028842F00102028004E002884FF646
:1014E000FE731A400280704710B5044613488442C8
:1014F00009D10121480500F099FA00214FF40010AC
:1015000000F094FA18E00E48844209D101218805C0
:1015100000F08CFA00214FF4800000F087FA0BE015
:101520000848844208D10121C80500F07FFA002153
:101530004FF4000000F07AFA10BD000000540040A3
:1015400000580040005C004021B1028842F48072E3
:10155000028004E002884FF6FF631A400280704761
:1015600021B1028842F40072028004E002884FF642
:10157000FF531A40028070472DE9FF4704460D468D
:101580000026B1460427DFF8CC80A6884FF6C0704D
:101590000640684600F08CFADDF808802E48B8FB5B
:1015A000F0F01FFA80F946EA0906A68020884FF677
:1015B000FE710840208000262849286888420CD8FF
:1015C00028684000B8FBF0F087B2042F00DA042747
:1015D0003E4309F10100208427E0E8884BF6FF71C3
:1015E000884206D1286800EB4000B8FBF0F087B2D3
:1015F00009E0286800EBC00101EB0010B8FBF0F037
:1016000087B247F48047C7F30B0008B947F00107DA
:1016100047F4004006434FF4967009FB00F04FF486
:101620007A7190FBF1F0401C2084A683208840F062
:101630000100208026884FF6F5300640A888698989
:10164000084306432680A889298908432081BDE8EC
:10165000FF87000000127A0040420F00A0860100C0
:1016600012B141F0010101E001F0FE010182704779
:101670000182704770B504460D4601211348FFF7FB
:1016800063FF1349114800F027F8002278210F4822
:10169000FFF7E6FF0F490D4800F01EF821460B4802
:1016A000FFF7E6FF0B49891E084800F015F82946A8
:1016B0000648FFF7DDFF0749891C044800F00CF8D5
:1016C00001210248FFF74CFF70BD000000540040AC
:1016D000010003008200070070B505460E464FF476
:1016E0007A7402E0641E04B905E031462846FFF72B
:1016F000D0FE0128F6D100BF70BD00001CB501214D
:10170000082000F073F94FF48050009001208DF80C
:10171000040000208DF805008DF807008DF8060004
:1017200069460348FFF748FE0020024908601CBDD7
:10173000000C0240B082414200BFFEE7704700004B
:1017400070B5002100230F22C4781CB3174C246805
:1017500004F4E064C4F5E064C4F30721C1F10404B7
:10176000E3B20A4144789C40E1B2847814402143BA
:101770000C07210E0E4C05786155047804F01F0506
:101780000124AC4005786D11AD0005F1E025C5F8E8
:10179000004109E0047804F01F050124AC40054D28
:1017A0000678761145F8264070BD00000CED00E08B
:1017B00000E400E080E100E010B5002000F0D0FA85
:1017C00010BDF8B507460C4615461E46002C0CDD2C
:1017D000032C0ADC601E00EB80004006020E2B4644
:1017E00000213846009600F001F8F8BD2DE9F041DF
:1017F00007460C4615461E46DDF8188056B1FFF721
:10180000DBFF2946204600F0BBFA01220549384695
:1018100000F010FBB8F1000F01D000F0E1F8BDE8D6
:10182000F08100002C00002000B587B001214805A0
:1018300000F0ECF80121022000F0D8F80422082181
:101840001F48FFF701FE042209211D48FFF7FCFD98
:1018500002208DF818004FF44070059002208DF89A
:10186000190001208DF81A0005A91548FFF7A4FDFD
:101870001448FFF739FE4FF48060ADF80E00000108
:10188000ADF81000104801904BF6FF70ADF80A005B
:101890000020ADF808001020ADF80C0001A909489F
:1018A000FFF76AFE01210748FFF712FE00F018F863
:1018B00001231A46194605A0FFF783FF07B000BDB4
:1018C0000004024000540040801A06006F6C6564FA
:1018D00020696E69742073756363657373210000FA
:1018E00010B5AE210020FFF7C5FEA6210020FFF7AE
:1018F000C1FEAE210020FFF7BDFED5210020FFF77D
:10190000B9FE80210020FFF7B5FEA8210020FFF7D7
:10191000B1FE1F210020FFF7ADFED3210020FFF70D
:10192000A9FE00210846FFF7A5FE40210020FFF791
:10193000A1FE8D210020FFF79DFE14210020FFF75E
:1019400099FE20210020FFF795FE02210020FFF7DD
:1019500091FEA1210020FFF78DFEC8210020FFF796
:1019600089FEDA210020FFF785FE02210020FFF723
:1019700081FE81210020FFF77DFECF210020FFF7AF
:1019800079FED9210020FFF775FEF1210020FFF735
:1019900071FEDB210020FFF76DFE40210020FFF7E4
:1019A00069FE2E210020FFF765FEA4210020FFF72D
:1019B00061FEA6210020FFF75DFEAF210020FFF7AA
:1019C00059FE002000F0CCF900F04AFA002003494B
:1019D000088048800120487110BD000024000020CC
:1019E00010B500F03DFA10BD7047000029B1064A5D
:1019F00012680243044B1A6004E0034A12688243EF
:101A0000014B1A60704700003038024029B1064A85
:101A100012680243044B1A6004E0034A12688243CE
:101A2000014B1A60704700004038024029B1064A55
:101A300012680243044B1A6004E0034A12688243AE
:101A4000014B1A60704700002038024014480068BB
:101A500040F0010012490860002011490831086077
:101A60000F4800680F4908400D4908600E48091DDD
:101A700008600E480A49843108600B481038091D77
:101A800008600748006820F48020054908600020AD
:101A900003490C31086002498C310860704700002E
:101AA00000380240FFFFF6EA10300024003000202A
:101AB000F0B5002100220024022500260223324F27
:101AC0003F6807F00C0121B1042905D0082937D15E
:101AD00005E02E4F076036E02D4F076033E02A4FB8
:101AE0003F1F3F68C7F38056274F3F1F3F6807F0EF
:101AF0003F036EB1264FB7FBF3F7DFF88CC0ACF1B4
:101B0000040CDCF800C0CCF3881C07FB0CF40CE0E0
:101B10001E4FB7FBF3F7DFF870C0ACF1040CDCF834
:101B200000C0CCF3881C07FB0CF4174F3F1F3F6825
:101B3000C7F301477F1C7D00B4FBF5F7076002E0A7
:101B4000124F076000BF00BF0F4F3F6807F0F00162
:101B50000909104F7A5C0768D74047600A4F3F6811
:101B600007F4E051890A0B4F7A5C4768D7408760D9
:101B7000054F3F6807F46041490B064F7A5C4768A0
:101B8000D740C760F0BD0000083802400024F400D0
:101B900000127A000800002010B501460022002340
:101BA00000204A11012A02D10A4C236808E0022AC7
:101BB00003D1084C7034236802E0064C7434236867
:101BC00001F01F02012494401C400CB1012000E0F0
:101BD000002010BD003802400248006800F00C00F0
:101BE000704700000838024001460020034A106890
:101BF00020F0F000084310607047000008380240F1
:101C00000021024A117011460870704702380240E4
:101C100001460020034A106820F4E0500843106099
:101C2000704700000838024001460020034A10684F
:101C300020F4604040EAC10010607047083802405C
:101C400001490866704700000000474270B5049CD7
:101C500041EA82150126C6EB530645EA06450543CF
:101C600045EA0465014E356070BD0000043802404D
:101C700001460020034A106820F00300084310606A
:101C8000704700000838024038B50020009000245A
:101C9000002500BF3120FFF77FFF05460098401C5C
:101CA00000900098B0F5A04F01D0002DF2D0312067
:101CB000FFF772FF08B1012400E00024204638BD80
:101CC000F0B503461446802B01DA202900DBF0BD75
:101CD0002148007920B10CB9012000E00020044621
:101CE000012C1CD1CD1701EB5575ED1003EBC5157B
:101CF0001A4E755D0A46CE1701EB5676F610A1EB2B
:101D0000C6070126BE403543EEB20846CD1701EBAB
:101D10005575ED1003EBC515104F7E551AE0CD1724
:101D200001EB5575ED1003EBC5150C4E755D0A46BC
:101D3000CE1701EB5676F610A1EBC6070126BE4082
:101D4000B5430846CE1701EB5676F61003EBC616E0
:101D5000024FBD5500BFBAE7240000204400002018
:101D600010B504460CB9002000E0FF2002464FF4F5
:101D700000710248FEF71FFB10BD00004400002068
:101D8000014A108051807047240000202DE9F04363
:101D900007460C469046264800882178084480284B
:101DA00005DA2348408861780844202802DB0020B7
:101DB000BDE8F083002530E0A7F12000617800FB4A
:101DC0000150616831F81090002622E009FA06F00F
:101DD00000F4004058B1164A52882A4491B2144A7D
:101DE0001288324490B24246FFF76AFF10E0B8F121
:101DF000000F01D1012300E000231A460C4B5B8841
:101E00002B4499B20A4B1B88334498B2FFF758FF12
:101E1000761C2078B042D9D86D1C6078A842CBD807
:101E20000348008821780844014908803846BFE704
:101E30002400002070B504460D4616460AE02078BE
:101E400032462946FFF7A2FF2178884201D0207848
:101E500070BD641C20780028F1D12078F8E70000DC
:101E600070B500241DE004F1B000C1B20020FFF7FE
:101E700001FC00210846FFF7FDFB10210020FFF7C1
:101E8000F9FB002509E0802000FB0450064A115CA4
:101E90004020FFF7EFFB681CC5B2802DF3DB601C10
:101EA000C4B2082CDFDB70BD440000207047000086
:101EB0000CB50020019000903448006840F4803058
:101EC0003249086000BF3148006800F400300090DB
:101ED0000198401C0190009818B90198B0F5A04FE6
:101EE000F1D12A48006800F4003010B101200090C0
:101EF00001E0002000900098012846D1234840309E
:101F0000006840F080502149403108602048006856
:101F100040F440401E4908601C48083000681B49D6
:101F2000083108600846006840F400400860084630
:101F3000006840F4A05008601648091F0860081F98
:101F4000006840F08070091F086000BF0F480068FB
:101F500000F000700028F9D040F205700E490860CA
:101F60000A480830006820F003000849083108607A
:101F70000846006840F00200086000BF03480830CF
:101F8000006800F00C000828F8D10CBD00380240B1
:101F90000070004019544007003C024010B500F0AA
:101FA0001FF910BD08B5FFF751FD0120FFF728FE0E
:101FB000FFF76AFE012830D10520FFF7F7F901206D
:101FC000FFF7E2F90120FFF7CDF90120FFF7B8F99B
:101FD0000020FFF709FE4FF4A050FFF719FE4FF461
:101FE0008050FFF721FE072002234FF4A87208213A
:101FF0000090C804FFF72AFE0120FFF721FE00BF72
:102000003920FFF7C9FD0028FAD00220FFF730FE83
:1020100000BFFFF7E1FD0828FBD108BD10B515484A
:10202000006840F47000134908601348006840F0ED
:1020300001001149086000200F49083108600E486E
:1020400000680E4908400C4908600D48091D0860E9
:10205000081F006820F48020091F0860002006493E
:102060000C310860FFF724FF4FF000600149803910
:10207000086010BD88ED00E000380240FFFFF6FE6A
:102080001030002410B50121064800F04DF840B191
:10209000054800680A30044908600121014800F041
:1020A00034F810BD00140040200000201FB50121AD
:1020B0002020FFF7ABFC5320ADF804006320029012
:1020C00001A90F4800F04AF801210D4800F01AF864
:1020D000012211460A4800F038F837208DF8000038
:1020E00000208DF8010001208DF802008DF803001A
:1020F0006846FFF725FB0121014800F009F81FBDE4
:1021000000140040CA4302827047CA4302827047EB
:1021100021B1028842F00102028004E002884FF6F9
:10212000FE731A400280704730B50246002000233B
:102130000024158A05EA0103958905EA010413B113
:102140000CB1012000E0002030BD1AB183890B439F
:10215000838102E083898B43838170470022028858
:10216000184B98420ED0184B98420BD0B0F1804FCC
:1021700008D0164B984205D0154B984202D0154B0B
:10218000984204D14FF68F731A404B881A43124B72
:10219000984207D0114B984204D04FF6FF431A40A3
:1021A0000B891A4302804B68C3620B880385054B79
:1021B000984202D0044B984201D18B7A03860123C6
:1021C0008382704700000140000401400004004089
:1021D00000080040000C00400010004000140040C7
:1021E0000448006820B103480068401E01490860A7
:1021F000704700000000002000BFFEE703B4019814
:102200004100009850EAC12018BF04204A0D18BFB1
:1022100040F0010040F2FF72B2EB515F08BF40F0A6
:102220000200012808BF052002B0704730380A2894
:1022300001D2012070470020704710B50220FFF73F
:1022400069F8FFF7AFFEFFF759FAFFF72FFFFFF727
:10225000EBFA10BD30B52DED028B81B0FFF7EDFF2D
:10226000FFF7AAFA0020009038E000242DE00A25AC
:1022700005E0A9B2A0B20122FFF722FD6D1C142DCA
:10228000F7DB642060437F2190FBF1F000EE100A41
:10229000B8EEC00A154880ED000A006800F050F85A
:1022A00041EC180B53EC182B11A16846FDF7E8FF21
:1022B0000123002219466846FFF783FA00231A46D5
:1022C00001216846FFF77DFA641C802CCFDB0123D7
:1022D0001A4602210AA0FFF774FA00E0C5E700BF22
:1022E000002001B0BDEC028B30BD000004000020D6
:1022F00070726F636573733A20252E32660000009A
:1023000066696E697368000010B500290AD0087804
:10231000002807D005487844FEF7F8FB002801D0D4
:10232000002010BD0248784410BD0000E2290000E2
:10233000DA2900000808A0F500114FEA31017047C2
:1023400043004FEAD30C4FEA3C0C43401FBF400709
:102350000CF1605113F0FE4F70471CF0006F03D179
:1023600000200CF0004170470CF0004343EA50702D
:1023700010B540EACC0000F00EF800BF000000925B
:102380004FEA0001FFF7D6BF4FF000414FF00000C9
:10239000A1F5002170470EF1020E2EF0030E5EF83B
:1023A000044B244204D44FEA4102B2F17F4F11D8CA
:1023B0004FEA4003B3F17F4F0CD80ED14FEAD07CE7
:1023C000B2F17F4F0CEB4C0C0CF1020C08BF4CEB44
:1023D000D17C04E04FF0080C01E04FEAD17C0CEB1B
:1023E0004C0324FA03F404F00704B4F1040C06D2FD
:1023F0000EEB840CBDE810404CF0010C6047DFE8A8
:102400000CF0070802024FF00040A0F5800010BD5C
:102410000846420018BFD2F1807288BF00F0004029
:1024200010BD4FF04070E1EE100A7047FEF7A5B8FE
:10243000000000000000000000000000000000009C
:10244000000000000010001000100010001000102C
:1024500000000010000000000028002800280000F4
:102460000000000000000000000000000024002424
:10247000007C00240048007C004800480000000068
:102480000038005400500038001400540054003844
:1024900000100000002000540058003000280054B4
:1024A00000140008000000000010002800280010A0
:1024B0000034004800480034000000000010001004
:1024C00000100000000000000000000000000000FC
:1024D0000008001000200020002000200020002024
:1024E0000010000800200010000800080008000884
:1024F000000800080010002000100038001000281C
:1025000000000000000000000000000000000000CB
:1025100000100010007C00100010000000000000FF
:10252000000000000000000000000000000000109B
:102530000010001000000000000000000000003843
:10254000000000000000000000000000000000008B
:10255000000000000000001000000000000800085B
:1025600000100010001000100020002000000000EB
:102570000038004400440054004400440044003843
:10258000000000000010003000500010001000108B
:102590000010001000000000003800440044000457
:1025A000000800100020007C0000000000380044FB
:1025B000000400180004000400440038000000007B
:1025C00000080018002800280048007C00080008C7
:1025D00000000000007C004000400078000400047F
:1025E000004400380000000000380044004000783B
:1025F000004400440044003800000000007C000457
:102600000008001000100020002000200000000042
:1026100000380044004400380044004400440038BE
:10262000000000000038004400440044003C000466
:10263000004400380000000000000000001000000E
:10264000000000000000001000000000000000007A
:10265000000000100000000000000010001000103A
:1026600000000000000C003000400030000C0000B2
:1026700000000000000000000000007C0000007C62
:1026800000000000000000000000000000600018D2
:102690000004001800600000000000000038004442
:1026A00000040008001000100000001000000000EE
:1026B00000380044004C0054005C004000400038EA
:1026C0000000000000100028002800280028007CDE
:1026D00000440044000000000078004400440078FA
:1026E000004400440044007800000000003800442A
:1026F000004000400040004000440038000000005E
:102700000070004800440044004400440048007049
:1027100000000000007C00400040007C00400040C1
:102720000040007C00000000007C00400040007879
:10273000004000400040004000000000003800441D
:1027400000400040005C00440044003800000000ED
:10275000004400440044007C004400440044004421
:1027600000000000003800100010001000100010E1
:102770000010003800000000000400040004000401
:102780000004000400440038000000000044004839
:102790000050006000500048004800440000000065
:1027A0000040004000400040004000400040007CED
:1027B000000000000044006C006C00540044004421
:1027C0000044004400000000004400640064005421
:1027D0000054004C004C004400000000003800444D
:1027E000004400440044004400440038000000005D
:1027F000007800440044004400780040004000405D
:10280000000000000038004400440044004400443C
:1028100000540038000400000078004400440044E4
:1028200000780048004800440000000000380044E0
:1028300000400030000800040044003800000000A0
:10284000007C00100010001000100010001000109C
:1028500000000000004400440044004400440044E0
:1028600000440038000000000044004400440028F8
:102870000028002800100010000000000044004460
:10288000005400540054006C002800280000000090
:1028900000440028002800100010002800280044F0
:1028A0000000000000440044002800280010001030
:1028B0000010001000000000007C00040008001060
:1028C000001000200040007C0000000000180010F4
:1028D0000010001000100010001000100010001870
:1028E0000020002000100010001000100008000858
:1028F0000000000000300010001000100010001058
:1029000000100010001000300010002800280044C3
:1029100000000000000000000000000000000000B7
:1029200000000000000000000000000000FE0000A9
:102930000020001000000000000000000000000067
:10294000000000000000000000380044003C00448B
:10295000004C0034000000000040004000580064BB
:102960000044004400640058000000000000000023
:1029700000380044004000400044003800000000DF
:10298000000400040034004C00440044004C0034B7
:10299000000000000000000000380044007C0040FF
:1029A0000044003800000000000C0010007C001003
:1029B00000100010001000100000000000000000D7
:1029C0000034004C00440044004C00340004007803
:1029D00000400040005800640044004400440044AB
:1029E0000000000000100000007000100010001037
:1029F0000010001000000000001000000070001027
:102A00000010001000100010001000E00040004016
:102A100000480050006000500048004400000000E2
:102A200000700010001000100010001000100010C6
:102A30000000000000000000007800540054005422
:102A40000054005400000000000000000058006422
:102A50000044004400440044000000000000000066
:102A600000380044004400440044003800000000E6
:102A70000000000000580064004400440064005856
:102A800000400040000000000034004C00440044BE
:102A9000004C0034000400040000000000580064F2
:102AA0000040004000400040000000000000000026
:102AB00000380044003000080044003800000000E6
:102AC00000200020007800200020002000200018B6
:102AD00000000000000000000044004400440044E6
:102AE000004C0034000000000000000000440044DE
:102AF000002800280028001000000000000000004E
:102B0000005400540054006C00280028000000000D
:102B100000000000004400280010001000280044BD
:102B200000000000000000000044004400280028CD
:102B3000001000100010006000000000007C000881
:102B4000001000200040007C000000000018001071
:102B500000100010002000200010001000100018CD
:102B600000100010001000100010001000100010E5
:102B700000100010003000100010001000080008C5
:102B80000010001000100030000000000000007471
:102B9000004C0000000000000000000000000000E9
:102BA0000000000000000000000000000000000025
:102BB0000000000000000000000000000000000015
:102BC0000000000C000C000C000C000C000C000CB1
:102BD000000C000C000C000C0000000C000C0000AD
:102BE000000000000000001B001B001B001B001B5E
:102BF00000000000000000000000000000000000D5
:102C000000000000000000000000801980198019F9
:102C10008019C07FC07F80190033C07FC07F003320
:102C20000033003300330000000000000000001EED
:102C3000003F807580650074003C001E0007800521
:102C4000806580658075003F001E00040004000060
:102C50000000007000D840D8C0D880D900730006AA
:102C6000000C801BC036C066C046C0068003000052
:102C7000000000000000001E003F0033003300335E
:102C8000001E000CC03CC066806380618063C03E53
:102C9000801C0000000000000000000C000C000C74
:102CA000000C000C0000000000000000000000000C
:102CB0000000000000000000000000008000000193
:102CC0000003000600060004000C000C000C000CC1
:102CD000000C000C00040006000600030001800048
:102CE000002000100018000C000C00040006000674
:102CF00000060006000600060004000C000C001888
:102D0000001000200000000C002D003F001E0033CA
:102D100000000000000000000000000000000000B3
:102D20000000000000000000000000000000000C97
:102D3000000C000C000CC0FFC0FF000C000C000CCD
:102D4000000C000000000000000000000000000077
:102D50000000000000000000000000000000000073
:102D6000000000000000000C000C0004000400083B
:102D70000000000000000000000000000000000053
:102D80000000001E001E0000000000000000000007
:102D90000000000000000000000000000000000033
:102DA0000000000000000000000000000000000C17
:102DB000000C0000000000000000000300030003FE
:102DC0000006000600060006000C000C000C000CBB
:102DD0000018001800180000000000000000001E8D
:102DE000003F0033806180618061806D806D806113
:102DF000806180610033003F001E00000000000081
:102E000000000006000E001E003600260006000628
:102E10000006000600060006000600060006000088
:102E2000000000000000001E003F80738061806190
:102E3000800100030006000C001800300060807F55
:102E4000807F0000000000000000001C003E0063C6
:102E500000630003000E000E00038001800180610A
:102E60008073003F001E000000000000000000060C
:102E7000000E000E001E001E001600360036006612
:102E8000807F807F00060006000600000000000032
:102E90000000007F007F006000600060006E007F27
:102EA00080638001800180618073003F001E00000C
:102EB000000000000000001E003F803380610060C1
:102EC000006E007F80738061806180618033003F8D
:102ED000001E0000000000000000807F807F800155
:102EE0000003000300060006000C000C000C0008A4
:102EF0000018001800180000000000000000001E6C
:102F0000003F8063806180610021001E003F80617E
:102F1000806180618061003F001E000000000000B1
:102F20000000001E003F007380618061806180733B
:102F3000803F801D800180610073003F001E000003
:102F40000000000000000000000000000000000C75
:102F5000000C000000000000000000000000000C59
:102F6000000C000000000000000000000000000055
:102F700000000000000C000C000000000000000039
:102F80000000000C000C0004000400080000000019
:102F90000000000080008003000E00380060003850
:102FA000000E800380000000000000000000000010
:102FB00000000000000000000000807F807F000013
:102FC0000000807F807F0000000000000000000003
:102FD0000000000000000000000000000040007041
:102FE000001C000780010007001C0070004000006A
:102FF00000000000000000000000001F803FC071C2
:10300000C060C000C00180030007000E000C000C6F
:103010000000000C000C0000000000000000001E7A
:10302000003F803180718063806F806D806D806F24
:10303000806700600032003E001C000000000000BD
:103040000000000E000E001B001B001B001B803147
:103050008031803F803F8031C060C060C060000030
:10306000000000000000007C007E0063006300633D
:103070000063007E007E0063806180618063007F6A
:10308000007E0000000000000000001E003F8031B4
:10309000806100600060006000600060006080612E
:1030A0008031003F001E0000000000000000007C96
:1030B000007F0063806380618061806180618061E6
:1030C000806100630063007E007C0000000000005F
:1030D0000000807F807F0060006000600060007FF3
:1030E000007F0060006000600060807F807F0000E3
:1030F000000000000000807F807F006000600060B2
:103100000060007F007F0060006000600060006081
:1031100000600000000000000000001E003F803141
:103120008061006000600060806380638061806116
:103130008031803F001E0000000000000000806120
:1031400080618061806180618061807F807F80613B
:10315000806180618061806180610000000000000A
:103160000000003F003F000C000C000C000C000CA5
:10317000000C000C000C000C000C003F003F000095
:1031800000000000000080018001800180018001BA
:103190008001800180018001806180618073003F37
:1031A000001E0000000000000000C060806100639D
:1031B00000660066006C0078007C006600660063B4
:1031C00080618061C06000000000000000000060BD
:1031D00000600060006000600060006000600060EF
:1031E000006000600060807F807F000000000000C1
:1031F0000000C071C071C07BC07AC06AC06AC06E76
:10320000C064C060C060C060C060C060C0600000DA
:1032100000000000000080718071807980798079E1
:10322000806D806D806D806580678067806780635A
:1032300080630000000000000000001E003F00331B
:103240008061806180618061806180618061806176
:103250000033003F001E0000000000000000007E60
:10326000007F80638061806180618063007F007E79
:10327000006000600060006000600000000000006E
:103280000000001E003F003380618061806180612A
:1032900080618061806580670033803F401E000050
:1032A000000000000000007E007F8063806180617C
:1032B0008063007F007E0066006300638061806140
:1032C000C0600000000000000000000E001F803100
:1032D000803100300038001E00078003806180616B
:1032E0008031003F001E0000000000000000C0FF11
:1032F000C0FF000C000C000C000C000C000C000CBB
:10330000000C000C000C000C000C00000000000081
:103310000000806180618061806180618061806186
:1033200080618061806180618073003F001E0000C9
:10333000000000000000C060C060C06080318031CB
:103340008031001B001B001B001B000E000E000E36
:1033500000040000000000000000C0C0C0C0C0C0E9
:10336000C0C0C0C0C0CC804C804C805E80528052B7
:103370008073806180610000000000000000C0C018
:10338000806080610033003B001E000C000C001EBA
:10339000001F003B80718061C0C000000000000081
:1033A0000000C0C08061806100330033001E001E39
:1033B000000C000C000C000C000C000C000C0000B9
:1033C000000000000000803F803F800100030003F8
:1033D0000006000C000C0018001800300060807F10
:1033E000807F000000000000000F000F000C000CA8
:1033F000000C000C000C000C000C000C000C000C6D
:10340000000C000C000C000C000F000F0000001856
:1034100000180018000C000C000C000C0006000640
:103420000006000600030003000300000000000087
:10343000001E001E0006000600060006000600062C
:10344000000600060006000600060006000600064C
:10345000001E001E0000000C000C001E00120033B5
:103460000033806180610000000000000000000067
:10347000000000000000000000000000000000004C
:10348000000000000000000000000000000000003C
:103490000000000000000000E0FF00000000003815
:1034A0000018000C000000000000000000000000F8
:1034B000000000000000000000000000000000000C
:1034C00000000000000000000000001F803F80613D
:1034D0008001801F803F80618063807FC038000052
:1034E0000000000000000060006000600060006EEE
:1034F000007F807380618061806180618073007F64
:10350000006E00000000000000000000000000004D
:103510000000001E003F80738061006000608061D9
:103520008073003F001E00000000000000008001CA
:10353000800180018001801D803F807380618061F7
:10354000806180618073803F801D0000000000006A
:1035500000000000000000000000001E003F00739B
:103560008061807F807F00608071003F001E0000CE
:10357000000000000000C007C00F000C000C807F9E
:10358000807F000C000C000C000C000C000C000CE8
:10359000000C00000000000000000000000000001F
:1035A000801D803F80738061806180618061807355
:1035B000803F801D80018063007F003E000000602E
:1035C000006000600060006F807F807180618061BA
:1035D0008061806180618061806100000000000086
:1035E00000000006000600000000003E003E00064D
:1035F00000060006000600060006000600060000A1
:10360000000000000006000600000000003E003E32
:10361000000600060006000600060006000600067A
:1036200000060046007E003C000000600060006074
:103630000060806100630066006C007C00760063BF
:1036400000638061C0600000000000000000003ED8
:10365000003E000600060006000600060006000602
:10366000000600060006000600060000000000003C
:103670000000000000000000000080DDC0FFC0CEA0
:10368000C0CCC0CCC0CCC0CCC0CCC0CCC0CC000066
:103690000000000000000000000000000000006FBB
:1036A000807F8071806180618061806180618061E4
:1036B0008061000000000000000000000000000029
:1036C0000000001E003F8073806180618061806126
:1036D0008073003F001E000000000000000000009A
:1036E00000000000006E007F807380618061806157
:1036F00080618073007F006E006000600060006089
:103700000000000000000000801D803F8073806189
:103710008061806180618073803F801D80018001B5
:103720008001800100000000000000000000006730
:10373000803F003900300030003000300030003071
:103740000030000000000000000000000000000049
:103750000000001E803F80610060007F803F80018C
:103760008061007F001E00000000000000000000DB
:10377000000800180018007F007F001800180018CB
:10378000001800180018801F800F000000000000C3
:103790000000000000000000000080618061806186
:1037A00080618061806180618063807F803D0000F6
:1037B0000000000000000000000000000000C060E9
:1037C000803180318031001B001B001B000E000E79
:1037D00000060000000000000000000000000000E3
:1037E000000080DD80DD80DD00550055005500774C
:1037F000007700220022000000000000000000000E
:10380000000000000000806100330033001E000C47
:10381000000C001E00330033806100000000000037
:1038200000000000000000008061806180310033F2
:103830000033001B001B001B000E000E000E001CBE
:10384000007C007000000000000000000000C07F4D
:10385000C07F800100030006000C00180030C07F0C
:10386000C07F000000000000800380070006000603
:10387000000600060006000E001C001C000E0006DC
:10388000000600060006000680078003000600060A
:1038900000060006000600060006000600060006F8
:1038A00000060006000600060006000600060006E8
:1038B0000038003C000C000C000C000C000C000E4A
:1038C00000070007000E000C000C000C000C000CA0
:1038D000003C003800000000000000000000000074
:1038E00000008038807F00470000000000000000DA
:1038F00000000000000000000000000000000000C8
:1039000000000000000000000000000000000000B7
:1039100000000000000000000000000000000000A7
:10392000000000000000000000000000E003E003D1
:10393000E003E003E003E003E003E003C003C003AF
:10394000C001C001C001C001C001000000000000B2
:10395000E003E003E00300000000000000000000BE
:103960003C1E3C1E3C1E3C1E3C1E3C1E3C1E0000E1
:103970000000000000000000000000000000000047
:103980000000000000000000000000000000000037
:1039900000000000CE01CE03DE039E039C039C07C3
:1039A000FF3FFF7F3807380F780F780F780EFFFF43
:1039B000FFFFF01EF01CE01CE03CE03DE0390000A1
:1039C0000000000000000000FC03FE0FEE1FE01EE0
:1039D000E01EE01EE01EE01FE00FE007F003FC0128
:1039E000FE01FE01FE01FE01FE01FE01FE3DFC3F67
:1039F000F00FE001E001000000000000033E07F7C7
:103A00008FE78EE79EE3BCE3B8E7F8E7F0F7E03F27
:103A1000C001FF03FF07F307F30FF31EF33CF33876
:103A2000F3787FF03FE0000000000000000000009D
:103A3000E007F80F780F781F781F781F780FF00FC6
:103A4000E00F801FC37FC3FBE7F3F7F1F7F0FFF050
:103A50007FF03EF87F7CFF3FEF1F0000000000007A
:103A600000000000E003E003E003E003E003C00324
:103A7000C001000000000000000000000000000085
:103A80000000000000000000000000000000000036
:103A900000000000000000003F007C00F001E00199
:103AA000C003C00780078007800F000F000F000FC2
:103AB000000F000F000F800F80078007C007C003B2
:103AC000E001F0017C003F000F000000007E001FBD
:103AD000C007C003E001F001F000F000F80078003A
:103AE00078007800780078007800F800F000F000A6
:103AF000F001E001C003C007001F007E0078000055
:103B0000E003C003C001CE39FF3F7F3F20037003B5
:103B1000F807780F3C1F3806000000000000000086
:103B20000000000000000000000000000000000095
:103B30000000000000000000000000000000000085
:103B4000C001C001C001C001C001C001C001FFFF30
:103B5000FFFFC001C001C001C001C001C0010000E1
:103B60000000000000000000000000000000000055
:103B70000000000000000000000000000000000045
:103B800000000000000000000000E003E003E0038C
:103B9000E003E001E001E001C0018003000000005B
:103BA0000000000000000000000000000000000015
:103BB0000000FE3FFE3F000000000000000000008B
:103BC00000000000000000000000000000000000F5
:103BD00000000000000000000000000000000000E5
:103BE00000000000000000000000000000000000D5
:103BF0000000E003E003E003E00300000000000039
:103C0000000000000F000F001E001E003C003C00E2
:103C100078007800F000F000E001E001C003C0038C
:103C200080078007000F000F001E001E003C003CB4
:103C30000078007800F00000F007F80F7C1F3E3E8F
:103C40001E3C1F7C1F7C0F780F780F780F780F7841
:103C50000F780F781F7C1F7C1E3C3E3E7C1FF80FA8
:103C6000F00700000000000000000000F000F00776
:103C7000F03FF03FF001F001F001F001F001F00140
:103C8000F001F001F001F001F001F001F001F001AC
:103C9000F001FF3FFF3F00000000000000000000B7
:103CA000E00FF83F7C3C3C003E003E003E003C0004
:103CB0003C007C00F800F001E003C0078007000F23
:103CC000001E003E003CFE3FFE3F000000000000E2
:103CD00000000000F00FF81F7C1C3E003E003E007C
:103CE0003C003C00F800F00FF80F7C003E001E0086
:103CF0001E001E001E003E007C1CF81FE01F00007E
:103D000000000000000000007800F800F800F80152
:103D1000F803F807F807780F781E781E783C787853
:103D20007878FFFFFFFF780078007800780078004F
:103D3000780000000000000000000000FC1FFC1FD5
:103D4000FC1F001E001E001E001E001EE01FF81FAC
:103D5000FC007C003E003E001E003E003E003C0099
:103D60007C1CF81FE01F00000000000000000000A5
:103D7000FC01FE078E0F001F001E003E003C003CB1
:103D8000F83DFC3F3E7F1F7E0F3C0F3C0F3C0F3C3D
:103D90000F3E1F1E3E1FFC0FF0030000000000003E
:103DA00000000000FF3FFF3FFF3F0F001E001E000E
:103DB0003C0038007800F000F000E001E001C003B2
:103DC000C0038007800F800F000F001F001F00003E
:103DD0000000000000000000F807FC0F3E1F1E1E40
:103DE0001E3E1E3E1E1E3C1FF80FF007F80FFC1E65
:103DF0003E3E1F3C1F7C0F7C0F7C1F3C3E3FFC1F48
:103E0000F00700000000000000000000F007F80FBD
:103E10007C1E3E3C1E3C1F7C1F7C1F7C1F7C1F3C6D
:103E20003F3EFF1FEF071F001E001E003E003C002C
:103E3000F838F03FE01F0000000000000000000024
:103E4000000000000000000000000000E003E003AC
:103E5000E003E0030000000000000000000000009C
:103E60000000E003E003E003E003000000000000C6
:103E70000000000000000000000000000000000042
:103E8000E003E003E003E0030000000000000000A6
:103E9000000000000000E003E003E003E003E001B5
:103EA000E001E001C003800300000000000000000A
:103EB0000000000003000F003F00FC00F003C00FF3
:103EC000003F00FE003FC00FF003FC003F000F006A
:103ED00003000000000000000000000000000000DF
:103EE00000000000000000000000000000000000D2
:103EF000FFFFFFFF000000000000FFFFFFFF0000CA
:103F000000000000000000000000000000000000B1
:103F100000000000000000000000000000E000F8C9
:103F2000007E801FE007F8017E001F007E00F80180
:103F3000E007801F007E00F800E0000000000000A5
:103F400000000000F01FFC3F3E381F381F381E00E5
:103F50001E003C007800F000E001C003C003C00771
:103F6000C007000000000000C007C007C007000035
:103F70000000000000000000F803FE0F1E1F0F3EAF
:103F80007F3CFF78EF79C773C7F38FF38FF38FF31D
:103F90009FF39FF3FF73FF7BF779003C1C1FFC0F1F
:103FA000F803000000000000000000000000000016
:103FB0000000E003E003F007F007F007780F780F48
:103FC0007C0E3C1E3C1E3E3CFE3FFF3F1F780F78A0
:103FD0000FF007F007F000000000000000000000F4
:103FE000000000000000F83FFC3F3E3C1E3C1E3C31
:103FF0001E3C3E3C7C3CF03FF83F7E3C1F3C1F3C5F
:104000000F3C0F3C1F3CFE3FF83F0000000000004B
:1040100000000000000000000000FF01FF07871FF4
:10402000003E003C007C0078007800780078007842
:10403000007C007C003E003F831FFF07FF01000063
:104040000000000000000000000000000000F07F01
:10405000FC7F7E781F781F780F780F780F780F78A5
:104060000F780F780F780F781F781E787E78F87F9A
:10407000E07F0000000000000000000000000000E1
:104080000000FF3FFF3F003E003E003E003E003E7E
:10409000003EFE3FFE3F003E003E003E003E003E32
:1040A000003EFF3FFF3F0000000000000000000056
:1040B000000000000000FF1FFF1F001E001E001E6A
:1040C000001E001E001EFF1FFF1F001E001E001E00
:1040D000001E001E001E001E001E0000000000004A
:1040E00000000000000000000000FE03FF0F871F1B
:1040F000003E007C007C007800F800F87FF87FF834
:104100000F780F7C0F7C0F3E8F1FFF0FFE03000008
:1041100000000000000000000000000000001F7C04
:104120001F7C1F7C1F7C1F7C1F7C1F7C1F7CFF7FD4
:10413000FF7F1F7C1F7C1F7C1F7C1F7C1F7C1F7CC4
:104140001F7C0000000000000000000000000000D4
:104150000000FF3FFF3FE003E003E003E003E00374
:10416000E003E003E003E003E003E003E003E00337
:10417000E003FF3FFF3F00000000000000000000E0
:10418000000000000000FC1FFC1F7C007C007C0085
:104190007C007C007C007C007C007C007C007C003F
:1041A00078007800F838F03FC03F000000000000C1
:1041B000000000000000000000001F3C1E3C3C3CD2
:1041C000783CF03CE03DE03FC03F803FC03FE03FF7
:1041D000F03DF03C783C7C3C3E3C1F3C0F3C0000FA
:1041E0000000000000000000000000000000003E91
:1041F000003E003E003E003E003E003E003E003ECF
:10420000003E003E003E003E003E003E003EFF3FBE
:10421000FF3F000000000000000000000000000060
:1042200000001FF81FFC1FFC3FFE3FFE3FFE7FFF0C
:1042300077FF77FFF7F7E7F7E7F3E7F3C7F307F061
:1042400007F007F007F00000000000000000000089
:104250000000000000000F7C0F7C0F7E0F7F0F7F9F
:104260008F7F8F7FCF7FEF7BEF79FF79FF78FF78AC
:104270007F783F783F781F781F78000000000000AB
:1042800000000000000000000000F007FC1F3E3EA0
:104290001F7C0F780F780FF80FF80FF80FF80FF852
:1042A0000FF80F780F781F7C3E3EFC1FF0070000D0
:1042B0000000000000000000000000000000FC3FC3
:1042C000FF3F1F3E0F3E0F3E0F3E0F3E1F3E3F3E45
:1042D000FC3FF03F003E003E003E003E003E003E00
:1042E000003E000000000000000000000000000090
:1042F0000000F007FC1F3E3E1F7C0F780F780FF880
:104300000FF80FF80FF80FF80FF80F780F781F7CE1
:104310003E3EFC1FF8077C003F000F00030000003A
:10432000000000000000F03FFC3F7E3C3E3C1E3C95
:104330001E3C3E3C3C3CFC3CF03FE03FF03DF83C4A
:104340007C3C3E3C1E3C1F3C0F3C0000000000003B
:1043500000000000000000000000FC07FE1F0E3EF1
:10436000003C003C003C003EC01FF80FFE037F00F5
:104370001F000F000F001F203E3CFC3FF01F0000FD
:104380000000000000000000000000000000FFFF2F
:10439000FFFFE003E003E003E003E003E003E003EA
:1043A000E003E003E003E003E003E003E003E003F5
:1043B000E00300000000000000000000000000001A
:1043C00000000F7C0F7C0F7C0F7C0F7C0F7C0F7C20
:1043D0000F7C0F7C0F7C0F7C0F7C0F7C1E3C1E3CE7
:1043E0003E3EFC1FF007000000000000000000003F
:1043F00000000000000007F007F007F80F780F7CBE
:104400001E3C1E3C1E3E3C1E3C1F781F780FF80FC2
:10441000F007F007F007E003E003000000000000F1
:104420000000000000000000000003E003F003F0C3
:1044300007F0E7F3E7F3E7F3E773F77BF77FFF7F37
:104440007F7F7F7F7E7F7E3F3E3E3E3E3E3E000042
:10445000000000000000000000000000000007F85D
:104460000F7C1E3E3E3E3C1FF80FF007E007E003C6
:10447000E003F007F80F7C0F7C1E3E3C1F780F789E
:104480000FF000000000000000000000000000002D
:10449000000007F807780F7C1E3C1E3E3C1F780F7B
:1044A000F80FF007E003E003E003E003E003E003BC
:1044B000E003E003E0030000000000000000000053
:1044C000000000000000FF7FFF7F0F001F003E0084
:1044D0007C00F800F000E001E003C007800F000F4F
:1044E000001E003E007CFF7FFF7F000000000000F8
:1044F00000000000FF078007800780078007800713
:104500008007800780078007800780078007800773
:104510008007800780078007800780078007800763
:104520008007FF07FF07000000780078003C003C90
:10453000001E001E000F000F80078007C003C0038D
:10454000E001E001F000F000780078003C003C0061
:104550001E001E000F000F0007000000F07FF0009B
:10456000F000F000F000F000F000F000F000F000CB
:10457000F000F000F000F000F000F000F000F000BB
:10458000F000F000F000F000F000F07FF07F00009D
:10459000C000C001C001E003E003F007F0077807A6
:1045A000780F380F3C1E3C1E1E3C1E3C0F380F7807
:1045B000077800000000000000000000000000007C
:1045C00000000000000000000000000000000000EB
:1045D00000000000000000000000000000000000DB
:1045E0000000000000000000000000000000FFFFCD
:1045F000FFFF000000000000F000000000000000CD
:1046000000000000000000000000000000000000AA
:10461000000000000000000000000000000000009A
:10462000000000000000000000000000000000008A
:104630000000000000000000F80FFC3F7C3C3E0042
:104640003E003E00FE07FE1F3E3E3E7C3E783E7C26
:104650007E7CFF3FCF1F0000000000000000000034
:10466000003C003C003C003C003C003CF83DFE3F70
:104670003E3F1F3E0F3C0F3C0F3C0F3C0F3C0F3C9E
:104680001F3C1E3C3E3FFC3FF03B00000000000092
:10469000000000000000000000000000000000001A
:1046A000FE03FF0F871F003E003E003C007C007CA5
:1046B000007C003C003E003E871FFF0FFE03000011
:1046C00000000000000000001F001F001F001F006E
:1046D0001F001F00FF07FF1F3F3E1F3C1F7C1F7C6A
:1046E0001F7C1F781F781F7C1F7C3F3C7F3EFF1F75
:1046F000DF0F0000000000000000000000000000CC
:104700000000000000000000F803FC0F3E1F1E3EEA
:104710001F3C1F7CFF7FFF7F007C007C003C003E35
:10472000071FFF0FFE030000000000000000000054
:10473000FF01E103C003C007C007C007FF7FFF7F81
:10474000C007C007C007C007C007C007C007C00731
:10475000C007C007C007C007C00700000000000076
:104760000000000000000000000000000000000049
:10477000EF07FF1F7F3E1F3C1F7C1F7C1F781F78A9
:104780001F781F7C1F7C3F3C7F3EFF1FDF0F1E00FA
:104790001E001E007C38F83F003C003C003C003C02
:1047A000003C003CFC3DFE3F9E3F1F3F1F3E1F3C28
:1047B0001F3C1F3C1F3C1F3C1F3C1F3C1F3C1F3C21
:1047C0001F3C00000000000000000000F001F001AC
:1047D0000000000000000000E07FE07FE001E00159
:1047E000E001E001E001E001E001E001E001E001C1
:1047F000E001E001E0010000000000000000000016
:10480000F800F8000000000000000000F83FF83F4A
:10481000F800F800F800F800F800F800F800F800D8
:10482000F800F800F800F800F800F800F800F000D0
:10483000F071E07F003C003C003C003C003C003C50
:104840001F3C3E3C7C3CF83CF03DE03DC03FC03F5F
:10485000E03FF03DF83C7C3C3E3C1F3C1F3C0000F0
:104860000000000000000000F07FF001F001F00106
:10487000F001F001F001F001F001F001F001F001B0
:10488000F001F001F001F001F001F001F001F001A0
:10489000F001000000000000000000000000000027
:1048A00000000000000000009EF7FFFFFFFFFFFF79
:1048B000E7FBE7F9C7F1C7F1C7F1C7F1C7F1C7F1E6
:1048C000C7F1C7F1C7F100000000000000000000C0
:1048D000000000000000000000000000FC3DFE3F62
:1048E0009E3F1F3F1F3E1F3C1F3C1F3C1F3C1F3C69
:1048F0001F3C1F3C1F3C1F3C1F3C000000000000F1
:1049000000000000000000000000000000000000A7
:10491000F007FC1F3E3E1F3C1F7C0F780F780F787E
:104920000F780F781F7C1F3C3E3EFC1FF0070000F5
:104930000000000000000000000000000000000077
:1049400000000000F83DFE3F3E3F1F3E0F3C0F3C85
:104950000F3C0F3C0F3C0F3C1F3C1E3E3E3FFC3FBC
:10496000F83F003C003C003C003C003C00000000E4
:104970000000000000000000EE07FE1F7E3E1E3C0F
:104980001E7C1E781E781E781E781E781E7C3E7C4B
:104990007E3EFE1FDE0F1E001E001E001E001E00BB
:1049A0000000000000000000000000007F1FFF1F4B
:1049B000E71FC71F871F001F001F001F001F001FCA
:1049C000001F001F001F001F001F0000000000004C
:1049D00000000000000000000000000000000000D7
:1049E000FC07FE1F0E1E003E003E003FE01FFC07BE
:1049F000FE003E001E001E003E3CFC3FF01F00007B
:104A0000000000000000000000000000000080071F
:104A100080078007FF7FFF7F800780078007800770
:104A2000800780078007800780078007C007FF0393
:104A3000FF01000000000000000000000000000076
:104A400000000000000000001E3C1E3C1E3C1E3CFE
:104A50001E3C1E3C1E3C1E3C1E3C1E3C3E3C7E3C06
:104A6000FE3EFE1FDE0F0000000000000000000000
:104A700000000000000000000000000007F00F78B8
:104A80000F781E3C1E3C1E3E3C1E3C1E780F780FCD
:104A9000F00FF007F007E003E00300000000000063
:104AA0000000000000000000000000000000000006
:104AB00003F0E3F1E3F3E7F3F7F3F7F3F77F777F3F
:104AC0007F7F7F7F7F7F3E3E3E3E3E3E3E3E0000FC
:104AD00000000000000000000000000000000000D6
:104AE000000000000F7C1E3E3C3E3C1FF80FF0070C
:104AF000F007E003F007F807F80F7C1E3E3E1F3C6E
:104B00001F7800000000000000000000000000000E
:104B1000000000000000000007F80F780F7C1E3C2A
:104B20001E3C3C1E3C1E3C1F780FF80FF007F007A0
:104B3000E003E003C003C003C0038007800F007FD1
:104B4000000000000000000000000000FF3FFF3FE9
:104B50001F003E007C00F800F001E003C007800F5A
:104B6000001F001E003CFF7FFF7F000000000000D0
:104B700000000000FE01E003C003C003C003C00347
:104B8000E001E001E001C001C003803F803FC003BD
:104B9000C001E001E001E001C003C003C003C003A5
:104BA000E003FE017E000000C001C001C001C001A1
:104BB000C001C001C001C001C001C001C001C001ED
:104BC000C001C001C001C001C001C001C001C001DD
:104BD000C001C001C001C001C0010000C03FE0032E
:104BE000E001E001E001E001C001C003C003C00139
:104BF000E001FE00FE00E001C001C003C003C001EF
:104C0000E001E001E001E001E003C03F003F0000FF
:104C10000000000000000000000000000000000094
:104C2000000000000000073FC77FE773FFF17EF040
:104C30000000000000000000000000000000000074
:104C40000000000002400000000000A00000000082
:104C500005400000000000C8000000000C400000FB
:104C60000000409C00000000194000000020BCBE75
:104C70000000000034400000BFC91B8E000000048B
:104C8000B5400000504BCFD06607E2CF01000000D6
:104C90006C4100003E8251AADFEEA7340100000003
:104CA000D9420000DCB5A0E23A301F97FFFFFFFFBA
:104CB000B4450000FD25A0C8E9A3C14FFFFFFFFFD9
:104CC000FF3F00000000008000000000FF3F0000E8
:104CD0000000008000000000144D000800000020CB
:104CE00044000000C4010008584D000844000020A2
:104CF00064080000E00100081C0000004300000000
:104D0000F8FFFFFF0C0000000E0000000F00000085
:104D10002E00000000000000000000000000000065
:104D20000102030401020304060708090000000051
:104D30000000000000000000000000000000000073
:104D4000070A0000302400080B1200009C2B00080A
:084D5000101A0000F8380008F9
:040000050800018965
:00000001FF
