:020000040800F2
:10000000B806002031020008450A00086D09000802
:10001000410A0008610600082B1C000800000000CF
:10002000000000000000000000000000090F0008B0
:100030008D06000800000000ED0A00089D10000871
:100040004B0200084B0200084B0200084B0200085C
:100050004B0200084B0200084B0200084B0200084C
:100060004B0200084B0200084B0200084B0200083C
:100070004B0200084B0200084B0200084B0200082C
:100080004B0200084B0200084B0200084B0200081C
:100090004B0200084B0200084B0200084B0200080C
:1000A0004B0200084B0200084B0200084B020008FC
:1000B0004B020008A9120008C11200084B020008F8
:1000C0004B0200084B0200084B0200084B020008DC
:1000D0004B0200084B020008791A00084B02000886
:1000E0004B0200084B0200084B0200084B020008BC
:1000F0004B0200084B0200084B0200084B020008AC
:100100004B0200084B0200084B0200084B0200089B
:100110004B0200084B0200084B020008D9120008ED
:100120004B0200084B0200084B0200084B0200087B
:100130004B0200084B0200084B0200084B0200086B
:100140004B0200084B0200084B0200084B0200085B
:100150004B0200084B0200084B0200084B0200084B
:100160004B0200084B0200084B0200084B0200083B
:100170004B0200084B0200084B0200084B0200082B
:100180004B0200084B02000800F002F800F041F8B2
:100190000AA090E8000C82448344AAF10107DA45E2
:1001A00001D100F036F8AFF2090EBAE80F0013F0F3
:1001B000010F18BFFB1A43F001031847F01C0000A1
:1001C000101D0000103A24BF78C878C1FAD8520731
:1001D00024BF30C830C144BF04680C6070470000C1
:1001E0000023002400250026103A28BF78C1FBD840
:1001F000520728BF30C148BF0B607047642900F028
:100200004580002070471FB501F04AFE1FBD10B5A4
:1002100010BD00F08DF91146FFF7F5FF01F080FDEC
:1002200000F0ABF903B4FFF7F2FF03BC01F006FDE9
:100230000948804709480047FEE7FEE7FEE7FEE77A
:10024000FEE7FEE7FEE7FEE7FEE7FEE704480549B6
:10025000054A064B704700001D110008890100087F
:10026000B8000020B8060020B8020020B802002024
:10027000704700000FB4044910B503AA029800F0BB
:100280003DF910BC5DF814FB380000202DE9F04169
:100290000646002410687529314616A510D0AFF324
:1002A0000080002802DA404213A507E031688A077F
:1002B00001D512A502E0490704D511A5012401E0EA
:1002C000AFF3008000210A2206F1240709E0B0FB09
:1002D000F2FCB0FBF2F302FB1C00303078541846FD
:1002E000491C0028F3D123462A463046BDE8F04198
:1002F00000F093B8000000002D0000002B0000006B
:10030000200000002DE9F0474FF0000A894604461E
:10031000C0F820A02046E1688847002876D025282C
:1003200006D0D4E901219047206A401C2062F1E701
:10033000E168204600258847C4F81CA0064600272F
:10034000C4F818A02A2E09D0304601F070FC38B34A
:1003500004EB8708303EC8F8186019E059F8041B10
:10036000204604EB87029161E1688847012F064629
:1003700018D1E069002820DA25F020051DE0D8F822
:10038000180000EB800006EB40003038C8F8180079
:100390002046E1688847064601F049FC0028EED176
:1003A000012F0AD02E2E08D12046E16888477F1CF5
:1003B0000646022F45F02005C4DBA069002803DAB9
:1003C000404245F00105A061E80701D025F0100585
:1003D000B6B1A6F14100192802D8203645F40065CF
:1003E0004A463146204625604D46FFF707FF58B183
:1003F000012806D0ED1D25F0070000F1080989E766
:1004000004E005F1040985E730468AE7206ABDE883
:10041000F08770477047704770472DE9F0470D46E9
:1004200099469246044600F124080168880604D5DE
:10043000E06921F01001216000E00120A84201DD07
:10044000471B00E00027A1697A1902EB0900081A8E
:10045000A0612078C00602D42046AFF300800026B9
:1004600008E0D4E901211AF806009047206A401CF0
:10047000761C20624E45F4DB2078C0060AD5204663
:10048000AFF3008006E0D4E9012130209047206AD4
:10049000401C2062381EA7F10107F4DC07E0D4E914
:1004A000012118F805009047206A401C2062281E90
:1004B000A5F10105F3DC2046AFF3008020780006AB
:1004C00002D50220BDE8F0870120FBE701694A1C44
:1004D00002610878704700B58FB0CDE90131002185
:1004E000059105497944CDE9031011466846FFF7A7
:1004F00009FF0FB000BD0000E5FFFFFF074B70B51F
:100500000D467B44FFF7E7FF0446284600F008F855
:1005100010B14FF0FF3070BD204670BDFF170000D6
:10052000007B00F0800070470048704758000020B2
:100530007546FFF7F9FFAE4605006946534620F0C1
:100540000700854618B020B5FFF780FEBDE82040C3
:100550004FF000064FF000074FF000084FF0000B7F
:1005600021F00701AC46ACE8C009ACE8C009ACE832
:10057000C009ACE8C0098D46704710B50446AFF31A
:1005800000802046BDE81040FFF74CBE1CB501219D
:10059000042000F019FB4FF47070009002208DF8D9
:1005A000040000208DF8060002208DF80500694641
:1005B000014800F067F91CBD0008024030B589B061
:1005C00005460C460121022000F02EFB234800F0D6
:1005D0003DFF681E0790ADF818400020ADF81A00E6
:1005E000ADF8200006A91D4801F0EEF96020ADF835
:1005F00004000020ADF8100003900120ADF80600C3
:1006000001A9164801F066F801A9144801F0AAF8FA
:1006100001A9124801F006F901A9104801F05CF99E
:1006200001210E4800F002FF08210C4801F090F86B
:1006300008210A4801F0E8F80821084801F042F9C9
:100640000821064801F084F90121044800F0D0FE99
:100650000121024800F0DEFE09B030BD0004014077
:1006600000BFFEE70146072323EA01021202054B01
:1006700018684FF6FF031840034B18431043014B13
:10068000186070470CED00E00000FA0570470000AC
:1006900000B589B00121022000F0A6FA0121084628
:1006A00000F092FA02220621264800F033F90222D5
:1006B0000721244800F02EF9C020019000208DF879
:1006C0000B0002208DF808008DF8090000208DF83D
:1006D0000A0001A91B4800F0D5F806A801F0B6F9F8
:1006E0000020ADF818004FF6FF7007900020ADF81D
:1006F0002000ADF81A0006A9134801F065F900239F
:100700001A460321104800F069FF03A800F0CFFF4C
:100710000A20ADF8140003A90B4800F091FF012155
:10072000094800F071FE01221146074800F0C8FF99
:100730000021054801F019F90121034800F06AFE83
:1007400009B000BD000002400004004000B589B0BF
:100750000121042000F048FA0121022000F034FABF
:1007600002220621274800F0D5F802220721254859
:1007700000F0D0F8C020019002208DF80800002081
:100780008DF80B0002208DF8090000208DF80A007A
:1007900001A91C4800F076F806A801F057F90020DE
:1007A000ADF818004FF6FF7007900020ADF820005C
:1007B000ADF81A0006A9144801F006F900231A46FC
:1007C0000321114800F00AFF03A800F070FF0A207F
:1007D000ADF8140003A90C4800F032FF01210A48CB
:1007E00000F012FE01221146074800F069FF0021C7
:1007F000054801F0BAF80121034800F00BFE09B0EA
:1008000000BD0000000402400008004030B107496C
:10081000096841F48061054A116005E003490968EF
:1008200021F48061014A116070470000003C0240E1
:1008300030B10749096841F40071054A116005E0CB
:100840000349096821F40071014A116070470000F2
:10085000003C024030B10749096841F48071054A03
:10086000116005E00349096821F48071014A1160B3
:1008700070470000003C0240014A107070470000C1
:10088000003C0240F0B50A4600210023002400BFCE
:100890003DE0012505FA01F3156805EA03049C42D1
:1008A00034D105684F000326BE40B5430560157975
:1008B0004E00B5400668354305601579012D02D01C
:1008C0001579022D16D185684F000326BE40B54329
:1008D000856055794E00B54086683543856045682A
:1008E00001268E40B5434560456896798E40B6B284
:1008F00035434560C5684F000326BE40B543C5601B
:10090000D5794E00B540C6683543C560491C1029ED
:10091000BFD3F0BDF0B5002300244D07ED0E02FA61
:1009200005F3CE1000F1200555F826504E07F70EBE
:100930000F26BE40B543CF1000F1200646F82750E1
:10094000CE1000F1200555F8265045EA0304CE10DC
:1009500000F1200545F82640F0BD0246002013694D
:100960000B400BB1012000E00020704700BFFEE704
:100970001CB50121082000F027F94FF480500090A9
:1009800001208DF8040000208DF805008DF8070087
:100990008DF8060069460348FFF774FF00200249FE
:1009A00008601CBD000C0240B082414210B500F04E
:1009B00001F810BD1CB50121084600F005F9012021
:1009C000009000208DF8040001208DF80700694692
:1009D0000148FFF757FF1CBD0000024010B5044658
:1009E00000F022F801280BD1601C0D490988B1EBF9
:1009F000400F0ADA0A480088401C0949088004E0D0
:100A00000020074908800749088005480088022817
:100A100003D101200349088010BD0020FCE700003D
:100A20003E0000203C00002010B501210348FFF7E4
:100A300094FF08B9012010BD0020FCE7000002402F
:100A400000BFFEE77047000070B5002100230F22B1
:100A5000C4781CB3174C246804F4E064C4F5E06463
:100A6000C4F30721C1F10404E3B20A4144789C4075
:100A7000E1B28478144021430C07210E0E4C057816
:100A80006155047804F01F050124AC4005786D1110
:100A9000AD0005F1E025C5F8004109E0047804F057
:100AA0001F050124AC40054D0678761145F8264017
:100AB00070BD00000CED00E000E400E080E100E02B
:100AC0000146002902DD01F214507047002902DAC4
:100AD000A1F21450F9E70846F7E7034618468842A2
:100AE00000DD0846904200DA10467047704700006B
:100AF0000246881A00EE100AB8EEC00A294880EDB6
:100B0000000A294890ED000A2648D0ED000A30EE90
:100B1000200A254880ED000A90ED000ADFED230A47
:100B2000B4EEE00AF1EE10FA03DD9FED200A80ED4D
:100B3000000A1D4890ED000ADFED1D0AB4EEE00A40
:100B4000F1EE10FA03D29FED1A0A80ED000A154863
:100B500090ED000ADFED170A20EE200A1248D0EDD2
:100B6000000A9FED151A01EE200A0E48D0ED000A8A
:100B7000124890ED001A70EEC10A9FED111A01EEB5
:100B8000200A104880ED000A064890ED000A0B4844
:100B900080ED000A0B4890ED000ABDEEC00A10EE91
:100BA000100A7047480000205000002000007A44DE
:100BB00000007AC4CDCC0C40F4FD543C540000201D
:100BC000CDCC4C3D4C00002029B1064A12680243AE
:100BD000044B1A6004E0034A12688243014B1A6016
:100BE000704700003038024029B1064A12680243BB
:100BF000044B1A6004E0034A12688243014B1A60F6
:100C0000704700004038024029B1064A126802438A
:100C1000044B1A6004E0034A12688243014B1A60D5
:100C2000704700002038024029B1064A126802438A
:100C3000044B1A6004E0034A12688243014B1A60B5
:100C4000704700004438024029B1064A1268024346
:100C5000044B1A6004E0034A12688243014B1A6095
:100C600070470000243802401448006840F001003A
:100C70001249086000201149083108600F480068D7
:100C80000F4908400D4908600E48091D08600E48CC
:100C90000A49843108600B481038091D086007486C
:100CA000006820F4802005490860002003490C31C9
:100CB000086002498C31086070470000003802402B
:100CC000FFFFF6EA1030002400300020F0B50021CC
:100CD00000220024022500260223324F3F6807F03D
:100CE0000C0121B1042905D0082937D105E02E4F88
:100CF000076036E02D4F076033E02A4F3F1F3F6803
:100D0000C7F38056274F3F1F3F6807F03F036EB180
:100D1000264FB7FBF3F7DFF88CC0ACF1040CDCF81E
:100D200000C0CCF3881C07FB0CF40CE01E4FB7FB93
:100D3000F3F7DFF870C0ACF1040CDCF800C0CCF3C2
:100D4000881C07FB0CF4174F3F1F3F68C7F3014790
:100D50007F1C7D00B4FBF5F7076002E0124F0760CF
:100D600000BF00BF0F4F3F6807F0F0010909104FA7
:100D70007A5C0768D74047600A4F3F6807F4E05144
:100D8000890A0B4F7A5C4768D7408760054F3F68F8
:100D900007F46041490B064F7A5C4768D740C7604B
:100DA000F0BD0000083802400024F40000127A0070
:100DB0002400002010B501460022002300204A1123
:100DC000012A02D10A4C236808E0022A03D1084C08
:100DD0007034236802E0064C7434236801F01F026B
:100DE000012494401C400CB1012000E0002010BD03
:100DF000003802400248006800F00C007047000014
:100E00000838024001460020034A106820F0F00034
:100E10000843106070470000083802400021024A71
:100E200011701146087070470238024001460020D8
:100E3000034A106820F4E050084310607047000037
:100E40000838024001460020034A106820F4604040
:100E500040EAC10010607047083802400149086646
:100E6000704700000000474270B5049C41EA8215BB
:100E70000126C6EB530645EA0645054345EA0465E7
:100E8000014E356070BD000004380240014600206C
:100E9000034A106820F00300084310607047000008
:100EA0000838024038B5002000900024002500BF1B
:100EB0003120FFF77FFF05460098401C0090009806
:100EC000B0F5A04F01D0002DF2D03120FFF772FF16
:100ED00008B1012400E00024204638BD014611B1CC
:100EE000012908D103E0064A126810B205E0054A5C
:100EF000126810B201E0002000BF00BF7047000080
:100F00002404004024080040704700000CB5002075
:100F1000019000903448006840F480303249086005
:100F200000BF3148006800F4003000900198401C78
:100F30000190009818B90198B0F5A04FF1D12A4856
:100F4000006800F4003010B10120009001E00020A2
:100F500000900098012846D123484030006840F0B6
:100F600080502149403108602048006840F44040EA
:100F70001E4908601C48083000681B490831086099
:100F80000846006840F4004008600846006840F4E5
:100F9000A05008601648091F0860081F006840F04C
:100FA0008070091F086000BF0F48006800F00070E3
:100FB0000028F9D040F205700E4908600A48083050
:100FC000006820F0030008490831086008460068FE
:100FD00040F00200086000BF03480830006800F0DD
:100FE0000C000828F8D10CBD003802400070004009
:100FF00019544007003C024000B503460A4623B995
:1010000000201B490860091D08602AB90020184902
:1010100008310860091D0860002B09DD184600F042
:10102000E1FE1349091D08600020091F086008E05F
:1010300000200F49091D0860184600F0D3FE0C4936
:101040000860002A09DD104600F0CCFE084908318E
:1010500008600020091D086009E0002004490831EB
:101060000860104600F0BEFE01490C31086000BD6A
:1010700034040140042808D14FF0E021096941F00F
:1010800004014FF0E022116107E04FF0E02109690F
:1010900021F004014FF0E0221161704710B500F01B
:1010A000DFFC10BD08B5FFF7DFFD0120FFF7B6FE3E
:1010B000FFF7F8FE012830D10520FFF7DDFB012006
:1010C000FFF7C8FB0120FFF7B3FB0120FFF79EFBF2
:1010D0000020FFF797FE4FF4A050FFF7A7FE4FF454
:1010E0008050FFF7AFFE072002234FF4A8720821BB
:1010F0000090C804FFF7B8FE0120FFF7AFFE00BF65
:101100003920FFF757FE0028FAD00220FFF7BEFE75
:1011100000BFFFF76FFE0828FBD108BD10B51548CA
:10112000006840F47000134908601348006840F0FC
:1011300001001149086000200F49083108600E487D
:1011400000680E4908400C4908600D48091D0860F8
:10115000081F006820F48020091F0860002006494D
:101160000C310860FFF7D2FE4FF000600149803972
:10117000086010BD88ED00E000380240FFFFF6FE79
:1011800010300024F0B50C46154600210022068CD4
:101190004FF6FE773E400684018B028C4FF60C76AC
:1011A00031407E1C06EA03162E4331434FF6F57696
:1011B000324044F00106324301830284F0BDF0B5B1
:1011C0000C461546002100220026078C4FF6EF7CC6
:1011D00007EA0C070784018B028C4FF6FF7707EABA
:1011E000041640F6FF4739404FF6FF7707EA03370A
:1011F00039434FF6FF7707EA052739434FF65F7704
:101200003A4046F010073A4301830284F0BDF0B53E
:101210000C461546002100220026078C4FF6FF6C75
:1012200007EA0C070784818B028C4FF6FF7707EAE9
:1012300004264FF60C7739404FF6FF7707EA03177D
:101240002F4339434FF2FF573A4046F480773A43F1
:1012500081830284F0BDF0B50C46154600210022C2
:101260000026078C4EF6FF7C07EA0C070784818B6B
:10127000028C4FF6FF7707EA043640F6FF47394005
:101280004FF6FF7707EA052739434FF6FF7707EA5E
:101290000337394345F6FF773A4046F480573A43DF
:1012A00081830284F0BD0000044800880348008860
:1012B00020F0010001490880704700001004004040
:1012C000044800880348008820F001000149088094
:1012D000704700001008004010B50121254800F0BB
:1012E0009EF9002845D00121224800F090F8002006
:1012F000FFF7F4FD00B2204908800120FFF7EEFD62
:1013000000B21E4908801E48B0F900101A48B0F912
:101310000000FFF7EDFB1B4908601B48B0F9001007
:101320001648B0F90000FFF7E3FB184908601548BC
:101330000068FFF7C5FB1349086014480068FFF711
:10134000BFFB12490860124A51420E480068FFF77D
:10135000C4FB0C4908600E4A51420C480068FFF774
:10136000BCFB0A4908600846016806480068FFF7A8
:1013700043FE10BD001400400600002008000020BD
:101380000A000020400000200C0000204400002043
:101390003CF6FFFF1FB501212020FFF725FC42F29C
:1013A000CF00ADF804006320029001A90F4800F0BF
:1013B0000BFB01210D4800F027F8012211460B48D4
:1013C00000F07EF937208DF8000000208DF8010034
:1013D00001208DF802008DF803006846FFF734FB0A
:1013E0000121024800F016F81FBD00000014004063
:1013F00021B1028842F08002028004E002884FF6A8
:101400007F731A4002807047CA4302827047CA4302
:101410000282704721B1028842F00102028004E09A
:1014200002884FF6FE731A400280704731B1B0F85F
:10143000442042F40042A0F8442005E0B0F84420E3
:10144000C2F30E02A0F844207047000010B5044615
:101450005548844208D101210846FFF7F5FB0021D9
:101460000120FFF7F1FB9DE0B4F1804F08D101218D
:101470000846FFF7C9FB00210120FFF7C5FB91E0FB
:101480004A48844208D101210220FFF7BDFB002118
:101490000220FFF7B9FB85E04548844208D10121CD
:1014A0000420FFF7B1FB00210420FFF7ADFB79E03A
:1014B0004048844208D101210820FFF7A5FB002104
:1014C0000820FFF7A1FB6DE03B48844208D10121D1
:1014D0001020FFF799FB00211020FFF795FB61E03A
:1014E0003648844208D101212020FFF78DFB0021DE
:1014F0002020FFF789FB55E03148844208D10121C3
:101500000220FFF7A1FB00210220FFF79DFB49E02D
:101510002C48844209D101210804FFF795FB0021E2
:101520004FF48030FFF790FB3CE02748844209D11C
:1015300001214804FFF788FB00214FF40030FFF73A
:1015400083FB2FE02148844209D101218804FFF761
:101550007BFB00214FF48020FFF776FB22E01C4844
:10156000844208D101214020FFF74EFB002140209A
:10157000FFF74AFB16E01748844208D1012180207A
:10158000FFF742FB00218020FFF73EFB0AE01248F4
:10159000844207D101218015FFF736FB0021A015F9
:1015A000FFF732FB10BD00000000014000040040C6
:1015B00000080040000C00400010004000140040F3
:1015C0000004014000400140004401400048014047
:1015D00000180040001C004000200040F0B50C4600
:1015E00015461E460021002200230189028B038C30
:1015F0004FF6F877394021434FF6FC473A4040F226
:1016000001173A434FF6DD773B404FF6FF7707EA85
:1016100006172F433B43018102830384F0BD30B59D
:101620000246002000230024158A05EA010395895B
:1016300005EA010413B10CB1012000E0002030BD27
:1016400070B505460C46208850B92389A288618868
:101650002846FFF797FDE188284600F088F925E045
:10166000208804280AD12389A28861882846FFF7A8
:10167000A6FDE188284600F083F917E020880828B5
:101680000AD12389A28861882846FFF7C0FDE18836
:10169000284600F082F909E02389A288618828465B
:1016A000FFF7D9FDE188284600F080F970BD0021E0
:1016B00001804180012181800021C180018170472A
:1016C0001AB183890B43838102E083898B43838131
:1016D0007047000070B5002400220023058C4FF6EF
:1016E000FE7635400584028C8388048B4FF68F7517
:1016F0002C40B51E2C400D882C43751E2A408D8928
:101700002A434D882A43104DA84202D00F4DA842CB
:1017100013D14FF6F7752A40CD892A434FF6FB7552
:101720002A408D882A434FF6FF652B404FF6FF5520
:101730002B400D8A2B434D8A2B43838004838D6875
:101740004563028470BD00000000014000040140B8
:101750000A460021018B4FF6F773194011430183AC
:101760007047000070B5002400220023058C4FF65E
:10177000EF7635400584028C8388048B48F6FF752C
:101780002C404FF6FF452C400D884FF6FF7606EAB9
:1017900005252C434FF6DF752A408D8906EA05158D
:1017A0002A434D8806EA05152A43154DA84202D062
:1017B000144DA8421DD14FF67F752A40CD894FF6B2
:1017C000FF7606EA05152A434FF6BF752A408D8835
:1017D00006EA05152A434FF6FF352B404FF2FF75F9
:1017E0002B400D8A06EA85052B434D8A06EA8505BE
:1017F0002B43838004838D688563028470BD000061
:1018000000000140000401400A460021018B4FF214
:10181000FF7319404FF6FF7303EA02231943018354
:101820007047000070B5002400220023058C4FF69D
:10183000FF6635400584028C8388848B4FF68F7554
:101840002C404FF6FC752C400D882C434FF6FF556D
:101850002A408D894FF6FF7606EA05252A434D88F2
:1018600006EA05252A43154DA84202D0144DA84288
:101870001DD14FF2FF752A40CD894FF6FF7606EA5B
:1018800005252A434FF6FF352A408D8806EA0525AF
:101890002A434EF6FF752B404DF6FF752B400D8AFF
:1018A00006EA05152B434D8A06EA05152B4383806E
:1018B00084838D68C563028470BD00000000014010
:1018C000000401400A460021818B4FF6F77319404E
:1018D000114381837047000070B50022002300246B
:1018E000058C4EF6FF7635400584038C8488828B08
:1018F00048F6FF752A404FF6FF452A400D884FF6FF
:10190000FF7606EA05252A434DF6FF752B408D89A3
:1019100006EA05352B434D8806EA05352B430A4D6B
:10192000A84202D0094DA84208D14BF6FF752C40C1
:101930000D8A4FF6FF7606EA85152C438480828354
:101940008D680564038470BD0000014000040140FF
:101950000A460021818B4FF2FF7319404FF6FF7347
:1019600003EA022319438183704741627047028B67
:101970004FF6F3731A400283028B0A4302837047C7
:10198000028B4FF2FF331A400283028B4FF6FF7334
:1019900003EA01231A4302837047828B4FF6F373E5
:1019A0001A408283828B0A4382837047828B4FF274
:1019B000FF331A408283828B4FF6FF7303EA0123C1
:1019C0001A4382837047000000220288184B984215
:1019D0000ED0184B98420BD0B0F1804F08D0164B68
:1019E000984205D0154B984202D0154B984204D12D
:1019F0004FF68F731A404B881A43124B984207D008
:101A0000114B984204D04FF6FF431A400B891A43FA
:101A100002804B68C3620B880385054B984202D055
:101A2000044B984201D18B7A03860123838270474D
:101A30000000014000040140000400400008004094
:101A4000000C004000100040001400404FF0FF3137
:101A50004160002101800181418081727047000056
:101A60000448006820B103480068401E014908602E
:101A7000704700000000002010B5002440F22551FE
:101A8000054800F034F830B1034800F0C5F8C4B29E
:101A9000204600F003F810BD0044004010B5044695
:101AA00000BF8021044800F015F80028F9D0214635
:101AB000014800F0B6F810BD0044004021B1828911
:101AC00042F40052828104E082894DF6FF731A408D
:101AD0008281704702460020B1F5007F00D100BF2F
:101AE00013880B400BB1012000E00020704770B557
:101AF0000246002400230025002040F66A16B14269
:101B000000D100BFC1F3421501F01F03012606FA00
:101B100003F3012D02D19689334006E0022D02D154
:101B2000168A334001E0968A33400C12012606FAE9
:101B300004F41688344013B10CB1012000E00020F9
:101B400070BD00002DE9FF4705460E460024A14662
:101B500000BFA046B08900B100BF2C8A24F44054D5
:101B6000F08804432C82AC8941F20C608443B08835
:101B700031890843718908430443AC81AC8A24F459
:101B80004074B0890443AC826846FFF79FF8204850
:101B9000854202D01F48854202D1DDF80C9001E059
:101BA000DDF80890A88900F4004040B109EBC900B5
:101BB00000EB091031684900B0FBF1F707E009EBD1
:101BC000C90000EB091031688900B0FBF1F764200F
:101BD000B7FBF0F004012009642101FB1078A8890B
:101BE00000F4004040B1322000EBC800B0FBF1F03F
:101BF00000F00700044308E0322000EB08106421E5
:101C0000B0FBF1F000F00F0004432C81BDE8FF872A
:101C1000001001400014014001468888C0F308000C
:101C20007047C1F308028280704700BFFEE730387A
:101C30000A2801D2012070470020704700BF70477A
:101C400010B50220FEF70EFDFFF72CFA00F016F893
:101C5000FEF78EFEFEF7AAFE4FF4E13000F0CAF860
:101C6000FEF794FC00214FF4D250FEF7A7FCFEF7DC
:101C70000FFDFEF76BFDFFF78DFB10BD10B50E4895
:101C800000680E49B0FBF1F0C4B26FF00400FFF73A
:101C9000F1F9E11704EB5171C910094A11701046AE
:101CA000007800EB4001C1EBC0104FF6FF7101EA74
:101CB000C0000449088010BD1000002040420F0001
:101CC000340000203600002001460D4A12884A43A5
:101CD0004FF0E0235A6100229A6101221A6100BF8D
:101CE0004FF0E022106900F001021AB100F48032D6
:101CF000002AF5D000224FF0E0231A619A61704764
:101D00003600002000BF054A128802F04002002A77
:101D1000F9D0C2B2014B1B1D1A807047004400402D
:101D2000FFF78EFF41E02148B0F900202048B0F9CC
:101D3000001020A0FEF79EFAC820FFF7C5FF012083
:101D4000FEF74CFEA8B11FA0FEF794FA21480068E8
:101D500008B9012000E000201E4908601E480078F4
:101D6000401C1D49087008460078042801DB00204B
:101D7000087019480078012806D14EF684201749CA
:101D800008801749088010E013480078032806D11E
:101D90004EF66C60114908801149088005E04EF646
:101DA00078400E4908800E490880BCE708000020F2
:101DB000060000204C3A2025640920523A20256470
:101DC0000A0000006B65792070757420646F776E6F
:101DD0000D0A0000B0824142040000200A000020E9
:101DE0000C0000200146002901DA484200E00846C4
:101DF0007047000010B588B0044601214804FEF782
:101E0000F3FE01210846FEF7DFFE072202212248E9
:101E1000FEF780FD072203211F48FEF77BFD02200D
:101E20008DF81C0000208DF81E0001208DF81F0089
:101E300002208DF81D000820069006A91648FEF71E
:101E400021FD0420069006A91348FEF71BFD02940D
:101E50000020ADF80C00ADF80E00ADF81000ADF8A4
:101E600014000820ADF8120002A90C48FFF76AFE22
:101E700001210A48FFF722FE26208DF804000020E9
:101E80008DF8050001208DF806008DF8070001A8E7
:101E9000FEF7DAFD08B010BD00000240004400402B
:101EA0004FF04070E1EE100A70470000CC1E0008B1
:101EB0000000002058000000C4010008241F000892
:101EC0005800002060060000E0010008000000004B
:101ED00000001027102778EC78EC0000007A030A45
:101EE00000000000000000000102030406070809CA
:101EF00000000000010203040102030406070809B0
:101F000000000000000000000000000000000000D1
:101F100000000000000000000000000000000000C1
:041F200000000000BD
:040000050800018965
:00000001FF
